:020000041000EA
:1000000000B5324B212058609868022188439860DF
:10001000D860186158612E4B002199600221596106
:100020000121F02299502B49196001219960352056
:1000300000F044F80222904214D00621196600F024
:1000400034F8196E01211966002018661A6600F04E
:100050002CF8196E196E196E052000F02FF8012189
:100060000842F9D1002199601B49196000215960AB
:100070001A491B48016001219960EB211966A021F2
:10008000196600F012F800219960164914480160C1
:100090000121996001BC002800D000471248134993
:1000A000086003C880F30888084703B5996A0420EC
:1000B0000142FBD001200142F8D103BD02B5186610
:1000C0001866FFF7F2FF186E186E02BD00000240BE
:1000D000000000180000070000035F00212200005C
:1000E000F4000018222000A00001001008ED00E03C
:1000F00000000000000000000000000074B24E7A12
:1001000000200420F7010010C3010010C5010010F9
:10011000C1010010C1010010C1010010C101001097
:10012000C1010010C1010010C1010010C701001081
:10013000C1010010C1010010C9010010CB01001065
:10014000CD010010CD010010CD010010CD01001037
:10015000CD010010CD010010CD010010CD01001027
:10016000CD010010CD010010CD010010CD01001017
:10017000CD010010CD010010CD010010CD01001007
:10018000CD010010CD010010CD010010CD010010F7
:10019000CD010010CD010010CD010010CD010010E7
:1001A000CD010010CD010010CD010010CD010010D7
:1001B000CD010010CD010010CD010010CD010010C7
:1001C00000BE00BE00BE00BE00BE00BE00F04BF888
:1001D000103800BEF2EB8871004F0010204F001065
:1001E0003402001090A31AE700202149086006C8D5
:1001F00081F3088810471F48006800282FD10DA4FC
:100200000ECC002902D000F012F8F9E71A491B4A77
:10021000002000E001C19142FCD1194988471949E9
:1002200088471949884700BEFDE701C901C29A42C3
:10023000FBD37047204F0010C00000206C0200204C
:10024000CC5000100000042000000420CC5000100E
:1002500000100420001004200000000070470B482C
:1002600002F08EFE0047EFF30580C0B27047000039
:1002700008ED00E0000000D07002002034060020ED
:10028000891500105703001045150010575600003F
:1002900006005250ABB36053B04E001006005250EF
:1002A000861C0302A84E0010060052505422A29D44
:1002B000C04E001005005250DE65F468CC500010AE
:1002C000F8B5C04606480749091A8B10C90FC91866
:1002D00010B5491003D0044B002B00D0984710BD37
:1002E0006C0200206C02002000000000054B10B5DD
:1002F000002B03D00449054800E000BFFFF7E2FFF0
:1003000010BDC04600000000F0030020584100105E
:1003100010B500F067F810BD01238340002903D019
:10032000D022120653627047D02212069362FAE777
:10033000D0231B065B68C34001201840704701238F
:100340008340002903D0D022120653617047D02287
:1003500012069361FAE710B500F002F8002010BD14
:100360001920FFF7D5FF1520FFF7D2FF1920012133
:10037000FFF7D2FF15200021FFF7CEFF0C4800F059
:100380005BFD00F001F8F9E700B51520FFF7D0FF9D
:10039000002800D00BE000B51920FFF7C9FF0028A6
:1003A00001D0002100E001211920FFF7C8FF00BDA6
:1003B0001E00000010B58300084A944663441A6882
:1003C00040246240803414408022520113431C6058
:1003D000C000034B9C466044416010BD04C0014016
:1003E0000040014010B501238340D02212069362E1
:1003F00093610521FFF7DEFF10BD0000EFF31080D1
:1004000072B6034B1B68002BFBD0BFF35F8F7047A6
:100410002C0100D0BFF35F8F024B00221A6080F3E3
:10042000108870472C0100D0F8B506000C001500AC
:10043000FFF7E4FFE308F718F15C072222400123ED
:1004400093400B4205D1DBB20B433B70FFF7E2FF59
:10045000F8BD2100280001F013F90000034B1B68D0
:1004600002201840431E9841C0B2704700C00640A9
:10047000002307E0054A9A189200BFF35F8F00211E
:10048000116001331F2BF5D97047C046400000347E
:10049000054A1078431CDBB21370172B02D91300E6
:1004A00010221A707047C046B001002070B50500D8
:1004B0000C00080000F00EFD200000F0F3FD0849DC
:1004C000200000F033FDFFF7E3FF064B9C4660443D
:1004D000800068602C75044BA400E55070BDC046D8
:1004E000E107001040000034080400200A4B1A689D
:1004F000EFF3108172B61368002BFCD0BFF35F8F4F
:10050000054B1B68BFF35F8F00221A6081F31088D0
:1005100040BF0020002170471C06002010B50029B4
:1005200020D003681B7B99421CD88368154CA446D5
:10053000614409015B181C685968002A18D00368D7
:100540001B7B9A4214D883680E4884466244120189
:100550009B181A685B6801208B4201D80ED00020DE
:10056000C0B210BD084B094A09483B2100F0EEFF1C
:10057000054B064A06483B2100F0E8FFA242EFD8AF
:10058000EDE7C046FFFFFF0FA0410010144400102C
:100590006C41001010B500291DD0037B99421AD878
:1005A00004684B005B18033BE418002919D0002AAB
:1005B0001DD0914221D0002A25D0037B9A4222D817
:1005C000006853009B18033BC318997021780029D9
:1005D0001FD1227010BD104B104A1148692100F044
:1005E000B5FF104B104A0E48703100F0AFFF0F4BB3
:1005F0000D4A0B48712100F0A9FF0D4B0A4A08482B
:10060000722100F0A3FF044B044A0548692100F061
:100610009DFF59702270DDE7D44100108044001026
:10062000F0410010344200105C44001040420010C1
:100630004C42001070B506000D001400002914D0C3
:10064000002A14D0436880689847002806D022000A
:1006500029003000FFF79EFF280007E02A00210054
:100660003000FFF797FF200000E0100070BD080089
:10067000FCE70000F0B583B00500009201930AABDF
:100680001C780BAB1F78002C26D003685A7B944251
:1006900007D10123002B19D1002C3AD1200003B03F
:1006A000F0BD002C0CD01A7B944209D81A68630064
:1006B0001B19033BD3189B78002BEBD00123E9E7F0
:1006C0003C4B3D4A3D48692100F040FF3C4B3D4AD0
:1006D0003D48652100F03AFF03689C7B002CDBD08D
:1006E00011D01A7B94420ED81A6861000919033997
:1006F000521851789973002900D1D973002393704F
:1007000053701370C8E72B4B2B4A2C48692100F01B
:100710001DFF002C37D02B681B7B9C4233D8AB6865
:100720002A4AA21812019B18009A1A60019A5A606C
:10073000089A9A60099ADA602E68002C29D02ED087
:10074000337B9C422BD8336862001219033A9B1802
:1007500000229A705A701A70717B22003000FFF7E5
:1007600069FF7073844299D1287D009A019B00F043
:1007700025FC061E01D0002F17D00C9B002B00D1AA
:100780008CE71E708AE7124B124A0F483B2100F09B
:10079000DDFE114B114A0948A62100F0D7FE054B9A
:1007A000054A0648692100F0D1FE2868210000F0C2
:1007B0004BFEE2E7D441001080440010F0410010ED
:1007C000644200108C4400106C410010FFFFFF0FCA
:1007D000A041001014440010684100107044001043
:1007E000F0B5DE4657464E464546E0B58BB009901B
:1007F00000230893B24B8200D55833E0B14BB24A84
:10080000B2483F2100F0A2FEB14BB24AB2483B21B0
:1008100000F09CFEB14BB24AAF488C2100F096FE2E
:10082000B04BAF4AAC48902100F090FEA84BAE4AC6
:10083000A948402100F08AFE43461A685B6809987F
:1008400000F0BCFB00239B469A466B68BFF35F8FAA
:1008500000221A6089F310885346002B53D10028D8
:1008600000D126E100F042FB02000B1EC6DB002097
:100870000021069007916868EFF3108972B601684D
:100880000029FCD0BFF35F8F2868447B002C35D053
:10089000BAD0017B8C42B7D8AE689449611809017F
:1008A000B046884441460E684F68B61A9F41002FF3
:1008B000C2DC01D1002EBFD1002100F0BBFDA0425F
:1008C000A8D143461A685B680692079343469B6823
:1008D0009A464346DB689B465346002BA0D0002C2B
:1008E000A4D02B681B7B9C42A0D8EA68631ED35C13
:1008F00008931B02184328610020A6E700239B46AB
:100900009A460020A1E7089B1B02234398465946BC
:100910001800D04706000F006A68EFF3108972B61E
:10092000136859424B41D9B2002BF9D1BFF35F8F05
:10093000002F26DB002F52DD2B69002B53D04345BF
:1009400072D100F0D3FA02000B1E73DB0100180015
:1009500092197B41984202D804D1914202D90122D6
:100960005242D317002B6BDB00210491013103911C
:10097000029459460191514600912800FFF77AFEF2
:1009800049E02B69002BD5D043451CD1069A079B23
:1009900010001900921BBB41994202D804D1904229
:1009A00002D901225242D317002B12DB00210491FD
:1009B000013103910294594601915146009128005A
:1009C000FFF758FE27E04A4B454A43489F2100F075
:1009D000BDFD3C4B3C4A3D483F2100F0B7FD002F98
:1009E00001D1002EA8D12A68002C44D0537B9C4210
:1009F0002CD1012100293ED1D37B002B41D1D473CE
:100A0000002C50D02B681B7B9C424CD8EA68013CE0
:100A1000135D0133135500232B616A68BFF35F8FA9
:100A2000136089F310881DE7314B2D4A2A48A22113
:100A300000F08CFD234B244A24483F2100F086FD22
:100A4000204B214A21483F2100F080FD002C0CD092
:100A5000137B9C4209D8106863001B19033BC31821
:100A60009B78002BC6D00121C4E7224B224A2348A1
:100A7000692100F06BFD224B224A2048F72100F04B
:100A800065FD002B09D0117B8B4206D810685900F8
:100A9000CB18033BC3185C70B1E7164B164A1748D6
:100AA000692100F053FD0A4B0F4A0B48402100F02A
:100AB0004DFD0BB0F0BCBB46B246A946A046F0BD0A
:100AC000080400208C420010E0430010A8420010EF
:100AD000A0410010144400106C410010E8420010C6
:100AE000F84300100043001038440010FFFFFF0FD0
:100AF0000C430010D441001080440010F04100105D
:100B0000484300104C44001010B50A4B5B68002BA2
:100B100004D009480A2100F0E5FA10BD054C074A47
:100B200020682300102100F0A9FB03212000FFF71B
:100B3000BDFCEEE7B40100201C0600201D050010DE
:100B400010B5064B5B68002B01D0044810BD044B68
:100B5000044A05485C2100F0F9FCC046B4010020BD
:100B60006C430010204400106C410010F0B5DE46CC
:100B700057464E464546E0B58BB0804616001F00EE
:100B8000149B9A46159B994616AB1B789B461F23D0
:100B900002AA9446634400221A7036E0002809D065
:100BA00042461268127B904204D84246D168421EE7
:100BB0008A5C4CE0454B464A4648402100F0C6FC62
:100BC0000798002B79D05B46002B76D04946D0475A
:100BD00004000D0003000B4300D175E000294ADB3F
:100BE00000F084F902000B1E59DB010018001219F5
:100BF0006B41984202D804D1914202D9012252425B
:100C0000D317002B51DB16001F0043465A68EFF341
:100C1000108472B6136859424B41D9B20791002B28
:100C2000F8D1BFF35F8F1F3302AA94466344049345
:100C30000023039302934B460193534600933200E3
:100C40003B004046FFF716FD031EA7D102004146B8
:100C50004968BFF35F8F00250D6084F31088002B77
:100C600029D01F2302A98C4663441B78002BA7D1EF
:100C700012021043A5E730003900361BAF41B942DC
:100C800002D804D1B04202D901267642F717002FCC
:100C9000BBDA114B114A12483F2100F057FC0E4BB2
:100CA0000E4A0F483F2100F051FC0B4B0B4A0C48F9
:100CB0003F2100F04BFC012040420BB0F0BCBB4692
:100CC000B246A946A046F0BD0798F6E7A04100103D
:100CD000384400106C4100108C420010E0430010BA
:100CE000A8420010F0B587B006000F00FFF7BBFA6E
:100CF00000281FD106246442E517A4197D41BD4296
:100D000002D803D1B44201D900240025002D14DB00
:100D10000494059500F0EAF802000B1E13DBA41AF8
:100D20009D41002D17DC14D03000390000F0EAF8A6
:100D300007B0F0BD234800F0A3FC234B234A24480E
:100D40003F2100F003FC204B204A21483F2100F0C6
:100D5000FDFB002CE8D0FFF7F3FE00230293019384
:100D60001C4B0093049A059BFFF700FF002818DA3C
:100D7000DAE7002300E00023002BD5D1164B1A68D8
:100D8000EFF3108172B61368002BFCD0BFF35F8FB6
:100D9000114B1B68BFF35F8F00221A6081F310882C
:100DA00020BF0499059A0D4B5B6A9A42E3D80B4821
:100DB000806A884203D29A42DBD00123DCE7012318
:100DC000DAE7C046904300108C420010E043001068
:100DD000A8420010ED0400101C0600200040054051
:100DE000F8B504000D0000F081F802000B1E10DBC6
:100DF00020002900801859418B4202D804D1824238
:100E000002D901204042C117002908DBFFF76AFF21
:100E1000F8BD064B064A07483F2100F097FB034BFD
:100E2000034A04483F2100F091FBC0468C42001069
:100E3000E0430010A842001010B5FA2292000023EF
:100E4000002102F035FFFFF7CBFF10BD70B5EFF3C7
:100E500005833F2018401038EFF3108C72B6184B02
:100E60001B68002BFBD0BFF35F8F0123190081406B
:100E7000144A5163144A12781400C440234213D018
:100E8000104B5C6A114B8500EB589C4205D3104B0C
:100E9000EB580D4C8A43227007E00A4A031D9B0061
:100EA00099589950002300E00023BFF35F8F044A54
:100EB000002111608CF31088002B00D0984770BD82
:100EC000280100D000400540320600202006002006
:100ED0007003002010B50100024A034B1800FFF711
:100EE000A3FA10BDA444001030060020044B5B6A36
:100EF000034A906A1900536A9942F9D17047C04673
:100F000000400540084B5B6A01E0074B5B6A8B427F
:100F1000FBD301E0044B5B6A8B4203D1024B9B6A1B
:100F20008342F7D37047C0460040054070B50400C7
:100F30000E00EFF3108572B61B4B1B68002BFBD025
:100F4000BFF35F8F002E1CD0200000F025FD174B53
:100F500083420BD01900200000F026FD0121200063
:100F600000F012FD0123A340114A1360114BA400AD
:100F7000E650BFF35F8F0C4B00221A6085F3108898
:100F800070BD0C4BA2000021D1500122A2400A49A1
:100F90000B7893430B700549200000F02FFD0021D2
:100FA000200000F0F1FCE4E7280100D04D0E001015
:100FB000386005407003002032060020F0B5DE46A0
:100FC00000B584B00400150001921E000293FFF7E3
:100FD0008DFF03958E4202D84ED185424CD9EFF356
:100FE000108B72B6274B1B68002BFBD0BFF35F8FB3
:100FF000254A17780125A540EBB23B431370234BDC
:101000005D63221D92000199D150214AA1000298EE
:1010100088501B6A2B4212D11C4B1B6C2B4208D0F0
:101020000020BFF35F8F174B00221A608BF31088EC
:1010300023E0184B184A1948C12100F087FAFFF73E
:1010400055FF8E4214D802D1039B834210D80E4B19
:101050001B78BB420ED00D4B1D625D631F222240E8
:10106000012393400E4A1360074B1F700120D8E7FD
:101070000020D6E70120D4E7012004B080BCBB46A5
:10108000F0BDC046280100D03206002000400540D7
:1010900020060020C844001028450010EC44001031
:1010A00080E200E0EFF3108C72B60B4B1B68002B54
:1010B000FBD0BFF35F8F01238340084A13620849C6
:1010C0000A789A430A70BFF35F8F034B00221A60BD
:1010D0008CF310887047C046280100D000400540BE
:1010E00032060020024B9C46614489000160704733
:1010F0004000003410B50400FFF7CAF901002000D9
:10110000FFF7F0FFFF232371BFF35F8F10BD10B512
:101110000400FFF7BDF901002000FFF7E3FFFF2304
:10112000237100236371BFF35F8F10BD10B50029D9
:101130001DD0037B99421AD804684B005B18033B0F
:10114000E418002919D0002A1DD0914221D0002A8C
:1011500025D0037B9A4222D8006853009B18033B9A
:10116000C3189970217800291FD1227010BD104B2F
:10117000104A1148692100F0E9F9104B104A0E4855
:10118000703100F0E3F90F4B0D4A0B48712100F06C
:10119000DDF90D4B0A4A0848722100F0D7F9044BDB
:1011A000044A0548692100F0D1F959702270DDE741
:1011B000D4410010C8460010F04100103442001025
:1011C000B4460010404200104C42001070B50600BA
:1011D0000D001400002914D0002A14D04368806840
:1011E0009847002806D0220029003000FFF79EFF14
:1011F000280007E02A0021003000FFF797FF2000B9
:1012000000E0100070BD0800FCE7000010B50023EE
:10121000437301338373037BC3730123027B9A42BD
:1012200013D9002B0BD0027B934208D801685A00D7
:10123000D218033A8A180133DBB25370EEE70C4B35
:101240000C4A0D48692100F081F9002A09D0924228
:1012500007D8016853009B18033BCB1800225A7033
:1012600010BD034B034A0448692100F06FF9C046E2
:10127000D4410010C8460010F041001010B50173B1
:1012800042608360FFF7C2FF10BD000070B504002C
:10129000081E00D170BD002931D0237B99422ED881
:1012A00022684B005B18033BD3185A78002AF1D010
:1012B0002BD0237B9A4228D8216853009B18033BEC
:1012C000CB185D7800215970002824D0237B9842E8
:1012D00021D8216843001B18033BCB18002159700B
:1012E00001002000FFF772FF060029002000FFF731
:1012F000CDFF020031002000FFF768FFCAE7094B6D
:10130000094A0A48692100F021F9064B064A0748B4
:10131000692100F01BF9034B034A0448692100F0DE
:1013200015F9C046D4410010C8460010F041001025
:1013300070B505000C001600002927D02CD0037BC7
:10134000994229D803684900091903395B185A786A
:10135000002A27D19A78002A2AD11978FFF796FF18
:101360000300002E03D0EA7B002A27D1EC73002B68
:1013700036D1002C47D02B7B9C4244D82A6863008E
:101380001B19033BD31800225A7070BD214B224A0F
:101390002248382100F0DAF8214B224A22486921FC
:1013A00000F0D4F8214B1C4A1C483A2100F0CEF83A
:1013B0001F4B194A19483B2100F0C8F8002A09D0F0
:1013C000297B8A4206D82E6851008A18033AB2183F
:1013D0005470CBE7124B134A1348692100F0B6F85A
:1013E000002B0AD02A7B934207D82A6843001B1897
:1013F000033BD31800229A70BBE7094B094A0A48FD
:10140000692100F0A3F8064B064A0748692100F05D
:101410009DF8C046D8450010A0460010E0450010D9
:10142000D4410010C8460010F041001014460010CE
:101430003C46001070B504000A00457B2900FFF708
:1014400077FF6073280070BD70B50400002966D076
:10145000437B8B420ED0002911D0037B99420ED8DA
:1014600005684B005B18033BED18AB78002B0CD1E3
:10147000002055E00121FFF7DDFF012050E0294B5E
:10148000294A2A48692100F061F8002B1FD0027B0D
:1014900093421CD800685A00D318033BC218C35C9F
:1014A0008B421AD0002B1BD0227B934218D8206885
:1014B0005A00D318033BC01843788B4216D0002B38
:1014C000F0D11B4B1B4A1C48672100F03FF8154B1D
:1014D000154A1648692100F039F86B78137007E057
:1014E000104B114A1148692100F030F86B784370B5
:1014F0000023AB706B7001222000FFF719FF020080
:10150000617B814205D02000FFF760FE60730120FF
:1015100006E00A4B074A08486D2100F017F8002042
:1015200070BDC046D4410010C8460010F041001004
:101530006046001088460010E04500106846001024
:1015400000BEFDE710B5FFF7FBFF000030B583B02C
:101550000D001900002A0DD0084B002A0CD0084CB1
:10156000019200932B000200200002F08FFD012069
:10157000FFF7E6FF034BF0E7024AF0E7D44600101E
:10158000E4460010E046001070B52B4B2B4A1A6061
:101590002B4B2C4A1A602C4B9A682A4B9343FAD156
:1015A0002A4C01E008CC9847294B9C42FAD300F022
:1015B00001F9234B274A1A60234B9B68DB43DB016D
:1015C000FAD1254B40229A675A671A67DA66234C8C
:1015D00009E0234B234A24488321FFF7B7FF20006B
:1015E000FFF788FD0834214B9C4209D22368002B69
:1015F000F5D0012BEDD12000FFF789FD0834F2E78B
:101600001B4DA9681B4CC022200002F011FCAC60ED
:10161000FEF729FE002800D000BEFEF729FF00F0EB
:101620003BFBFFF771FA144C01E008CC9847134BD1
:101630009C42FAD370BDC04600E00040BFCDFBFE27
:1016400000F00040FE7F3C0000C000405802002037
:1016500068020020FFFFFF0100F00140500200205F
:10166000144700108447001034470010580200202F
:1016700000ED00E000000020680200206C02002065
:101680000FB400B583B0084802F0CEFC049B002BD9
:1016900007D005A90191180002F0D6FC034802F01A
:1016A000C3FC0120FFF74CFF70470010804700107B
:1016B000F8B5DE4657464E464546E0B506000F00F3
:1016C00015000A9A93424ED31A0E92461B02984670
:1016D0000A9A00234046514601F0E8FC8146740016
:1016E000A419A4002E4B9C4664446368834200D234
:1016F0006060331FDBB29B46012B3AD9C0239B01AC
:101700002343802212011A60264BB200D1580029CF
:1017100005D0586901F088FC01300138FDD16D0118
:1017200023685D40E0222A4080235B0123431A6046
:101730005A46012A28D980239B0123438022120183
:101740001A604B4663604A4600234046514601F00A
:10175000ADFC144BB60098510120F0BCBB46B2461C
:10176000A946A046F8BD104B104A11482D21FFF79D
:10177000EDFE012FC2D1C0239B01234303221A6037
:10178000A368DB07FCD5CAE72168794003220A4039
:101790001A60A3680125BD401D42FAD0CBE7C046C0
:1017A000008000408003002094470010E8470010AC
:1017B000A847001030B583B00C2000F007FBFEF7FF
:1017C0004DFE00280DD0002304E02E4A99002E483B
:1017D00088500133092BF8D92A4B2C4A5A6203B09E
:1017E00030BD2B4B00229A6700F0F8FA294B0122FA
:1017F0001A60274B5B6C012BFBD1274B03221A602D
:10180000234B9B6B012BFBD1022400940533234A0D
:101810000121234800F04EFA00940523214A0121BA
:10182000214800F047FA214B0093002202210420B6
:10183000FFF73EFF1E4D00952B00002201210520E1
:10184000FFF736FF104C00942300002200210720F0
:10185000FFF72EFF00942300002200210820FFF74D
:1018600027FF0A4B00932300002200210920FFF7E5
:101870001FFF00952B00002200210620FFF718FF14
:10188000ADE7C04680030020006CDC021BB70000FF
:10189000008000403CB0004030B00040002F68594C
:1018A0000080024000389C1C00C00240001BB700B2
:1018B00040597307074B9B68103080001950BFF3E5
:1018C0005F8FBFF35F8F044B0021196082F3108894
:1018D0007047C04600ED00E0240100D010B5091AA1
:1018E00004394B08090B05D15B055B0D044818430F
:1018F00080B210BD034B044A04488B21FFF726FE3B
:1019000000E0FFFFF8470010FC49001008480010F5
:1019100010B5091A04394A08090B08D14905490DBF
:10192000064B0B430380064B1343438010BD054B0E
:10193000054A06489321FFF709FEC04600F0FFFF65
:1019400000F8FFFFF8470010D049001008480010C9
:1019500001238340034A10681840431E9841C0B2D7
:101960007047C04600E100E0002904D0034B186036
:10197000034B18607047034B1860FBE780E200E000
:1019800000E100E080E100E010B501238340180091
:10199000FFF7EAFF10BD0000024B9B68103080008B
:1019A000C058704700ED00E070B504000D00EFF383
:1019B000108672B60C4B1B68002BFBD0BFF35F8FF9
:1019C0002000FFF7E9FF094B984201D0A84205D15A
:1019D000320029002000FFF76DFF70BD044B054A5F
:1019E00005486E21FFF7B2FD240100D0CD010010A3
:1019F00040480010184A001008480010F0B5CE46C4
:101A0000474680B583B006000D00EFF3108872B62C
:101A1000574B1B68002BFBD0BFF35F8F554B9A6869
:101A200034001034A300D758534B9F4207D0AF4225
:101A300000D19BE00197514BFB1A2F2B09D942464D
:101A400039003000FFF736FF03B0C0BCB946B046DE
:101A5000F0BD3000FFF77CFF814600213000FFF72A
:101A600093FFBFF35F8FFEF7FEFB002801D0844297
:101A70001AD10123019C9C43404A414B2100891A01
:101A800049414B431B0D5BB29C460021A368AB420E
:101A900012D00622A256002A0DDB53009B189B0091
:101AA000364A2100D418F1E7364B374A1E21374811
:101AB000FF31FFF74BFD2100AB4250D106256557A2
:101AC000002D37DB2D4B6A00521992009B189A6843
:101AD000A260DA79E2719B795BB2A371002B10DA14
:101AE000BD200002A080254B6A00521992009B186D
:101AF000274A11789971157049463000FFF744FF65
:101B00009DE7201D6B005B199B001C4A9B18191D4B
:101B10009B88DA0A1C2A07D15B055B1502335B0040
:101B2000C918FFF7DBFEDDE71A4B1B4A174899215E
:101B3000FFF70CFD00280DD1002909D0FF238B7180
:101B4000164B8B80124B1A78A27162461A70D3E73B
:101B5000094FF7E71249201DFFF7DAFECCE7114BDA
:101B6000094AA92109484900FFF7F0FC024F66E73E
:101B7000240100D000ED00E0CD010010DC010020C8
:101B8000AAAA000054490010E849001008480010B3
:101B9000310600203C490010084A001000BDFFFF3C
:101BA000160200207849001070B504000126064393
:101BB0002D4BF31A2F2B28D8FEF755FB00282BD0DE
:101BC000EFF3108C72B6294B1B68002BFBD0BFF3D0
:101BD0005F8F254A264D2100891A49414D432D0D1D
:101BE0006DB2244B9B6880001B58B3421BD0002170
:101BF000032932D81C4B4A00521892009B189B793B
:101C00005BB2AB421FD00131F2E71B4B1B4A78217C
:101C10001B48FF31FFF79AFC1A4B184ABD211848A0
:101C20004900FFF793FC134B9B68174A1A50174B58
:101C30001A78A2711D70BFF35F8F0C4B00221A60DF
:101C40008CF3108870BD084B4A005018800018189B
:101C5000FF2686710E4A8280E9E70E4B074A8C21E7
:101C60000748FF31FFF772FCDC010020240100D09F
:101C7000AAAA000000ED00E080490010B44900105D
:101C800008480010A8490010CD01001031060020BE
:101C900000BDFFFF604600100022044B02E0044933
:101CA00002C30132072AFAD97047C04600E400E0B7
:101CB00080808080F0B5CE4600B504000E009146CD
:101CC0001F000C2001F0B0F9050043011B1A990117
:101CD000C91AC90009188901484601F0A5F902008E
:101CE000103A98235B009A4233D87B1E062B36D8D5
:101CF000069B013B062B32D8069B9F4235D34B46B1
:101D00001B09AB4237D33F04069B1D032F432368B7
:101D1000002B36DB234B9C4241D080235B01224ABF
:101D20001360224A1360224A926819009143FAD143
:101D30002660A060221DC0239B01134321221A604C
:101D40002268002AFCDAE76008221A6080BCB946E3
:101D5000F0BD184B184A19481621FFF7F7FB184B2E
:101D6000154A16481921FFF7F1FB164B124A134882
:101D70001F21FFF7EBFB144B0F4A10482221FFF7FE
:101D8000E5FB22683F231340B342C3D1A3681B0580
:101D90001B0D8342BED1E368002FBBD1D6E7802361
:101DA0009B01BCE700C0024000E0004000F00040A2
:101DB00000C00040344A0010084B0010504A001088
:101DC000884A0010D44A0010EC4A001080239B007F
:101DD0000343014AD362704700800540064BAA22A4
:101DE00012011A602F22DA60044B054A1A60024B76
:101DF0005B68002BFBDA7047004002400060024045
:101E000000B0FA00704710B5002802D00B6849688E
:101E1000984710BD0100002007E083001B185B00FD
:101E2000501C08601078C01830380A681378303BAE
:101E3000DBB2092BF1D97047F0B5DE4657464E4666
:101E40004546E0B583B093461F000C9B9A460D9C17
:101E50000E9B99460F9B9B0703D0B8460F000600C8
:101E600022E00192A34688464E46B9460700B44296
:101E700007D2551C4B4641462020B84701342A0062
:101E8000F5E73D004F465C46019B9B46B146464602
:101E9000B84637002E0007E0013C551C5346185D3C
:101EA00043463900B0472A00002CF5D135003E00EA
:101EB00047460F9B9B0707D4100003B0F0BCBB46FE
:101EC000B246A946A046F0BDB0464E46B9462F00E0
:101ED0005D46531BB342EFD2541C4B464146202073
:101EE000B8472200F5E7F0B5CE46474680B585B045
:101EF000944698460C9D0D9C0EAB1B789946109A03
:101F0000119B129EB7071CD4002B0CD0F7070AD5E3
:101F10004F46002F02D10C37374204D0013B02E07C
:101F200030272F550134944201D21F2CF8D9F707DE
:101F300007D59C4205D21F2C03D830272F550134DA
:101F4000F5E7F70615D5770505D4002C03D09442A4
:101F500024D09C4222D00F9A102A2BD00F9A102AFC
:101F600030D00F9A022A35D01F2C02D830222A55A1
:101F700001341F2C05D84A46002A31D02D222A557B
:101F80000134039602930194009543466246FFF79D
:101F900053FF05B0C0BCB946B046F0BD621E012C6F
:101FA00006D00F9F102F01D01400D4E7023CD2E7D7
:101FB0001400D0E7B206D1D41F2CCFD878222A55EE
:101FC0000134D1E7B206CCD51F2CCAD858222A55E5
:101FD0000134C9E71F2CC7D860322A550134C3E742
:101FE000720703D52B222A550134CAE73207C8D518
:101FF00020222A550134C4E7F0B5DE4657464E4646
:102000004546E0B593B081468A46089209931CABD9
:1020100010CB1B789B461E9D219B9846002C03D11C
:10202000102342469A4390468023DB0046461E40DA
:1020300042461A4212D0002C22D000260EE0303147
:10204000CBB2771C0AAA93552900200000F0ECFFC0
:10205000AC4216D31F2F14D83E00040029002000E4
:1020600000F0E2FFC9B20929E9D943469B0605D52C
:1020700041235B18DBB20A3BDBB2E2E76123F8E7FE
:10208000270043460693209B05931F9B04930395CB
:102090005B46029301970AAB0093099B089A51464D
:1020A0004846FFF720FF13B0F0BCBB46B246A94636
:1020B000A046F0BDF0B5DE4657464E464546E0B573
:1020C00095B0089009910A920B931E9E1F9C20AB1D
:1020D0001B789B46229B9946239D269B9A4633005C
:1020E000234303D1103352469A4392468023DB00A8
:1020F00057461F4052461A4219D0330023432DD071
:10210000002714E03032D3B27A1C90460CAAD35583
:102110004A462B003000210000F0C8FFA5421FD81E
:1021200019D043461F2B1BD8474606000C004A46D1
:102130002B003000210000F0B9FFD2B2092AE1D90A
:1021400053469B0605D541239B18DBB20A3BDBB205
:10215000DAE76123F8E7B145E3D901E000239846C7
:1021600053460693259B0593249B04934B46039368
:102170005B460293434601930CAB00930B9B0A9A78
:1021800009990898FFF7AFFE15B0F0BCBB46B24600
:10219000A946A046F0BD0000F0B5DE4657464E46C3
:1021A0004546E0B591B083468A460C9298461A9C03
:1021B00008941B9D099522002B002000290001F0A6
:1021C00004FA002800D0E5E001225242D74B20005B
:1021D000290001F0F5F9002800D0DBE0012252428D
:1021E000D34B2000290001F0D5F9002800D0D1E020
:1021F00000220023089E3000099D290001F0CAF941
:10220000002800D0DDE0089A099B069207938023FE
:10221000DB001E9A1A400D921E9A1A4201D1062323
:102220001C930698079904000D000A00060002435B
:1022300000D1D1E0080D4005400DBE4CA4466044DD
:102240000A03120BBC4B13431F0001F0D1F9BB4A28
:10225000BB4B01F05CF9BB4ABB4B01F031F9040008
:102260000D000022B94B3000390001F020F9B84AC6
:10227000B84B01F04CF902000B002000290001F0DE
:102280001FF901F0CDF9814601F0B2F904000D000B
:10229000B14AB24B01F03BF90022B14B01F010F909
:1022A00001F0BEF90600AF4AAF4B2000290001F053
:1022B0002EF904000D00300001F09AF9AB4AAC4B46
:1022C00001F025F902000B002000290001F0EFF8D1
:1022D00004000D0002000B0001F019F90A900B91A7
:1022E000A44BF31800261F0522002B002000290014
:1022F00001F0E6F80E900F9122002B0000208021C3
:10230000C90501F0D4F804000D0000229A4B0A9888
:102310000B9901F0DEF80022984B01F0D1F8020091
:102320000B000A980B9901F0D4F80022944B01F0AD
:10233000C7F802000B000A980B9901F0CAF80200D6
:102340000B002000290001F0BBF802000B000E98E2
:102350000F9901F0BEF80022774B01F0B1F832007E
:102360003B0001F0D4F806000F0004000D00069AAF
:10237000079B01F025F9002830D001235B429C46E1
:10238000E14400227D4B3000390001F0A2F8040046
:102390000D0023E01E9B04931D9B03931C9B029343
:1023A000089A099B0092019343460C9A514658465D
:1023B00000F0FCF811B0F0BCBB46B246A946A046FE
:1023C000F0BD0023002406930794069680231B0685
:1023D0009C46654407951AE7002399464B466333AC
:1023E000C62B1ED804261E9B1B0526D52B00234377
:1023F0000FD0644A644B0698079901F0D9F8002879
:1024000079D00022614B0698079901F0C3F80028A3
:1024100071D01C9B4B4506DD4A469B1A013B1C9321
:1024200003E00526DFE700231C938023DB001E9AD0
:102430001A431E920026002399461D9B9E4264D299
:102440009F1B02231E9A1A400A921E9A134202D020
:10245000002E00D000274B46002B07D022002B0077
:102460000698079901F035F806900791002200239D
:102470000898099901F08EF8002848D1444B1E9A1B
:102480001340049303971C9B0293069B079C0093A5
:10249000019443460C9A5146584600F087F8002EA6
:1024A00000D187E71E9B9B063DD54525441C43462E
:1024B000020051462800D8474A46D317D2185A403E
:1024C00005230593013E0496002303930A330293E8
:1024D0004B46DB0F0193009243462200514658467B
:1024E000FFF78AFD0A9B002B00D163E702005F46DD
:1024F0000C9E1D9D54E01C9B002B9ED00D9B002B21
:102500009BD01C9B013B1C9397E7002799E7069CF7
:10251000079D2200290080200006844661440B00AC
:1025200006920793AAE76525C0E7C046FFFFEF7F45
:10253000FFFFEFFF01FCFFFF0000F03FFB799F5022
:102540001344D33FB3C8608B288AC63F0000F83FCE
:1025500061436F63A787D23F71A379094F930A4004
:102560000000E03F1655B5BBB16B0240EF39FAFEF3
:10257000422EE63FFF03000000002C4000002440F4
:10258000000018402D431CEBE2361A3F80842E4198
:10259000FFF7FFFF541C434651462020B847220056
:1025A000931BAB42F6D3100004E7C046F0B5DE46FD
:1025B00057464E464546E0B595B00690079193467E
:1025C0009946209F1E9A1F9B1000190000F0FDFFE6
:1025D000002831D101225242BF4B1E981F9900F0B2
:1025E000D9FF002837D101225242BC4B1E981F99B7
:1025F00000F0E6FF00283DD10022B94B1E981F993C
:1026000000F0DEFF002850D10022B64B1E981F9923
:1026100000F0C0FF002848D1002200231E981F9917
:1026200000F0B8FF002850D100239846229B5B059C
:1026300000D4B6E0002458E0229B0393219B029330
:1026400003230193A84B00934B465A4607990698DB
:10265000FFF7F2FB0EE1229B0393219B02930423DD
:102660000193A24B00934B465A4607990698FFF7F1
:10267000E3FBFFE00423229A1A4022990B4210D078
:102680009B4B002A0FD00422229903912199029199
:10269000019200934B465A4607990698FFF7CCFBE8
:1026A000E8E0944BEDE70322EEE7229B0493219BA5
:1026B000039302971E9B1F9C009301944B465A461E
:1026C00007990698FFF768FDD4E01E9A1F9B00202B
:1026D000002100F0ECFE1E901F9101239846A5E713
:1026E0000CAB30221A55013F01341F2C01D8092FA1
:1026F000F6D81E981F9900F093FF050000F078FFB0
:1027000002000B001E981F9900F0D1FE7A4BFA00D0
:102710009B181A685B680A920B9300F0F8FE089009
:10272000099100F0A1FF060000F05EFF02000B001F
:102730000898099900F0BBFE0890099100226F4BA0
:1027400000F03EFF00282ED00136300000F04CFF94
:1027500002000B000A980B9900F022FF002801D01C
:1027600001350026002F2CD1280000F041FF020087
:102770000B001E981F9900F09AFE06000F00002221
:102780005E4B00F007FF002846D100225B4B300073
:10279000390000F015FF00283ED1EB073CD501358C
:1027A0003AE0062746E70022544B0898099900F0C2
:1027B000F1FE0028D6D1002E01D0F307D2D5013684
:1027C000D0E7AA461F2C11D8013F0A21300000F0A3
:1027D0002BFC651C30310CAB19550A21300000F080
:1027E00023FC092E0ED906002C00EBE755461F2CC2
:1027F0000CD87B1E002F09D00CAA302111551F00C8
:102800000134F4E72B0055461C00F0E71F2C03D8D9
:102810000CAB2E221A5501341F2C10D80A21280087
:1028200000F0DAFB661C30310CAB19550A21280088
:1028300000F0D2FB051E01D03400EDE73400032385
:10284000229A1340012B1CD01F2C06D84346002B84
:1028500032D00CAB2D221A550134229B0393219BBD
:10286000029301940CAB00934B465A460799069885
:10287000FFF7E2FA15B0F0BCBB46B246A946A04647
:10288000F0BD219B002B13D04346002B02D10C330B
:1028900013420FD0219B013B2193190003E00CABA5
:1028A00030221A5501348C42CED21F2CF7D9CBE7F7
:1028B0002199F8E72199F6E7229B5B0704D50CAB39
:1028C0002B221A550134C8E7229B1B07C5D50CAB38
:1028D00020221A550134C0E7FFFFEFFFFFFFEF7F13
:1028E00065CDCD4165CDCDC1204B0010244B0010EE
:1028F000144B00101C4B0010C84C00100000E03FAF
:10290000F0B5DE4657464E464546E0B593B08246A2
:102910008B4690461193002900D100E300275446CE
:10292000119B1878002800D1FCE2252809D07D1CD5
:1029300043463A005946A047119B013311932F009B
:10294000EEE7013311930025119A11780B00203B1B
:10295000D8B2102803D88300C248C3589F460B0042
:10296000303BDBB2092B2CD92A292FD000230A9324
:10297000119B1A782E2A39D000239946119A137880
:10298000683BD9B2122976D88B00B749CB589F46FD
:1029900001231D4301321192D6E702231D43013268
:1029A0001192D1E704231D4301321192CCE7082391
:1029B0001D4301321192C7E710231D4301321192CA
:1029C000C2E711A8FFF726FA0A90D1E71C9B1A1D4F
:1029D0001C921B68002B04DB0A93119B013311939B
:1029E000C6E7022215435B420A93F6E78022D20033
:1029F00015435A1C11925A781300303BDBB2092B55
:102A000004D92A2A07D000239946B7E711A8FFF76F
:102A100001FA8146B2E71C9B1A1D1C921B68002B11
:102A200004DB9946119B01331193A7E70023F8E7D4
:102A300080235B002B43511C119152786C2A01D0EA
:102A40001D0018E0C0239B001D430131119112E0CD
:102A500080232B43511C11915278682A01D01D000C
:102A600009E0C0231D430131119104E080235B0084
:102A70001D4301321192119B1878672816D825281A
:102A800026D30300253BDAB2422A21D89300774AA5
:102A9000D3589F4680239B001D4301321192EAE7E1
:102AA00080235B001D4301321192E4E778280FD8A0
:102AB00069280DD30200693AD2B2012393406C4ACF
:102AC00013420FD11A0600D503E25B0500D594E14D
:102AD0007D1C43463A005946A047119B0133119390
:102AE0002F001DE7782809D0622838D06F2838D009
:102AF000582838D010239D430A2600E01026582875
:102B000033D0692803D0642801D00C2295436A058C
:102B100001D50122954369282AD0642828D0AA0526
:102B200000D5A7E0EA0500D5C0E06A0600D4D2E0EF
:102B30001C9A111D1C911168FF220A4005950A9BE1
:102B400004934B460393029600230193009243465D
:102B50003A0059462000FFF74FFA070027E0022607
:102B6000CDE70826CBE71026C9E720221543C8E7A2
:102B7000AA0520D4EA0550D46A0666D51C9A111D10
:102B80001C911168FF220A40D01711184140059589
:102B90000A9B04934B4603930296D20F0192009135
:102BA00043463A0059462000FFF726FA0700119BDA
:102BB00001331193B4E61C9A073207218A431100AE
:102BC00008311C91116853689C46DB170C930D93D8
:102BD0000C9A0D9B100048400E90624653400F9394
:102BE0000E980F990C9A0D9B801A99410E900F9197
:102BF00008950A9B07934B4606930496002305937A
:102C00006346DA0F02920090019143463A0059461A
:102C10002000FFF74FFA0700C9E71C9A111D1C910D
:102C20001268D0171118414005950A9B04934B4632
:102C300003930296D20F0192009143463A005946FF
:102C40002000FFF7D9F90700B1E72A0605D51C9A3D
:102C5000111D1C910023D25E96E71C9A111D1C9138
:102C6000126891E72C4B0010704B0010BC4B001009
:102C7000419000001C9A073207218A431100083155
:102C80001C9108950A9B07934B46069304960023D4
:102C900005930293536812680092019343463A00E9
:102CA00059462000FFF706FA070080E71C9A111D1D
:102CB0001C9105950A9B04934B46039302960023AF
:102CC00001931368009343463A0059462000FFF7EA
:102CD00093F907006BE72A0606D51C9A111D1C9173
:102CE00012681204120C29E71C9A111D1C9112681B
:102CF00024E746281AD01C9B0733072293431A0067
:102D000008321C9204950A9A03924A4602921A6863
:102D10005B680092019343463A0059462000FFF752
:102D200045FC0700119B01331193F9E520231D4356
:102D3000E1E7672801D0472802D180231B011D430A
:102D4000452801D0472801D120231D431C9B073370
:102D5000072293431A0008321C9204950A9A0392A0
:102D60004A4602921A685B680092019343463A0011
:102D700059462000FFF710FA0700119B0133119309
:102D8000CEE502231A002A4092462B421FD001258D
:102D90001C9B1A1D1C927A1C9146187843463A00D7
:102DA0005946A0475346002B16D1119B013311936E
:102DB0004F46B5E5561C434659462020B8472B00E0
:102DC00032005D1C9C42F5D83C001700E0E701236F
:102DD0003A0027000A9CF4E74A46A1460A9C06E00E
:102DE000571C434659462020C84735003A006E1C00
:102DF000AC42F5D84C469146D7E71C9B1A1D1C9255
:102E00001E684B46002B00D1013B310001E001312F
:102E100013000A78002A02D05A1E002BF7D1891B12
:102E200010918023DB002A001A4092461D4203D0F5
:102E3000494501D94B46109302231A002A400B92B0
:102E40002B4205D03A00574623004C46994620E0D5
:102E50003A00109B5F46B346260006E0541C4346EA
:102E600039002020B0472B0022005D1C0A999942AE
:102E7000F4D834005E46BB461095574623004C46B6
:102E8000994606E01C000136551C43465946C84782
:102E90002A003078002804D0002FF4D0631E002CC4
:102EA000F0D117004C460B9B002B03D1119B013333
:102EB000119335E50A9F109B06E0561C4346594680
:102EC0002020A0472B0032005D1C9F42F5D8170040
:102ED000ECE721232B431C9A111D1C9112680593CA
:102EE000082304934B46039310230293002301937A
:102EF000009243463A0059462000FFF77DF807004C
:102F0000119B013311930BE57D1C43463A00594652
:102F10002520A047119B013311932F0000E50B4B97
:102F20009A46FBE4A246474502D343465A1E00E0B8
:102F30003A00434659460020D047380013B0F0BC51
:102F4000BB46B246A946A046F0BDC046051E0010CD
:102F500000B585B00290039101210448009313004D
:102F60004A4202A9FFF7CCFC05B000BD071E0010C5
:102F700001480421014B184730020020A12F001006
:102F800010B5010018231B8814221088984710BD23
:102F900010B5010018231B8816221088984710BD11
:102FA000F0B5C64600B507000E000025012398467F
:102FB00000E00135B5420AD2AC003C192068FFF7A9
:102FC000DFFF20600028F4D100239846F1E7404657
:102FD00080BCB846F0BD0000124A936F9B0815D222
:102FE0009066D166002905D0FFE7FFE7FFE7516F44
:102FF000106F704704B580210906C21751400028A0
:1030000000D0C84301F090F8002104BDF0B5146E63
:10301000556E576F166FFFF7E3FF146655665767D7
:103020001667F0BD000000D0114A936F9B0813D2C1
:1030300010665166002905D0FFE7FFE7FFE7516FF3
:10304000106F704704B5002801D00020C04301F084
:103050006BF8002104BDC046F0B5146E556E576F75
:10306000166FFFF7E5FF1466556657671667F0BDE4
:10307000000000D094464E4A926F9208624601D2F8
:1030800030E0C046F0B54A4EB56F6D08FCD3346EE3
:10309000756E776F366F00F025F89446444A1466D3
:1030A0005566576716676246F0BDC0469446404A6B
:1030B000926F9208624601D258E0C046F0B53C4E8D
:1030C000B56F6D08FCD3346E756E776F366F00F098
:1030D0004DF89446364A1466556657671667624639
:1030E000F0BDC046002B24DB11D000293EDA00B52C
:1030F000C943404200D1013100F038F8C943404291
:1031000000D10131DB43524200D1013300BD002A1E
:10311000EBD1002801D1002905D00020C90FC90733
:1031200001D1C043410800B500F0F6FF00220023A2
:1031300000BD00B500290ADBDB43524200D1013358
:1031400000F014F8C943404200D1013100BDC94329
:10315000404200D10131DB43524200D1013300F043
:1031600005F8DB43524200D1013300BD002923D1D1
:10317000002B18D1002A0CD0BC460D4F38667A6659
:1031800000210023FFE7FFE7FFE77A6F386F67460C
:103190007047002801D00748010000B500F0BCFFCF
:1031A0000022002300BD02000B0000200021704718
:1031B000000000D0FFFFFFFF002B00D0BFE0130C8A
:1031C00028D1002AE7D080B4114F39667A66FFE72C
:1031D000FFE730B4040C7B6F396F1B0423433B665D
:1031E0007A66FFE7FFE7FFE7C04684B27B6F3D6F7B
:1031F0001B0423433B667A66FFE7FFE7C0460023D4
:103200002C042D0C7A6F386F00196941B0BC7047DF
:10321000000000D0F0B594460025140E01D1120232
:103220000835140F01D112010435940F01D1920019
:103230000235D40F01D152000135D40B0134254F92
:103240007C66254C3C660E0C93B2FFE7FFE7FFE778
:103250003C6F6643360C7703BE467343DF0B5B045B
:10326000C01AB941130C7343DB18C91ACE08664360
:10327000360CB64493B273431F0F1B01C01AB941F9
:10328000130C73431F0B1B05C01AB941860D8F0227
:103290003E436643360C092D24DB520A7243801AE2
:1032A0007703460A6643360C16235B1BDE40DF407D
:1032B000BF1964466643821B70460435063301001D
:1032C000D940A840C01900D30131A24206D2002340
:1032D000F0BD0000000000D0FFFFFFFF121B013017
:1032E000F3D3F1E709277F1BFE406446A2B2724385
:1032F000801A00D20139220C7243130C1204821A74
:1033000099410B007046043513370100F940A8407D
:10331000801900D30131002B02D1A2420AD2F0BDA4
:10332000013000D30131121BFAD2013BF8D1A24285
:1033300000D2F0BD013000D30131121BF7E7F0B528
:103340001C0C00D080E00CB400251C0A04D11B0228
:10335000160E3343120208351C0B04D11B01160F45
:103360003343120104359C0B04D19B00960F334369
:1033700092000235DC0B02D192185B4101351C0032
:10338000971864410134464F7C66464C3C660E0CEF
:10339000FFE7FFE7FFE7C0463C6F6643360C770365
:1033A000BE4697B27743C01B00D20139C01B00D282
:1033B00001399FB27743C91BC91B170C77437E04A1
:1033C000FF0B801BB941CE086643360C0C2D33DB56
:1033D000B644120B1F053A431B0B97B27743C01B31
:1033E00000D201399FB27743C91B170C77433E04C3
:1033F0003F0C801BB941860D8F023E43664329274F
:103400007F1BFE400C3D7746AF40BF1930BCA2B2D7
:10341000ABB272437343801A9941220C7243130C6E
:103420001204801A994102000B000137001BA941C8
:10343000F9D2781E0021F0BD0C277F1BFE40774695
:103440007F0BAF40FF19E0E700245D1C07D0144F4D
:103450007D663966FFE7FFE7FFE7FFE73C6F95B260
:103460009EB265436643401BB141150C1E0C65437B
:10347000664336042F0C3E432D04401BB141994254
:1034800004D202000B0020000021F0BD01D19042C7
:10349000F7D3801A994101349942F2D3F6E700003C
:1034A000000000D0FFFFFFFF48404140484018B4F3
:1034B0001B4B5B68FC46019308BD04DF833700109B
:1034C00018B4174B1B68FC46019308BD00DF8D370D
:1034D00000109446134A926F920809D2624618B4BB
:1034E0000F4BDB68FC46019308BD0CDF453A00102A
:1034F0000C4AF0B5146E556E576F166F6246FFF7A3
:10350000EEFF084A1466556657671667F0BD18B493
:10351000034B9B68FC46019308BD08DFE9380010A7
:1035200018040020000000D0FFB550404240504039
:1035300059404B40594000E0FFB5154F4C00640D19
:1035400003D0BC4204D10C0314D80020090D090596
:103550005C00640D03D0BC4204D11C030AD80022D5
:103560001B0D1B0501264B4009D44B4003D58B4254
:1035700000D18242FFBD9942FCD19042FFBD0B4376
:10358000DB1803431343F5D0C9434918FFBD0000BE
:10359000FF07000000B5FFF7CFFF804100BDC04628
:1035A00000B5FFF7C9FF01D9002000BD012000BD13
:1035B00000B5FFF7B9FF01D9002000BD012000BD13
:1035C00000B5FFF7B1FF804100BD012040054A0072
:1035D000121804D85A00121801D800207047012090
:1035E00070470020704700000021002805D1704777
:1035F000C1174840401AFAD0C90713B5064B1B68DB
:1036000098470CBC441CA2401005120B0349091B2F
:1036100009051943114310BD180500201F040000BF
:1036200010B54C00620D8023D218DB00D21A5B0566
:103630007E2A10DD9E3A13DACC1709034908194394
:103640005242D140640001341532202A05DAD040BC
:103650000843604310BD002010BD0846604310BD04
:10366000C80FC018013810BD18B4044B5B6AFC4683
:10367000019308BD24DFF53B001000001804002072
:1036800070B513231C78012C14D0012C14DC022CEF
:1036900002DC1F4B1F4A93641F48FFF771FC1F4B4E
:1036A000186070BD1A491B4A9800815001331F2BC6
:1036B000F8D9EAE70023FAE71948FFF769FC0500A3
:1036C0001848FFF765FC023803789B007F2B19DD53
:1036D00010488022290000F0ABFB022CD7D1124BFE
:1036E0001A88B5231B029A4209D1104B1A88104B35
:1036F0009A4204D10F4B1A880F4B9A42C7D0002030
:10370000FDF7BEFF0D4B0E4A0E483221FDF71EFF9E
:1037100049370010180400204C3300001805002021
:10372000534400005346000054380000D8380000CD
:10373000494600009C38000059460000184D001012
:10374000BC4D0010784D001007B56046002800D130
:1037500000BE01880A0A0230DF2AFAD1C9B2820803
:1037600004D3028840880004104300E00068024A45
:103770005050039007BD0000180400200FB403BC94
:103780000CBCF0B50124E407634000E0F0B50C0D7B
:10379000CF0F661E3605891B640503D3C94340421B
:1037A00000D30131640D03D0661CF60A07D0E41B78
:1037B00000207F00791C89078912803C24031D0D9D
:1037C000DF0F6E1E36059B1B6D0503D3DB43524294
:1037D00000D301336D0D03D06E1CF60A07D0ED1B2C
:1037E00000227F007B1C9B079B12803D2D032F1B1B
:1037F000661B58D4A446202E46DA20371400BC405D
:103800001D00BD40F24033412A4380185941CB0F7F
:1038100005D0C943C0430022644250415141624631
:103820004D0D28D10D0D07D100281FD0241940417E
:103830004941013A0D0DF9D0640006D3013000D39F
:103840000131002C01D140084000013A0BD4941CF6
:10385000E40A04D112051144DB071944F0BDD9076D
:10386000204B194300E0D9070020F0BD0029DDD12D
:10387000002CDBD1F0BD0132C6074008CD0728433C
:103880004908002EE1D0D9E73C2E29DA203E403706
:103890001400BC4000D00124F24014431A00BB4085
:1038A0001C43D317ACE7AC46202F08DA20360400BF
:1038B000B4400D00B540F84039412843A5E73C2FFE
:1038C0000CDA203F40360400B44000D00124F84018
:1038D00004430800B1400C43C117EAE71000190087
:1038E000002494E70000F07FF0B50C0D661E36054D
:1038F000891BE60A6405640D02D0651CED0A04D03C
:10390000002001210905803C2403A4461C0D671EEC
:103910003F05DB1BE70A6405640D02D0651CED0A58
:1039200004D0002201231B05803C2403774064441B
:1039300097B484B296B27443070C7E43150C6F4360
:1039400080B26843361802D3012000043F183004C7
:10395000350C00197D41844688B29AB250430C0C54
:1039600062431F0C7C438EB27E43921902D3012620
:103970003604A4191604170C3618674101BC81B22D
:103980009AB25143040C62431B0C5C4380B258430F
:10399000121802D30120000424181004130C40183C
:1039A00063412D185E410020474106BC88B293B2A6
:1039B00058430C0C6343120C544389B251435B18B7
:1039C00002D301210904641819041A0C0918624170
:1039D0006D1856410020474118BCF902720D114381
:1039E000F0026A0D1043ED020A0D03D16D1940413A
:1039F0004941013B124E9B1B7600B3420ED26D0033
:103A000007D30130002671416646354301D1400895
:103A100040001B05C918E4072144F0BD0BDA01334F
:103A200006D1013004D101314F0D01D04908F2E730
:103A3000E1070020F0BD013631050020EBE7000072
:103A4000FF030000F0B51C0D671E3F05DB1BE70AF6
:103A50006405640D02D0661CF60A04D0002201231E
:103A60001B05803C2403D0252D060026F6432E6638
:103A70001E096E66CE0FF619B44649004F0D02D0EE
:103A80007E1CF60A03D000200021403F3F033E1B6E
:103A9000B600B444013F7F05C91B49082E6F0136AB
:103AA00076089C02950D25437543ED137543AD13C0
:103AB00001356D10F603761B0CB4CC02450D2C437A
:103AC000A2B2B3B25A43270C7B43350C6F43A4B266
:103AD0006C431B1902D3012424043F191C041D0C40
:103AE000A4187D4124196D41009A91B2ACB2614392
:103AF000170C7C432B0C5F4392B25A43A41802D399
:103B000001221204BF182204230C52187B41019C8D
:103B10006C431B19520ED9010A434401A01A81B209
:103B2000B2B2514303145A43360C734387B27743FE
:103B3000D617D21900277E4136049B191704160C9C
:103B40007F185E417316ED18F3010026803375412E
:103B5000A90F06D16400690AE8055B0A184309D277
:103B60002FE00422944480337541A90AA8059B0ADA
:103B7000184326D3404149412404009A019B0D007B
:103B80005543641B4343E41A95B286B27543170C40
:103B90007E43030C5F4392B25A43B61802D301220C
:103BA0001204BF183204330C52197B4152429C411B
:103BB000002C02D40022013051414008CA071043B2
:103BC000490802B06246D7079210084BD218084B3A
:103BD0009A4203D212058918C919F0BD0020002AA3
:103BE00001DC3900F0BD01331905F5E7FD030000E4
:103BF000FE070000002200B5203200F004F80800A3
:103C000000BD000000220B150AD410B5944600F048
:103C100031F81414013400DA0021CB17144C20477A
:103C20000020002170476244343A0CD40C2A07DA91
:103C300004009140904052422032D440214310BDB4
:103C4000D843D94310BD203207D40C469440524289
:103C500020321141D040204310BD0800C917203246
:103C600003D452422032104110BD1800190010BD7B
:103C7000273C00100A0DCC0F531E1B05C91A520514
:103C800003D3C943404200D30131520D03D0531C2A
:103C9000DB0A07D0121B00206400611C890789120F
:103CA000803A1203014BD21A70470000FF03000054
:103CB00051434343C9188C46110C83B24B4310B493
:103CC000040C614392B280B2504362431C041B0C4B
:103CD000001910BC59411304120CC0185141614421
:103CE0007047000070B513231E782A48FFF750F97B
:103CF0000500012E11D0012E09DDAB1E1B789B00A3
:103D00007F2B40DD24488022290000F091F82348D1
:103D1000FFF736F9224B186070BD1F485422290066
:103D200000F086F81F4B1A881F4B9A421CD1A7231C
:103D30009B011A881D4B9A4216D11D4B1A881D4BA8
:103D40009A4211D11C4B1A8894239B019A420BD1A1
:103D50001A4B1A881A4B9A4206D11A4B1A681A4BF8
:103D60009A4201D1152307E01848FDF789FC184C49
:103D7000094A99008C5001331F2BF8D9144B064A7D
:103D80001362D361B7E7134B134A14484221FDF77E
:103D9000DDFBC046534600001C0500204C330000EC
:103DA00018050020EE290000C40F0000C20D00001D
:103DB000962B0000C0B50000182B0000CC2A000094
:103DC00010B50000FC2C000051ED8764E0460010A7
:103DD000E13D0010D04D0010444E0010044E001084
:103DE00007B56046002800D100BE01880A0A0230EB
:103DF000DF2AFAD1C9B2820804D3028840880004BD
:103E0000104300E00068024A5050039007BD0000D4
:103E10001C05002001480421014B184740020020E6
:103E2000A12F0010014B1B68184700004002002022
:103E3000014B5B68184700004002002010B50300EA
:103E4000080011001B68984710BD0000F8B5070076
:103E50000D001600437C002B02D0002400200CE053
:103E600003681100280098472DE03B7C10E03B6878
:103E7000154802219847601C0134B44214DA002C22
:103E8000F3DD2B19013B1B780D3B5A425341DBB24A
:103E90002A5D0A2AF0D1002BEED1A042E7DA3B6876
:103EA000211A28189847E2E7B04203DA3B68311A32
:103EB00028189847002E06DDAD19013D2B780D3BE3
:103EC0005A4253413B74F8BDFC4E001070B50500DA
:103ED0000368002B16D00C4B1C6805E0290004C9B0
:103EE0002000FFF7B3FFE468002C09D02368002B03
:103EF000F9D0064B1B68002BF0D0A342F3D1EDE7BD
:103F000000232B6070BDC046E8030020EC030020B6
:103F100070B505000C000B68802B05D023685A1C77
:103F20002260E418257170BD0800FFF7CFFFF5E7A8
:103F300010B582B0D0231B0600241C57074801A9E6
:103F400000F0FAF8002806D1019B9C4203D00348F8
:103F500000F0FAF8012002B010BDC0465002002067
:103F600010B5024800F0D0F810BDC0465002002045
:103F7000F0B5CE46474680B583B006000D009046AA
:103F80001C00FFF7D5FF81466B1C05D0002C08D024
:103F9000194F1A4B1C6807E0300000F083F8050049
:103FA000F4E7174FF5E7E468002C17D02368002BDF
:103FB000F9D0144B1B68002B01D0A342F3D12A0087
:103FC00031002000B8474346002BECD06B46D91D8A
:103FD0000A230B7001222000B847E4E74B46002B70
:103FE00007D16B1E9D41E8B203B0C0BCB946B046D4
:103FF000F0BDFFF7B5FFF4E73D3E0010E8030020F9
:104000004D3E0010EC03002010B5064B1C6801E08B
:104010009847E468002C03D06368002BF8D1F8E7D8
:1040200010BDC046E803002070B5050000F03AF866
:1040300004000023012201002800FFF799FFFFF789
:10404000E3FF200070BD000070B5A2B004000E00B8
:10405000FFF76EFF05008422002101A8FFF7E2FEB2
:1040600009483300220001A9FEF772FF040001A8ED
:10407000FFF72CFFFFF7C8FF002D02D1200022B070
:1040800070BDFFF76DFFF9E7113F00100FB400B5E9
:1040900083B004A901C90191FFF7D6FF03B008BCA2
:1040A00004B0184710B583070AD00300032102E0CB
:1040B00001330B4205D01A78002AF9D1181A10BD25
:1040C000030019680C4A0D4C8A188A4322420FD10A
:1040D0005968094A04338A188A43224208D1596828
:1040E000054A04338A188A432242F1D000E00133A2
:1040F0001A78002AFBD1E1E7FFFEFEFE8080808077
:10410000F8B5C0460000000001B40248844601BC76
:10411000604700BF5101002001B40248844601BC41
:10412000604700BF9D01002001B40248844601BCE5
:10413000604700BF9D01002001B40248844601BCD5
:10414000604700BF0901002001B40248844601BC59
:08415000604700BFC100002020
:1041580072742D3E616C61726D5F6964203D3D2013
:1041680069640000433A5C55736572735C68705CFF
:104178007069636F2D73646B5C7372635C636F6DDE
:104188006D6F6E5C7069636F5F74696D655C74698F
:104198006D652E630000000069642026262069648E
:1041A800203C3D20706F6F6C2D3E686561702D3E20
:1041B8006D61785F6E6F646573000000256C6C64D8
:1041C8002028686920253032782900006964202673
:1041D80026206964203C3D20686561702D3E6D6134
:1041E800785F6E6F64657300433A5C5573657273EC
:1041F8005C68705C7069636F2D73646B5C73726369
:104208005C636F6D6D6F6E5C7069636F5F75746909
:104218006C5C696E636C7564652F7069636F2F756C
:1042280074696C2F70686561702E680070617265C2
:104238006E745F69640000006368696C645F696438
:1042480000000000706172656E745F696420213D32
:10425800206368696C645F69640000002170685FAE
:10426800636F6E7461696E735F6E6F646528706FDB
:104278006F6C2D3E686561702C2072657573655F83
:104288006964290075735F73696E63655F626F6F38
:1042980074203C3D20494E5436345F4D415800004F
:1042A800433A5C55736572735C68705C7069636FE0
:1042B8002D73646B5C7372635C636F6D6D6F6E5CA2
:1042C8007069636F5F626173655C696E636C756466
:1042D800652F7069636F2F74797065732E6800009D
:1042E80072656D6F7665645F6964203D3D206E651B
:1042F80078745F696400000063616C6C6261636B71
:1043080000000000706F6F6C2D3E616C61726D5F14
:10431800696E5F70726F6772657373203D3D206DC3
:10432800616B655F7075626C69635F696428696455
:104338005F686967682C206E6578745F6964290016
:104348006964202626202170685F636F6E74616936
:104358006E735F6E6F646528686561702C20696490
:104368002900000064656661756C745F616C617238
:104378006D5F706F6F6C5F696E697469616C697A83
:104388006564282900000000417474656D707465C7
:104398006420746F20736C65657020696E7369643E
:1043A80065206F6620616E20657863657074696F3B
:1043B8006E2068616E646C65723B2075736520625F
:1043C8007573795F7761697420696620796F7520E4
:1043D8006D757374000000007570646174655F75B5
:1043E800735F73696E63655F626F6F7400000000CE
:1043F800616C61726D5F706F6F6C5F616C61726D23
:104408005F63616C6C6261636B0000006765745F79
:10441800656E747279000000616C61726D5F706F17
:104428006F6C5F6765745F64656661756C740000C6
:104438006765745F656E7472795F69645F686967E0
:104448006800000070685F667265655F6E6F64651E
:104458000000000070685F6164645F6368696C6491
:104468005F6E6F646500000070685F696E736572E7
:10447800745F6E6F6465000070685F6765745F6E77
:104488006F6465006164645F616C61726D5F756E15
:104498006465725F6C6F636B000000004861726452
:1044A8007761726520616C61726D20256420616C92
:1044B800726561647920636C61696D6564000000F0
:1044C80074696D65725F68772D3E696E7473202616
:1044D800203175203C3C20616C61726D5F6E756D9A
:1044E80000000000433A5C55736572735C68705C49
:1044F8007069636F2D73646B5C7372635C72703286
:104508005F636F6D6D6F6E5C686172647761726511
:104518005F74696D65725C74696D65722E63000005
:1045280068617264776172655F616C61726D5F73F7
:1045380065745F746172676574000000746F7461FC
:104548006C000000433A5C55736572735C68705C7C
:104558007069636F2D73646B5C7372635C636F6DFA
:104568006D6F6E5C7069636F5F73796E635C6D7598
:104578007465782E630000006D74782D3E636F7249
:10458800652E7370696E5F6C6F636B006C6F636B25
:104598005F69735F6F776E65725F69645F76616C80
:1045A8006964286D74782D3E6F776E6572290000F6
:1045B8006D74782D3E656E7465725F636F756E7489
:1045C800000000006D757465785F65786974000097
:1045D800726F6F745F696400433A5C5573657273F8
:1045E8005C68705C7069636F2D73646B5C73726375
:1045F8005C636F6D6D6F6E5C7069636F5F75746916
:104608006C5C70686561702E630000002170685FE3
:104618006765745F6E6F646528686561702C2072C9
:104628006F6F745F6964292D3E7369626C696E6788
:10463800000000002170685F6765745F6E6F6465D5
:1046480028686561702C20726F6F745F6964292D0A
:104658003E706172656E7400666F756E640000006E
:104668006E65775F7375625F7472656520213D20A2
:10467800686561702D3E726F6F745F696400000039
:1046880070685F72656D6F76655F616E645F667294
:1046980065655F6E6F64650070685F72656D6F76E3
:1046A800655F616E795F68656164000070685F616D
:1046B80064645F6368696C645F6E6F6465000000C2
:1046C80070685F6765745F6E6F6465002C2066753F
:1046D8006E6374696F6E3A20000000006173736541
:1046E8007274696F6E2022257322206661696C6579
:1046F800643A2066696C6520222573222C206C6937
:104708006E65202564257325730A000031203D3D20
:10471800202875696E747074725F74296C2D3E73ED
:1047280070696E5F6C6F636B00000000433A5C5504
:10473800736572735C68705C7069636F2D73646B0A
:104748005C7372635C7270325F636F6D6D6F6E5C09
:104758007069636F5F72756E74696D655C72756E92
:1047680074696D652E6300000A2A2A2A2050414E7A
:104778004943202A2A2A0A000A00000072756E742A
:10478800696D655F696E6974000000007372635F2C
:1047980066726571203E3D206672657100000000FA
:1047A800433A5C55736572735C68705C7069636FDB
:1047B8002D73646B5C7372635C7270325F636F6DD0
:1047C8006D6F6E5C68617264776172655F636C6F50
:1047D800636B735C636C6F636B732E630000000024
:1047E800636C6F636B5F636F6E6669677572650094
:1047F800212864656C7461203E3E203131752900A2
:10480800433A5C55736572735C68705C7069636F7A
:104818002D73646B5C7372635C7270325F636F6D6F
:104828006D6F6E5C68617264776172655F697271E1
:104838005C6972712E63000063757272656E742014
:104848003D3D205F5F756E68616E646C65645F7581
:104858007365725F697271207C7C20637572726502
:104868006E74203D3D2068616E646C6572000000C6
:104878006972715F68616E6465725F636861696EB1
:104888005F667265655F736C6F745F6865616420ED
:104898003E3D203000000000767461626C655F6800
:1048A800616E646C6572203D3D205F5F756E686166
:1048B8006E646C65645F757365725F697271000020
:1048C800212828282875696E747074725F74297697
:1048D8007461626C655F68616E646C657229202D15
:1048E80020282875696E747074725F7429697271F2
:1048F8005F68616E646C65725F636861696E5F733F
:104908006C6F747329202D2031292573697A656F9E
:104918006628737472756374206972715F68616E5A
:10492800646C65725F636861696E5F736C6F74292C
:104938002900000030783163203D3D20282A696E27
:104948007374293E3E31317500000000216578639B
:10495800657074696F6E207C7C20657863657074FF
:10496800696F6E203D3D206E756D202B203136001D
:1049780066616C736500000069735F7368617265D6
:10498800645F6972715F7261775F68616E646C659C
:104998007228736C6F745F68616E646C657229004D
:1049A800657863657074696F6E0000006972715F85
:1049B8006164645F7461696C5F746F5F667265657A
:1049C8005F6C697374000000696E736572745F626E
:1049D80072616E63685F616E645F6C696E6B000024
:1049E8006972715F72656D6F76655F68616E646C20
:1049F800657200006D616B655F6272616E6368006D
:104A08007265736F6C76655F6272616E63680000D1
:104A18006972715F7365745F6578636C75736976C5
:104A2800655F68616E646C65720000006662646947
:104A380076203E3D2031362026262066626469763F
:104A4800203C3D2033323000433A5C557365727325
:104A58005C68705C7069636F2D73646B5C73726300
:104A68005C7270325F636F6D6D6F6E5C68617264EB
:104A7800776172655F706C6C5C706C6C2E630000A3
:104A880028706F73745F64697631203E3D20312051
:104A9800262620706F73745F64697631203C3D2050
:104AA80037292026262028706F73745F6469763250
:104AB800203E3D203120262620706F73745F646984
:104AC8007632203C3D20372900000000706F737457
:104AD8005F64697632203C3D20706F73745F64694F
:104AE800763100007265665F6D687A203C3D20284B
:104AF80076636F5F66726571202F2031362900005A
:104B0800706C6C5F696E697400000000666E692BDA
:104B180000000000666E69006E616E00666E692DA9
:104B280000000000AE2900105E2900105E29001068
:104B3800B82900105E2900105E2900105E290010B7
:104B48005E2900105E2900105E2900105E29001001
:104B5800A42900105E2900109A2900105E2900106F
:104B68005E29001090290010502A0010762A0010A3
:104B7800942A0010762A0010302A0010762A001095
:104B8800762A0010762A0010762A0010762A00105D
:104B9800762A0010762A00106C2A0010762A001057
:104BA800762A0010762A0010762A0010762A00103D
:104BB800A02A0010082F0010D02A0010D02A0010B8
:104BC800D02A0010D02A0010D02A0010D02A0010B5
:104BD800D02A0010D02A0010D02A0010D02A0010A5
:104BE800D02A0010D02A0010D02A0010D02A001095
:104BF800D02A0010D02A0010D02A0010D02A001085
:104C0800D02A0010D02A0010D02A0010D02A001074
:104C1800D02A0010D02A0010D02A0010D02A001064
:104C2800D02A0010D02A0010D02A0010D02A001054
:104C3800D02A0010322D0010F22C0010322D001056
:104C4800D02A0010D02A0010D02A0010D02A001034
:104C5800D02A0010D02A0010D02A0010D02A001024
:104C6800D02A0010D02A0010D02A0010D02A001014
:104C7800D02A0010D02A0010D02A0010D02A001004
:104C8800E42A0010D02A0010D02A0010D02A0010E0
:104C9800D02A0010D02A0010D02A0010D02A0010E4
:104CA800D02A0010D02A0010E42A0010822D00100B
:104CB800E42A0010322D0010F22C0010322D0010C2
:104CC800000000000000F03F000000000000244049
:104CD80000000000000059400000000000408F4024
:104CE800000000000088C34000000000006AF8408F
:104CF8000000000080842E4100000000D0126341B3
:104D08000000000084D797410000000065CDCD4128
:104D18002A282875696E74385F74202A292828285B
:104D2800766F6964202A29726F6D5F646174615FB0
:104D38006C6F6F6B757028726F6D5F7461626C65F4
:104D48005F636F6465282753272C20274627292966
:104D5800292D322929202A2034203E3D2053465F20
:104D68005441424C455F56325F53495A4500000052
:104D7800433A5C55736572735C68705C7069636F05
:104D88002D73646B5C7372635C7270325F636F6DFA
:104D98006D6F6E5C7069636F5F646F75626C655C84
:104DA800646F75626C655F696E69745F726F6D2E92
:104DB800630000005F5F61656162695F646F7562CF
:104DC8006C655F696E6974002A282875696E743885
:104DD8005F74202A2928726F6D5F7461626C652D7B
:104DE800322929202A2034203E3D2053465F544151
:104DF800424C455F56325F53495A4500433A5C5529
:104E0800736572735C68705C7069636F2D73646B33
:104E18005C7372635C7270325F636F6D6D6F6E5C32
:104E28007069636F5F666C6F61745C666C6F6174E8
:104E38005F696E69745F726F6D2E63005F5F616595
:104E48006162695F666C6F61745F696E69740000A6
:104E58004465627567000000626F6F74325F773275
:104E6800357130383000000068747470733A2F2F31
:104E78006769746875622E636F6D2F7261737062F3
:104E88006572727970692F7069636F2D61707073C4
:104E98002F747265652F484541442F6C6162732FEA
:104EA8006C61623033000000312E332E3000000078
:104EB8007069636F000000004D617220313120324B
:104EC8003032320006005250BBFF3CB6B84E0010DC
:104ED800060052509A235618704E00100600525081
:104EE800E182887F604E001006005250D3F0754270
:084EF800584E00100D0A0000E5
:104F0000B4020010A80200109C020010CC4E001049
:104F100090020010D84E0010E44E0010F04E001029
:104F200010B5D0231B0600241C570268EFF3108134
:104F300072B61368002BFCD0BFF35F8F0423C356F7
:104F4000002B08DB0368BFF35F8F00221A6081F338
:104F5000108820BFE9E704710368BFF35F8F002268
:104F60001A6081F3108810BD03000068EFF3108C05
:104F700072B60268002AFCD0BFF35F8F04229A56F3
:104F8000002A0BDB002910D00A6000201B68BFF349
:104F90005F8F00221A608CF310887047D0221206AF
:104FA000127852B21A710120F0E70020EEE70000FB
:104FB00010B50268EFF3108172B61368002BFCD0B5
:104FC000BFF35F8F0423C356002B0ADBFF2303715B
:104FD0000368BFF35F8F00221A6081F3108840BF1F
:104FE00010BD034B034A0448A92100F009F8C0464C
:104FF00094450010CC4500104C4500107047C04649
:1050000001B40248844601BC604700BF4D15001042
:1050100010000000CC010020000000007002002001
:10502000A80300200000000000000000B8030020DA
:105030000000000000000000100000000000000060
:10504000000001000000000000000000000002005D
:10505000000000000000000000000300000000004D
:10506000000000000000FF000000000000B54868DC
:1050700001318E460047704609380149884700BD16
:10508000A91B00100000000000000000000000004C
:10509000503300004C330000543300005233000002
:1050A0004D5300004D4300005334000043340000D2
:1050B0000000000000000000153E0010712F0010DD
:0C50C00081360010E53C0010ED020010ED
:04000005100001E9FD
:00000001FF
