:020000041000EA
:1000000000B5324B212058609868022188439860DF
:10001000D860186158612E4B002199600221596106
:100020000121F02299502B49196001219960352056
:1000300000F044F80222904214D00621196600F024
:1000400034F8196E01211966002018661A6600F04E
:100050002CF8196E196E196E052000F02FF8012189
:100060000842F9D1002199601B49196000215960AB
:100070001A491B48016001219960EB211966A021F2
:10008000196600F012F800219960164914480160C1
:100090000121996001BC002800D000471248134993
:1000A000086003C880F30888084703B5996A0420EC
:1000B0000142FBD001200142F8D103BD02B5186610
:1000C0001866FFF7F2FF186E186E02BD00000240BE
:1000D000000000180000070000035F00212200005C
:1000E000F4000018222000A00001001008ED00E03C
:1000F00000000000000000000000000074B24E7A12
:1001000000200420F7010010C3010010C5010010F9
:10011000C1010010C1010010C1010010C101001097
:10012000C1010010C1010010C1010010C701001081
:10013000C1010010C1010010C9010010CB01001065
:10014000CD010010CD010010CD010010CD01001037
:10015000CD010010CD010010CD010010CD01001027
:10016000CD010010CD010010CD010010CD01001017
:10017000CD010010CD010010CD010010CD01001007
:10018000CD010010CD010010CD010010CD010010F7
:10019000CD010010CD010010CD010010CD010010E7
:1001A000CD010010CD010010CD010010CD010010D7
:1001B000CD010010CD010010CD010010CD010010C7
:1001C00000BE00BE00BE00BE00BE00BE00F04BF888
:1001D000103800BEF2EB8871B0240010D824001053
:1001E0003402001090A31AE700202149086006C8D5
:1001F00081F3088810471F48006800282FD10DA4FC
:100200000ECC002902D000F012F8F9E71A491B4A77
:10021000002000E001C19142FCD1194988471949E9
:1002200088471949884700BEFDE701C901C29A42C3
:10023000FBD37047D8240010C000002040020020EB
:10024000582600100000042000000420582600104A
:1002500000100420001004200000000070470B482C
:1002600001F0E4FB0047EFF30580C0B270470000E7
:1002700008ED00E0000000D0400200201806002039
:100280000512001011030010F5120010575600005F
:1002900006005250ABB360530C24001006005250BD
:1002A000861C030200240010060052505422A29D16
:1002B0001C24001005005250DE65F468582600101A
:1002C000F8B5C04606480749091A8B10C90FC91866
:1002D00010B5491003D0044B002B00D0984710BD37
:1002E000400200204002002000000000054B10B535
:1002F000002B03D00449054800E000BFFFF7E2FFF0
:1003000010BDC04600000000CC050020582300109E
:1003100070B586B001F070FE3549364801F0D6FE62
:10032000062105001C2000F06FF8012300211C228B
:100330003048009301F030FF80235B020293EB1CF6
:10034000EA011B0313432C4A0520134003932B4B54
:1003500005932B4B049301F045F901F05DFC29490D
:1003600001F03FFC061C01F07FFC84B20023002C4E
:100370000DD0200001F050FC011C301C01F02BFCC2
:100380008721C90501F041FC01F06EFCC3B22404D1
:100390001B022343174C2A000293002102AB2000CA
:1003A00001F03CFF0122802523686D021343236086
:1003B00063682B42FCD1FE23FA20DB03236140005B
:1003C00000F0B2FB63682B42FCD1FE23FA20DB0570
:1003D0002361400000F0A8FB63682B42FCD1FE23A0
:1003E000FA20DB012361400000F09EFBE0E7C046FD
:1003F0005823001000002050FFFFFF9F00700020D6
:10040000000006400024F44A094A10B594464024EE
:10041000830063441A68C000624080341440802224
:10042000520113431C60034B9C466044416010BD65
:1004300004C0014000400140EFF3108072B6034A4F
:100440001368002BFCD0BFF35F8F70472C0100D0E6
:10045000BFF35F8F0022024B1A6080F31088704751
:100460002C0100D070B5EFF3108C72B60D4D2B68D7
:10047000002BFCD0BFF35F8F0724CB08C618C05CED
:1004800001230C40A3401C000440034207D1184341
:100490003070BFF35F8F2C608CF3108870BD10003C
:1004A00000F02AFF2C0100D0024B18688007C00F13
:1004B0007047C04600C006400021044B044ABFF309
:1004C0005F8F02C39342FAD17047C046000100D04B
:1004D000800100D0044A1078431CDBB2172B00D9EE
:1004E000102313707047C04678010020F8B504004F
:1004F00006200D0001F076F8002844D02A4B2B4945
:10050000E21853425A418023DB039C469205284B54
:1005100062441A60274B1A6010008B689843FBD125
:10052000214B254AE31859424B4180215B00490089
:100530009952062001F056F82900C00001F0A8FAEF
:10054000C30921D140270121260080256162A362D1
:1005500000232C36AD0135432B60062001F042F814
:100560003900800001F094FA6022E36A53400E32B1
:100570001A4080235B0133431A60104B236310231E
:100580002B600D3BA364F8BD0D4A934203D90023B1
:100590000C4F0D49D8E77F220240013252089F01DB
:1005A0001900BF181300CFE70080FCBF00C0004057
:1005B00000E0004000F000400C06002001030000B5
:1005C000FEFF0000C0FF3F00FFFF000083680B48F4
:1005D00010B58446614462441201090159189B1800
:1005E0005C684A680120944201D802D00020C0B261
:1005F00010BD1A680B689A42F9D8F7E7FFFFFF0FA2
:100600000A4B1968EFF3108072B60A68002AFCD012
:10061000BFF35F8F1B68BFF35F8F00221A6080F308
:10062000108840BF002000217047C046F805002018
:10063000F8B5574645464E46DE46E0B599460CAB02
:100640001C780DAB1B78070090469A460568002C75
:1006500044D1AC7B002C3BD0660029683619033EA0
:1006600089194B78AB73002B00D1EB7300238B708F
:100670004B700B702E4BE218BB6812019B18424660
:100680001A604A465A600A9A9A600B9ADA60002306
:100690008B704B700B706B7B9B46002B32D0220013
:1006A0005946A8686B68984700281DD05B46584695
:1006B00029685B005B448E19033BB070CA18CB5CA1
:1006C000002B00D073705B4614706B735C451AD0BE
:1006D000F0BCBB46B246A946A046F8BD66002968F4
:1006E0003619033E8919C5E75B465B002A685B44FF
:1006F000033BD3189C709119925D002A00D05A7068
:100700005B460B706C7342464B46387D00F0F0FA46
:10071000051E02D05346002B04D00E9B002BD7D0D1
:100720001D70D5E72100386800F02EFDF5E7C046C2
:10073000FFFFFF0FF0B5DE464E4657464546002305
:10074000E0B58DB00A936B4B8200D3580B9099465D
:1007500000239B464B46079300F06AFA079C06006D
:100760000F006268EFF3108572B61368002BFCD09F
:1007700022000794BFF35F8F2468637B9946002BA8
:1007800066D092685C4B90464B441B0198444346AC
:100790001A685B6810001900801BB94100295EDDF2
:1007A0000B9800F0A5FA00230026984600279A46E9
:1007B000079C6368BFF35F8F5A461A6085F3108801
:1007C0005346002B08D10028C6D10DB0F0BCBB4663
:1007D000B246A946A046F0BD0A9B414618024B46C8
:1007E0001843D047089009916268EFF3108572B6FC
:1007F0001368002BFCD00794BFF35F8F0899099A08
:10080000002A47DB114303D0079B1B69002B5CD1F7
:10081000079B1B68D97B002906D01A68480041183D
:1008200052184946033A51704A46DA734B46079AC2
:10083000013BD168CA5C0132CA545B46079A136116
:100840005368BFF35F8F5A461A6085F3108883E7B9
:1008500000230026984600279A460020A8E7002992
:1008600001D100289CD10021200000F00FFC43465C
:100870001E685F689B68079A9A464346DB689846FD
:10088000D3684B44013B1B780A931B02034313615B
:1008900000208DE72369002BBAD033003C005B1A9F
:1008A00094411A002300A74219D89F421BD05946F1
:1008B000049101210391494602914146019151461B
:1008C00007980091FFF7B4FEB7E700F0B1F9089A76
:1008D000099B06000F0092197B419942E5D901223C
:1008E0005242D317E3E79642E1D901225242D3178D
:1008F000DDE7C046E4050020FFFFFF0FF8B55746CF
:100900004E464546DE46E0B5404D81468A466A6819
:10091000EFF3108872B61368002BFCD0BFF35F8F23
:100920002E68B47B002C38D0670033683F19033F32
:10093000DB195A78B273002A00D1F273344AA11835
:10094000AA6809015218494611605146516031495F
:1009500091600021D160997059701970737B9B462A
:10096000002B36D022005946B0687368984700289B
:1009700021D05B46584631685B005B44CF19033B8E
:10098000B870CA18CB5C002B00D07B705B4614702B
:1009900073735C451ED0002627E06B68BFF35F8F42
:1009A0001C6088F3108801204042F0BCBB46B24670
:1009B000A946A046F8BD5B465B0032685B44033B3A
:1009C000D3189C70D119D25D002A00D05A705B46B2
:1009D0000B7074734A465346287D00F089F9061E51
:1009E000D9D02100286800F0CFFBEB681B19013B30
:1009F00019786B68BFF35F8F00221A6088F3108844
:100A00000020002ED1D108022043CEE77C01002037
:100A1000FFFFFF0F0106001010B5124C6368002B9A
:100A200004D00A21104800F0F1F910BD23000F4A4C
:100A30001021206800F042FA032000F0EDF80320B6
:100A400000F0C6F903200A4900F00CF9FFF742FD57
:100A5000084B9C46032360442375074B800060606D
:100A6000DC60DEE77C010020F8050020CD050010E9
:100A70003507001040000034E4050020F0B5040004
:100A80000D0006267642F717C64636196F4100B5A7
:100A90008F4213D810D000F0CBF832003B00121A6E
:100AA0008B41002B14DC002B37D02900200000F0F4
:100AB000C9F880BCB846F0BD8642ECD900260027B4
:100AC00000F0B6F832003B00121A8B41002BEADD31
:100AD00030003900FFF712FF0028E6DB00239846BC
:100AE000BC460F4A0F4F7B6A9C4504D8B96A8E42B8
:100AF000DBD99C45D9D11168EFF3108072B60B6831
:100B0000002BFCD0BFF35F8F1368BFF35F8F4146AC
:100B1000196080F3108820BFE5E7002AC5D0D7E729
:100B2000F80500200040054070B5060000F080F890
:100B3000FA2204000D00002330000021920001F091
:100B40002DF8001969418D4205D802D0FFF796FFB4
:100B500070BD8442FAD901204042C117F6E7C04671
:100B6000F0B5D6464F464646C0B5EFF305823F2363
:100B7000134018001038EFF3108C72B620490A6841
:100B8000002AFCD0BFF35F8F0122170087401D4C65
:100B90001600A24667631C4C2578A0462C00C44072
:100BA0002640224209D1BFF35F8F0E608CF310887C
:100BB000E0BCBA46B146A846F0BD5246566A134A52
:100BC0008400A25896420ED34246114BBD43E358CF
:100BD0001570BFF35F8F00220A608CF31088002B22
:100BE000E6D09847E4E70B4A9B00904643441A68D6
:100BF0001A60BFF35F8F00230B608CF31088D7E778
:100C0000280100D00040054016060020FC05002009
:100C100048050020D03F054010B5034B01001800E7
:100C2000024AFFF71FFC10BD1406002068230010C5
:100C3000034B596A0A00986A596A8A42FAD1704786
:100C400000400540064A536A9942FCD807D1044B3C
:100C500002E05A6A914202D19A6A8242F9D37047FD
:100C60000040054070B504000D00EFF3108672B629
:100C70001A4A1368002BFCD0BFF35F8F002D1BD0E6
:100C8000200000F0C7FC164981420AD0200000F085
:100C9000C9FC0121200000F0ABFC0123A340114A54
:100CA0001360114BA400E550BFF35F8F00220B4B84
:100CB0001A6086F3108870BD0121A1400A4BA20082
:100CC000D5500A4B20001A788A4305491A7000F063
:100CD000D3FC0021200000F08BFCE5E7280100D0C8
:100CE000610B001038600540480500201606002002
:100CF000F0B54F46D6464646C0B507002F4C616A50
:100D00000D00A66A616AA942FAD18B4208D805D0C3
:100D10000120E0BCBA46B146A846F0BDB242F7D9C0
:100D2000EFF3108A72B6264801680029FCD0BFF3A1
:100D30005F8F0125BD402349204C884609788946AC
:100D40002943C9B28C46414660460870391D890066
:100D500065630A511C49B8004350216A00202942AA
:100D600019D0616A0800A66A616A8142FAD18B4291
:100D700019D801D1B24216D8CC451DD00F4B1F2235
:100D80001D625D6301233A409340104A01201360C5
:100D900043464A461A70BFF35F8F0022084B1A6021
:100DA0008AF31088B5E70020BFF35F8F0022044B61
:100DB0001A608AF31088ACE70120ECE70040054098
:100DC000280100D016060020FC05002080E200E08B
:100DD000EFF3108C72B60A490B68002BFCD0BFF3FE
:100DE0005F8F01238340074A0748136202789A43C2
:100DF0000270BFF35F8F00230B608CF31088704785
:100E0000280100D00040054016060020024B9C46F9
:100E100061448900016070474000003410B504004F
:100E2000FFF758FB01002000FFF7F0FFFF232371BD
:100E3000BFF35F8F10BDC04610B50400FFF74AFB3B
:100E400001002000FFF7E2FFFF23A380BFF35F8FC5
:100E500010BDC04670B5050014001600002915D05D
:100E60000C00002A12D080686B6898472968002817
:100E70000ED073009B196200033B1219CB18033A82
:100E80009C7088188A5C002A15D10670200070BDFD
:100E900063001B197200033B9219CB18033A9E7032
:100EA00088188A5C002A02D104703400EEE75A7078
:100EB00004703400EAE75A700670E7E730B58360E3
:100EC0000023CCB243730133047342608373C47351
:100ED0000D000068012C06D9421C0133DBB21370EF
:100EE00003329C42F9D1FF2129404B005B18C01806
:100EF00000230338437030BDF8B505000C1E07D041
:100F0000630001681B19033BCB185A78002A01D1F2
:100F10002000F8BD500080180338091800204F78D1
:100F20004870210058702800FFF794FF3900060030
:100F30002800FFF7E1FF0400002EE9D0002826D0AA
:100F400031002200A8686B689847296800280FD0F4
:100F500063001B197200033B9219CB18033A9E7071
:100F600088188A5C002A00D05A7004703400CFE7D9
:100F700073009B196200033B1219CB18033A9C7053
:100F800088188A5C002A00D05A700670C0E73400C6
:100F9000BEE7C046F0B557464546DE464E46E0B58C
:100FA0000D006B0001685B19DF1E0400C85D83B093
:100FB0000192CA1900284CD043001B18033BCB18E0
:100FC0005E78B446002E16D1019E002E3ED0E67B00
:100FD000002E04D073009B19CB18033B5D70E573A2
:100FE00000282FD10023537003B0F0BCBB46B2469B
:100FF000A946A046F0BD72006244033A8A185178AF
:101000008846002151708946597032000100200045
:10101000FFF720FF43468246002B07D05B00216884
:101020004344033BCB185A78002A16D14246514616
:101030002000FFF70FFF2168019BCA19002BC6D1C2
:101040000028CFD043001B18033BCB180021997018
:10105000C8E7019B002BBAD1C4E7500080180338C1
:101060000918487883464846487058704146200021
:10107000FFF7F0FE594680462000FFF73DFF41464E
:1010800002002000FFF7E6FE8046CFE7F0B55746A6
:101090004546DE464E46E0B583B00191457B0400EF
:1010A0006B0000685B19DF1EC15DC21900294ED0BC
:1010B0004B005B18033BC3185E78B446002E18D172
:1010C000019E002E40D0E67B002E04D073009B19B9
:1010D000C318033B5D70E573002931D1002328005C
:1010E0005370617303B0F0BCBB46B246A946A0463C
:1010F000F0BD72006244033A8218507880460020A6
:1011000050708146587032002000FFF7A3FE43461E
:101110008246002B07D05B0021684344033BCB1879
:101120005A78002A17D1424651462000FFF792FE16
:10113000019B01002068C219002BC4D10029CDD029
:101140004B005B18033BC31800209870C6E7019B57
:10115000002BB8D1C2E7500080180338091848782E
:10116000834648464870587041462000FFF772FE9B
:10117000594680462000FFF7BFFE4146020020008E
:10118000FFF768FE8046CEE770B5040000292CD03A
:10119000437B8B422ED0056848004018033828183E
:1011A0008278002A21D053009B18033BEA5CEE189A
:1011B0008A4202D11BE0002A08D053009B18033B4F
:1011C000EB185A788A42F6D142785A7000230122ED
:1011D000837043702000FFF7DDFE617B020020007A
:1011E000FFF738FE6073012000E0002070BD4378F7
:1011F0003370EBE701221900FFF7CCFE607301208A
:10120000F4E7C0462C4B2D4A70B51A602C4A2D4B82
:101210002D491A6014008B689C43FBD12B4D2C4E3A
:10122000B54208D2013E761BB60808CD9847230088
:101230000134B342F9D100F07DF8264A214B1A60FF
:10124000214A9368DB43DB01DD09002BF9D1402201
:10125000214B224C224E9A675A671A67DA66B442CB
:1012600008D223682000002B20D00834FFF7E4FDCB
:10127000B442F6D31B4C1C4EC022B168200000F0D3
:1012800049FDB460FFF718F900F02AFBFFF7C4FB33
:10129000164C174EB44208D2013E361BB60808CC95
:1012A00098472B0001359E42F9D170BD0834FFF7F5
:1012B000B5FDB442D5D3DDE700E00040BFCDFBFE75
:1012C000FE7F3C0000F0004000C000402C020020E7
:1012D0003C020020FFFFFF0100F00140240200203B
:1012E0002C0200200000002000ED00E03C02002065
:1012F0004002002000BEFDE70FB400B5084883B0EF
:1013000000F03EFE049B002B07D005A918000191B8
:1013100000F06CFB034800F033FE00BEFDE7C04662
:101320008C2300109C23001010B50148FFF7E4FF48
:10133000A023001010B50C2082B000F033FBFFF7A3
:10134000B3F800280ED0854B854A1A605A609A601F
:10135000DA601A615A619A61DA611A62814A5A62E4
:1013600002B010BD804CA06700F024FB01227F4B2F
:101370001A60636C012BFCD103227D4B1A607A4A00
:10138000936B012BFCD1022401217A4A7A48053360
:10139000009400F0B7FA0523784A012178480094B8
:1013A00000F0B0FA774B5A68FF2A02D88022520028
:1013B0005A6080226E4B694C12011A602169002923
:1013C00005D0606900F064FB01300138FDD1E022F6
:1013D0006C4B6D4819680A4002600222196851403E
:1013E00001320A40042102609A681142FCD0802137
:1013F000664A09011160802252005A60644B2361E1
:10140000644B5968FF2900D85A6003220121574BC9
:101410001A60604A93681942FCD0E02310680340C8
:101420005D480360126803234A4002211340594A71
:10143000036093681942FCD08021584B0901196060
:101440008021574B490051606361564B5A68FF2A0F
:1014500000D859608022544B12011A60E1690029BA
:1014600005D0606900F014FB01300138FDD1E023A4
:101470004C4A11680B404D490B6080214C4B0901CF
:1014800019608021364B49005160E361494B5A682D
:10149000FF2A00D859608022474B12011A60216A46
:1014A000002905D0606900F0F3FA01300138FDD160
:1014B000E023404A11680B4040490B608021404BBB
:1014C0000901196080235B0053608022244BD20203
:1014D00023623C4B5968914200D25A6080223A4BB9
:1014E00012011A60616A002905D0606900F0D0FA23
:1014F00001300138FDD1E023324A11680B403349F5
:101500000B608021324B090119608023DB0253609C
:10151000144B63622F4B5A68FF2A02D88022520074
:101520005A6080222C4B12011A60A169002905D053
:10153000606900F0ADFA01300138FDD1E023254AA1
:1015400011680B4025490B608021254B090119606A
:1015500080235B005360124BA36101E75805002014
:10156000006CDC021BB70000008000403CB0004073
:1015700030B00040002F68590080024000389C1CA9
:1015800000C00240308000403090004030A0004059
:10159000001BB7003C8000403C9000403CA0004055
:1015A000405973075480004054B0004054900040AC
:1015B00054A000406080004060B000406090004057
:1015C00060A000406C8000406CB000406C90004017
:1015D0006CA000404880004048B000404890004067
:1015E00048A00040014B8000C058704758050020BB
:1015F00001238340002904D0034A1360034A136087
:101600007047034A1360FBE780E200E000E100E07E
:1016100080E100E0024B10309B688000C0587047AA
:1016200000ED00E070B50D00EFF3108672B60F4AC2
:101630001368002BFCD0BFF35F8F0D4B10309B68FD
:1016400084001B590B4A934203D09D4201D0FFF7FF
:101650006BFE074B9B681D51BFF35F8FBFF35F8F1E
:101660000022024B1A6086F3108870BD240100D05E
:1016700000ED00E0CD010010F0B5DE4657464E46C5
:101680004546E0B50C0083B0EFF3108A72B65A4AB3
:101690001368002BFCD0BFF35F8F1022914681446A
:1016A0004A46564B96009B689D59554B98469D421D
:1016B00005D0A54216D0534FEB1B2F2B14D94F4BFF
:1016C0009B689D51BFF35F8FBFF35F8F00224A4B32
:1016D0001A608AF3108803B0F0BCBB46B246A94634
:1016E000A046F0BD1D00EAE7012383409B465A4611
:1016F000454B1B681A4000925A46444B1A60BFF390
:101700005F8FFEF7B0FD0190002803D0814501D026
:10171000FFF70AFE01232A009A4313003C49DB1B12
:101720005B415943090D93689C4208D15AE043003C
:101730001B189B00FB189868A04211D01A000620C5
:1017400010560028F3DA009B002B05D05A46314B87
:101750001A602D4B1A60B2E75A462C4B1A60AEE75E
:1017600006201856002821DB4200111889007C1839
:101770008846A1689960E179D9710621615699710D
:1017800000291FDBA488F91A6405241544440919AB
:10179000E0240905490D2402214399801E4B1218AB
:1017A00019789200BA1891711870CCE70198002846
:1017B0000BD1FF30907119489080174A1078117042
:1017C0009871C0E7BD210902E7E7154A1549D21A09
:1017D000083A5002400D01439980134952080A43C8
:1017E000DA80B0E70620105613000028BCDA019A10
:1017F000002AEAD14546E0E7240100D000ED00E0F0
:10180000CD010010A401002000E100E080E100E033
:10181000AAAA000080E200E01506002000BDFFFF3C
:10182000DE01002000F0FFFF00F8FFFFF8B5012502
:1018300004000543FEF717FDEFF3108C72B6214A42
:101840001368002BFCD0BFF35F8F1F4E2100B768D9
:101850001E4A1F4B891A49414B431B0D59B2830045
:10186000F858A8421CD00623D3568B421CD0122312
:10187000D3568B4222D01E23D3568B4220D02A230C
:10188000D35603208B4210D0124B1A781970A271D4
:10189000BFF35F8F00220B4B1A608CF31088F8BDEA
:1018A000B2680D48D050EFE7002043001B189B00A2
:1018B000D218FF239371094B9380E5E70120F4E7E9
:1018C0000220F2E7240100D000ED00E0A401002096
:1018D000AAAA000015060020CD01001000BDFFFFE0
:1018E000054B064A1360064A136053609360D36049
:1018F00013615361936170478080808000E400E051
:1019000004E400E0F8B504000C2017001D000E00F0
:1019100000F0BEF843011B1A9901C91AC900091841
:101920008901380000F0B4F8069B29041B03194311
:101930002368002B20DB174B174DE3185A42534105
:101940008022520194461B03144A63441360144AD4
:1019500013601F00AA689743FBD1C023221D9B017F
:10196000134321222660A0601A602268002AFCDA54
:101970000822E1601A60F8BD3F2322681340B34299
:10198000D9D1A3681B051B0D8342D4D1E36800297C
:10199000D1D1F0E70040FDBF00C0004000E00040B2
:1019A00000F000408023024A9B000343D36270474B
:1019B00000800540AA23064A1B0113602F23054916
:1019C000D360054B19605368002BFCDA7047C046A2
:1019D0000040024000B0FA000060024010B500284C
:1019E00000D110BD00F07CFAFBE7C04610B5094AF3
:1019F0000300146884B0002C08D00122009106482E
:101A0000524203A9A047012004B010BD00F0B8FA6B
:101A10000020F9E7C8050020DD1900100148042165
:101A2000014B1847F00100204D1A0010142310B587
:101A30000100188804331B88984710BD162310B581
:101A40000100188802331B88984710BDF8B5474637
:101A5000CE4680B50F1E19D01423994604330400D6
:101A60000025012698464B461888434621681B8866
:101A7000984701C4431E9841013540420640AF4299
:101A8000F1D13000C0BCB946B046F8BD0126F8E738
:101A9000114A936F9B0813D210665166002905D036
:101AA000FFE7FFE7FFE7516F106F704704B50028AD
:101AB00001D00020C04300F037FC002104BDC04627
:101AC000F0B5146E556E576F166FFFF7E5FF14668D
:101AD000556657671667F0BD000000D0132370B538
:101AE0001D78012D15D010DD1C48FFF7A7FF1C4CF9
:101AF00001008022200000F00DF9022D06D01948C7
:101B0000FFF794FF184B186070BD154C174BA3647A
:101B1000F5E7164B124C23606360A360E36023611A
:101B20006361A361E36123626362A362E36223638F
:101B30006363A363E36323646364A364E36423656F
:101B40006365A365E36523666366A366E36623674F
:101B50006367A367E367A364D1E7C046534400000B
:101B6000400300204C330000F4050020711B0010DE
:101B700007B5604601880A0A0230DF2AFAD1C9B2E5
:101B8000820804D3028840880004104300E0006803
:101B9000014A5050039007BD400300205143434386
:101BA000C9188C46110C83B24B4310B4040C61432A
:101BB00092B280B2504362431C041B0C001910BC4B
:101BC00059411304120CC018514161447047000080
:101BD0004840414048400E4B5B6818470C4B1B681F
:101BE00018470C4A936F9B0802D2094BDB681847D1
:101BF000F0B5146E556E576F166FFFF7F6FF054A76
:101C00001466556657671667F0BD014B9B68184709
:101C100040040020000000D0491A002808D10846DE
:101C200070470000C10FC90700D54042002817D0F7
:101C3000F44603B40B4B1B68984706BC81409E38A2
:101C40004042803107D20B0607D04900490AC0053F
:101C50001043084360470130F8E7490A8902F5E775
:101C600070470000F4050020014B5B6A1847000034
:101C700040040020132310B512481C78FFF7DEFE45
:101C80000100012C0AD003DD80220F4800F042F849
:101C90000E48FFF7CBFE0E4B186010BD0A4C5422C5
:101CA000200000F037F80B4B6365A365E3652366FE
:101CB0006366A366E36623676367A367E3672362DC
:101CC000E361E5E753460000400400204C33000088
:101CD000F4050020D91C001007B5604601880A0AE7
:101CE0000230DF2AFAD1C9B2820804D302884088C0
:101CF0000004104300E00068014A5050039007BD03
:101D00004004002001480421014B18470002002034
:101D10004D1A0010014B5B681847000000020020BC
:101D2000030010B5080011001B68984710BDC0469D
:101D3000F0B546464F46D646C0B5437C80460E00B9
:101D40001700002B46D0002A3FDD4B1E9946244B3E
:101D50000125002400209A460DE04B461B5D0D3BFB
:101D60005A425341325DDBB20A2A0BD02B000134B8
:101D700001359F421ADD002CEFD14346325D1B7CBA
:101D80000A2AF3D1002BF1D1A04204DA4346211AEA
:101D90001B6830189847434650461B6802219847F5
:101DA000013428002B0001359F42E4DC874204DD2A
:101DB0004346391A1B6830189847F619013E3378A4
:101DC0000D3B5A42534142461374E0BCBA46B146F9
:101DD000A846F0BD0368110030009847F5E7C046FB
:101DE00058240010F0B557464E464546DE461C00C6
:101DF000D023E0B51B061F68344B83B006000D00EE
:101E0000180001A991469A4600F096FA80460028EB
:101E100008D1019B7FB29F4204D0504600F094FA53
:101E2000012398466B1C03D1300000F045FA0500F1
:101E3000002C27D1264F274B1C68002C18D04B466E
:101E4000002B21D1244B994602E0E468002C0FD0EE
:101E50002368002BF9D04B461B68002B01D0A3420E
:101E6000F3D120002A003100B847E468002CEFD1FC
:101E70004346002B25D103B0F0BCBB46B246A94671
:101E8000A046F0BD154FD6E7134B99460A239B4653
:101E900002E0E468002CEBD02368002BF9D04B461D
:101EA0001B68002B01D0A342F3D12A00310020008F
:101EB000B8475A466B4620001A7101A90122B8475B
:101EC000E7E7504600F028FAD5E7C0462402002094
:101ED000311D0010C0050020C4050020211D001088
:101EE000F0B5CE46474680B583B06B46DE1CD023A6
:101EF00030701B061C681F4B804601A918009946CC
:101F000000F01AFA071E20D01B4B1C68002C28D0AA
:101F10001A4D02E0E468002C0FD02368002BF9D0A2
:101F20002B68002B01D0A342F4D120000122310004
:101F3000FFF7FEFEE468002CEFD1002F11D14046E0
:101F400003B0C0BCB946B046F0BD019B64B29C4230
:101F50000BD0484600F0F8F9074B01271C68002C0D
:101F6000D6D1484600F0D8F9E9E7034B1C68002CAD
:101F7000CED1E4E724020020C0050020C4050020E3
:101F800070B5040000F098F900230100050001225B
:101F90002000FFF727FF084B1C68002C06D0636861
:101FA000002B05D09847E468002CF8D1280070BDBC
:101FB000E468002CF3D1F9E7C00500200D4A13684E
:101FC000002B13D0834202D109E0984208D01A00B6
:101FD000DB68002BF9D1002900D0D06070471A00CF
:101FE0000029FBD1DB68D360C160F7E70029F5D099
:101FF0001060F3E7C005002010B500F043F810BDF5
:10200000F0B50D1E15DD0E4B0E491A680E4B0D274F
:10201000D3185C4263415B005E5E20214519047861
:10202000A64207D093691942FCD101301460A8423E
:10203000F5D1F0BD93691942FCD11760F2E7C046B3
:10204000100600200C0600200080FCBF30B5050003
:10205000002912DD00201024094B013D1A68936904
:102060001C4208D1013093691C42FCD113682B54E7
:102070008142F4D130BD0028FCD103204042F9E771
:1020800010060020E12110B50B4B0C481B780C4BBF
:1020900049021B780B4B1860FEF728FA022100203A
:1020A000FEF7B2F902210120FEF7AEF90121064840
:1020B000FFF784FF10BDC046D0240010004003404D
:1020C000D42400101006002010020020F0B5D646DF
:1020D0004F4646468846C0B505240600FEF7ACF9D3
:1020E00043461F791C57294B8146F01843425841FB
:1020F000274B9A4683009C465346624698580122D5
:102100002023BA40DB1B013A002C34DB9C422FDC3D
:10211000A240150010422BD1002F1CD0424643464E
:1021200052781B7812021A4343469B781B041343D0
:102130004246D27812061A43904600224146530086
:10214000C95A4B0B00D10919131912339B000132E4
:1021500099519742F2D85346624605439D504846EE
:10216000FEF776F92000E0BCBA46B146A846F0BDBD
:102170000848FFF7C1F8002B02DAF9E7013BF7D373
:1021800015009D401C000542F8D1C5E70000D0AF06
:10219000400500209C240010F0B54E464546DE4622
:1021A00057468A464900E0B50D0080465544ED008B
:1021B00045448946290009ACDC3108682478844606
:1021C000661EB44114481F268346644226405E447E
:1021D000052B0CD9A0201F274005D83554010443F6
:1021E0000532053B0C603A402E60052BF6D84F4671
:1021F0005744FF003800520140449B06134302003D
:10220000DC3213606346D83006601360F0BCBB4616
:10221000B246A946A046F0BD80E00000F0B501241A
:102220008C401D000368A3430360002D30D04B0099
:102230005C18E400041926002F68C83637606F6800
:10224000DC347760AF68ED68B76025605B18DB0051
:102250001D008024D035451964012C4380252D06AE
:1022600025602560134C0D1D8C40846001242700DF
:10227000AF403D0008318C401F2106680A403543BD
:10228000056005682C430460C018D8300260F0BDBA
:102290004B005C18E400041926008027C8367F0232
:1022A0003760F8277F027760C027DC343F03B760D0
:1022B0002560CBE70101010110B583070AD00300B7
:1022C000032102E001330B4205D01A78002AF9D12C
:1022D000181A10BD030019680C4A0D4C8A188A435D
:1022E00022420FD15968094A04338A188A4322428C
:1022F00008D15968054A04338A188A432242F1D02A
:1023000000E001331A78002AFBD1E1E7FFFEFEFE70
:1023100080808080F8B5C04601B40248844601BC84
:10232000604700BF4D01002001B40248844601BC53
:10233000604700BF7501002001B40248844601BC1B
:10234000604700BF0901002001B40248844601BC77
:08235000604700BFC10000203E
:102358006023001004FF000021622311001442A42E
:10236800486172647761726520616C61726D2025C5
:102378006420616C726561647920636C61696D6564
:10238800640000000A2A2A2A2050414E4943202A84
:102398002A2A0A000A0000004861726420617373E7
:1023A8006572740052656C6561736500626F6F7465
:1023B800325F7732357130383000000068747470DD
:1023C800733A2F2F6769746875622E636F6D2F7269
:1023D800617370626572727970692F7069636F2DAD
:1023E800617070732F747265652F484541442F657D
:1023F80078616D706C65732F7773323831325F7224
:1024080067620000312E332E300000007069636F60
:10241800000000004D617220203720323032320037
:1024280006005250BBFF3CB6142400100600525060
:102438009A235618C423001006005250E182887F60
:10244800B423001006005250D3F07542AC2300109C
:102458000D0A00005541525420737464696E0000DF
:1024680055415254207374646F7574005541525429
:1024780020737464696E202F207374646F75740000
:102488000600525053B4F4A17424001008005250AE
:10249800920000004E6F2070726F6772616D20733A
:0824A800706163650000000093
:1024B000B4020010A80200109C0200102824001092
:1024C0009002001034240010402400104C2400100E
:0824D000882400109424001080
:1024D800D02330B500251B0600245D5706E00368AD
:1024E800BFF35F8F1C6081F3108820BF0268EFF391
:1024F800108172B61368002BFCD0BFF35F8F03798D
:102508007F2BECD905710368BFF35F8F00221A6037
:1025180081F3108830BDC04603000068EFF3108CCB
:1025280072B60268002AFCD0BFF35F8F04229A5665
:10253800002A0BDB00290FD000200A601B68BFF3BC
:102548005F8F00221A608CF310887047D022120621
:10255800126801201A71F1E70020EFE70268EFF333
:10256800108172B61368002BFCD0BFF35F8FFF2376
:1025780003710368BFF35F8F00221A6081F310882C
:1025880040BF70477047C04610000000940100200B
:10259800000000004002002080050020000000002C
:1025A800000000009005002000000000000000006E
:1025B8001000000000000000000001000000000002
:1025C8000000000000000200000000000000000001
:1025D8000000030000000000000000000000FF00F1
:1025E8000000000000B5486801318E46004770467B
:1025F80009380149884700BD2D1800100000000067
:10260800503300004C3300005433000052330000B4
:102618004D5300004D430000533400004334000084
:1026280001200010000000004D20001000000000F4
:10263800000100000000000000000000051D00105F
:102648001D1A0010DD1A0010751C0010ED02001094
:04000005100001E9FD
:00000001FF
