
C:/Users/hp/pico-apps/build/examples/hello_c/hello_c.elf:     file format elf32-littlearm

Sections:
Idx Name          Size      VMA       LMA       File off  Algn
  0 .boot2        00000100  10000000  10000000  00001000  2**0
                  CONTENTS, ALLOC, LOAD, READONLY, CODE
  1 .text         00001c38  10000100  10000100  00001100  2**3
                  CONTENTS, ALLOC, LOAD, READONLY, CODE
  2 .rodata       00000140  10001d38  10001d38  00002d38  2**2
                  CONTENTS, ALLOC, LOAD, READONLY, DATA
  3 .binary_info  00000028  10001e78  10001e78  00002e78  2**2
                  CONTENTS, ALLOC, LOAD, DATA
  4 .ram_vector_table 000000c0  20000000  20000000  00003240  2**2
                  CONTENTS
  5 .data         00000180  200000c0  10001ea0  000030c0  2**4
                  CONTENTS, ALLOC, LOAD, CODE
  6 .uninitialized_data 00000000  20000240  20000240  00003300  2**0
                  CONTENTS
  7 .scratch_x    00000000  20040000  20040000  00003300  2**0
                  CONTENTS
  8 .scratch_y    00000000  20041000  20041000  00003300  2**0
                  CONTENTS
  9 .bss          000003d0  20000240  20000240  00003240  2**3
                  ALLOC
 10 .heap         00000800  20000610  20000610  00003300  2**2
                  CONTENTS, READONLY
 11 .stack_dummy  00000800  20041000  20041000  00003b00  2**5
                  CONTENTS, READONLY
 12 .ARM.attributes 00000028  00000000  00000000  00004300  2**0
                  CONTENTS, READONLY
 13 .comment      00000057  00000000  00000000  00004328  2**0
                  CONTENTS, READONLY
 14 .debug_line   0000022b  00000000  00000000  0000437f  2**0
                  CONTENTS, READONLY, DEBUGGING, OCTETS
 15 .debug_line_str 00000053  00000000  00000000  000045aa  2**0
                  CONTENTS, READONLY, DEBUGGING, OCTETS
 16 .debug_info   0000010f  00000000  00000000  000045fd  2**0
                  CONTENTS, READONLY, DEBUGGING, OCTETS
 17 .debug_abbrev 000000a4  00000000  00000000  0000470c  2**0
                  CONTENTS, READONLY, DEBUGGING, OCTETS
 18 .debug_aranges 00000040  00000000  00000000  000047b0  2**3
                  CONTENTS, READONLY, DEBUGGING, OCTETS
 19 .debug_str    00000283  00000000  00000000  000047f0  2**0
                  CONTENTS, READONLY, DEBUGGING, OCTETS
 20 .debug_loclists 0000005e  00000000  00000000  00004a73  2**0
                  CONTENTS, READONLY, DEBUGGING, OCTETS
 21 .debug_rnglists 00000013  00000000  00000000  00004ad1  2**0
                  CONTENTS, READONLY, DEBUGGING, OCTETS
 22 .debug_frame  00000028  00000000  00000000  00004ae4  2**2
                  CONTENTS, READONLY, DEBUGGING, OCTETS

C:/Users/hp/pico-apps/build/examples/hello_c/hello_c.elf:     file format elf32-littlearm


Disassembly of section .boot2:

10000000 <__boot2_start__>:
10000000:	4b32b500 	.word	0x4b32b500
10000004:	60582021 	.word	0x60582021
10000008:	21026898 	.word	0x21026898
1000000c:	60984388 	.word	0x60984388
10000010:	611860d8 	.word	0x611860d8
10000014:	4b2e6158 	.word	0x4b2e6158
10000018:	60992100 	.word	0x60992100
1000001c:	61592102 	.word	0x61592102
10000020:	22f02101 	.word	0x22f02101
10000024:	492b5099 	.word	0x492b5099
10000028:	21016019 	.word	0x21016019
1000002c:	20356099 	.word	0x20356099
10000030:	f844f000 	.word	0xf844f000
10000034:	42902202 	.word	0x42902202
10000038:	2106d014 	.word	0x2106d014
1000003c:	f0006619 	.word	0xf0006619
10000040:	6e19f834 	.word	0x6e19f834
10000044:	66192101 	.word	0x66192101
10000048:	66182000 	.word	0x66182000
1000004c:	f000661a 	.word	0xf000661a
10000050:	6e19f82c 	.word	0x6e19f82c
10000054:	6e196e19 	.word	0x6e196e19
10000058:	f0002005 	.word	0xf0002005
1000005c:	2101f82f 	.word	0x2101f82f
10000060:	d1f94208 	.word	0xd1f94208
10000064:	60992100 	.word	0x60992100
10000068:	6019491b 	.word	0x6019491b
1000006c:	60592100 	.word	0x60592100
10000070:	481b491a 	.word	0x481b491a
10000074:	21016001 	.word	0x21016001
10000078:	21eb6099 	.word	0x21eb6099
1000007c:	21a06619 	.word	0x21a06619
10000080:	f0006619 	.word	0xf0006619
10000084:	2100f812 	.word	0x2100f812
10000088:	49166099 	.word	0x49166099
1000008c:	60014814 	.word	0x60014814
10000090:	60992101 	.word	0x60992101
10000094:	2800bc01 	.word	0x2800bc01
10000098:	4700d000 	.word	0x4700d000
1000009c:	49134812 	.word	0x49134812
100000a0:	c8036008 	.word	0xc8036008
100000a4:	8808f380 	.word	0x8808f380
100000a8:	b5034708 	.word	0xb5034708
100000ac:	20046a99 	.word	0x20046a99
100000b0:	d0fb4201 	.word	0xd0fb4201
100000b4:	42012001 	.word	0x42012001
100000b8:	bd03d1f8 	.word	0xbd03d1f8
100000bc:	6618b502 	.word	0x6618b502
100000c0:	f7ff6618 	.word	0xf7ff6618
100000c4:	6e18fff2 	.word	0x6e18fff2
100000c8:	bd026e18 	.word	0xbd026e18
100000cc:	40020000 	.word	0x40020000
100000d0:	18000000 	.word	0x18000000
100000d4:	00070000 	.word	0x00070000
100000d8:	005f0300 	.word	0x005f0300
100000dc:	00002221 	.word	0x00002221
100000e0:	180000f4 	.word	0x180000f4
100000e4:	a0002022 	.word	0xa0002022
100000e8:	10000100 	.word	0x10000100
100000ec:	e000ed08 	.word	0xe000ed08
	...
100000fc:	7a4eb274 	.word	0x7a4eb274

Disassembly of section .text:

10000100 <__VECTOR_TABLE>:
10000100:	20042000 	.word	0x20042000
10000104:	100001f7 	.word	0x100001f7
10000108:	100001c3 	.word	0x100001c3
1000010c:	100001c5 	.word	0x100001c5
10000110:	100001c1 	.word	0x100001c1
10000114:	100001c1 	.word	0x100001c1
10000118:	100001c1 	.word	0x100001c1
1000011c:	100001c1 	.word	0x100001c1
10000120:	100001c1 	.word	0x100001c1
10000124:	100001c1 	.word	0x100001c1
10000128:	100001c1 	.word	0x100001c1
1000012c:	100001c7 	.word	0x100001c7
10000130:	100001c1 	.word	0x100001c1
10000134:	100001c1 	.word	0x100001c1
10000138:	100001c9 	.word	0x100001c9
1000013c:	100001cb 	.word	0x100001cb
10000140:	100001cd 	.word	0x100001cd
10000144:	100001cd 	.word	0x100001cd
10000148:	100001cd 	.word	0x100001cd
1000014c:	100001cd 	.word	0x100001cd
10000150:	100001cd 	.word	0x100001cd
10000154:	100001cd 	.word	0x100001cd
10000158:	100001cd 	.word	0x100001cd
1000015c:	100001cd 	.word	0x100001cd
10000160:	100001cd 	.word	0x100001cd
10000164:	100001cd 	.word	0x100001cd
10000168:	100001cd 	.word	0x100001cd
1000016c:	100001cd 	.word	0x100001cd
10000170:	100001cd 	.word	0x100001cd
10000174:	100001cd 	.word	0x100001cd
10000178:	100001cd 	.word	0x100001cd
1000017c:	100001cd 	.word	0x100001cd
10000180:	100001cd 	.word	0x100001cd
10000184:	100001cd 	.word	0x100001cd
10000188:	100001cd 	.word	0x100001cd
1000018c:	100001cd 	.word	0x100001cd
10000190:	100001cd 	.word	0x100001cd
10000194:	100001cd 	.word	0x100001cd
10000198:	100001cd 	.word	0x100001cd
1000019c:	100001cd 	.word	0x100001cd
100001a0:	100001cd 	.word	0x100001cd
100001a4:	100001cd 	.word	0x100001cd
100001a8:	100001cd 	.word	0x100001cd
100001ac:	100001cd 	.word	0x100001cd
100001b0:	100001cd 	.word	0x100001cd
100001b4:	100001cd 	.word	0x100001cd
100001b8:	100001cd 	.word	0x100001cd
100001bc:	100001cd 	.word	0x100001cd

100001c0 <isr_invalid>:
100001c0:	be00      	bkpt	0x0000

100001c2 <isr_nmi>:
100001c2:	be00      	bkpt	0x0000

100001c4 <isr_hardfault>:
100001c4:	be00      	bkpt	0x0000

100001c6 <isr_svcall>:
100001c6:	be00      	bkpt	0x0000

100001c8 <isr_pendsv>:
100001c8:	be00      	bkpt	0x0000

100001ca <isr_systick>:
100001ca:	be00      	bkpt	0x0000

100001cc <__unhandled_user_irq>:
100001cc:	f000 f84b 	bl	10000266 <__get_current_exception>
100001d0:	3810      	subs	r0, #16

100001d2 <unhandled_user_irq_num_in_r0>:
100001d2:	be00      	bkpt	0x0000

100001d4 <binary_info_header>:
100001d4:	7188ebf2 	.word	0x7188ebf2
100001d8:	10001e78 	.word	0x10001e78
100001dc:	10001ea0 	.word	0x10001ea0
100001e0:	10000234 	.word	0x10000234
100001e4:	e71aa390 	.word	0xe71aa390

100001e8 <_entry_point>:
100001e8:	2000      	movs	r0, #0
100001ea:	4921      	ldr	r1, [pc, #132]	; (10000270 <__get_current_exception+0xa>)
100001ec:	6008      	str	r0, [r1, #0]
100001ee:	c806      	ldmia	r0!, {r1, r2}
100001f0:	f381 8808 	msr	MSP, r1
100001f4:	4710      	bx	r2

100001f6 <_reset_handler>:
100001f6:	481f      	ldr	r0, [pc, #124]	; (10000274 <__get_current_exception+0xe>)
100001f8:	6800      	ldr	r0, [r0, #0]
100001fa:	2800      	cmp	r0, #0
100001fc:	d12f      	bne.n	1000025e <hold_non_core0_in_bootrom>
100001fe:	a40d      	add	r4, pc, #52	; (adr r4, 10000234 <data_cpy_table>)
10000200:	cc0e      	ldmia	r4!, {r1, r2, r3}
10000202:	2900      	cmp	r1, #0
10000204:	d002      	beq.n	1000020c <_reset_handler+0x16>
10000206:	f000 f812 	bl	1000022e <data_cpy>
1000020a:	e7f9      	b.n	10000200 <_reset_handler+0xa>
1000020c:	491a      	ldr	r1, [pc, #104]	; (10000278 <__get_current_exception+0x12>)
1000020e:	4a1b      	ldr	r2, [pc, #108]	; (1000027c <__get_current_exception+0x16>)
10000210:	2000      	movs	r0, #0
10000212:	e000      	b.n	10000216 <bss_fill_test>

10000214 <bss_fill_loop>:
10000214:	c101      	stmia	r1!, {r0}

10000216 <bss_fill_test>:
10000216:	4291      	cmp	r1, r2
10000218:	d1fc      	bne.n	10000214 <bss_fill_loop>

1000021a <platform_entry>:
1000021a:	4919      	ldr	r1, [pc, #100]	; (10000280 <__get_current_exception+0x1a>)
1000021c:	4788      	blx	r1
1000021e:	4919      	ldr	r1, [pc, #100]	; (10000284 <__get_current_exception+0x1e>)
10000220:	4788      	blx	r1
10000222:	4919      	ldr	r1, [pc, #100]	; (10000288 <__get_current_exception+0x22>)
10000224:	4788      	blx	r1
10000226:	be00      	bkpt	0x0000
10000228:	e7fd      	b.n	10000226 <platform_entry+0xc>

1000022a <data_cpy_loop>:
1000022a:	c901      	ldmia	r1!, {r0}
1000022c:	c201      	stmia	r2!, {r0}

1000022e <data_cpy>:
1000022e:	429a      	cmp	r2, r3
10000230:	d3fb      	bcc.n	1000022a <data_cpy_loop>
10000232:	4770      	bx	lr

10000234 <data_cpy_table>:
10000234:	10001ea0 	.word	0x10001ea0
10000238:	200000c0 	.word	0x200000c0
1000023c:	20000240 	.word	0x20000240
10000240:	10002020 	.word	0x10002020
10000244:	20040000 	.word	0x20040000
10000248:	20040000 	.word	0x20040000
1000024c:	10002020 	.word	0x10002020
10000250:	20041000 	.word	0x20041000
10000254:	20041000 	.word	0x20041000
10000258:	00000000 	.word	0x00000000
1000025c:	4770      	bx	lr

1000025e <hold_non_core0_in_bootrom>:
1000025e:	480b      	ldr	r0, [pc, #44]	; (1000028c <__get_current_exception+0x26>)
10000260:	f001 fa34 	bl	100016cc <rom_func_lookup>
10000264:	4700      	bx	r0

10000266 <__get_current_exception>:
10000266:	f3ef 8005 	mrs	r0, IPSR
1000026a:	b2c0      	uxtb	r0, r0
1000026c:	4770      	bx	lr
1000026e:	0000      	.short	0x0000
10000270:	e000ed08 	.word	0xe000ed08
10000274:	d0000000 	.word	0xd0000000
10000278:	20000240 	.word	0x20000240
1000027c:	20000610 	.word	0x20000610
10000280:	10000ea5 	.word	0x10000ea5
10000284:	10000311 	.word	0x10000311
10000288:	10000f95 	.word	0x10000f95
1000028c:	00005657 	.word	0x00005657

10000290 <__bi_50>:
10000290:	50520006 5360b3ab 10001de8              ..RP..`S....

1000029c <__bi_38>:
1000029c:	50520006 02031c86 10001de0              ..RP........

100002a8 <__bi_30>:
100002a8:	50520006 9da22254 10001df8              ..RPT"......

100002b4 <__bi_22>:
100002b4:	50520005 68f465de 10002020              ..RP.e.h  ..

100002c0 <_init>:
100002c0:	b5f8      	push	{r3, r4, r5, r6, r7, lr}
100002c2:	46c0      	nop			; (mov r8, r8)

100002c4 <register_tm_clones>:
100002c4:	4806      	ldr	r0, [pc, #24]	; (100002e0 <register_tm_clones+0x1c>)
100002c6:	4907      	ldr	r1, [pc, #28]	; (100002e4 <register_tm_clones+0x20>)
100002c8:	1a09      	subs	r1, r1, r0
100002ca:	108b      	asrs	r3, r1, #2
100002cc:	0fc9      	lsrs	r1, r1, #31
100002ce:	18c9      	adds	r1, r1, r3
100002d0:	b510      	push	{r4, lr}
100002d2:	1049      	asrs	r1, r1, #1
100002d4:	d003      	beq.n	100002de <register_tm_clones+0x1a>
100002d6:	4b04      	ldr	r3, [pc, #16]	; (100002e8 <register_tm_clones+0x24>)
100002d8:	2b00      	cmp	r3, #0
100002da:	d000      	beq.n	100002de <register_tm_clones+0x1a>
100002dc:	4798      	blx	r3
100002de:	bd10      	pop	{r4, pc}
100002e0:	20000240 	.word	0x20000240
100002e4:	20000240 	.word	0x20000240
100002e8:	00000000 	.word	0x00000000

100002ec <frame_dummy>:
100002ec:	4b05      	ldr	r3, [pc, #20]	; (10000304 <frame_dummy+0x18>)
100002ee:	b510      	push	{r4, lr}
100002f0:	2b00      	cmp	r3, #0
100002f2:	d003      	beq.n	100002fc <frame_dummy+0x10>
100002f4:	4904      	ldr	r1, [pc, #16]	; (10000308 <frame_dummy+0x1c>)
100002f6:	4805      	ldr	r0, [pc, #20]	; (1000030c <frame_dummy+0x20>)
100002f8:	e000      	b.n	100002fc <frame_dummy+0x10>
100002fa:	bf00      	nop
100002fc:	f7ff ffe2 	bl	100002c4 <register_tm_clones>
10000300:	bd10      	pop	{r4, pc}
10000302:	46c0      	nop			; (mov r8, r8)
10000304:	00000000 	.word	0x00000000
10000308:	200005c4 	.word	0x200005c4
1000030c:	10001d38 	.word	0x10001d38

10000310 <main>:
10000310:	b510      	push	{r4, lr}
10000312:	f001 fc55 	bl	10001bc0 <stdio_init_all>
10000316:	4802      	ldr	r0, [pc, #8]	; (10000320 <main+0x10>)
10000318:	f001 fc16 	bl	10001b48 <__wrap_puts>
1000031c:	2000      	movs	r0, #0
1000031e:	bd10      	pop	{r4, pc}
10000320:	10001d38 	.word	0x10001d38

10000324 <gpio_set_function>:
10000324:	4a09      	ldr	r2, [pc, #36]	; (1000034c <gpio_set_function+0x28>)
10000326:	b510      	push	{r4, lr}
10000328:	4694      	mov	ip, r2
1000032a:	2440      	movs	r4, #64	; 0x40
1000032c:	0083      	lsls	r3, r0, #2
1000032e:	4463      	add	r3, ip
10000330:	681a      	ldr	r2, [r3, #0]
10000332:	00c0      	lsls	r0, r0, #3
10000334:	4062      	eors	r2, r4
10000336:	3480      	adds	r4, #128	; 0x80
10000338:	4014      	ands	r4, r2
1000033a:	2280      	movs	r2, #128	; 0x80
1000033c:	0152      	lsls	r2, r2, #5
1000033e:	4313      	orrs	r3, r2
10000340:	601c      	str	r4, [r3, #0]
10000342:	4b03      	ldr	r3, [pc, #12]	; (10000350 <gpio_set_function+0x2c>)
10000344:	469c      	mov	ip, r3
10000346:	4460      	add	r0, ip
10000348:	6041      	str	r1, [r0, #4]
1000034a:	bd10      	pop	{r4, pc}
1000034c:	4001c004 	.word	0x4001c004
10000350:	40014000 	.word	0x40014000

10000354 <hw_claim_or_assert>:
10000354:	b570      	push	{r4, r5, r6, lr}
10000356:	f3ef 8c10 	mrs	ip, PRIMASK
1000035a:	b672      	cpsid	i
1000035c:	4d0d      	ldr	r5, [pc, #52]	; (10000394 <hw_claim_or_assert+0x40>)
1000035e:	682b      	ldr	r3, [r5, #0]
10000360:	2b00      	cmp	r3, #0
10000362:	d0fc      	beq.n	1000035e <hw_claim_or_assert+0xa>
10000364:	f3bf 8f5f 	dmb	sy
10000368:	2407      	movs	r4, #7
1000036a:	08cb      	lsrs	r3, r1, #3
1000036c:	18c6      	adds	r6, r0, r3
1000036e:	5cc0      	ldrb	r0, [r0, r3]
10000370:	2301      	movs	r3, #1
10000372:	400c      	ands	r4, r1
10000374:	40a3      	lsls	r3, r4
10000376:	001c      	movs	r4, r3
10000378:	4004      	ands	r4, r0
1000037a:	4203      	tst	r3, r0
1000037c:	d107      	bne.n	1000038e <hw_claim_or_assert+0x3a>
1000037e:	4318      	orrs	r0, r3
10000380:	7030      	strb	r0, [r6, #0]
10000382:	f3bf 8f5f 	dmb	sy
10000386:	602c      	str	r4, [r5, #0]
10000388:	f38c 8810 	msr	PRIMASK, ip
1000038c:	bd70      	pop	{r4, r5, r6, pc}
1000038e:	0010      	movs	r0, r2
10000390:	f000 fe02 	bl	10000f98 <panic>
10000394:	d000012c 	.word	0xd000012c

10000398 <running_on_fpga>:
10000398:	4b02      	ldr	r3, [pc, #8]	; (100003a4 <running_on_fpga+0xc>)
1000039a:	6818      	ldr	r0, [r3, #0]
1000039c:	0780      	lsls	r0, r0, #30
1000039e:	0fc0      	lsrs	r0, r0, #31
100003a0:	4770      	bx	lr
100003a2:	46c0      	nop			; (mov r8, r8)
100003a4:	4006c000 	.word	0x4006c000

100003a8 <spin_locks_reset>:
100003a8:	2100      	movs	r1, #0
100003aa:	4b04      	ldr	r3, [pc, #16]	; (100003bc <spin_locks_reset+0x14>)
100003ac:	4a04      	ldr	r2, [pc, #16]	; (100003c0 <spin_locks_reset+0x18>)
100003ae:	f3bf 8f5f 	dmb	sy
100003b2:	c302      	stmia	r3!, {r1}
100003b4:	4293      	cmp	r3, r2
100003b6:	d1fa      	bne.n	100003ae <spin_locks_reset+0x6>
100003b8:	4770      	bx	lr
100003ba:	46c0      	nop			; (mov r8, r8)
100003bc:	d0000100 	.word	0xd0000100
100003c0:	d0000180 	.word	0xd0000180

100003c4 <next_striped_spin_lock_num>:
100003c4:	4a04      	ldr	r2, [pc, #16]	; (100003d8 <next_striped_spin_lock_num+0x14>)
100003c6:	7810      	ldrb	r0, [r2, #0]
100003c8:	1c43      	adds	r3, r0, #1
100003ca:	b2db      	uxtb	r3, r3
100003cc:	2b17      	cmp	r3, #23
100003ce:	d900      	bls.n	100003d2 <next_striped_spin_lock_num+0xe>
100003d0:	2310      	movs	r3, #16
100003d2:	7013      	strb	r3, [r2, #0]
100003d4:	4770      	bx	lr
100003d6:	46c0      	nop			; (mov r8, r8)
100003d8:	20000178 	.word	0x20000178

100003dc <uart_init>:
100003dc:	b5f8      	push	{r3, r4, r5, r6, r7, lr}
100003de:	0004      	movs	r4, r0
100003e0:	2006      	movs	r0, #6
100003e2:	000d      	movs	r5, r1
100003e4:	f000 ff4e 	bl	10001284 <clock_get_hz>
100003e8:	2800      	cmp	r0, #0
100003ea:	d044      	beq.n	10000476 <uart_init+0x9a>
100003ec:	4b2a      	ldr	r3, [pc, #168]	; (10000498 <uart_init+0xbc>)
100003ee:	492b      	ldr	r1, [pc, #172]	; (1000049c <uart_init+0xc0>)
100003f0:	18e2      	adds	r2, r4, r3
100003f2:	4253      	negs	r3, r2
100003f4:	415a      	adcs	r2, r3
100003f6:	2380      	movs	r3, #128	; 0x80
100003f8:	03db      	lsls	r3, r3, #15
100003fa:	469c      	mov	ip, r3
100003fc:	0592      	lsls	r2, r2, #22
100003fe:	4b28      	ldr	r3, [pc, #160]	; (100004a0 <uart_init+0xc4>)
10000400:	4462      	add	r2, ip
10000402:	601a      	str	r2, [r3, #0]
10000404:	4b27      	ldr	r3, [pc, #156]	; (100004a4 <uart_init+0xc8>)
10000406:	601a      	str	r2, [r3, #0]
10000408:	0010      	movs	r0, r2
1000040a:	688b      	ldr	r3, [r1, #8]
1000040c:	4398      	bics	r0, r3
1000040e:	d1fb      	bne.n	10000408 <uart_init+0x2c>
10000410:	4b21      	ldr	r3, [pc, #132]	; (10000498 <uart_init+0xbc>)
10000412:	4a25      	ldr	r2, [pc, #148]	; (100004a8 <uart_init+0xcc>)
10000414:	18e3      	adds	r3, r4, r3
10000416:	4259      	negs	r1, r3
10000418:	414b      	adcs	r3, r1
1000041a:	2180      	movs	r1, #128	; 0x80
1000041c:	005b      	lsls	r3, r3, #1
1000041e:	0049      	lsls	r1, r1, #1
10000420:	5299      	strh	r1, [r3, r2]
10000422:	2006      	movs	r0, #6
10000424:	f000 ff2e 	bl	10001284 <clock_get_hz>
10000428:	0029      	movs	r1, r5
1000042a:	00c0      	lsls	r0, r0, #3
1000042c:	f001 f980 	bl	10001730 <__wrap___aeabi_uidiv>
10000430:	09c3      	lsrs	r3, r0, #7
10000432:	d121      	bne.n	10000478 <uart_init+0x9c>
10000434:	2740      	movs	r7, #64	; 0x40
10000436:	2101      	movs	r1, #1
10000438:	0026      	movs	r6, r4
1000043a:	2580      	movs	r5, #128	; 0x80
1000043c:	6261      	str	r1, [r4, #36]	; 0x24
1000043e:	62a3      	str	r3, [r4, #40]	; 0x28
10000440:	2300      	movs	r3, #0
10000442:	362c      	adds	r6, #44	; 0x2c
10000444:	01ad      	lsls	r5, r5, #6
10000446:	4335      	orrs	r5, r6
10000448:	602b      	str	r3, [r5, #0]
1000044a:	2006      	movs	r0, #6
1000044c:	f000 ff1a 	bl	10001284 <clock_get_hz>
10000450:	0039      	movs	r1, r7
10000452:	0080      	lsls	r0, r0, #2
10000454:	f001 f96c 	bl	10001730 <__wrap___aeabi_uidiv>
10000458:	2260      	movs	r2, #96	; 0x60
1000045a:	6ae3      	ldr	r3, [r4, #44]	; 0x2c
1000045c:	4053      	eors	r3, r2
1000045e:	320e      	adds	r2, #14
10000460:	401a      	ands	r2, r3
10000462:	2380      	movs	r3, #128	; 0x80
10000464:	015b      	lsls	r3, r3, #5
10000466:	4333      	orrs	r3, r6
10000468:	601a      	str	r2, [r3, #0]
1000046a:	4b10      	ldr	r3, [pc, #64]	; (100004ac <uart_init+0xd0>)
1000046c:	6323      	str	r3, [r4, #48]	; 0x30
1000046e:	2310      	movs	r3, #16
10000470:	602b      	str	r3, [r5, #0]
10000472:	3b0d      	subs	r3, #13
10000474:	64a3      	str	r3, [r4, #72]	; 0x48
10000476:	bdf8      	pop	{r3, r4, r5, r6, r7, pc}
10000478:	4a0d      	ldr	r2, [pc, #52]	; (100004b0 <uart_init+0xd4>)
1000047a:	4293      	cmp	r3, r2
1000047c:	d903      	bls.n	10000486 <uart_init+0xaa>
1000047e:	2300      	movs	r3, #0
10000480:	4f0c      	ldr	r7, [pc, #48]	; (100004b4 <uart_init+0xd8>)
10000482:	490d      	ldr	r1, [pc, #52]	; (100004b8 <uart_init+0xdc>)
10000484:	e7d8      	b.n	10000438 <uart_init+0x5c>
10000486:	227f      	movs	r2, #127	; 0x7f
10000488:	4002      	ands	r2, r0
1000048a:	3201      	adds	r2, #1
1000048c:	0852      	lsrs	r2, r2, #1
1000048e:	019f      	lsls	r7, r3, #6
10000490:	0019      	movs	r1, r3
10000492:	18bf      	adds	r7, r7, r2
10000494:	0013      	movs	r3, r2
10000496:	e7cf      	b.n	10000438 <uart_init+0x5c>
10000498:	bffc8000 	.word	0xbffc8000
1000049c:	4000c000 	.word	0x4000c000
100004a0:	4000e000 	.word	0x4000e000
100004a4:	4000f000 	.word	0x4000f000
100004a8:	20000604 	.word	0x20000604
100004ac:	00000301 	.word	0x00000301
100004b0:	0000fffe 	.word	0x0000fffe
100004b4:	003fffc0 	.word	0x003fffc0
100004b8:	0000ffff 	.word	0x0000ffff

100004bc <timer_pool_entry_comparator>:
100004bc:	6883      	ldr	r3, [r0, #8]
100004be:	480b      	ldr	r0, [pc, #44]	; (100004ec <timer_pool_entry_comparator+0x30>)
100004c0:	b510      	push	{r4, lr}
100004c2:	4684      	mov	ip, r0
100004c4:	4461      	add	r1, ip
100004c6:	4462      	add	r2, ip
100004c8:	0112      	lsls	r2, r2, #4
100004ca:	0109      	lsls	r1, r1, #4
100004cc:	1859      	adds	r1, r3, r1
100004ce:	189b      	adds	r3, r3, r2
100004d0:	685c      	ldr	r4, [r3, #4]
100004d2:	684a      	ldr	r2, [r1, #4]
100004d4:	2001      	movs	r0, #1
100004d6:	4294      	cmp	r4, r2
100004d8:	d801      	bhi.n	100004de <timer_pool_entry_comparator+0x22>
100004da:	d002      	beq.n	100004e2 <timer_pool_entry_comparator+0x26>
100004dc:	2000      	movs	r0, #0
100004de:	b2c0      	uxtb	r0, r0
100004e0:	bd10      	pop	{r4, pc}
100004e2:	681a      	ldr	r2, [r3, #0]
100004e4:	680b      	ldr	r3, [r1, #0]
100004e6:	429a      	cmp	r2, r3
100004e8:	d8f9      	bhi.n	100004de <timer_pool_entry_comparator+0x22>
100004ea:	e7f7      	b.n	100004dc <timer_pool_entry_comparator+0x20>
100004ec:	0fffffff 	.word	0x0fffffff

100004f0 <add_alarm_under_lock.isra.0>:
100004f0:	b5f8      	push	{r3, r4, r5, r6, r7, lr}
100004f2:	4657      	mov	r7, sl
100004f4:	4645      	mov	r5, r8
100004f6:	464e      	mov	r6, r9
100004f8:	46de      	mov	lr, fp
100004fa:	b5e0      	push	{r5, r6, r7, lr}
100004fc:	4699      	mov	r9, r3
100004fe:	ab0c      	add	r3, sp, #48	; 0x30
10000500:	781c      	ldrb	r4, [r3, #0]
10000502:	ab0d      	add	r3, sp, #52	; 0x34
10000504:	781b      	ldrb	r3, [r3, #0]
10000506:	0007      	movs	r7, r0
10000508:	4690      	mov	r8, r2
1000050a:	469a      	mov	sl, r3
1000050c:	6805      	ldr	r5, [r0, #0]
1000050e:	2c00      	cmp	r4, #0
10000510:	d144      	bne.n	1000059c <add_alarm_under_lock.isra.0+0xac>
10000512:	7bac      	ldrb	r4, [r5, #14]
10000514:	2c00      	cmp	r4, #0
10000516:	d03b      	beq.n	10000590 <add_alarm_under_lock.isra.0+0xa0>
10000518:	0066      	lsls	r6, r4, #1
1000051a:	6829      	ldr	r1, [r5, #0]
1000051c:	1936      	adds	r6, r6, r4
1000051e:	3e03      	subs	r6, #3
10000520:	1989      	adds	r1, r1, r6
10000522:	784b      	ldrb	r3, [r1, #1]
10000524:	73ab      	strb	r3, [r5, #14]
10000526:	2b00      	cmp	r3, #0
10000528:	d100      	bne.n	1000052c <add_alarm_under_lock.isra.0+0x3c>
1000052a:	73eb      	strb	r3, [r5, #15]
1000052c:	2300      	movs	r3, #0
1000052e:	708b      	strb	r3, [r1, #2]
10000530:	704b      	strb	r3, [r1, #1]
10000532:	700b      	strb	r3, [r1, #0]
10000534:	4b2e      	ldr	r3, [pc, #184]	; (100005f0 <add_alarm_under_lock.isra.0+0x100>)
10000536:	18e2      	adds	r2, r4, r3
10000538:	68bb      	ldr	r3, [r7, #8]
1000053a:	0112      	lsls	r2, r2, #4
1000053c:	189b      	adds	r3, r3, r2
1000053e:	4642      	mov	r2, r8
10000540:	601a      	str	r2, [r3, #0]
10000542:	464a      	mov	r2, r9
10000544:	605a      	str	r2, [r3, #4]
10000546:	9a0a      	ldr	r2, [sp, #40]	; 0x28
10000548:	609a      	str	r2, [r3, #8]
1000054a:	9a0b      	ldr	r2, [sp, #44]	; 0x2c
1000054c:	60da      	str	r2, [r3, #12]
1000054e:	2300      	movs	r3, #0
10000550:	708b      	strb	r3, [r1, #2]
10000552:	704b      	strb	r3, [r1, #1]
10000554:	700b      	strb	r3, [r1, #0]
10000556:	7b6b      	ldrb	r3, [r5, #13]
10000558:	469b      	mov	fp, r3
1000055a:	2b00      	cmp	r3, #0
1000055c:	d032      	beq.n	100005c4 <add_alarm_under_lock.isra.0+0xd4>
1000055e:	0022      	movs	r2, r4
10000560:	4659      	mov	r1, fp
10000562:	68a8      	ldr	r0, [r5, #8]
10000564:	686b      	ldr	r3, [r5, #4]
10000566:	4798      	blx	r3
10000568:	2800      	cmp	r0, #0
1000056a:	d01d      	beq.n	100005a8 <add_alarm_under_lock.isra.0+0xb8>
1000056c:	465b      	mov	r3, fp
1000056e:	4658      	mov	r0, fp
10000570:	6829      	ldr	r1, [r5, #0]
10000572:	005b      	lsls	r3, r3, #1
10000574:	445b      	add	r3, fp
10000576:	198e      	adds	r6, r1, r6
10000578:	3b03      	subs	r3, #3
1000057a:	70b0      	strb	r0, [r6, #2]
1000057c:	18ca      	adds	r2, r1, r3
1000057e:	5ccb      	ldrb	r3, [r1, r3]
10000580:	2b00      	cmp	r3, #0
10000582:	d000      	beq.n	10000586 <add_alarm_under_lock.isra.0+0x96>
10000584:	7073      	strb	r3, [r6, #1]
10000586:	465b      	mov	r3, fp
10000588:	7014      	strb	r4, [r2, #0]
1000058a:	736b      	strb	r3, [r5, #13]
1000058c:	455c      	cmp	r4, fp
1000058e:	d01a      	beq.n	100005c6 <add_alarm_under_lock.isra.0+0xd6>
10000590:	bcf0      	pop	{r4, r5, r6, r7}
10000592:	46bb      	mov	fp, r7
10000594:	46b2      	mov	sl, r6
10000596:	46a9      	mov	r9, r5
10000598:	46a0      	mov	r8, r4
1000059a:	bdf8      	pop	{r3, r4, r5, r6, r7, pc}
1000059c:	0066      	lsls	r6, r4, #1
1000059e:	6829      	ldr	r1, [r5, #0]
100005a0:	1936      	adds	r6, r6, r4
100005a2:	3e03      	subs	r6, #3
100005a4:	1989      	adds	r1, r1, r6
100005a6:	e7c5      	b.n	10000534 <add_alarm_under_lock.isra.0+0x44>
100005a8:	465b      	mov	r3, fp
100005aa:	005b      	lsls	r3, r3, #1
100005ac:	682a      	ldr	r2, [r5, #0]
100005ae:	445b      	add	r3, fp
100005b0:	3b03      	subs	r3, #3
100005b2:	18d3      	adds	r3, r2, r3
100005b4:	709c      	strb	r4, [r3, #2]
100005b6:	1991      	adds	r1, r2, r6
100005b8:	5d92      	ldrb	r2, [r2, r6]
100005ba:	2a00      	cmp	r2, #0
100005bc:	d000      	beq.n	100005c0 <add_alarm_under_lock.isra.0+0xd0>
100005be:	705a      	strb	r2, [r3, #1]
100005c0:	465b      	mov	r3, fp
100005c2:	700b      	strb	r3, [r1, #0]
100005c4:	736c      	strb	r4, [r5, #13]
100005c6:	4642      	mov	r2, r8
100005c8:	464b      	mov	r3, r9
100005ca:	7d38      	ldrb	r0, [r7, #20]
100005cc:	f000 f9e0 	bl	10000990 <hardware_alarm_set_target>
100005d0:	1e05      	subs	r5, r0, #0
100005d2:	d002      	beq.n	100005da <add_alarm_under_lock.isra.0+0xea>
100005d4:	4653      	mov	r3, sl
100005d6:	2b00      	cmp	r3, #0
100005d8:	d004      	beq.n	100005e4 <add_alarm_under_lock.isra.0+0xf4>
100005da:	9b0e      	ldr	r3, [sp, #56]	; 0x38
100005dc:	2b00      	cmp	r3, #0
100005de:	d0d7      	beq.n	10000590 <add_alarm_under_lock.isra.0+0xa0>
100005e0:	701d      	strb	r5, [r3, #0]
100005e2:	e7d5      	b.n	10000590 <add_alarm_under_lock.isra.0+0xa0>
100005e4:	0021      	movs	r1, r4
100005e6:	6838      	ldr	r0, [r7, #0]
100005e8:	f000 fc1e 	bl	10000e28 <ph_remove_and_free_node>
100005ec:	e7f5      	b.n	100005da <add_alarm_under_lock.isra.0+0xea>
100005ee:	46c0      	nop			; (mov r8, r8)
100005f0:	0fffffff 	.word	0x0fffffff

100005f4 <alarm_pool_alarm_callback>:
100005f4:	b5f0      	push	{r4, r5, r6, r7, lr}
100005f6:	46de      	mov	lr, fp
100005f8:	464e      	mov	r6, r9
100005fa:	4657      	mov	r7, sl
100005fc:	4645      	mov	r5, r8
100005fe:	2300      	movs	r3, #0
10000600:	b5e0      	push	{r5, r6, r7, lr}
10000602:	b08d      	sub	sp, #52	; 0x34
10000604:	930a      	str	r3, [sp, #40]	; 0x28
10000606:	4b6b      	ldr	r3, [pc, #428]	; (100007b4 <alarm_pool_alarm_callback+0x1c0>)
10000608:	0082      	lsls	r2, r0, #2
1000060a:	58d3      	ldr	r3, [r2, r3]
1000060c:	900b      	str	r0, [sp, #44]	; 0x2c
1000060e:	4699      	mov	r9, r3
10000610:	2300      	movs	r3, #0
10000612:	469b      	mov	fp, r3
10000614:	464b      	mov	r3, r9
10000616:	9307      	str	r3, [sp, #28]
10000618:	f000 f96a 	bl	100008f0 <time_us_64>
1000061c:	9c07      	ldr	r4, [sp, #28]
1000061e:	0006      	movs	r6, r0
10000620:	000f      	movs	r7, r1
10000622:	6862      	ldr	r2, [r4, #4]
10000624:	f3ef 8510 	mrs	r5, PRIMASK
10000628:	b672      	cpsid	i
1000062a:	6813      	ldr	r3, [r2, #0]
1000062c:	2b00      	cmp	r3, #0
1000062e:	d0fc      	beq.n	1000062a <alarm_pool_alarm_callback+0x36>
10000630:	0022      	movs	r2, r4
10000632:	9407      	str	r4, [sp, #28]
10000634:	f3bf 8f5f 	dmb	sy
10000638:	6824      	ldr	r4, [r4, #0]
1000063a:	7b63      	ldrb	r3, [r4, #13]
1000063c:	4699      	mov	r9, r3
1000063e:	2b00      	cmp	r3, #0
10000640:	d066      	beq.n	10000710 <alarm_pool_alarm_callback+0x11c>
10000642:	6892      	ldr	r2, [r2, #8]
10000644:	4b5c      	ldr	r3, [pc, #368]	; (100007b8 <alarm_pool_alarm_callback+0x1c4>)
10000646:	4690      	mov	r8, r2
10000648:	444b      	add	r3, r9
1000064a:	011b      	lsls	r3, r3, #4
1000064c:	4498      	add	r8, r3
1000064e:	4643      	mov	r3, r8
10000650:	681a      	ldr	r2, [r3, #0]
10000652:	685b      	ldr	r3, [r3, #4]
10000654:	0010      	movs	r0, r2
10000656:	0019      	movs	r1, r3
10000658:	1b80      	subs	r0, r0, r6
1000065a:	41b9      	sbcs	r1, r7
1000065c:	2900      	cmp	r1, #0
1000065e:	dd5e      	ble.n	1000071e <alarm_pool_alarm_callback+0x12a>
10000660:	980b      	ldr	r0, [sp, #44]	; 0x2c
10000662:	f000 f995 	bl	10000990 <hardware_alarm_set_target>
10000666:	2300      	movs	r3, #0
10000668:	2600      	movs	r6, #0
1000066a:	4698      	mov	r8, r3
1000066c:	2700      	movs	r7, #0
1000066e:	469a      	mov	sl, r3
10000670:	9c07      	ldr	r4, [sp, #28]
10000672:	6863      	ldr	r3, [r4, #4]
10000674:	f3bf 8f5f 	dmb	sy
10000678:	465a      	mov	r2, fp
1000067a:	601a      	str	r2, [r3, #0]
1000067c:	f385 8810 	msr	PRIMASK, r5
10000680:	4653      	mov	r3, sl
10000682:	2b00      	cmp	r3, #0
10000684:	d108      	bne.n	10000698 <alarm_pool_alarm_callback+0xa4>
10000686:	2800      	cmp	r0, #0
10000688:	d1c6      	bne.n	10000618 <alarm_pool_alarm_callback+0x24>
1000068a:	b00d      	add	sp, #52	; 0x34
1000068c:	bcf0      	pop	{r4, r5, r6, r7}
1000068e:	46bb      	mov	fp, r7
10000690:	46b2      	mov	sl, r6
10000692:	46a9      	mov	r9, r5
10000694:	46a0      	mov	r8, r4
10000696:	bdf0      	pop	{r4, r5, r6, r7, pc}
10000698:	9b0a      	ldr	r3, [sp, #40]	; 0x28
1000069a:	4641      	mov	r1, r8
1000069c:	0218      	lsls	r0, r3, #8
1000069e:	464b      	mov	r3, r9
100006a0:	4318      	orrs	r0, r3
100006a2:	47d0      	blx	sl
100006a4:	9008      	str	r0, [sp, #32]
100006a6:	9109      	str	r1, [sp, #36]	; 0x24
100006a8:	6862      	ldr	r2, [r4, #4]
100006aa:	f3ef 8510 	mrs	r5, PRIMASK
100006ae:	b672      	cpsid	i
100006b0:	6813      	ldr	r3, [r2, #0]
100006b2:	2b00      	cmp	r3, #0
100006b4:	d0fc      	beq.n	100006b0 <alarm_pool_alarm_callback+0xbc>
100006b6:	9407      	str	r4, [sp, #28]
100006b8:	f3bf 8f5f 	dmb	sy
100006bc:	9908      	ldr	r1, [sp, #32]
100006be:	9a09      	ldr	r2, [sp, #36]	; 0x24
100006c0:	2a00      	cmp	r2, #0
100006c2:	db47      	blt.n	10000754 <alarm_pool_alarm_callback+0x160>
100006c4:	4311      	orrs	r1, r2
100006c6:	d003      	beq.n	100006d0 <alarm_pool_alarm_callback+0xdc>
100006c8:	9b07      	ldr	r3, [sp, #28]
100006ca:	691b      	ldr	r3, [r3, #16]
100006cc:	2b00      	cmp	r3, #0
100006ce:	d15c      	bne.n	1000078a <alarm_pool_alarm_callback+0x196>
100006d0:	9b07      	ldr	r3, [sp, #28]
100006d2:	681b      	ldr	r3, [r3, #0]
100006d4:	7bd9      	ldrb	r1, [r3, #15]
100006d6:	2900      	cmp	r1, #0
100006d8:	d006      	beq.n	100006e8 <alarm_pool_alarm_callback+0xf4>
100006da:	681a      	ldr	r2, [r3, #0]
100006dc:	0048      	lsls	r0, r1, #1
100006de:	1841      	adds	r1, r0, r1
100006e0:	1852      	adds	r2, r2, r1
100006e2:	4649      	mov	r1, r9
100006e4:	3a03      	subs	r2, #3
100006e6:	7051      	strb	r1, [r2, #1]
100006e8:	464a      	mov	r2, r9
100006ea:	73da      	strb	r2, [r3, #15]
100006ec:	464b      	mov	r3, r9
100006ee:	9a07      	ldr	r2, [sp, #28]
100006f0:	3b01      	subs	r3, #1
100006f2:	68d1      	ldr	r1, [r2, #12]
100006f4:	5cca      	ldrb	r2, [r1, r3]
100006f6:	3201      	adds	r2, #1
100006f8:	54ca      	strb	r2, [r1, r3]
100006fa:	465b      	mov	r3, fp
100006fc:	9a07      	ldr	r2, [sp, #28]
100006fe:	6113      	str	r3, [r2, #16]
10000700:	6853      	ldr	r3, [r2, #4]
10000702:	f3bf 8f5f 	dmb	sy
10000706:	465a      	mov	r2, fp
10000708:	601a      	str	r2, [r3, #0]
1000070a:	f385 8810 	msr	PRIMASK, r5
1000070e:	e783      	b.n	10000618 <alarm_pool_alarm_callback+0x24>
10000710:	2300      	movs	r3, #0
10000712:	2600      	movs	r6, #0
10000714:	4698      	mov	r8, r3
10000716:	2700      	movs	r7, #0
10000718:	469a      	mov	sl, r3
1000071a:	2000      	movs	r0, #0
1000071c:	e7a8      	b.n	10000670 <alarm_pool_alarm_callback+0x7c>
1000071e:	2900      	cmp	r1, #0
10000720:	d101      	bne.n	10000726 <alarm_pool_alarm_callback+0x132>
10000722:	2800      	cmp	r0, #0
10000724:	d19c      	bne.n	10000660 <alarm_pool_alarm_callback+0x6c>
10000726:	2100      	movs	r1, #0
10000728:	0020      	movs	r0, r4
1000072a:	f000 faff 	bl	10000d2c <ph_remove_head>
1000072e:	4643      	mov	r3, r8
10000730:	681e      	ldr	r6, [r3, #0]
10000732:	685f      	ldr	r7, [r3, #4]
10000734:	689b      	ldr	r3, [r3, #8]
10000736:	9a07      	ldr	r2, [sp, #28]
10000738:	469a      	mov	sl, r3
1000073a:	4643      	mov	r3, r8
1000073c:	68db      	ldr	r3, [r3, #12]
1000073e:	4698      	mov	r8, r3
10000740:	68d3      	ldr	r3, [r2, #12]
10000742:	444b      	add	r3, r9
10000744:	3b01      	subs	r3, #1
10000746:	781b      	ldrb	r3, [r3, #0]
10000748:	930a      	str	r3, [sp, #40]	; 0x28
1000074a:	021b      	lsls	r3, r3, #8
1000074c:	4303      	orrs	r3, r0
1000074e:	6113      	str	r3, [r2, #16]
10000750:	2000      	movs	r0, #0
10000752:	e78d      	b.n	10000670 <alarm_pool_alarm_callback+0x7c>
10000754:	6923      	ldr	r3, [r4, #16]
10000756:	2b00      	cmp	r3, #0
10000758:	d0ba      	beq.n	100006d0 <alarm_pool_alarm_callback+0xdc>
1000075a:	0033      	movs	r3, r6
1000075c:	003c      	movs	r4, r7
1000075e:	1a5b      	subs	r3, r3, r1
10000760:	4194      	sbcs	r4, r2
10000762:	001a      	movs	r2, r3
10000764:	0023      	movs	r3, r4
10000766:	42a7      	cmp	r7, r4
10000768:	d819      	bhi.n	1000079e <alarm_pool_alarm_callback+0x1aa>
1000076a:	429f      	cmp	r7, r3
1000076c:	d01b      	beq.n	100007a6 <alarm_pool_alarm_callback+0x1b2>
1000076e:	4659      	mov	r1, fp
10000770:	9104      	str	r1, [sp, #16]
10000772:	2101      	movs	r1, #1
10000774:	9103      	str	r1, [sp, #12]
10000776:	4649      	mov	r1, r9
10000778:	9102      	str	r1, [sp, #8]
1000077a:	4641      	mov	r1, r8
1000077c:	9101      	str	r1, [sp, #4]
1000077e:	4651      	mov	r1, sl
10000780:	9807      	ldr	r0, [sp, #28]
10000782:	9100      	str	r1, [sp, #0]
10000784:	f7ff feb4 	bl	100004f0 <add_alarm_under_lock.isra.0>
10000788:	e7b7      	b.n	100006fa <alarm_pool_alarm_callback+0x106>
1000078a:	f000 f8b1 	bl	100008f0 <time_us_64>
1000078e:	9a08      	ldr	r2, [sp, #32]
10000790:	9b09      	ldr	r3, [sp, #36]	; 0x24
10000792:	0006      	movs	r6, r0
10000794:	000f      	movs	r7, r1
10000796:	1992      	adds	r2, r2, r6
10000798:	417b      	adcs	r3, r7
1000079a:	4299      	cmp	r1, r3
1000079c:	d9e5      	bls.n	1000076a <alarm_pool_alarm_callback+0x176>
1000079e:	2201      	movs	r2, #1
100007a0:	4252      	negs	r2, r2
100007a2:	17d3      	asrs	r3, r2, #31
100007a4:	e7e3      	b.n	1000076e <alarm_pool_alarm_callback+0x17a>
100007a6:	4296      	cmp	r6, r2
100007a8:	d9e1      	bls.n	1000076e <alarm_pool_alarm_callback+0x17a>
100007aa:	2201      	movs	r2, #1
100007ac:	4252      	negs	r2, r2
100007ae:	17d3      	asrs	r3, r2, #31
100007b0:	e7dd      	b.n	1000076e <alarm_pool_alarm_callback+0x17a>
100007b2:	46c0      	nop			; (mov r8, r8)
100007b4:	200005dc 	.word	0x200005dc
100007b8:	0fffffff 	.word	0x0fffffff

100007bc <alarm_pool_init_default>:
100007bc:	b510      	push	{r4, lr}
100007be:	4c12      	ldr	r4, [pc, #72]	; (10000808 <alarm_pool_init_default+0x4c>)
100007c0:	6863      	ldr	r3, [r4, #4]
100007c2:	2b00      	cmp	r3, #0
100007c4:	d004      	beq.n	100007d0 <alarm_pool_init_default+0x14>
100007c6:	210a      	movs	r1, #10
100007c8:	4810      	ldr	r0, [pc, #64]	; (1000080c <alarm_pool_init_default+0x50>)
100007ca:	f000 f96f 	bl	10000aac <lock_init>
100007ce:	bd10      	pop	{r4, pc}
100007d0:	0023      	movs	r3, r4
100007d2:	4a0f      	ldr	r2, [pc, #60]	; (10000810 <alarm_pool_init_default+0x54>)
100007d4:	2110      	movs	r1, #16
100007d6:	6820      	ldr	r0, [r4, #0]
100007d8:	f000 f9c0 	bl	10000b5c <ph_post_alloc_init>
100007dc:	2003      	movs	r0, #3
100007de:	f000 f87b 	bl	100008d8 <hardware_alarm_claim>
100007e2:	2003      	movs	r0, #3
100007e4:	f000 f944 	bl	10000a70 <hardware_alarm_cancel>
100007e8:	2003      	movs	r0, #3
100007ea:	490a      	ldr	r1, [pc, #40]	; (10000814 <alarm_pool_init_default+0x58>)
100007ec:	f000 f88a 	bl	10000904 <hardware_alarm_set_callback>
100007f0:	f7ff fde8 	bl	100003c4 <next_striped_spin_lock_num>
100007f4:	4b08      	ldr	r3, [pc, #32]	; (10000818 <alarm_pool_init_default+0x5c>)
100007f6:	469c      	mov	ip, r3
100007f8:	2303      	movs	r3, #3
100007fa:	4460      	add	r0, ip
100007fc:	7523      	strb	r3, [r4, #20]
100007fe:	4b07      	ldr	r3, [pc, #28]	; (1000081c <alarm_pool_init_default+0x60>)
10000800:	0080      	lsls	r0, r0, #2
10000802:	6060      	str	r0, [r4, #4]
10000804:	60dc      	str	r4, [r3, #12]
10000806:	e7de      	b.n	100007c6 <alarm_pool_init_default+0xa>
10000808:	2000017c 	.word	0x2000017c
1000080c:	200005f0 	.word	0x200005f0
10000810:	100004bd 	.word	0x100004bd
10000814:	100005f5 	.word	0x100005f5
10000818:	34000040 	.word	0x34000040
1000081c:	200005dc 	.word	0x200005dc

10000820 <hardware_alarm_irq_handler>:
10000820:	b5f0      	push	{r4, r5, r6, r7, lr}
10000822:	46d6      	mov	lr, sl
10000824:	464f      	mov	r7, r9
10000826:	4646      	mov	r6, r8
10000828:	b5c0      	push	{r6, r7, lr}
1000082a:	f3ef 8205 	mrs	r2, IPSR
1000082e:	233f      	movs	r3, #63	; 0x3f
10000830:	4013      	ands	r3, r2
10000832:	0018      	movs	r0, r3
10000834:	3810      	subs	r0, #16
10000836:	f3ef 8c10 	mrs	ip, PRIMASK
1000083a:	b672      	cpsid	i
1000083c:	4920      	ldr	r1, [pc, #128]	; (100008c0 <hardware_alarm_irq_handler+0xa0>)
1000083e:	680a      	ldr	r2, [r1, #0]
10000840:	2a00      	cmp	r2, #0
10000842:	d0fc      	beq.n	1000083e <hardware_alarm_irq_handler+0x1e>
10000844:	f3bf 8f5f 	dmb	sy
10000848:	2201      	movs	r2, #1
1000084a:	0017      	movs	r7, r2
1000084c:	4087      	lsls	r7, r0
1000084e:	4c1d      	ldr	r4, [pc, #116]	; (100008c4 <hardware_alarm_irq_handler+0xa4>)
10000850:	0016      	movs	r6, r2
10000852:	46a2      	mov	sl, r4
10000854:	6367      	str	r7, [r4, #52]	; 0x34
10000856:	4c1c      	ldr	r4, [pc, #112]	; (100008c8 <hardware_alarm_irq_handler+0xa8>)
10000858:	7825      	ldrb	r5, [r4, #0]
1000085a:	46a0      	mov	r8, r4
1000085c:	002c      	movs	r4, r5
1000085e:	40c4      	lsrs	r4, r0
10000860:	4026      	ands	r6, r4
10000862:	4222      	tst	r2, r4
10000864:	d109      	bne.n	1000087a <hardware_alarm_irq_handler+0x5a>
10000866:	f3bf 8f5f 	dmb	sy
1000086a:	600e      	str	r6, [r1, #0]
1000086c:	f38c 8810 	msr	PRIMASK, ip
10000870:	bce0      	pop	{r5, r6, r7}
10000872:	46ba      	mov	sl, r7
10000874:	46b1      	mov	r9, r6
10000876:	46a8      	mov	r8, r5
10000878:	bdf0      	pop	{r4, r5, r6, r7, pc}
1000087a:	4652      	mov	r2, sl
1000087c:	6a56      	ldr	r6, [r2, #36]	; 0x24
1000087e:	4a13      	ldr	r2, [pc, #76]	; (100008cc <hardware_alarm_irq_handler+0xac>)
10000880:	0084      	lsls	r4, r0, #2
10000882:	58a2      	ldr	r2, [r4, r2]
10000884:	4296      	cmp	r6, r2
10000886:	d30e      	bcc.n	100008a6 <hardware_alarm_irq_handler+0x86>
10000888:	4642      	mov	r2, r8
1000088a:	4b11      	ldr	r3, [pc, #68]	; (100008d0 <hardware_alarm_irq_handler+0xb0>)
1000088c:	43bd      	bics	r5, r7
1000088e:	58e3      	ldr	r3, [r4, r3]
10000890:	7015      	strb	r5, [r2, #0]
10000892:	f3bf 8f5f 	dmb	sy
10000896:	2200      	movs	r2, #0
10000898:	600a      	str	r2, [r1, #0]
1000089a:	f38c 8810 	msr	PRIMASK, ip
1000089e:	2b00      	cmp	r3, #0
100008a0:	d0e6      	beq.n	10000870 <hardware_alarm_irq_handler+0x50>
100008a2:	4798      	blx	r3
100008a4:	e7e4      	b.n	10000870 <hardware_alarm_irq_handler+0x50>
100008a6:	4a0b      	ldr	r2, [pc, #44]	; (100008d4 <hardware_alarm_irq_handler+0xb4>)
100008a8:	009b      	lsls	r3, r3, #2
100008aa:	4690      	mov	r8, r2
100008ac:	4443      	add	r3, r8
100008ae:	681a      	ldr	r2, [r3, #0]
100008b0:	601a      	str	r2, [r3, #0]
100008b2:	f3bf 8f5f 	dmb	sy
100008b6:	2300      	movs	r3, #0
100008b8:	600b      	str	r3, [r1, #0]
100008ba:	f38c 8810 	msr	PRIMASK, ip
100008be:	e7d7      	b.n	10000870 <hardware_alarm_irq_handler+0x50>
100008c0:	d0000128 	.word	0xd0000128
100008c4:	40054000 	.word	0x40054000
100008c8:	2000060e 	.word	0x2000060e
100008cc:	200005f4 	.word	0x200005f4
100008d0:	20000540 	.word	0x20000540
100008d4:	40053fd0 	.word	0x40053fd0

100008d8 <hardware_alarm_claim>:
100008d8:	b510      	push	{r4, lr}
100008da:	4b03      	ldr	r3, [pc, #12]	; (100008e8 <hardware_alarm_claim+0x10>)
100008dc:	0001      	movs	r1, r0
100008de:	0018      	movs	r0, r3
100008e0:	4a02      	ldr	r2, [pc, #8]	; (100008ec <hardware_alarm_claim+0x14>)
100008e2:	f7ff fd37 	bl	10000354 <hw_claim_or_assert>
100008e6:	bd10      	pop	{r4, pc}
100008e8:	2000060c 	.word	0x2000060c
100008ec:	10001d48 	.word	0x10001d48

100008f0 <time_us_64>:
100008f0:	4b03      	ldr	r3, [pc, #12]	; (10000900 <time_us_64+0x10>)
100008f2:	6a59      	ldr	r1, [r3, #36]	; 0x24
100008f4:	000a      	movs	r2, r1
100008f6:	6a98      	ldr	r0, [r3, #40]	; 0x28
100008f8:	6a59      	ldr	r1, [r3, #36]	; 0x24
100008fa:	428a      	cmp	r2, r1
100008fc:	d1fa      	bne.n	100008f4 <time_us_64+0x4>
100008fe:	4770      	bx	lr
10000900:	40054000 	.word	0x40054000

10000904 <hardware_alarm_set_callback>:
10000904:	b570      	push	{r4, r5, r6, lr}
10000906:	0004      	movs	r4, r0
10000908:	000d      	movs	r5, r1
1000090a:	f3ef 8610 	mrs	r6, PRIMASK
1000090e:	b672      	cpsid	i
10000910:	4a1a      	ldr	r2, [pc, #104]	; (1000097c <hardware_alarm_set_callback+0x78>)
10000912:	6813      	ldr	r3, [r2, #0]
10000914:	2b00      	cmp	r3, #0
10000916:	d0fc      	beq.n	10000912 <hardware_alarm_set_callback+0xe>
10000918:	f3bf 8f5f 	dmb	sy
1000091c:	2d00      	cmp	r5, #0
1000091e:	d01b      	beq.n	10000958 <hardware_alarm_set_callback+0x54>
10000920:	0020      	movs	r0, r4
10000922:	f000 fcc7 	bl	100012b4 <irq_get_vtable_handler>
10000926:	4916      	ldr	r1, [pc, #88]	; (10000980 <hardware_alarm_set_callback+0x7c>)
10000928:	4281      	cmp	r1, r0
1000092a:	d00a      	beq.n	10000942 <hardware_alarm_set_callback+0x3e>
1000092c:	0020      	movs	r0, r4
1000092e:	f000 fcc9 	bl	100012c4 <irq_set_exclusive_handler>
10000932:	2101      	movs	r1, #1
10000934:	0020      	movs	r0, r4
10000936:	f000 fcab 	bl	10001290 <irq_set_enabled>
1000093a:	2301      	movs	r3, #1
1000093c:	40a3      	lsls	r3, r4
1000093e:	4a11      	ldr	r2, [pc, #68]	; (10000984 <hardware_alarm_set_callback+0x80>)
10000940:	6013      	str	r3, [r2, #0]
10000942:	4b11      	ldr	r3, [pc, #68]	; (10000988 <hardware_alarm_set_callback+0x84>)
10000944:	00a4      	lsls	r4, r4, #2
10000946:	50e5      	str	r5, [r4, r3]
10000948:	f3bf 8f5f 	dmb	sy
1000094c:	2200      	movs	r2, #0
1000094e:	4b0b      	ldr	r3, [pc, #44]	; (1000097c <hardware_alarm_set_callback+0x78>)
10000950:	601a      	str	r2, [r3, #0]
10000952:	f386 8810 	msr	PRIMASK, r6
10000956:	bd70      	pop	{r4, r5, r6, pc}
10000958:	2101      	movs	r1, #1
1000095a:	40a1      	lsls	r1, r4
1000095c:	4b0a      	ldr	r3, [pc, #40]	; (10000988 <hardware_alarm_set_callback+0x84>)
1000095e:	00a2      	lsls	r2, r4, #2
10000960:	50d5      	str	r5, [r2, r3]
10000962:	4b0a      	ldr	r3, [pc, #40]	; (1000098c <hardware_alarm_set_callback+0x88>)
10000964:	0020      	movs	r0, r4
10000966:	781a      	ldrb	r2, [r3, #0]
10000968:	438a      	bics	r2, r1
1000096a:	4905      	ldr	r1, [pc, #20]	; (10000980 <hardware_alarm_set_callback+0x7c>)
1000096c:	701a      	strb	r2, [r3, #0]
1000096e:	f000 fcd3 	bl	10001318 <irq_remove_handler>
10000972:	2100      	movs	r1, #0
10000974:	0020      	movs	r0, r4
10000976:	f000 fc8b 	bl	10001290 <irq_set_enabled>
1000097a:	e7e5      	b.n	10000948 <hardware_alarm_set_callback+0x44>
1000097c:	d0000128 	.word	0xd0000128
10000980:	10000821 	.word	0x10000821
10000984:	40056038 	.word	0x40056038
10000988:	20000540 	.word	0x20000540
1000098c:	2000060e 	.word	0x2000060e

10000990 <hardware_alarm_set_target>:
10000990:	b5f0      	push	{r4, r5, r6, r7, lr}
10000992:	464f      	mov	r7, r9
10000994:	46d6      	mov	lr, sl
10000996:	4646      	mov	r6, r8
10000998:	b5c0      	push	{r6, r7, lr}
1000099a:	0007      	movs	r7, r0
1000099c:	4c2f      	ldr	r4, [pc, #188]	; (10000a5c <hardware_alarm_set_target+0xcc>)
1000099e:	6a61      	ldr	r1, [r4, #36]	; 0x24
100009a0:	000d      	movs	r5, r1
100009a2:	6aa6      	ldr	r6, [r4, #40]	; 0x28
100009a4:	6a61      	ldr	r1, [r4, #36]	; 0x24
100009a6:	42a9      	cmp	r1, r5
100009a8:	d1fa      	bne.n	100009a0 <hardware_alarm_set_target+0x10>
100009aa:	428b      	cmp	r3, r1
100009ac:	d808      	bhi.n	100009c0 <hardware_alarm_set_target+0x30>
100009ae:	d005      	beq.n	100009bc <hardware_alarm_set_target+0x2c>
100009b0:	2001      	movs	r0, #1
100009b2:	bce0      	pop	{r5, r6, r7}
100009b4:	46ba      	mov	sl, r7
100009b6:	46b1      	mov	r9, r6
100009b8:	46a8      	mov	r8, r5
100009ba:	bdf0      	pop	{r4, r5, r6, r7, pc}
100009bc:	42b2      	cmp	r2, r6
100009be:	d9f7      	bls.n	100009b0 <hardware_alarm_set_target+0x20>
100009c0:	f3ef 8a10 	mrs	sl, PRIMASK
100009c4:	b672      	cpsid	i
100009c6:	4826      	ldr	r0, [pc, #152]	; (10000a60 <hardware_alarm_set_target+0xd0>)
100009c8:	6801      	ldr	r1, [r0, #0]
100009ca:	2900      	cmp	r1, #0
100009cc:	d0fc      	beq.n	100009c8 <hardware_alarm_set_target+0x38>
100009ce:	f3bf 8f5f 	dmb	sy
100009d2:	2501      	movs	r5, #1
100009d4:	40bd      	lsls	r5, r7
100009d6:	4923      	ldr	r1, [pc, #140]	; (10000a64 <hardware_alarm_set_target+0xd4>)
100009d8:	4c20      	ldr	r4, [pc, #128]	; (10000a5c <hardware_alarm_set_target+0xcc>)
100009da:	4688      	mov	r8, r1
100009dc:	7809      	ldrb	r1, [r1, #0]
100009de:	4689      	mov	r9, r1
100009e0:	4329      	orrs	r1, r5
100009e2:	b2c9      	uxtb	r1, r1
100009e4:	468c      	mov	ip, r1
100009e6:	4641      	mov	r1, r8
100009e8:	4660      	mov	r0, ip
100009ea:	7008      	strb	r0, [r1, #0]
100009ec:	1d39      	adds	r1, r7, #4
100009ee:	0089      	lsls	r1, r1, #2
100009f0:	6365      	str	r5, [r4, #52]	; 0x34
100009f2:	510a      	str	r2, [r1, r4]
100009f4:	491c      	ldr	r1, [pc, #112]	; (10000a68 <hardware_alarm_set_target+0xd8>)
100009f6:	00b8      	lsls	r0, r7, #2
100009f8:	5043      	str	r3, [r0, r1]
100009fa:	6a21      	ldr	r1, [r4, #32]
100009fc:	2000      	movs	r0, #0
100009fe:	4229      	tst	r1, r5
10000a00:	d019      	beq.n	10000a36 <hardware_alarm_set_target+0xa6>
10000a02:	6a61      	ldr	r1, [r4, #36]	; 0x24
10000a04:	0008      	movs	r0, r1
10000a06:	6aa6      	ldr	r6, [r4, #40]	; 0x28
10000a08:	6a61      	ldr	r1, [r4, #36]	; 0x24
10000a0a:	4281      	cmp	r1, r0
10000a0c:	d1fa      	bne.n	10000a04 <hardware_alarm_set_target+0x74>
10000a0e:	428b      	cmp	r3, r1
10000a10:	d819      	bhi.n	10000a46 <hardware_alarm_set_target+0xb6>
10000a12:	d101      	bne.n	10000a18 <hardware_alarm_set_target+0x88>
10000a14:	42b2      	cmp	r2, r6
10000a16:	d816      	bhi.n	10000a46 <hardware_alarm_set_target+0xb6>
10000a18:	45cc      	cmp	ip, r9
10000a1a:	d01d      	beq.n	10000a58 <hardware_alarm_set_target+0xc8>
10000a1c:	4b0f      	ldr	r3, [pc, #60]	; (10000a5c <hardware_alarm_set_target+0xcc>)
10000a1e:	221f      	movs	r2, #31
10000a20:	621d      	str	r5, [r3, #32]
10000a22:	635d      	str	r5, [r3, #52]	; 0x34
10000a24:	2301      	movs	r3, #1
10000a26:	403a      	ands	r2, r7
10000a28:	4093      	lsls	r3, r2
10000a2a:	4a10      	ldr	r2, [pc, #64]	; (10000a6c <hardware_alarm_set_target+0xdc>)
10000a2c:	2001      	movs	r0, #1
10000a2e:	6013      	str	r3, [r2, #0]
10000a30:	4643      	mov	r3, r8
10000a32:	464a      	mov	r2, r9
10000a34:	701a      	strb	r2, [r3, #0]
10000a36:	f3bf 8f5f 	dmb	sy
10000a3a:	2200      	movs	r2, #0
10000a3c:	4b08      	ldr	r3, [pc, #32]	; (10000a60 <hardware_alarm_set_target+0xd0>)
10000a3e:	601a      	str	r2, [r3, #0]
10000a40:	f38a 8810 	msr	PRIMASK, sl
10000a44:	e7b5      	b.n	100009b2 <hardware_alarm_set_target+0x22>
10000a46:	2000      	movs	r0, #0
10000a48:	f3bf 8f5f 	dmb	sy
10000a4c:	2200      	movs	r2, #0
10000a4e:	4b04      	ldr	r3, [pc, #16]	; (10000a60 <hardware_alarm_set_target+0xd0>)
10000a50:	601a      	str	r2, [r3, #0]
10000a52:	f38a 8810 	msr	PRIMASK, sl
10000a56:	e7ac      	b.n	100009b2 <hardware_alarm_set_target+0x22>
10000a58:	2001      	movs	r0, #1
10000a5a:	e7ec      	b.n	10000a36 <hardware_alarm_set_target+0xa6>
10000a5c:	40054000 	.word	0x40054000
10000a60:	d0000128 	.word	0xd0000128
10000a64:	2000060e 	.word	0x2000060e
10000a68:	200005f4 	.word	0x200005f4
10000a6c:	e000e280 	.word	0xe000e280

10000a70 <hardware_alarm_cancel>:
10000a70:	f3ef 8c10 	mrs	ip, PRIMASK
10000a74:	b672      	cpsid	i
10000a76:	490a      	ldr	r1, [pc, #40]	; (10000aa0 <hardware_alarm_cancel+0x30>)
10000a78:	680b      	ldr	r3, [r1, #0]
10000a7a:	2b00      	cmp	r3, #0
10000a7c:	d0fc      	beq.n	10000a78 <hardware_alarm_cancel+0x8>
10000a7e:	f3bf 8f5f 	dmb	sy
10000a82:	2301      	movs	r3, #1
10000a84:	4083      	lsls	r3, r0
10000a86:	4a07      	ldr	r2, [pc, #28]	; (10000aa4 <hardware_alarm_cancel+0x34>)
10000a88:	4807      	ldr	r0, [pc, #28]	; (10000aa8 <hardware_alarm_cancel+0x38>)
10000a8a:	6213      	str	r3, [r2, #32]
10000a8c:	7802      	ldrb	r2, [r0, #0]
10000a8e:	439a      	bics	r2, r3
10000a90:	7002      	strb	r2, [r0, #0]
10000a92:	f3bf 8f5f 	dmb	sy
10000a96:	2300      	movs	r3, #0
10000a98:	600b      	str	r3, [r1, #0]
10000a9a:	f38c 8810 	msr	PRIMASK, ip
10000a9e:	4770      	bx	lr
10000aa0:	d0000128 	.word	0xd0000128
10000aa4:	40054000 	.word	0x40054000
10000aa8:	2000060e 	.word	0x2000060e

10000aac <lock_init>:
10000aac:	4b02      	ldr	r3, [pc, #8]	; (10000ab8 <lock_init+0xc>)
10000aae:	469c      	mov	ip, r3
10000ab0:	4461      	add	r1, ip
10000ab2:	0089      	lsls	r1, r1, #2
10000ab4:	6001      	str	r1, [r0, #0]
10000ab6:	4770      	bx	lr
10000ab8:	34000040 	.word	0x34000040

10000abc <mutex_init>:
10000abc:	b510      	push	{r4, lr}
10000abe:	0004      	movs	r4, r0
10000ac0:	f7ff fc80 	bl	100003c4 <next_striped_spin_lock_num>
10000ac4:	0001      	movs	r1, r0
10000ac6:	0020      	movs	r0, r4
10000ac8:	f7ff fff0 	bl	10000aac <lock_init>
10000acc:	23ff      	movs	r3, #255	; 0xff
10000ace:	7123      	strb	r3, [r4, #4]
10000ad0:	f3bf 8f5f 	dmb	sy
10000ad4:	bd10      	pop	{r4, pc}
10000ad6:	46c0      	nop			; (mov r8, r8)

10000ad8 <recursive_mutex_init>:
10000ad8:	b510      	push	{r4, lr}
10000ada:	0004      	movs	r4, r0
10000adc:	f7ff fc72 	bl	100003c4 <next_striped_spin_lock_num>
10000ae0:	0001      	movs	r1, r0
10000ae2:	0020      	movs	r0, r4
10000ae4:	f7ff ffe2 	bl	10000aac <lock_init>
10000ae8:	23ff      	movs	r3, #255	; 0xff
10000aea:	80a3      	strh	r3, [r4, #4]
10000aec:	f3bf 8f5f 	dmb	sy
10000af0:	bd10      	pop	{r4, pc}
10000af2:	46c0      	nop			; (mov r8, r8)

10000af4 <ph_merge_nodes>:
10000af4:	b570      	push	{r4, r5, r6, lr}
10000af6:	0005      	movs	r5, r0
10000af8:	0014      	movs	r4, r2
10000afa:	0016      	movs	r6, r2
10000afc:	2900      	cmp	r1, #0
10000afe:	d015      	beq.n	10000b2c <ph_merge_nodes+0x38>
10000b00:	000c      	movs	r4, r1
10000b02:	2a00      	cmp	r2, #0
10000b04:	d012      	beq.n	10000b2c <ph_merge_nodes+0x38>
10000b06:	6880      	ldr	r0, [r0, #8]
10000b08:	686b      	ldr	r3, [r5, #4]
10000b0a:	4798      	blx	r3
10000b0c:	6829      	ldr	r1, [r5, #0]
10000b0e:	2800      	cmp	r0, #0
10000b10:	d00e      	beq.n	10000b30 <ph_merge_nodes+0x3c>
10000b12:	0073      	lsls	r3, r6, #1
10000b14:	199b      	adds	r3, r3, r6
10000b16:	0062      	lsls	r2, r4, #1
10000b18:	3b03      	subs	r3, #3
10000b1a:	1912      	adds	r2, r2, r4
10000b1c:	18cb      	adds	r3, r1, r3
10000b1e:	3a03      	subs	r2, #3
10000b20:	709c      	strb	r4, [r3, #2]
10000b22:	1888      	adds	r0, r1, r2
10000b24:	5c8a      	ldrb	r2, [r1, r2]
10000b26:	2a00      	cmp	r2, #0
10000b28:	d115      	bne.n	10000b56 <ph_merge_nodes+0x62>
10000b2a:	7006      	strb	r6, [r0, #0]
10000b2c:	0020      	movs	r0, r4
10000b2e:	bd70      	pop	{r4, r5, r6, pc}
10000b30:	0063      	lsls	r3, r4, #1
10000b32:	191b      	adds	r3, r3, r4
10000b34:	0072      	lsls	r2, r6, #1
10000b36:	3b03      	subs	r3, #3
10000b38:	1992      	adds	r2, r2, r6
10000b3a:	18cb      	adds	r3, r1, r3
10000b3c:	3a03      	subs	r2, #3
10000b3e:	709e      	strb	r6, [r3, #2]
10000b40:	1888      	adds	r0, r1, r2
10000b42:	5c8a      	ldrb	r2, [r1, r2]
10000b44:	2a00      	cmp	r2, #0
10000b46:	d102      	bne.n	10000b4e <ph_merge_nodes+0x5a>
10000b48:	7004      	strb	r4, [r0, #0]
10000b4a:	0034      	movs	r4, r6
10000b4c:	e7ee      	b.n	10000b2c <ph_merge_nodes+0x38>
10000b4e:	705a      	strb	r2, [r3, #1]
10000b50:	7004      	strb	r4, [r0, #0]
10000b52:	0034      	movs	r4, r6
10000b54:	e7ea      	b.n	10000b2c <ph_merge_nodes+0x38>
10000b56:	705a      	strb	r2, [r3, #1]
10000b58:	7006      	strb	r6, [r0, #0]
10000b5a:	e7e7      	b.n	10000b2c <ph_merge_nodes+0x38>

10000b5c <ph_post_alloc_init>:
10000b5c:	b530      	push	{r4, r5, lr}
10000b5e:	6083      	str	r3, [r0, #8]
10000b60:	2300      	movs	r3, #0
10000b62:	b2cc      	uxtb	r4, r1
10000b64:	7343      	strb	r3, [r0, #13]
10000b66:	3301      	adds	r3, #1
10000b68:	7304      	strb	r4, [r0, #12]
10000b6a:	6042      	str	r2, [r0, #4]
10000b6c:	7383      	strb	r3, [r0, #14]
10000b6e:	73c4      	strb	r4, [r0, #15]
10000b70:	000d      	movs	r5, r1
10000b72:	6800      	ldr	r0, [r0, #0]
10000b74:	2c01      	cmp	r4, #1
10000b76:	d906      	bls.n	10000b86 <ph_post_alloc_init+0x2a>
10000b78:	1c42      	adds	r2, r0, #1
10000b7a:	3301      	adds	r3, #1
10000b7c:	b2db      	uxtb	r3, r3
10000b7e:	7013      	strb	r3, [r2, #0]
10000b80:	3203      	adds	r2, #3
10000b82:	429c      	cmp	r4, r3
10000b84:	d1f9      	bne.n	10000b7a <ph_post_alloc_init+0x1e>
10000b86:	21ff      	movs	r1, #255	; 0xff
10000b88:	4029      	ands	r1, r5
10000b8a:	004b      	lsls	r3, r1, #1
10000b8c:	185b      	adds	r3, r3, r1
10000b8e:	18c0      	adds	r0, r0, r3
10000b90:	2300      	movs	r3, #0
10000b92:	3803      	subs	r0, #3
10000b94:	7043      	strb	r3, [r0, #1]
10000b96:	bd30      	pop	{r4, r5, pc}

10000b98 <ph_merge_two_pass>:
10000b98:	b5f8      	push	{r3, r4, r5, r6, r7, lr}
10000b9a:	0005      	movs	r5, r0
10000b9c:	1e0c      	subs	r4, r1, #0
10000b9e:	d007      	beq.n	10000bb0 <ph_merge_two_pass+0x18>
10000ba0:	0063      	lsls	r3, r4, #1
10000ba2:	6801      	ldr	r1, [r0, #0]
10000ba4:	191b      	adds	r3, r3, r4
10000ba6:	3b03      	subs	r3, #3
10000ba8:	18cb      	adds	r3, r1, r3
10000baa:	785a      	ldrb	r2, [r3, #1]
10000bac:	2a00      	cmp	r2, #0
10000bae:	d101      	bne.n	10000bb4 <ph_merge_two_pass+0x1c>
10000bb0:	0020      	movs	r0, r4
10000bb2:	bdf8      	pop	{r3, r4, r5, r6, r7, pc}
10000bb4:	0050      	lsls	r0, r2, #1
10000bb6:	1880      	adds	r0, r0, r2
10000bb8:	3803      	subs	r0, #3
10000bba:	1809      	adds	r1, r1, r0
10000bbc:	2000      	movs	r0, #0
10000bbe:	784f      	ldrb	r7, [r1, #1]
10000bc0:	7048      	strb	r0, [r1, #1]
10000bc2:	0021      	movs	r1, r4
10000bc4:	7058      	strb	r0, [r3, #1]
10000bc6:	0028      	movs	r0, r5
10000bc8:	f7ff ff94 	bl	10000af4 <ph_merge_nodes>
10000bcc:	0039      	movs	r1, r7
10000bce:	0006      	movs	r6, r0
10000bd0:	0028      	movs	r0, r5
10000bd2:	f7ff ffe1 	bl	10000b98 <ph_merge_two_pass>
10000bd6:	0004      	movs	r4, r0
10000bd8:	2e00      	cmp	r6, #0
10000bda:	d0e9      	beq.n	10000bb0 <ph_merge_two_pass+0x18>
10000bdc:	2800      	cmp	r0, #0
10000bde:	d026      	beq.n	10000c2e <ph_merge_two_pass+0x96>
10000be0:	0031      	movs	r1, r6
10000be2:	0022      	movs	r2, r4
10000be4:	68a8      	ldr	r0, [r5, #8]
10000be6:	686b      	ldr	r3, [r5, #4]
10000be8:	4798      	blx	r3
10000bea:	6829      	ldr	r1, [r5, #0]
10000bec:	2800      	cmp	r0, #0
10000bee:	d00f      	beq.n	10000c10 <ph_merge_two_pass+0x78>
10000bf0:	0063      	lsls	r3, r4, #1
10000bf2:	191b      	adds	r3, r3, r4
10000bf4:	0072      	lsls	r2, r6, #1
10000bf6:	3b03      	subs	r3, #3
10000bf8:	1992      	adds	r2, r2, r6
10000bfa:	18cb      	adds	r3, r1, r3
10000bfc:	3a03      	subs	r2, #3
10000bfe:	709e      	strb	r6, [r3, #2]
10000c00:	1888      	adds	r0, r1, r2
10000c02:	5c8a      	ldrb	r2, [r1, r2]
10000c04:	2a00      	cmp	r2, #0
10000c06:	d000      	beq.n	10000c0a <ph_merge_two_pass+0x72>
10000c08:	705a      	strb	r2, [r3, #1]
10000c0a:	7004      	strb	r4, [r0, #0]
10000c0c:	0034      	movs	r4, r6
10000c0e:	e7cf      	b.n	10000bb0 <ph_merge_two_pass+0x18>
10000c10:	0073      	lsls	r3, r6, #1
10000c12:	199b      	adds	r3, r3, r6
10000c14:	0062      	lsls	r2, r4, #1
10000c16:	3b03      	subs	r3, #3
10000c18:	1912      	adds	r2, r2, r4
10000c1a:	18cb      	adds	r3, r1, r3
10000c1c:	3a03      	subs	r2, #3
10000c1e:	709c      	strb	r4, [r3, #2]
10000c20:	1888      	adds	r0, r1, r2
10000c22:	5c8a      	ldrb	r2, [r1, r2]
10000c24:	2a00      	cmp	r2, #0
10000c26:	d000      	beq.n	10000c2a <ph_merge_two_pass+0x92>
10000c28:	705a      	strb	r2, [r3, #1]
10000c2a:	7006      	strb	r6, [r0, #0]
10000c2c:	e7c0      	b.n	10000bb0 <ph_merge_two_pass+0x18>
10000c2e:	0034      	movs	r4, r6
10000c30:	e7be      	b.n	10000bb0 <ph_merge_two_pass+0x18>
10000c32:	46c0      	nop			; (mov r8, r8)

10000c34 <ph_remove_any_head>:
10000c34:	b5f0      	push	{r4, r5, r6, r7, lr}
10000c36:	4657      	mov	r7, sl
10000c38:	4645      	mov	r5, r8
10000c3a:	46de      	mov	lr, fp
10000c3c:	464e      	mov	r6, r9
10000c3e:	b5e0      	push	{r5, r6, r7, lr}
10000c40:	000d      	movs	r5, r1
10000c42:	006b      	lsls	r3, r5, #1
10000c44:	6801      	ldr	r1, [r0, #0]
10000c46:	195b      	adds	r3, r3, r5
10000c48:	1edf      	subs	r7, r3, #3
10000c4a:	0004      	movs	r4, r0
10000c4c:	5dc8      	ldrb	r0, [r1, r7]
10000c4e:	b083      	sub	sp, #12
10000c50:	9201      	str	r2, [sp, #4]
10000c52:	19ca      	adds	r2, r1, r7
10000c54:	2800      	cmp	r0, #0
10000c56:	d04c      	beq.n	10000cf2 <ph_remove_any_head+0xbe>
10000c58:	0043      	lsls	r3, r0, #1
10000c5a:	181b      	adds	r3, r3, r0
10000c5c:	3b03      	subs	r3, #3
10000c5e:	18cb      	adds	r3, r1, r3
10000c60:	785e      	ldrb	r6, [r3, #1]
10000c62:	46b4      	mov	ip, r6
10000c64:	2e00      	cmp	r6, #0
10000c66:	d116      	bne.n	10000c96 <ph_remove_any_head+0x62>
10000c68:	9e01      	ldr	r6, [sp, #4]
10000c6a:	2e00      	cmp	r6, #0
10000c6c:	d03e      	beq.n	10000cec <ph_remove_any_head+0xb8>
10000c6e:	7be6      	ldrb	r6, [r4, #15]
10000c70:	2e00      	cmp	r6, #0
10000c72:	d004      	beq.n	10000c7e <ph_remove_any_head+0x4a>
10000c74:	0073      	lsls	r3, r6, #1
10000c76:	199b      	adds	r3, r3, r6
10000c78:	18cb      	adds	r3, r1, r3
10000c7a:	3b03      	subs	r3, #3
10000c7c:	705d      	strb	r5, [r3, #1]
10000c7e:	73e5      	strb	r5, [r4, #15]
10000c80:	2800      	cmp	r0, #0
10000c82:	d12f      	bne.n	10000ce4 <ph_remove_any_head+0xb0>
10000c84:	2300      	movs	r3, #0
10000c86:	7053      	strb	r3, [r2, #1]
10000c88:	b003      	add	sp, #12
10000c8a:	bcf0      	pop	{r4, r5, r6, r7}
10000c8c:	46bb      	mov	fp, r7
10000c8e:	46b2      	mov	sl, r6
10000c90:	46a9      	mov	r9, r5
10000c92:	46a0      	mov	r8, r4
10000c94:	bdf0      	pop	{r4, r5, r6, r7, pc}
10000c96:	0072      	lsls	r2, r6, #1
10000c98:	4462      	add	r2, ip
10000c9a:	3a03      	subs	r2, #3
10000c9c:	188a      	adds	r2, r1, r2
10000c9e:	7851      	ldrb	r1, [r2, #1]
10000ca0:	4688      	mov	r8, r1
10000ca2:	2100      	movs	r1, #0
10000ca4:	7051      	strb	r1, [r2, #1]
10000ca6:	4689      	mov	r9, r1
10000ca8:	7059      	strb	r1, [r3, #1]
10000caa:	0032      	movs	r2, r6
10000cac:	0001      	movs	r1, r0
10000cae:	0020      	movs	r0, r4
10000cb0:	f7ff ff20 	bl	10000af4 <ph_merge_nodes>
10000cb4:	4643      	mov	r3, r8
10000cb6:	4682      	mov	sl, r0
10000cb8:	2b00      	cmp	r3, #0
10000cba:	d007      	beq.n	10000ccc <ph_remove_any_head+0x98>
10000cbc:	005b      	lsls	r3, r3, #1
10000cbe:	6821      	ldr	r1, [r4, #0]
10000cc0:	4443      	add	r3, r8
10000cc2:	3b03      	subs	r3, #3
10000cc4:	18cb      	adds	r3, r1, r3
10000cc6:	785a      	ldrb	r2, [r3, #1]
10000cc8:	2a00      	cmp	r2, #0
10000cca:	d116      	bne.n	10000cfa <ph_remove_any_head+0xc6>
10000ccc:	4642      	mov	r2, r8
10000cce:	4651      	mov	r1, sl
10000cd0:	0020      	movs	r0, r4
10000cd2:	f7ff ff0f 	bl	10000af4 <ph_merge_nodes>
10000cd6:	6821      	ldr	r1, [r4, #0]
10000cd8:	9b01      	ldr	r3, [sp, #4]
10000cda:	19ca      	adds	r2, r1, r7
10000cdc:	2b00      	cmp	r3, #0
10000cde:	d1c6      	bne.n	10000c6e <ph_remove_any_head+0x3a>
10000ce0:	2800      	cmp	r0, #0
10000ce2:	d0cf      	beq.n	10000c84 <ph_remove_any_head+0x50>
10000ce4:	0043      	lsls	r3, r0, #1
10000ce6:	181b      	adds	r3, r3, r0
10000ce8:	3b03      	subs	r3, #3
10000cea:	18cb      	adds	r3, r1, r3
10000cec:	2100      	movs	r1, #0
10000cee:	7099      	strb	r1, [r3, #2]
10000cf0:	e7c8      	b.n	10000c84 <ph_remove_any_head+0x50>
10000cf2:	9b01      	ldr	r3, [sp, #4]
10000cf4:	2b00      	cmp	r3, #0
10000cf6:	d1ba      	bne.n	10000c6e <ph_remove_any_head+0x3a>
10000cf8:	e7c4      	b.n	10000c84 <ph_remove_any_head+0x50>
10000cfa:	0050      	lsls	r0, r2, #1
10000cfc:	1880      	adds	r0, r0, r2
10000cfe:	3803      	subs	r0, #3
10000d00:	1809      	adds	r1, r1, r0
10000d02:	7848      	ldrb	r0, [r1, #1]
10000d04:	4683      	mov	fp, r0
10000d06:	4648      	mov	r0, r9
10000d08:	7048      	strb	r0, [r1, #1]
10000d0a:	7058      	strb	r0, [r3, #1]
10000d0c:	4641      	mov	r1, r8
10000d0e:	0020      	movs	r0, r4
10000d10:	f7ff fef0 	bl	10000af4 <ph_merge_nodes>
10000d14:	4659      	mov	r1, fp
10000d16:	4680      	mov	r8, r0
10000d18:	0020      	movs	r0, r4
10000d1a:	f7ff ff3d 	bl	10000b98 <ph_merge_two_pass>
10000d1e:	4641      	mov	r1, r8
10000d20:	0002      	movs	r2, r0
10000d22:	0020      	movs	r0, r4
10000d24:	f7ff fee6 	bl	10000af4 <ph_merge_nodes>
10000d28:	4680      	mov	r8, r0
10000d2a:	e7cf      	b.n	10000ccc <ph_remove_any_head+0x98>

10000d2c <ph_remove_head>:
10000d2c:	b5f0      	push	{r4, r5, r6, r7, lr}
10000d2e:	4657      	mov	r7, sl
10000d30:	4645      	mov	r5, r8
10000d32:	46de      	mov	lr, fp
10000d34:	464e      	mov	r6, r9
10000d36:	b5e0      	push	{r5, r6, r7, lr}
10000d38:	b083      	sub	sp, #12
10000d3a:	9101      	str	r1, [sp, #4]
10000d3c:	7b45      	ldrb	r5, [r0, #13]
10000d3e:	0004      	movs	r4, r0
10000d40:	006b      	lsls	r3, r5, #1
10000d42:	6800      	ldr	r0, [r0, #0]
10000d44:	195b      	adds	r3, r3, r5
10000d46:	1edf      	subs	r7, r3, #3
10000d48:	5dc1      	ldrb	r1, [r0, r7]
10000d4a:	19c2      	adds	r2, r0, r7
10000d4c:	2900      	cmp	r1, #0
10000d4e:	d04e      	beq.n	10000dee <ph_remove_head+0xc2>
10000d50:	004b      	lsls	r3, r1, #1
10000d52:	185b      	adds	r3, r3, r1
10000d54:	3b03      	subs	r3, #3
10000d56:	18c3      	adds	r3, r0, r3
10000d58:	785e      	ldrb	r6, [r3, #1]
10000d5a:	46b4      	mov	ip, r6
10000d5c:	2e00      	cmp	r6, #0
10000d5e:	d118      	bne.n	10000d92 <ph_remove_head+0x66>
10000d60:	9e01      	ldr	r6, [sp, #4]
10000d62:	2e00      	cmp	r6, #0
10000d64:	d040      	beq.n	10000de8 <ph_remove_head+0xbc>
10000d66:	7be6      	ldrb	r6, [r4, #15]
10000d68:	2e00      	cmp	r6, #0
10000d6a:	d004      	beq.n	10000d76 <ph_remove_head+0x4a>
10000d6c:	0073      	lsls	r3, r6, #1
10000d6e:	199b      	adds	r3, r3, r6
10000d70:	18c3      	adds	r3, r0, r3
10000d72:	3b03      	subs	r3, #3
10000d74:	705d      	strb	r5, [r3, #1]
10000d76:	73e5      	strb	r5, [r4, #15]
10000d78:	2900      	cmp	r1, #0
10000d7a:	d131      	bne.n	10000de0 <ph_remove_head+0xb4>
10000d7c:	2300      	movs	r3, #0
10000d7e:	0028      	movs	r0, r5
10000d80:	7053      	strb	r3, [r2, #1]
10000d82:	7361      	strb	r1, [r4, #13]
10000d84:	b003      	add	sp, #12
10000d86:	bcf0      	pop	{r4, r5, r6, r7}
10000d88:	46bb      	mov	fp, r7
10000d8a:	46b2      	mov	sl, r6
10000d8c:	46a9      	mov	r9, r5
10000d8e:	46a0      	mov	r8, r4
10000d90:	bdf0      	pop	{r4, r5, r6, r7, pc}
10000d92:	0072      	lsls	r2, r6, #1
10000d94:	4462      	add	r2, ip
10000d96:	3a03      	subs	r2, #3
10000d98:	1882      	adds	r2, r0, r2
10000d9a:	7850      	ldrb	r0, [r2, #1]
10000d9c:	4680      	mov	r8, r0
10000d9e:	2000      	movs	r0, #0
10000da0:	7050      	strb	r0, [r2, #1]
10000da2:	4681      	mov	r9, r0
10000da4:	7058      	strb	r0, [r3, #1]
10000da6:	0032      	movs	r2, r6
10000da8:	0020      	movs	r0, r4
10000daa:	f7ff fea3 	bl	10000af4 <ph_merge_nodes>
10000dae:	4643      	mov	r3, r8
10000db0:	4682      	mov	sl, r0
10000db2:	2b00      	cmp	r3, #0
10000db4:	d007      	beq.n	10000dc6 <ph_remove_head+0x9a>
10000db6:	005b      	lsls	r3, r3, #1
10000db8:	6821      	ldr	r1, [r4, #0]
10000dba:	4443      	add	r3, r8
10000dbc:	3b03      	subs	r3, #3
10000dbe:	18cb      	adds	r3, r1, r3
10000dc0:	785a      	ldrb	r2, [r3, #1]
10000dc2:	2a00      	cmp	r2, #0
10000dc4:	d117      	bne.n	10000df6 <ph_remove_head+0xca>
10000dc6:	4642      	mov	r2, r8
10000dc8:	4651      	mov	r1, sl
10000dca:	0020      	movs	r0, r4
10000dcc:	f7ff fe92 	bl	10000af4 <ph_merge_nodes>
10000dd0:	9b01      	ldr	r3, [sp, #4]
10000dd2:	0001      	movs	r1, r0
10000dd4:	6820      	ldr	r0, [r4, #0]
10000dd6:	19c2      	adds	r2, r0, r7
10000dd8:	2b00      	cmp	r3, #0
10000dda:	d1c4      	bne.n	10000d66 <ph_remove_head+0x3a>
10000ddc:	2900      	cmp	r1, #0
10000dde:	d0cd      	beq.n	10000d7c <ph_remove_head+0x50>
10000de0:	004b      	lsls	r3, r1, #1
10000de2:	185b      	adds	r3, r3, r1
10000de4:	3b03      	subs	r3, #3
10000de6:	18c3      	adds	r3, r0, r3
10000de8:	2000      	movs	r0, #0
10000dea:	7098      	strb	r0, [r3, #2]
10000dec:	e7c6      	b.n	10000d7c <ph_remove_head+0x50>
10000dee:	9b01      	ldr	r3, [sp, #4]
10000df0:	2b00      	cmp	r3, #0
10000df2:	d1b8      	bne.n	10000d66 <ph_remove_head+0x3a>
10000df4:	e7c2      	b.n	10000d7c <ph_remove_head+0x50>
10000df6:	0050      	lsls	r0, r2, #1
10000df8:	1880      	adds	r0, r0, r2
10000dfa:	3803      	subs	r0, #3
10000dfc:	1809      	adds	r1, r1, r0
10000dfe:	7848      	ldrb	r0, [r1, #1]
10000e00:	4683      	mov	fp, r0
10000e02:	4648      	mov	r0, r9
10000e04:	7048      	strb	r0, [r1, #1]
10000e06:	7058      	strb	r0, [r3, #1]
10000e08:	4641      	mov	r1, r8
10000e0a:	0020      	movs	r0, r4
10000e0c:	f7ff fe72 	bl	10000af4 <ph_merge_nodes>
10000e10:	4659      	mov	r1, fp
10000e12:	4680      	mov	r8, r0
10000e14:	0020      	movs	r0, r4
10000e16:	f7ff febf 	bl	10000b98 <ph_merge_two_pass>
10000e1a:	4641      	mov	r1, r8
10000e1c:	0002      	movs	r2, r0
10000e1e:	0020      	movs	r0, r4
10000e20:	f7ff fe68 	bl	10000af4 <ph_merge_nodes>
10000e24:	4680      	mov	r8, r0
10000e26:	e7ce      	b.n	10000dc6 <ph_remove_head+0x9a>

10000e28 <ph_remove_and_free_node>:
10000e28:	b570      	push	{r4, r5, r6, lr}
10000e2a:	0004      	movs	r4, r0
10000e2c:	2900      	cmp	r1, #0
10000e2e:	d02c      	beq.n	10000e8a <ph_remove_and_free_node+0x62>
10000e30:	7b43      	ldrb	r3, [r0, #13]
10000e32:	428b      	cmp	r3, r1
10000e34:	d02e      	beq.n	10000e94 <ph_remove_and_free_node+0x6c>
10000e36:	6805      	ldr	r5, [r0, #0]
10000e38:	0048      	lsls	r0, r1, #1
10000e3a:	1840      	adds	r0, r0, r1
10000e3c:	3803      	subs	r0, #3
10000e3e:	1828      	adds	r0, r5, r0
10000e40:	7882      	ldrb	r2, [r0, #2]
10000e42:	2a00      	cmp	r2, #0
10000e44:	d021      	beq.n	10000e8a <ph_remove_and_free_node+0x62>
10000e46:	0053      	lsls	r3, r2, #1
10000e48:	189b      	adds	r3, r3, r2
10000e4a:	3b03      	subs	r3, #3
10000e4c:	5cea      	ldrb	r2, [r5, r3]
10000e4e:	18ee      	adds	r6, r5, r3
10000e50:	428a      	cmp	r2, r1
10000e52:	d102      	bne.n	10000e5a <ph_remove_and_free_node+0x32>
10000e54:	e01b      	b.n	10000e8e <ph_remove_and_free_node+0x66>
10000e56:	2a00      	cmp	r2, #0
10000e58:	d008      	beq.n	10000e6c <ph_remove_and_free_node+0x44>
10000e5a:	0053      	lsls	r3, r2, #1
10000e5c:	189b      	adds	r3, r3, r2
10000e5e:	3b03      	subs	r3, #3
10000e60:	18eb      	adds	r3, r5, r3
10000e62:	785a      	ldrb	r2, [r3, #1]
10000e64:	428a      	cmp	r2, r1
10000e66:	d1f6      	bne.n	10000e56 <ph_remove_and_free_node+0x2e>
10000e68:	7842      	ldrb	r2, [r0, #1]
10000e6a:	705a      	strb	r2, [r3, #1]
10000e6c:	2300      	movs	r3, #0
10000e6e:	2201      	movs	r2, #1
10000e70:	7083      	strb	r3, [r0, #2]
10000e72:	7043      	strb	r3, [r0, #1]
10000e74:	0020      	movs	r0, r4
10000e76:	f7ff fedd 	bl	10000c34 <ph_remove_any_head>
10000e7a:	7b61      	ldrb	r1, [r4, #13]
10000e7c:	0002      	movs	r2, r0
10000e7e:	0020      	movs	r0, r4
10000e80:	f7ff fe38 	bl	10000af4 <ph_merge_nodes>
10000e84:	7360      	strb	r0, [r4, #13]
10000e86:	2001      	movs	r0, #1
10000e88:	e000      	b.n	10000e8c <ph_remove_and_free_node+0x64>
10000e8a:	2000      	movs	r0, #0
10000e8c:	bd70      	pop	{r4, r5, r6, pc}
10000e8e:	7843      	ldrb	r3, [r0, #1]
10000e90:	7033      	strb	r3, [r6, #0]
10000e92:	e7eb      	b.n	10000e6c <ph_remove_and_free_node+0x44>
10000e94:	2201      	movs	r2, #1
10000e96:	0019      	movs	r1, r3
10000e98:	f7ff fecc 	bl	10000c34 <ph_remove_any_head>
10000e9c:	7360      	strb	r0, [r4, #13]
10000e9e:	2001      	movs	r0, #1
10000ea0:	e7f4      	b.n	10000e8c <ph_remove_and_free_node+0x64>
10000ea2:	46c0      	nop			; (mov r8, r8)

10000ea4 <runtime_init>:
10000ea4:	4b2c      	ldr	r3, [pc, #176]	; (10000f58 <runtime_init+0xb4>)
10000ea6:	4a2d      	ldr	r2, [pc, #180]	; (10000f5c <runtime_init+0xb8>)
10000ea8:	b570      	push	{r4, r5, r6, lr}
10000eaa:	601a      	str	r2, [r3, #0]
10000eac:	4a2c      	ldr	r2, [pc, #176]	; (10000f60 <runtime_init+0xbc>)
10000eae:	4b2d      	ldr	r3, [pc, #180]	; (10000f64 <runtime_init+0xc0>)
10000eb0:	492d      	ldr	r1, [pc, #180]	; (10000f68 <runtime_init+0xc4>)
10000eb2:	601a      	str	r2, [r3, #0]
10000eb4:	0014      	movs	r4, r2
10000eb6:	688b      	ldr	r3, [r1, #8]
10000eb8:	439c      	bics	r4, r3
10000eba:	d1fb      	bne.n	10000eb4 <runtime_init+0x10>
10000ebc:	4d2b      	ldr	r5, [pc, #172]	; (10000f6c <runtime_init+0xc8>)
10000ebe:	4e2c      	ldr	r6, [pc, #176]	; (10000f70 <runtime_init+0xcc>)
10000ec0:	42b5      	cmp	r5, r6
10000ec2:	d208      	bcs.n	10000ed6 <runtime_init+0x32>
10000ec4:	3e01      	subs	r6, #1
10000ec6:	1b76      	subs	r6, r6, r5
10000ec8:	08b6      	lsrs	r6, r6, #2
10000eca:	cd08      	ldmia	r5!, {r3}
10000ecc:	4798      	blx	r3
10000ece:	0023      	movs	r3, r4
10000ed0:	3401      	adds	r4, #1
10000ed2:	42b3      	cmp	r3, r6
10000ed4:	d1f9      	bne.n	10000eca <runtime_init+0x26>
10000ed6:	f000 f87d 	bl	10000fd4 <clocks_init>
10000eda:	4a26      	ldr	r2, [pc, #152]	; (10000f74 <runtime_init+0xd0>)
10000edc:	4b21      	ldr	r3, [pc, #132]	; (10000f64 <runtime_init+0xc0>)
10000ede:	601a      	str	r2, [r3, #0]
10000ee0:	4a21      	ldr	r2, [pc, #132]	; (10000f68 <runtime_init+0xc4>)
10000ee2:	6893      	ldr	r3, [r2, #8]
10000ee4:	43db      	mvns	r3, r3
10000ee6:	01db      	lsls	r3, r3, #7
10000ee8:	09dd      	lsrs	r5, r3, #7
10000eea:	2b00      	cmp	r3, #0
10000eec:	d1f9      	bne.n	10000ee2 <runtime_init+0x3e>
10000eee:	2240      	movs	r2, #64	; 0x40
10000ef0:	4b21      	ldr	r3, [pc, #132]	; (10000f78 <runtime_init+0xd4>)
10000ef2:	4c22      	ldr	r4, [pc, #136]	; (10000f7c <runtime_init+0xd8>)
10000ef4:	4e22      	ldr	r6, [pc, #136]	; (10000f80 <runtime_init+0xdc>)
10000ef6:	679a      	str	r2, [r3, #120]	; 0x78
10000ef8:	675a      	str	r2, [r3, #116]	; 0x74
10000efa:	671a      	str	r2, [r3, #112]	; 0x70
10000efc:	66da      	str	r2, [r3, #108]	; 0x6c
10000efe:	42b4      	cmp	r4, r6
10000f00:	d208      	bcs.n	10000f14 <runtime_init+0x70>
10000f02:	6823      	ldr	r3, [r4, #0]
10000f04:	0020      	movs	r0, r4
10000f06:	2b00      	cmp	r3, #0
10000f08:	d020      	beq.n	10000f4c <runtime_init+0xa8>
10000f0a:	3408      	adds	r4, #8
10000f0c:	f7ff fde4 	bl	10000ad8 <recursive_mutex_init>
10000f10:	42b4      	cmp	r4, r6
10000f12:	d3f6      	bcc.n	10000f02 <runtime_init+0x5e>
10000f14:	4c1b      	ldr	r4, [pc, #108]	; (10000f84 <runtime_init+0xe0>)
10000f16:	4e1c      	ldr	r6, [pc, #112]	; (10000f88 <runtime_init+0xe4>)
10000f18:	22c0      	movs	r2, #192	; 0xc0
10000f1a:	68b1      	ldr	r1, [r6, #8]
10000f1c:	0020      	movs	r0, r4
10000f1e:	f000 fcdd 	bl	100018dc <__wrap___aeabi_memcpy>
10000f22:	60b4      	str	r4, [r6, #8]
10000f24:	f7ff fa40 	bl	100003a8 <spin_locks_reset>
10000f28:	f000 fb2a 	bl	10001580 <irq_init_priorities>
10000f2c:	f7ff fc46 	bl	100007bc <alarm_pool_init_default>
10000f30:	4c16      	ldr	r4, [pc, #88]	; (10000f8c <runtime_init+0xe8>)
10000f32:	4e17      	ldr	r6, [pc, #92]	; (10000f90 <runtime_init+0xec>)
10000f34:	42b4      	cmp	r4, r6
10000f36:	d208      	bcs.n	10000f4a <runtime_init+0xa6>
10000f38:	3e01      	subs	r6, #1
10000f3a:	1b36      	subs	r6, r6, r4
10000f3c:	08b6      	lsrs	r6, r6, #2
10000f3e:	cc08      	ldmia	r4!, {r3}
10000f40:	4798      	blx	r3
10000f42:	002b      	movs	r3, r5
10000f44:	3501      	adds	r5, #1
10000f46:	429e      	cmp	r6, r3
10000f48:	d1f9      	bne.n	10000f3e <runtime_init+0x9a>
10000f4a:	bd70      	pop	{r4, r5, r6, pc}
10000f4c:	3408      	adds	r4, #8
10000f4e:	f7ff fdb5 	bl	10000abc <mutex_init>
10000f52:	42b4      	cmp	r4, r6
10000f54:	d3d5      	bcc.n	10000f02 <runtime_init+0x5e>
10000f56:	e7dd      	b.n	10000f14 <runtime_init+0x70>
10000f58:	4000e000 	.word	0x4000e000
10000f5c:	fefbcdbf 	.word	0xfefbcdbf
10000f60:	003c7ffe 	.word	0x003c7ffe
10000f64:	4000f000 	.word	0x4000f000
10000f68:	4000c000 	.word	0x4000c000
10000f6c:	2000022c 	.word	0x2000022c
10000f70:	2000023c 	.word	0x2000023c
10000f74:	01ffffff 	.word	0x01ffffff
10000f78:	4001f000 	.word	0x4001f000
10000f7c:	20000224 	.word	0x20000224
10000f80:	2000022c 	.word	0x2000022c
10000f84:	20000000 	.word	0x20000000
10000f88:	e000ed00 	.word	0xe000ed00
10000f8c:	2000023c 	.word	0x2000023c
10000f90:	20000240 	.word	0x20000240

10000f94 <exit>:
10000f94:	be00      	bkpt	0x0000
10000f96:	e7fd      	b.n	10000f94 <exit>

10000f98 <panic>:
10000f98:	b40f      	push	{r0, r1, r2, r3}
10000f9a:	b500      	push	{lr}
10000f9c:	4808      	ldr	r0, [pc, #32]	; (10000fc0 <panic+0x28>)
10000f9e:	b083      	sub	sp, #12
10000fa0:	f000 fdd2 	bl	10001b48 <__wrap_puts>
10000fa4:	9b04      	ldr	r3, [sp, #16]
10000fa6:	2b00      	cmp	r3, #0
10000fa8:	d007      	beq.n	10000fba <panic+0x22>
10000faa:	a905      	add	r1, sp, #20
10000fac:	0018      	movs	r0, r3
10000fae:	9101      	str	r1, [sp, #4]
10000fb0:	f000 fb6c 	bl	1000168c <weak_raw_vprintf>
10000fb4:	4803      	ldr	r0, [pc, #12]	; (10000fc4 <panic+0x2c>)
10000fb6:	f000 fdc7 	bl	10001b48 <__wrap_puts>
10000fba:	be00      	bkpt	0x0000
10000fbc:	e7fd      	b.n	10000fba <panic+0x22>
10000fbe:	46c0      	nop			; (mov r8, r8)
10000fc0:	10001d6c 	.word	0x10001d6c
10000fc4:	10001d7c 	.word	0x10001d7c

10000fc8 <hard_assertion_failure>:
10000fc8:	b510      	push	{r4, lr}
10000fca:	4801      	ldr	r0, [pc, #4]	; (10000fd0 <hard_assertion_failure+0x8>)
10000fcc:	f7ff ffe4 	bl	10000f98 <panic>
10000fd0:	10001d80 	.word	0x10001d80

10000fd4 <clocks_init>:
10000fd4:	b510      	push	{r4, lr}
10000fd6:	200c      	movs	r0, #12
10000fd8:	b082      	sub	sp, #8
10000fda:	f000 fb33 	bl	10001644 <watchdog_start_tick>
10000fde:	f7ff f9db 	bl	10000398 <running_on_fpga>
10000fe2:	2800      	cmp	r0, #0
10000fe4:	d00e      	beq.n	10001004 <clocks_init+0x30>
10000fe6:	4b85      	ldr	r3, [pc, #532]	; (100011fc <clocks_init+0x228>)
10000fe8:	4a85      	ldr	r2, [pc, #532]	; (10001200 <clocks_init+0x22c>)
10000fea:	601a      	str	r2, [r3, #0]
10000fec:	605a      	str	r2, [r3, #4]
10000fee:	609a      	str	r2, [r3, #8]
10000ff0:	60da      	str	r2, [r3, #12]
10000ff2:	611a      	str	r2, [r3, #16]
10000ff4:	615a      	str	r2, [r3, #20]
10000ff6:	619a      	str	r2, [r3, #24]
10000ff8:	61da      	str	r2, [r3, #28]
10000ffa:	621a      	str	r2, [r3, #32]
10000ffc:	4a81      	ldr	r2, [pc, #516]	; (10001204 <clocks_init+0x230>)
10000ffe:	625a      	str	r2, [r3, #36]	; 0x24
10001000:	b002      	add	sp, #8
10001002:	bd10      	pop	{r4, pc}
10001004:	4c80      	ldr	r4, [pc, #512]	; (10001208 <clocks_init+0x234>)
10001006:	67a0      	str	r0, [r4, #120]	; 0x78
10001008:	f000 fb24 	bl	10001654 <xosc_init>
1000100c:	2201      	movs	r2, #1
1000100e:	4b7f      	ldr	r3, [pc, #508]	; (1000120c <clocks_init+0x238>)
10001010:	601a      	str	r2, [r3, #0]
10001012:	6c63      	ldr	r3, [r4, #68]	; 0x44
10001014:	2b01      	cmp	r3, #1
10001016:	d1fc      	bne.n	10001012 <clocks_init+0x3e>
10001018:	2203      	movs	r2, #3
1000101a:	4b7d      	ldr	r3, [pc, #500]	; (10001210 <clocks_init+0x23c>)
1000101c:	601a      	str	r2, [r3, #0]
1000101e:	4a7a      	ldr	r2, [pc, #488]	; (10001208 <clocks_init+0x234>)
10001020:	6b93      	ldr	r3, [r2, #56]	; 0x38
10001022:	2b01      	cmp	r3, #1
10001024:	d1fc      	bne.n	10001020 <clocks_init+0x4c>
10001026:	2402      	movs	r4, #2
10001028:	2101      	movs	r1, #1
1000102a:	4a7a      	ldr	r2, [pc, #488]	; (10001214 <clocks_init+0x240>)
1000102c:	487a      	ldr	r0, [pc, #488]	; (10001218 <clocks_init+0x244>)
1000102e:	3305      	adds	r3, #5
10001030:	9400      	str	r4, [sp, #0]
10001032:	f000 fab7 	bl	100015a4 <pll_init>
10001036:	2305      	movs	r3, #5
10001038:	4a78      	ldr	r2, [pc, #480]	; (1000121c <clocks_init+0x248>)
1000103a:	2101      	movs	r1, #1
1000103c:	4878      	ldr	r0, [pc, #480]	; (10001220 <clocks_init+0x24c>)
1000103e:	9400      	str	r4, [sp, #0]
10001040:	f000 fab0 	bl	100015a4 <pll_init>
10001044:	4b77      	ldr	r3, [pc, #476]	; (10001224 <clocks_init+0x250>)
10001046:	685a      	ldr	r2, [r3, #4]
10001048:	2aff      	cmp	r2, #255	; 0xff
1000104a:	d802      	bhi.n	10001052 <clocks_init+0x7e>
1000104c:	2280      	movs	r2, #128	; 0x80
1000104e:	0052      	lsls	r2, r2, #1
10001050:	605a      	str	r2, [r3, #4]
10001052:	2280      	movs	r2, #128	; 0x80
10001054:	4b6e      	ldr	r3, [pc, #440]	; (10001210 <clocks_init+0x23c>)
10001056:	4c69      	ldr	r4, [pc, #420]	; (100011fc <clocks_init+0x228>)
10001058:	0112      	lsls	r2, r2, #4
1000105a:	601a      	str	r2, [r3, #0]
1000105c:	6921      	ldr	r1, [r4, #16]
1000105e:	2900      	cmp	r1, #0
10001060:	d005      	beq.n	1000106e <clocks_init+0x9a>
10001062:	6960      	ldr	r0, [r4, #20]
10001064:	f000 fb64 	bl	10001730 <__wrap___aeabi_uidiv>
10001068:	3001      	adds	r0, #1
1000106a:	3801      	subs	r0, #1
1000106c:	d1fd      	bne.n	1000106a <clocks_init+0x96>
1000106e:	22e0      	movs	r2, #224	; 0xe0
10001070:	4b6c      	ldr	r3, [pc, #432]	; (10001224 <clocks_init+0x250>)
10001072:	486d      	ldr	r0, [pc, #436]	; (10001228 <clocks_init+0x254>)
10001074:	6819      	ldr	r1, [r3, #0]
10001076:	400a      	ands	r2, r1
10001078:	6002      	str	r2, [r0, #0]
1000107a:	2202      	movs	r2, #2
1000107c:	6819      	ldr	r1, [r3, #0]
1000107e:	4051      	eors	r1, r2
10001080:	3201      	adds	r2, #1
10001082:	400a      	ands	r2, r1
10001084:	2104      	movs	r1, #4
10001086:	6002      	str	r2, [r0, #0]
10001088:	689a      	ldr	r2, [r3, #8]
1000108a:	4211      	tst	r1, r2
1000108c:	d0fc      	beq.n	10001088 <clocks_init+0xb4>
1000108e:	2180      	movs	r1, #128	; 0x80
10001090:	4a66      	ldr	r2, [pc, #408]	; (1000122c <clocks_init+0x258>)
10001092:	0109      	lsls	r1, r1, #4
10001094:	6011      	str	r1, [r2, #0]
10001096:	2280      	movs	r2, #128	; 0x80
10001098:	0052      	lsls	r2, r2, #1
1000109a:	605a      	str	r2, [r3, #4]
1000109c:	4b64      	ldr	r3, [pc, #400]	; (10001230 <clocks_init+0x25c>)
1000109e:	6123      	str	r3, [r4, #16]
100010a0:	4b64      	ldr	r3, [pc, #400]	; (10001234 <clocks_init+0x260>)
100010a2:	6859      	ldr	r1, [r3, #4]
100010a4:	29ff      	cmp	r1, #255	; 0xff
100010a6:	d800      	bhi.n	100010aa <clocks_init+0xd6>
100010a8:	605a      	str	r2, [r3, #4]
100010aa:	2203      	movs	r2, #3
100010ac:	2101      	movs	r1, #1
100010ae:	4b57      	ldr	r3, [pc, #348]	; (1000120c <clocks_init+0x238>)
100010b0:	601a      	str	r2, [r3, #0]
100010b2:	4a60      	ldr	r2, [pc, #384]	; (10001234 <clocks_init+0x260>)
100010b4:	6893      	ldr	r3, [r2, #8]
100010b6:	4219      	tst	r1, r3
100010b8:	d0fc      	beq.n	100010b4 <clocks_init+0xe0>
100010ba:	23e0      	movs	r3, #224	; 0xe0
100010bc:	6810      	ldr	r0, [r2, #0]
100010be:	4003      	ands	r3, r0
100010c0:	485d      	ldr	r0, [pc, #372]	; (10001238 <clocks_init+0x264>)
100010c2:	6003      	str	r3, [r0, #0]
100010c4:	6812      	ldr	r2, [r2, #0]
100010c6:	2303      	movs	r3, #3
100010c8:	404a      	eors	r2, r1
100010ca:	2102      	movs	r1, #2
100010cc:	4013      	ands	r3, r2
100010ce:	4a59      	ldr	r2, [pc, #356]	; (10001234 <clocks_init+0x260>)
100010d0:	6003      	str	r3, [r0, #0]
100010d2:	6893      	ldr	r3, [r2, #8]
100010d4:	4219      	tst	r1, r3
100010d6:	d0fc      	beq.n	100010d2 <clocks_init+0xfe>
100010d8:	2180      	movs	r1, #128	; 0x80
100010da:	4b58      	ldr	r3, [pc, #352]	; (1000123c <clocks_init+0x268>)
100010dc:	0109      	lsls	r1, r1, #4
100010de:	6019      	str	r1, [r3, #0]
100010e0:	2180      	movs	r1, #128	; 0x80
100010e2:	4b57      	ldr	r3, [pc, #348]	; (10001240 <clocks_init+0x26c>)
100010e4:	0049      	lsls	r1, r1, #1
100010e6:	6051      	str	r1, [r2, #4]
100010e8:	6163      	str	r3, [r4, #20]
100010ea:	4b56      	ldr	r3, [pc, #344]	; (10001244 <clocks_init+0x270>)
100010ec:	685a      	ldr	r2, [r3, #4]
100010ee:	2aff      	cmp	r2, #255	; 0xff
100010f0:	d800      	bhi.n	100010f4 <clocks_init+0x120>
100010f2:	6059      	str	r1, [r3, #4]
100010f4:	2280      	movs	r2, #128	; 0x80
100010f6:	4b54      	ldr	r3, [pc, #336]	; (10001248 <clocks_init+0x274>)
100010f8:	0112      	lsls	r2, r2, #4
100010fa:	601a      	str	r2, [r3, #0]
100010fc:	69e1      	ldr	r1, [r4, #28]
100010fe:	2900      	cmp	r1, #0
10001100:	d005      	beq.n	1000110e <clocks_init+0x13a>
10001102:	6960      	ldr	r0, [r4, #20]
10001104:	f000 fb14 	bl	10001730 <__wrap___aeabi_uidiv>
10001108:	3001      	adds	r0, #1
1000110a:	3801      	subs	r0, #1
1000110c:	d1fd      	bne.n	1000110a <clocks_init+0x136>
1000110e:	23e0      	movs	r3, #224	; 0xe0
10001110:	4a4c      	ldr	r2, [pc, #304]	; (10001244 <clocks_init+0x270>)
10001112:	6811      	ldr	r1, [r2, #0]
10001114:	400b      	ands	r3, r1
10001116:	494d      	ldr	r1, [pc, #308]	; (1000124c <clocks_init+0x278>)
10001118:	600b      	str	r3, [r1, #0]
1000111a:	2180      	movs	r1, #128	; 0x80
1000111c:	4b4c      	ldr	r3, [pc, #304]	; (10001250 <clocks_init+0x27c>)
1000111e:	0109      	lsls	r1, r1, #4
10001120:	6019      	str	r1, [r3, #0]
10001122:	2180      	movs	r1, #128	; 0x80
10001124:	4b36      	ldr	r3, [pc, #216]	; (10001200 <clocks_init+0x22c>)
10001126:	0049      	lsls	r1, r1, #1
10001128:	6051      	str	r1, [r2, #4]
1000112a:	61e3      	str	r3, [r4, #28]
1000112c:	4b49      	ldr	r3, [pc, #292]	; (10001254 <clocks_init+0x280>)
1000112e:	685a      	ldr	r2, [r3, #4]
10001130:	2aff      	cmp	r2, #255	; 0xff
10001132:	d800      	bhi.n	10001136 <clocks_init+0x162>
10001134:	6059      	str	r1, [r3, #4]
10001136:	2280      	movs	r2, #128	; 0x80
10001138:	4b47      	ldr	r3, [pc, #284]	; (10001258 <clocks_init+0x284>)
1000113a:	0112      	lsls	r2, r2, #4
1000113c:	601a      	str	r2, [r3, #0]
1000113e:	6a21      	ldr	r1, [r4, #32]
10001140:	2900      	cmp	r1, #0
10001142:	d005      	beq.n	10001150 <clocks_init+0x17c>
10001144:	6960      	ldr	r0, [r4, #20]
10001146:	f000 faf3 	bl	10001730 <__wrap___aeabi_uidiv>
1000114a:	3001      	adds	r0, #1
1000114c:	3801      	subs	r0, #1
1000114e:	d1fd      	bne.n	1000114c <clocks_init+0x178>
10001150:	23e0      	movs	r3, #224	; 0xe0
10001152:	4a40      	ldr	r2, [pc, #256]	; (10001254 <clocks_init+0x280>)
10001154:	6811      	ldr	r1, [r2, #0]
10001156:	400b      	ands	r3, r1
10001158:	4940      	ldr	r1, [pc, #256]	; (1000125c <clocks_init+0x288>)
1000115a:	600b      	str	r3, [r1, #0]
1000115c:	2180      	movs	r1, #128	; 0x80
1000115e:	4b40      	ldr	r3, [pc, #256]	; (10001260 <clocks_init+0x28c>)
10001160:	0109      	lsls	r1, r1, #4
10001162:	6019      	str	r1, [r3, #0]
10001164:	2380      	movs	r3, #128	; 0x80
10001166:	005b      	lsls	r3, r3, #1
10001168:	6053      	str	r3, [r2, #4]
1000116a:	2280      	movs	r2, #128	; 0x80
1000116c:	4b24      	ldr	r3, [pc, #144]	; (10001200 <clocks_init+0x22c>)
1000116e:	02d2      	lsls	r2, r2, #11
10001170:	6223      	str	r3, [r4, #32]
10001172:	4b3c      	ldr	r3, [pc, #240]	; (10001264 <clocks_init+0x290>)
10001174:	6859      	ldr	r1, [r3, #4]
10001176:	4291      	cmp	r1, r2
10001178:	d200      	bcs.n	1000117c <clocks_init+0x1a8>
1000117a:	605a      	str	r2, [r3, #4]
1000117c:	2280      	movs	r2, #128	; 0x80
1000117e:	4b3a      	ldr	r3, [pc, #232]	; (10001268 <clocks_init+0x294>)
10001180:	0112      	lsls	r2, r2, #4
10001182:	601a      	str	r2, [r3, #0]
10001184:	6a61      	ldr	r1, [r4, #36]	; 0x24
10001186:	2900      	cmp	r1, #0
10001188:	d005      	beq.n	10001196 <clocks_init+0x1c2>
1000118a:	6960      	ldr	r0, [r4, #20]
1000118c:	f000 fad0 	bl	10001730 <__wrap___aeabi_uidiv>
10001190:	3001      	adds	r0, #1
10001192:	3801      	subs	r0, #1
10001194:	d1fd      	bne.n	10001192 <clocks_init+0x1be>
10001196:	23e0      	movs	r3, #224	; 0xe0
10001198:	4a32      	ldr	r2, [pc, #200]	; (10001264 <clocks_init+0x290>)
1000119a:	6811      	ldr	r1, [r2, #0]
1000119c:	400b      	ands	r3, r1
1000119e:	4933      	ldr	r1, [pc, #204]	; (1000126c <clocks_init+0x298>)
100011a0:	600b      	str	r3, [r1, #0]
100011a2:	2180      	movs	r1, #128	; 0x80
100011a4:	4b32      	ldr	r3, [pc, #200]	; (10001270 <clocks_init+0x29c>)
100011a6:	0109      	lsls	r1, r1, #4
100011a8:	6019      	str	r1, [r3, #0]
100011aa:	2380      	movs	r3, #128	; 0x80
100011ac:	02db      	lsls	r3, r3, #11
100011ae:	6053      	str	r3, [r2, #4]
100011b0:	4b14      	ldr	r3, [pc, #80]	; (10001204 <clocks_init+0x230>)
100011b2:	6263      	str	r3, [r4, #36]	; 0x24
100011b4:	4b2f      	ldr	r3, [pc, #188]	; (10001274 <clocks_init+0x2a0>)
100011b6:	685a      	ldr	r2, [r3, #4]
100011b8:	2aff      	cmp	r2, #255	; 0xff
100011ba:	d802      	bhi.n	100011c2 <clocks_init+0x1ee>
100011bc:	2280      	movs	r2, #128	; 0x80
100011be:	0052      	lsls	r2, r2, #1
100011c0:	605a      	str	r2, [r3, #4]
100011c2:	2280      	movs	r2, #128	; 0x80
100011c4:	4b2c      	ldr	r3, [pc, #176]	; (10001278 <clocks_init+0x2a4>)
100011c6:	0112      	lsls	r2, r2, #4
100011c8:	601a      	str	r2, [r3, #0]
100011ca:	69a1      	ldr	r1, [r4, #24]
100011cc:	2900      	cmp	r1, #0
100011ce:	d005      	beq.n	100011dc <clocks_init+0x208>
100011d0:	6960      	ldr	r0, [r4, #20]
100011d2:	f000 faad 	bl	10001730 <__wrap___aeabi_uidiv>
100011d6:	3001      	adds	r0, #1
100011d8:	3801      	subs	r0, #1
100011da:	d1fd      	bne.n	100011d8 <clocks_init+0x204>
100011dc:	23e0      	movs	r3, #224	; 0xe0
100011de:	4a25      	ldr	r2, [pc, #148]	; (10001274 <clocks_init+0x2a0>)
100011e0:	6811      	ldr	r1, [r2, #0]
100011e2:	400b      	ands	r3, r1
100011e4:	4925      	ldr	r1, [pc, #148]	; (1000127c <clocks_init+0x2a8>)
100011e6:	600b      	str	r3, [r1, #0]
100011e8:	2180      	movs	r1, #128	; 0x80
100011ea:	4b25      	ldr	r3, [pc, #148]	; (10001280 <clocks_init+0x2ac>)
100011ec:	0109      	lsls	r1, r1, #4
100011ee:	6019      	str	r1, [r3, #0]
100011f0:	2380      	movs	r3, #128	; 0x80
100011f2:	005b      	lsls	r3, r3, #1
100011f4:	6053      	str	r3, [r2, #4]
100011f6:	4b12      	ldr	r3, [pc, #72]	; (10001240 <clocks_init+0x26c>)
100011f8:	61a3      	str	r3, [r4, #24]
100011fa:	e701      	b.n	10001000 <clocks_init+0x2c>
100011fc:	20000550 	.word	0x20000550
10001200:	02dc6c00 	.word	0x02dc6c00
10001204:	0000b71b 	.word	0x0000b71b
10001208:	40008000 	.word	0x40008000
1000120c:	4000b03c 	.word	0x4000b03c
10001210:	4000b030 	.word	0x4000b030
10001214:	59682f00 	.word	0x59682f00
10001218:	40028000 	.word	0x40028000
1000121c:	1c9c3800 	.word	0x1c9c3800
10001220:	4002c000 	.word	0x4002c000
10001224:	40008030 	.word	0x40008030
10001228:	40009030 	.word	0x40009030
1000122c:	4000a030 	.word	0x4000a030
10001230:	00b71b00 	.word	0x00b71b00
10001234:	4000803c 	.word	0x4000803c
10001238:	4000903c 	.word	0x4000903c
1000123c:	4000a03c 	.word	0x4000a03c
10001240:	07735940 	.word	0x07735940
10001244:	40008054 	.word	0x40008054
10001248:	4000b054 	.word	0x4000b054
1000124c:	40009054 	.word	0x40009054
10001250:	4000a054 	.word	0x4000a054
10001254:	40008060 	.word	0x40008060
10001258:	4000b060 	.word	0x4000b060
1000125c:	40009060 	.word	0x40009060
10001260:	4000a060 	.word	0x4000a060
10001264:	4000806c 	.word	0x4000806c
10001268:	4000b06c 	.word	0x4000b06c
1000126c:	4000906c 	.word	0x4000906c
10001270:	4000a06c 	.word	0x4000a06c
10001274:	40008048 	.word	0x40008048
10001278:	4000b048 	.word	0x4000b048
1000127c:	40009048 	.word	0x40009048
10001280:	4000a048 	.word	0x4000a048

10001284 <clock_get_hz>:
10001284:	4b01      	ldr	r3, [pc, #4]	; (1000128c <clock_get_hz+0x8>)
10001286:	0080      	lsls	r0, r0, #2
10001288:	58c0      	ldr	r0, [r0, r3]
1000128a:	4770      	bx	lr
1000128c:	20000550 	.word	0x20000550

10001290 <irq_set_enabled>:
10001290:	2301      	movs	r3, #1
10001292:	4083      	lsls	r3, r0
10001294:	2900      	cmp	r1, #0
10001296:	d004      	beq.n	100012a2 <irq_set_enabled+0x12>
10001298:	4a03      	ldr	r2, [pc, #12]	; (100012a8 <irq_set_enabled+0x18>)
1000129a:	6013      	str	r3, [r2, #0]
1000129c:	4a03      	ldr	r2, [pc, #12]	; (100012ac <irq_set_enabled+0x1c>)
1000129e:	6013      	str	r3, [r2, #0]
100012a0:	4770      	bx	lr
100012a2:	4a03      	ldr	r2, [pc, #12]	; (100012b0 <irq_set_enabled+0x20>)
100012a4:	6013      	str	r3, [r2, #0]
100012a6:	e7fb      	b.n	100012a0 <irq_set_enabled+0x10>
100012a8:	e000e280 	.word	0xe000e280
100012ac:	e000e100 	.word	0xe000e100
100012b0:	e000e180 	.word	0xe000e180

100012b4 <irq_get_vtable_handler>:
100012b4:	4b02      	ldr	r3, [pc, #8]	; (100012c0 <irq_get_vtable_handler+0xc>)
100012b6:	3010      	adds	r0, #16
100012b8:	689b      	ldr	r3, [r3, #8]
100012ba:	0080      	lsls	r0, r0, #2
100012bc:	58c0      	ldr	r0, [r0, r3]
100012be:	4770      	bx	lr
100012c0:	e000ed00 	.word	0xe000ed00

100012c4 <irq_set_exclusive_handler>:
100012c4:	b570      	push	{r4, r5, r6, lr}
100012c6:	000d      	movs	r5, r1
100012c8:	f3ef 8610 	mrs	r6, PRIMASK
100012cc:	b672      	cpsid	i
100012ce:	4a0f      	ldr	r2, [pc, #60]	; (1000130c <irq_set_exclusive_handler+0x48>)
100012d0:	6813      	ldr	r3, [r2, #0]
100012d2:	2b00      	cmp	r3, #0
100012d4:	d0fc      	beq.n	100012d0 <irq_set_exclusive_handler+0xc>
100012d6:	f3bf 8f5f 	dmb	sy
100012da:	4b0d      	ldr	r3, [pc, #52]	; (10001310 <irq_set_exclusive_handler+0x4c>)
100012dc:	3010      	adds	r0, #16
100012de:	689b      	ldr	r3, [r3, #8]
100012e0:	0084      	lsls	r4, r0, #2
100012e2:	591b      	ldr	r3, [r3, r4]
100012e4:	4a0b      	ldr	r2, [pc, #44]	; (10001314 <irq_set_exclusive_handler+0x50>)
100012e6:	4293      	cmp	r3, r2
100012e8:	d003      	beq.n	100012f2 <irq_set_exclusive_handler+0x2e>
100012ea:	429d      	cmp	r5, r3
100012ec:	d001      	beq.n	100012f2 <irq_set_exclusive_handler+0x2e>
100012ee:	f7ff fe6b 	bl	10000fc8 <hard_assertion_failure>
100012f2:	4b07      	ldr	r3, [pc, #28]	; (10001310 <irq_set_exclusive_handler+0x4c>)
100012f4:	689b      	ldr	r3, [r3, #8]
100012f6:	511d      	str	r5, [r3, r4]
100012f8:	f3bf 8f5f 	dmb	sy
100012fc:	f3bf 8f5f 	dmb	sy
10001300:	2200      	movs	r2, #0
10001302:	4b02      	ldr	r3, [pc, #8]	; (1000130c <irq_set_exclusive_handler+0x48>)
10001304:	601a      	str	r2, [r3, #0]
10001306:	f386 8810 	msr	PRIMASK, r6
1000130a:	bd70      	pop	{r4, r5, r6, pc}
1000130c:	d0000124 	.word	0xd0000124
10001310:	e000ed00 	.word	0xe000ed00
10001314:	100001cd 	.word	0x100001cd

10001318 <irq_remove_handler>:
10001318:	b5f0      	push	{r4, r5, r6, r7, lr}
1000131a:	46de      	mov	lr, fp
1000131c:	4657      	mov	r7, sl
1000131e:	464e      	mov	r6, r9
10001320:	4645      	mov	r5, r8
10001322:	b5e0      	push	{r5, r6, r7, lr}
10001324:	000c      	movs	r4, r1
10001326:	b083      	sub	sp, #12
10001328:	f3ef 8a10 	mrs	sl, PRIMASK
1000132c:	b672      	cpsid	i
1000132e:	4a5a      	ldr	r2, [pc, #360]	; (10001498 <irq_remove_handler+0x180>)
10001330:	6813      	ldr	r3, [r2, #0]
10001332:	2b00      	cmp	r3, #0
10001334:	d0fc      	beq.n	10001330 <irq_remove_handler+0x18>
10001336:	f3bf 8f5f 	dmb	sy
1000133a:	2210      	movs	r2, #16
1000133c:	4691      	mov	r9, r2
1000133e:	4481      	add	r9, r0
10001340:	464a      	mov	r2, r9
10001342:	4b56      	ldr	r3, [pc, #344]	; (1000149c <irq_remove_handler+0x184>)
10001344:	0096      	lsls	r6, r2, #2
10001346:	689b      	ldr	r3, [r3, #8]
10001348:	599d      	ldr	r5, [r3, r6]
1000134a:	4b55      	ldr	r3, [pc, #340]	; (100014a0 <irq_remove_handler+0x188>)
1000134c:	4698      	mov	r8, r3
1000134e:	429d      	cmp	r5, r3
10001350:	d005      	beq.n	1000135e <irq_remove_handler+0x46>
10001352:	42a5      	cmp	r5, r4
10001354:	d016      	beq.n	10001384 <irq_remove_handler+0x6c>
10001356:	4f53      	ldr	r7, [pc, #332]	; (100014a4 <irq_remove_handler+0x18c>)
10001358:	1beb      	subs	r3, r5, r7
1000135a:	2b2f      	cmp	r3, #47	; 0x2f
1000135c:	d914      	bls.n	10001388 <irq_remove_handler+0x70>
1000135e:	4b4f      	ldr	r3, [pc, #316]	; (1000149c <irq_remove_handler+0x184>)
10001360:	689b      	ldr	r3, [r3, #8]
10001362:	519d      	str	r5, [r3, r6]
10001364:	f3bf 8f5f 	dmb	sy
10001368:	f3bf 8f5f 	dmb	sy
1000136c:	2200      	movs	r2, #0
1000136e:	4b4a      	ldr	r3, [pc, #296]	; (10001498 <irq_remove_handler+0x180>)
10001370:	601a      	str	r2, [r3, #0]
10001372:	f38a 8810 	msr	PRIMASK, sl
10001376:	b003      	add	sp, #12
10001378:	bcf0      	pop	{r4, r5, r6, r7}
1000137a:	46bb      	mov	fp, r7
1000137c:	46b2      	mov	sl, r6
1000137e:	46a9      	mov	r9, r5
10001380:	46a0      	mov	r8, r4
10001382:	bdf0      	pop	{r4, r5, r6, r7, pc}
10001384:	001d      	movs	r5, r3
10001386:	e7ea      	b.n	1000135e <irq_remove_handler+0x46>
10001388:	2301      	movs	r3, #1
1000138a:	4083      	lsls	r3, r0
1000138c:	469b      	mov	fp, r3
1000138e:	465a      	mov	r2, fp
10001390:	4b45      	ldr	r3, [pc, #276]	; (100014a8 <irq_remove_handler+0x190>)
10001392:	681b      	ldr	r3, [r3, #0]
10001394:	401a      	ands	r2, r3
10001396:	9200      	str	r2, [sp, #0]
10001398:	465a      	mov	r2, fp
1000139a:	4b44      	ldr	r3, [pc, #272]	; (100014ac <irq_remove_handler+0x194>)
1000139c:	601a      	str	r2, [r3, #0]
1000139e:	f3bf 8f5f 	dmb	sy
100013a2:	f7fe ff60 	bl	10000266 <__get_current_exception>
100013a6:	9001      	str	r0, [sp, #4]
100013a8:	2800      	cmp	r0, #0
100013aa:	d003      	beq.n	100013b4 <irq_remove_handler+0x9c>
100013ac:	4581      	cmp	r9, r0
100013ae:	d001      	beq.n	100013b4 <irq_remove_handler+0x9c>
100013b0:	f7ff fe0a 	bl	10000fc8 <hard_assertion_failure>
100013b4:	2301      	movs	r3, #1
100013b6:	002a      	movs	r2, r5
100013b8:	439a      	bics	r2, r3
100013ba:	0013      	movs	r3, r2
100013bc:	493c      	ldr	r1, [pc, #240]	; (100014b0 <irq_remove_handler+0x198>)
100013be:	1bdb      	subs	r3, r3, r7
100013c0:	415b      	adcs	r3, r3
100013c2:	4359      	muls	r1, r3
100013c4:	0d09      	lsrs	r1, r1, #20
100013c6:	6893      	ldr	r3, [r2, #8]
100013c8:	429c      	cmp	r4, r3
100013ca:	d108      	bne.n	100013de <irq_remove_handler+0xc6>
100013cc:	e05a      	b.n	10001484 <irq_remove_handler+0x16c>
100013ce:	0043      	lsls	r3, r0, #1
100013d0:	181b      	adds	r3, r3, r0
100013d2:	009b      	lsls	r3, r3, #2
100013d4:	18fb      	adds	r3, r7, r3
100013d6:	6898      	ldr	r0, [r3, #8]
100013d8:	42a0      	cmp	r0, r4
100013da:	d011      	beq.n	10001400 <irq_remove_handler+0xe8>
100013dc:	001a      	movs	r2, r3
100013de:	2006      	movs	r0, #6
100013e0:	5610      	ldrsb	r0, [r2, r0]
100013e2:	2800      	cmp	r0, #0
100013e4:	daf3      	bge.n	100013ce <irq_remove_handler+0xb6>
100013e6:	9b00      	ldr	r3, [sp, #0]
100013e8:	2b00      	cmp	r3, #0
100013ea:	d005      	beq.n	100013f8 <irq_remove_handler+0xe0>
100013ec:	465a      	mov	r2, fp
100013ee:	4b31      	ldr	r3, [pc, #196]	; (100014b4 <irq_remove_handler+0x19c>)
100013f0:	601a      	str	r2, [r3, #0]
100013f2:	4b2d      	ldr	r3, [pc, #180]	; (100014a8 <irq_remove_handler+0x190>)
100013f4:	601a      	str	r2, [r3, #0]
100013f6:	e7b2      	b.n	1000135e <irq_remove_handler+0x46>
100013f8:	465a      	mov	r2, fp
100013fa:	4b2c      	ldr	r3, [pc, #176]	; (100014ac <irq_remove_handler+0x194>)
100013fc:	601a      	str	r2, [r3, #0]
100013fe:	e7ae      	b.n	1000135e <irq_remove_handler+0x46>
10001400:	2006      	movs	r0, #6
10001402:	5618      	ldrsb	r0, [r3, r0]
10001404:	2800      	cmp	r0, #0
10001406:	db21      	blt.n	1000144c <irq_remove_handler+0x134>
10001408:	0042      	lsls	r2, r0, #1
1000140a:	1811      	adds	r1, r2, r0
1000140c:	0089      	lsls	r1, r1, #2
1000140e:	187c      	adds	r4, r7, r1
10001410:	4688      	mov	r8, r1
10001412:	68a1      	ldr	r1, [r4, #8]
10001414:	6099      	str	r1, [r3, #8]
10001416:	79e1      	ldrb	r1, [r4, #7]
10001418:	71d9      	strb	r1, [r3, #7]
1000141a:	2106      	movs	r1, #6
1000141c:	5661      	ldrsb	r1, [r4, r1]
1000141e:	7199      	strb	r1, [r3, #6]
10001420:	2900      	cmp	r1, #0
10001422:	db1f      	blt.n	10001464 <irq_remove_handler+0x14c>
10001424:	88a4      	ldrh	r4, [r4, #4]
10001426:	1af9      	subs	r1, r7, r3
10001428:	0564      	lsls	r4, r4, #21
1000142a:	1524      	asrs	r4, r4, #20
1000142c:	4444      	add	r4, r8
1000142e:	1909      	adds	r1, r1, r4
10001430:	24e0      	movs	r4, #224	; 0xe0
10001432:	0509      	lsls	r1, r1, #20
10001434:	0d49      	lsrs	r1, r1, #21
10001436:	0224      	lsls	r4, r4, #8
10001438:	4321      	orrs	r1, r4
1000143a:	8099      	strh	r1, [r3, #4]
1000143c:	4b1e      	ldr	r3, [pc, #120]	; (100014b8 <irq_remove_handler+0x1a0>)
1000143e:	1812      	adds	r2, r2, r0
10001440:	7819      	ldrb	r1, [r3, #0]
10001442:	0092      	lsls	r2, r2, #2
10001444:	18ba      	adds	r2, r7, r2
10001446:	7191      	strb	r1, [r2, #6]
10001448:	7018      	strb	r0, [r3, #0]
1000144a:	e7cc      	b.n	100013e6 <irq_remove_handler+0xce>
1000144c:	9801      	ldr	r0, [sp, #4]
1000144e:	2800      	cmp	r0, #0
10001450:	d10b      	bne.n	1000146a <irq_remove_handler+0x152>
10001452:	30ff      	adds	r0, #255	; 0xff
10001454:	7190      	strb	r0, [r2, #6]
10001456:	4819      	ldr	r0, [pc, #100]	; (100014bc <irq_remove_handler+0x1a4>)
10001458:	8090      	strh	r0, [r2, #4]
1000145a:	4a17      	ldr	r2, [pc, #92]	; (100014b8 <irq_remove_handler+0x1a0>)
1000145c:	7810      	ldrb	r0, [r2, #0]
1000145e:	7011      	strb	r1, [r2, #0]
10001460:	7198      	strb	r0, [r3, #6]
10001462:	e7c0      	b.n	100013e6 <irq_remove_handler+0xce>
10001464:	21bd      	movs	r1, #189	; 0xbd
10001466:	0209      	lsls	r1, r1, #8
10001468:	e7e7      	b.n	1000143a <irq_remove_handler+0x122>
1000146a:	4a15      	ldr	r2, [pc, #84]	; (100014c0 <irq_remove_handler+0x1a8>)
1000146c:	4915      	ldr	r1, [pc, #84]	; (100014c4 <irq_remove_handler+0x1ac>)
1000146e:	1ad2      	subs	r2, r2, r3
10001470:	3a08      	subs	r2, #8
10001472:	0250      	lsls	r0, r2, #9
10001474:	0d40      	lsrs	r0, r0, #21
10001476:	4301      	orrs	r1, r0
10001478:	8099      	strh	r1, [r3, #4]
1000147a:	4913      	ldr	r1, [pc, #76]	; (100014c8 <irq_remove_handler+0x1b0>)
1000147c:	0852      	lsrs	r2, r2, #1
1000147e:	430a      	orrs	r2, r1
10001480:	80da      	strh	r2, [r3, #6]
10001482:	e7b0      	b.n	100013e6 <irq_remove_handler+0xce>
10001484:	2006      	movs	r0, #6
10001486:	5610      	ldrsb	r0, [r2, r0]
10001488:	0013      	movs	r3, r2
1000148a:	2800      	cmp	r0, #0
1000148c:	dabc      	bge.n	10001408 <irq_remove_handler+0xf0>
1000148e:	9a01      	ldr	r2, [sp, #4]
10001490:	2a00      	cmp	r2, #0
10001492:	d1ea      	bne.n	1000146a <irq_remove_handler+0x152>
10001494:	4645      	mov	r5, r8
10001496:	e7e0      	b.n	1000145a <irq_remove_handler+0x142>
10001498:	d0000124 	.word	0xd0000124
1000149c:	e000ed00 	.word	0xe000ed00
100014a0:	100001cd 	.word	0x100001cd
100014a4:	200001a4 	.word	0x200001a4
100014a8:	e000e100 	.word	0xe000e100
100014ac:	e000e180 	.word	0xe000e180
100014b0:	0000aaaa 	.word	0x0000aaaa
100014b4:	e000e280 	.word	0xe000e280
100014b8:	2000060d 	.word	0x2000060d
100014bc:	ffffbd00 	.word	0xffffbd00
100014c0:	200001de 	.word	0x200001de
100014c4:	fffff000 	.word	0xfffff000
100014c8:	fffff800 	.word	0xfffff800

100014cc <irq_add_tail_to_free_list>:
100014cc:	b5f8      	push	{r3, r4, r5, r6, r7, lr}
100014ce:	2501      	movs	r5, #1
100014d0:	0004      	movs	r4, r0
100014d2:	4305      	orrs	r5, r0
100014d4:	f7fe fec7 	bl	10000266 <__get_current_exception>
100014d8:	f3ef 8c10 	mrs	ip, PRIMASK
100014dc:	b672      	cpsid	i
100014de:	4a21      	ldr	r2, [pc, #132]	; (10001564 <irq_add_tail_to_free_list+0x98>)
100014e0:	6813      	ldr	r3, [r2, #0]
100014e2:	2b00      	cmp	r3, #0
100014e4:	d0fc      	beq.n	100014e0 <irq_add_tail_to_free_list+0x14>
100014e6:	f3bf 8f5f 	dmb	sy
100014ea:	4e1f      	ldr	r6, [pc, #124]	; (10001568 <irq_add_tail_to_free_list+0x9c>)
100014ec:	0021      	movs	r1, r4
100014ee:	68b7      	ldr	r7, [r6, #8]
100014f0:	4a1e      	ldr	r2, [pc, #120]	; (1000156c <irq_add_tail_to_free_list+0xa0>)
100014f2:	4b1f      	ldr	r3, [pc, #124]	; (10001570 <irq_add_tail_to_free_list+0xa4>)
100014f4:	1a89      	subs	r1, r1, r2
100014f6:	4149      	adcs	r1, r1
100014f8:	434b      	muls	r3, r1
100014fa:	0d1b      	lsrs	r3, r3, #20
100014fc:	b259      	sxtb	r1, r3
100014fe:	0083      	lsls	r3, r0, #2
10001500:	58f8      	ldr	r0, [r7, r3]
10001502:	42a8      	cmp	r0, r5
10001504:	d01c      	beq.n	10001540 <irq_add_tail_to_free_list+0x74>
10001506:	2306      	movs	r3, #6
10001508:	56d3      	ldrsb	r3, [r2, r3]
1000150a:	428b      	cmp	r3, r1
1000150c:	d01c      	beq.n	10001548 <irq_add_tail_to_free_list+0x7c>
1000150e:	2312      	movs	r3, #18
10001510:	56d3      	ldrsb	r3, [r2, r3]
10001512:	428b      	cmp	r3, r1
10001514:	d022      	beq.n	1000155c <irq_add_tail_to_free_list+0x90>
10001516:	231e      	movs	r3, #30
10001518:	56d3      	ldrsb	r3, [r2, r3]
1000151a:	428b      	cmp	r3, r1
1000151c:	d020      	beq.n	10001560 <irq_add_tail_to_free_list+0x94>
1000151e:	232a      	movs	r3, #42	; 0x2a
10001520:	56d3      	ldrsb	r3, [r2, r3]
10001522:	2003      	movs	r0, #3
10001524:	428b      	cmp	r3, r1
10001526:	d010      	beq.n	1000154a <irq_add_tail_to_free_list+0x7e>
10001528:	4b12      	ldr	r3, [pc, #72]	; (10001574 <irq_add_tail_to_free_list+0xa8>)
1000152a:	781a      	ldrb	r2, [r3, #0]
1000152c:	7019      	strb	r1, [r3, #0]
1000152e:	71a2      	strb	r2, [r4, #6]
10001530:	f3bf 8f5f 	dmb	sy
10001534:	2200      	movs	r2, #0
10001536:	4b0b      	ldr	r3, [pc, #44]	; (10001564 <irq_add_tail_to_free_list+0x98>)
10001538:	601a      	str	r2, [r3, #0]
1000153a:	f38c 8810 	msr	PRIMASK, ip
1000153e:	bdf8      	pop	{r3, r4, r5, r6, r7, pc}
10001540:	68b2      	ldr	r2, [r6, #8]
10001542:	480d      	ldr	r0, [pc, #52]	; (10001578 <irq_add_tail_to_free_list+0xac>)
10001544:	50d0      	str	r0, [r2, r3]
10001546:	e7ef      	b.n	10001528 <irq_add_tail_to_free_list+0x5c>
10001548:	2000      	movs	r0, #0
1000154a:	0043      	lsls	r3, r0, #1
1000154c:	181b      	adds	r3, r3, r0
1000154e:	009b      	lsls	r3, r3, #2
10001550:	18d2      	adds	r2, r2, r3
10001552:	23ff      	movs	r3, #255	; 0xff
10001554:	7193      	strb	r3, [r2, #6]
10001556:	4b09      	ldr	r3, [pc, #36]	; (1000157c <irq_add_tail_to_free_list+0xb0>)
10001558:	8093      	strh	r3, [r2, #4]
1000155a:	e7e5      	b.n	10001528 <irq_add_tail_to_free_list+0x5c>
1000155c:	2001      	movs	r0, #1
1000155e:	e7f4      	b.n	1000154a <irq_add_tail_to_free_list+0x7e>
10001560:	2002      	movs	r0, #2
10001562:	e7f2      	b.n	1000154a <irq_add_tail_to_free_list+0x7e>
10001564:	d0000124 	.word	0xd0000124
10001568:	e000ed00 	.word	0xe000ed00
1000156c:	200001a4 	.word	0x200001a4
10001570:	0000aaaa 	.word	0x0000aaaa
10001574:	2000060d 	.word	0x2000060d
10001578:	100001cd 	.word	0x100001cd
1000157c:	ffffbd00 	.word	0xffffbd00

10001580 <irq_init_priorities>:
10001580:	4b05      	ldr	r3, [pc, #20]	; (10001598 <irq_init_priorities+0x18>)
10001582:	4a06      	ldr	r2, [pc, #24]	; (1000159c <irq_init_priorities+0x1c>)
10001584:	6013      	str	r3, [r2, #0]
10001586:	4a06      	ldr	r2, [pc, #24]	; (100015a0 <irq_init_priorities+0x20>)
10001588:	6013      	str	r3, [r2, #0]
1000158a:	6053      	str	r3, [r2, #4]
1000158c:	6093      	str	r3, [r2, #8]
1000158e:	60d3      	str	r3, [r2, #12]
10001590:	6113      	str	r3, [r2, #16]
10001592:	6153      	str	r3, [r2, #20]
10001594:	6193      	str	r3, [r2, #24]
10001596:	4770      	bx	lr
10001598:	80808080 	.word	0x80808080
1000159c:	e000e400 	.word	0xe000e400
100015a0:	e000e404 	.word	0xe000e404

100015a4 <pll_init>:
100015a4:	b5f8      	push	{r3, r4, r5, r6, r7, lr}
100015a6:	0004      	movs	r4, r0
100015a8:	200c      	movs	r0, #12
100015aa:	0017      	movs	r7, r2
100015ac:	001d      	movs	r5, r3
100015ae:	000e      	movs	r6, r1
100015b0:	f000 f8be 	bl	10001730 <__wrap___aeabi_uidiv>
100015b4:	0143      	lsls	r3, r0, #5
100015b6:	1a1b      	subs	r3, r3, r0
100015b8:	0199      	lsls	r1, r3, #6
100015ba:	1ac9      	subs	r1, r1, r3
100015bc:	00c9      	lsls	r1, r1, #3
100015be:	1809      	adds	r1, r1, r0
100015c0:	0189      	lsls	r1, r1, #6
100015c2:	0038      	movs	r0, r7
100015c4:	f000 f8b4 	bl	10001730 <__wrap___aeabi_uidiv>
100015c8:	9b06      	ldr	r3, [sp, #24]
100015ca:	0429      	lsls	r1, r5, #16
100015cc:	031b      	lsls	r3, r3, #12
100015ce:	4319      	orrs	r1, r3
100015d0:	6823      	ldr	r3, [r4, #0]
100015d2:	2b00      	cmp	r3, #0
100015d4:	db20      	blt.n	10001618 <pll_init+0x74>
100015d6:	4b17      	ldr	r3, [pc, #92]	; (10001634 <pll_init+0x90>)
100015d8:	4d17      	ldr	r5, [pc, #92]	; (10001638 <pll_init+0x94>)
100015da:	18e3      	adds	r3, r4, r3
100015dc:	425a      	negs	r2, r3
100015de:	4153      	adcs	r3, r2
100015e0:	2280      	movs	r2, #128	; 0x80
100015e2:	0152      	lsls	r2, r2, #5
100015e4:	4694      	mov	ip, r2
100015e6:	031b      	lsls	r3, r3, #12
100015e8:	4a14      	ldr	r2, [pc, #80]	; (1000163c <pll_init+0x98>)
100015ea:	4463      	add	r3, ip
100015ec:	6013      	str	r3, [r2, #0]
100015ee:	4a14      	ldr	r2, [pc, #80]	; (10001640 <pll_init+0x9c>)
100015f0:	6013      	str	r3, [r2, #0]
100015f2:	001f      	movs	r7, r3
100015f4:	68aa      	ldr	r2, [r5, #8]
100015f6:	4397      	bics	r7, r2
100015f8:	d1fb      	bne.n	100015f2 <pll_init+0x4e>
100015fa:	23c0      	movs	r3, #192	; 0xc0
100015fc:	1d22      	adds	r2, r4, #4
100015fe:	019b      	lsls	r3, r3, #6
10001600:	4313      	orrs	r3, r2
10001602:	2221      	movs	r2, #33	; 0x21
10001604:	6026      	str	r6, [r4, #0]
10001606:	60a0      	str	r0, [r4, #8]
10001608:	601a      	str	r2, [r3, #0]
1000160a:	6822      	ldr	r2, [r4, #0]
1000160c:	2a00      	cmp	r2, #0
1000160e:	dafc      	bge.n	1000160a <pll_init+0x66>
10001610:	2208      	movs	r2, #8
10001612:	60e1      	str	r1, [r4, #12]
10001614:	601a      	str	r2, [r3, #0]
10001616:	bdf8      	pop	{r3, r4, r5, r6, r7, pc}
10001618:	233f      	movs	r3, #63	; 0x3f
1000161a:	6822      	ldr	r2, [r4, #0]
1000161c:	4013      	ands	r3, r2
1000161e:	42b3      	cmp	r3, r6
10001620:	d1d9      	bne.n	100015d6 <pll_init+0x32>
10001622:	68a3      	ldr	r3, [r4, #8]
10001624:	051b      	lsls	r3, r3, #20
10001626:	0d1b      	lsrs	r3, r3, #20
10001628:	4283      	cmp	r3, r0
1000162a:	d1d4      	bne.n	100015d6 <pll_init+0x32>
1000162c:	68e3      	ldr	r3, [r4, #12]
1000162e:	2900      	cmp	r1, #0
10001630:	d1d1      	bne.n	100015d6 <pll_init+0x32>
10001632:	e7f0      	b.n	10001616 <pll_init+0x72>
10001634:	bffd4000 	.word	0xbffd4000
10001638:	4000c000 	.word	0x4000c000
1000163c:	4000e000 	.word	0x4000e000
10001640:	4000f000 	.word	0x4000f000

10001644 <watchdog_start_tick>:
10001644:	2380      	movs	r3, #128	; 0x80
10001646:	4a02      	ldr	r2, [pc, #8]	; (10001650 <watchdog_start_tick+0xc>)
10001648:	009b      	lsls	r3, r3, #2
1000164a:	4303      	orrs	r3, r0
1000164c:	62d3      	str	r3, [r2, #44]	; 0x2c
1000164e:	4770      	bx	lr
10001650:	40058000 	.word	0x40058000

10001654 <xosc_init>:
10001654:	23aa      	movs	r3, #170	; 0xaa
10001656:	4a06      	ldr	r2, [pc, #24]	; (10001670 <xosc_init+0x1c>)
10001658:	011b      	lsls	r3, r3, #4
1000165a:	6013      	str	r3, [r2, #0]
1000165c:	232f      	movs	r3, #47	; 0x2f
1000165e:	4905      	ldr	r1, [pc, #20]	; (10001674 <xosc_init+0x20>)
10001660:	60d3      	str	r3, [r2, #12]
10001662:	4b05      	ldr	r3, [pc, #20]	; (10001678 <xosc_init+0x24>)
10001664:	6019      	str	r1, [r3, #0]
10001666:	6853      	ldr	r3, [r2, #4]
10001668:	2b00      	cmp	r3, #0
1000166a:	dafc      	bge.n	10001666 <xosc_init+0x12>
1000166c:	4770      	bx	lr
1000166e:	46c0      	nop			; (mov r8, r8)
10001670:	40024000 	.word	0x40024000
10001674:	00fab000 	.word	0x00fab000
10001678:	40026000 	.word	0x40026000

1000167c <_out_char>:
1000167c:	b510      	push	{r4, lr}
1000167e:	2800      	cmp	r0, #0
10001680:	d100      	bne.n	10001684 <_out_char+0x8>
10001682:	bd10      	pop	{r4, pc}
10001684:	f000 fa10 	bl	10001aa8 <__wrap_putchar>
10001688:	e7fb      	b.n	10001682 <_out_char+0x6>
1000168a:	46c0      	nop			; (mov r8, r8)

1000168c <weak_raw_vprintf>:
1000168c:	b510      	push	{r4, lr}
1000168e:	4a09      	ldr	r2, [pc, #36]	; (100016b4 <weak_raw_vprintf+0x28>)
10001690:	0003      	movs	r3, r0
10001692:	6814      	ldr	r4, [r2, #0]
10001694:	b084      	sub	sp, #16
10001696:	2c00      	cmp	r4, #0
10001698:	d008      	beq.n	100016ac <weak_raw_vprintf+0x20>
1000169a:	2201      	movs	r2, #1
1000169c:	9100      	str	r1, [sp, #0]
1000169e:	4806      	ldr	r0, [pc, #24]	; (100016b8 <weak_raw_vprintf+0x2c>)
100016a0:	4252      	negs	r2, r2
100016a2:	a903      	add	r1, sp, #12
100016a4:	47a0      	blx	r4
100016a6:	2001      	movs	r0, #1
100016a8:	b004      	add	sp, #16
100016aa:	bd10      	pop	{r4, pc}
100016ac:	f000 fa4c 	bl	10001b48 <__wrap_puts>
100016b0:	2000      	movs	r0, #0
100016b2:	e7f9      	b.n	100016a8 <weak_raw_vprintf+0x1c>
100016b4:	200005c0 	.word	0x200005c0
100016b8:	1000167d 	.word	0x1000167d

100016bc <__aeabi_bits_init>:
100016bc:	4801      	ldr	r0, [pc, #4]	; (100016c4 <__aeabi_bits_init+0x8>)
100016be:	2104      	movs	r1, #4
100016c0:	4b01      	ldr	r3, [pc, #4]	; (100016c8 <__aeabi_bits_init+0xc>)
100016c2:	4718      	bx	r3
100016c4:	200001f0 	.word	0x200001f0
100016c8:	100016ed 	.word	0x100016ed

100016cc <rom_func_lookup>:
100016cc:	2314      	movs	r3, #20
100016ce:	b510      	push	{r4, lr}
100016d0:	0001      	movs	r1, r0
100016d2:	8818      	ldrh	r0, [r3, #0]
100016d4:	3304      	adds	r3, #4
100016d6:	881b      	ldrh	r3, [r3, #0]
100016d8:	4798      	blx	r3
100016da:	bd10      	pop	{r4, pc}

100016dc <rom_data_lookup>:
100016dc:	2316      	movs	r3, #22
100016de:	b510      	push	{r4, lr}
100016e0:	0001      	movs	r1, r0
100016e2:	8818      	ldrh	r0, [r3, #0]
100016e4:	3302      	adds	r3, #2
100016e6:	881b      	ldrh	r3, [r3, #0]
100016e8:	4798      	blx	r3
100016ea:	bd10      	pop	{r4, pc}

100016ec <rom_funcs_lookup>:
100016ec:	b5f8      	push	{r3, r4, r5, r6, r7, lr}
100016ee:	4647      	mov	r7, r8
100016f0:	46ce      	mov	lr, r9
100016f2:	b580      	push	{r7, lr}
100016f4:	1e0f      	subs	r7, r1, #0
100016f6:	d019      	beq.n	1000172c <rom_funcs_lookup+0x40>
100016f8:	2314      	movs	r3, #20
100016fa:	4699      	mov	r9, r3
100016fc:	3304      	adds	r3, #4
100016fe:	0004      	movs	r4, r0
10001700:	2500      	movs	r5, #0
10001702:	2601      	movs	r6, #1
10001704:	4698      	mov	r8, r3
10001706:	464b      	mov	r3, r9
10001708:	8818      	ldrh	r0, [r3, #0]
1000170a:	4643      	mov	r3, r8
1000170c:	6821      	ldr	r1, [r4, #0]
1000170e:	881b      	ldrh	r3, [r3, #0]
10001710:	4798      	blx	r3
10001712:	c401      	stmia	r4!, {r0}
10001714:	1e43      	subs	r3, r0, #1
10001716:	4198      	sbcs	r0, r3
10001718:	3501      	adds	r5, #1
1000171a:	4240      	negs	r0, r0
1000171c:	4006      	ands	r6, r0
1000171e:	42af      	cmp	r7, r5
10001720:	d1f1      	bne.n	10001706 <rom_funcs_lookup+0x1a>
10001722:	0030      	movs	r0, r6
10001724:	bcc0      	pop	{r6, r7}
10001726:	46b9      	mov	r9, r7
10001728:	46b0      	mov	r8, r6
1000172a:	bdf8      	pop	{r3, r4, r5, r6, r7, pc}
1000172c:	2601      	movs	r6, #1
1000172e:	e7f8      	b.n	10001722 <rom_funcs_lookup+0x36>

10001730 <__wrap___aeabi_uidiv>:
10001730:	4a11      	ldr	r2, [pc, #68]	; (10001778 <divmod_u32u32_savestate+0x18>)
10001732:	6f93      	ldr	r3, [r2, #120]	; 0x78
10001734:	089b      	lsrs	r3, r3, #2
10001736:	d213      	bcs.n	10001760 <divmod_u32u32_savestate>

10001738 <divmod_u32u32_unsafe>:
10001738:	6610      	str	r0, [r2, #96]	; 0x60
1000173a:	6651      	str	r1, [r2, #100]	; 0x64
1000173c:	2900      	cmp	r1, #0
1000173e:	d005      	beq.n	1000174c <divmod_u32u32_unsafe+0x14>
10001740:	e7ff      	b.n	10001742 <divmod_u32u32_unsafe+0xa>
10001742:	e7ff      	b.n	10001744 <divmod_u32u32_unsafe+0xc>
10001744:	e7ff      	b.n	10001746 <divmod_u32u32_unsafe+0xe>
10001746:	6f51      	ldr	r1, [r2, #116]	; 0x74
10001748:	6f10      	ldr	r0, [r2, #112]	; 0x70
1000174a:	4770      	bx	lr
1000174c:	b504      	push	{r2, lr}
1000174e:	2800      	cmp	r0, #0
10001750:	d001      	beq.n	10001756 <divmod_u32u32_unsafe+0x1e>
10001752:	2000      	movs	r0, #0
10001754:	43c0      	mvns	r0, r0
10001756:	f000 fad7 	bl	10001d08 <____aeabi_idiv0_veneer>
1000175a:	2100      	movs	r1, #0
1000175c:	bd04      	pop	{r2, pc}
1000175e:	46c0      	nop			; (mov r8, r8)

10001760 <divmod_u32u32_savestate>:
10001760:	b5f0      	push	{r4, r5, r6, r7, lr}
10001762:	6e14      	ldr	r4, [r2, #96]	; 0x60
10001764:	6e55      	ldr	r5, [r2, #100]	; 0x64
10001766:	6f57      	ldr	r7, [r2, #116]	; 0x74
10001768:	6f16      	ldr	r6, [r2, #112]	; 0x70
1000176a:	f7ff ffe5 	bl	10001738 <divmod_u32u32_unsafe>
1000176e:	6614      	str	r4, [r2, #96]	; 0x60
10001770:	6655      	str	r5, [r2, #100]	; 0x64
10001772:	6757      	str	r7, [r2, #116]	; 0x74
10001774:	6716      	str	r6, [r2, #112]	; 0x70
10001776:	bdf0      	pop	{r4, r5, r6, r7, pc}
10001778:	d0000000 	.word	0xd0000000

1000177c <__aeabi_double_init>:
1000177c:	2313      	movs	r3, #19
1000177e:	b570      	push	{r4, r5, r6, lr}
10001780:	781d      	ldrb	r5, [r3, #0]
10001782:	2d01      	cmp	r5, #1
10001784:	d015      	beq.n	100017b2 <__aeabi_double_init+0x36>
10001786:	dd10      	ble.n	100017aa <__aeabi_double_init+0x2e>
10001788:	481c      	ldr	r0, [pc, #112]	; (100017fc <__aeabi_double_init+0x80>)
1000178a:	f7ff ffa7 	bl	100016dc <rom_data_lookup>
1000178e:	4c1c      	ldr	r4, [pc, #112]	; (10001800 <__aeabi_double_init+0x84>)
10001790:	0001      	movs	r1, r0
10001792:	2280      	movs	r2, #128	; 0x80
10001794:	0020      	movs	r0, r4
10001796:	f000 f8a1 	bl	100018dc <__wrap___aeabi_memcpy>
1000179a:	2d02      	cmp	r5, #2
1000179c:	d006      	beq.n	100017ac <__aeabi_double_init+0x30>
1000179e:	4819      	ldr	r0, [pc, #100]	; (10001804 <__aeabi_double_init+0x88>)
100017a0:	f7ff ff94 	bl	100016cc <rom_func_lookup>
100017a4:	4b18      	ldr	r3, [pc, #96]	; (10001808 <__aeabi_double_init+0x8c>)
100017a6:	6018      	str	r0, [r3, #0]
100017a8:	bd70      	pop	{r4, r5, r6, pc}
100017aa:	4c15      	ldr	r4, [pc, #84]	; (10001800 <__aeabi_double_init+0x84>)
100017ac:	4b17      	ldr	r3, [pc, #92]	; (1000180c <__aeabi_double_init+0x90>)
100017ae:	64a3      	str	r3, [r4, #72]	; 0x48
100017b0:	e7f5      	b.n	1000179e <__aeabi_double_init+0x22>
100017b2:	4b16      	ldr	r3, [pc, #88]	; (1000180c <__aeabi_double_init+0x90>)
100017b4:	4c12      	ldr	r4, [pc, #72]	; (10001800 <__aeabi_double_init+0x84>)
100017b6:	6023      	str	r3, [r4, #0]
100017b8:	6063      	str	r3, [r4, #4]
100017ba:	60a3      	str	r3, [r4, #8]
100017bc:	60e3      	str	r3, [r4, #12]
100017be:	6123      	str	r3, [r4, #16]
100017c0:	6163      	str	r3, [r4, #20]
100017c2:	61a3      	str	r3, [r4, #24]
100017c4:	61e3      	str	r3, [r4, #28]
100017c6:	6223      	str	r3, [r4, #32]
100017c8:	6263      	str	r3, [r4, #36]	; 0x24
100017ca:	62a3      	str	r3, [r4, #40]	; 0x28
100017cc:	62e3      	str	r3, [r4, #44]	; 0x2c
100017ce:	6323      	str	r3, [r4, #48]	; 0x30
100017d0:	6363      	str	r3, [r4, #52]	; 0x34
100017d2:	63a3      	str	r3, [r4, #56]	; 0x38
100017d4:	63e3      	str	r3, [r4, #60]	; 0x3c
100017d6:	6423      	str	r3, [r4, #64]	; 0x40
100017d8:	6463      	str	r3, [r4, #68]	; 0x44
100017da:	64a3      	str	r3, [r4, #72]	; 0x48
100017dc:	64e3      	str	r3, [r4, #76]	; 0x4c
100017de:	6523      	str	r3, [r4, #80]	; 0x50
100017e0:	6563      	str	r3, [r4, #84]	; 0x54
100017e2:	65a3      	str	r3, [r4, #88]	; 0x58
100017e4:	65e3      	str	r3, [r4, #92]	; 0x5c
100017e6:	6623      	str	r3, [r4, #96]	; 0x60
100017e8:	6663      	str	r3, [r4, #100]	; 0x64
100017ea:	66a3      	str	r3, [r4, #104]	; 0x68
100017ec:	66e3      	str	r3, [r4, #108]	; 0x6c
100017ee:	6723      	str	r3, [r4, #112]	; 0x70
100017f0:	6763      	str	r3, [r4, #116]	; 0x74
100017f2:	67a3      	str	r3, [r4, #120]	; 0x78
100017f4:	67e3      	str	r3, [r4, #124]	; 0x7c
100017f6:	64a3      	str	r3, [r4, #72]	; 0x48
100017f8:	e7d1      	b.n	1000179e <__aeabi_double_init+0x22>
100017fa:	46c0      	nop			; (mov r8, r8)
100017fc:	00004453 	.word	0x00004453
10001800:	20000340 	.word	0x20000340
10001804:	0000334c 	.word	0x0000334c
10001808:	200005ec 	.word	0x200005ec
1000180c:	10001811 	.word	0x10001811

10001810 <double_table_shim_on_use_helper>:
10001810:	b507      	push	{r0, r1, r2, lr}
10001812:	4660      	mov	r0, ip
10001814:	8801      	ldrh	r1, [r0, #0]
10001816:	0a0a      	lsrs	r2, r1, #8
10001818:	3002      	adds	r0, #2
1000181a:	2adf      	cmp	r2, #223	; 0xdf
1000181c:	d1fa      	bne.n	10001814 <double_table_shim_on_use_helper+0x4>
1000181e:	b2c9      	uxtb	r1, r1
10001820:	0882      	lsrs	r2, r0, #2
10001822:	d304      	bcc.n	1000182e <double_table_shim_on_use_helper+0x1e>
10001824:	8802      	ldrh	r2, [r0, #0]
10001826:	8840      	ldrh	r0, [r0, #2]
10001828:	0400      	lsls	r0, r0, #16
1000182a:	4310      	orrs	r0, r2
1000182c:	e000      	b.n	10001830 <double_table_shim_on_use_helper+0x20>
1000182e:	6800      	ldr	r0, [r0, #0]
10001830:	4a01      	ldr	r2, [pc, #4]	; (10001838 <double_table_shim_on_use_helper+0x28>)
10001832:	5050      	str	r0, [r2, r1]
10001834:	9003      	str	r0, [sp, #12]
10001836:	bd07      	pop	{r0, r1, r2, pc}
10001838:	20000340 	.word	0x20000340

1000183c <__aeabi_float_init>:
1000183c:	2313      	movs	r3, #19
1000183e:	b510      	push	{r4, lr}
10001840:	4812      	ldr	r0, [pc, #72]	; (1000188c <__aeabi_float_init+0x50>)
10001842:	781c      	ldrb	r4, [r3, #0]
10001844:	f7ff ff4a 	bl	100016dc <rom_data_lookup>
10001848:	0001      	movs	r1, r0
1000184a:	2c01      	cmp	r4, #1
1000184c:	d00a      	beq.n	10001864 <__aeabi_float_init+0x28>
1000184e:	dd03      	ble.n	10001858 <__aeabi_float_init+0x1c>
10001850:	2280      	movs	r2, #128	; 0x80
10001852:	480f      	ldr	r0, [pc, #60]	; (10001890 <__aeabi_float_init+0x54>)
10001854:	f000 f842 	bl	100018dc <__wrap___aeabi_memcpy>
10001858:	480e      	ldr	r0, [pc, #56]	; (10001894 <__aeabi_float_init+0x58>)
1000185a:	f7ff ff37 	bl	100016cc <rom_func_lookup>
1000185e:	4b0e      	ldr	r3, [pc, #56]	; (10001898 <__aeabi_float_init+0x5c>)
10001860:	6018      	str	r0, [r3, #0]
10001862:	bd10      	pop	{r4, pc}
10001864:	4c0a      	ldr	r4, [pc, #40]	; (10001890 <__aeabi_float_init+0x54>)
10001866:	2254      	movs	r2, #84	; 0x54
10001868:	0020      	movs	r0, r4
1000186a:	f000 f837 	bl	100018dc <__wrap___aeabi_memcpy>
1000186e:	4b0b      	ldr	r3, [pc, #44]	; (1000189c <__aeabi_float_init+0x60>)
10001870:	6563      	str	r3, [r4, #84]	; 0x54
10001872:	65a3      	str	r3, [r4, #88]	; 0x58
10001874:	65e3      	str	r3, [r4, #92]	; 0x5c
10001876:	6623      	str	r3, [r4, #96]	; 0x60
10001878:	6663      	str	r3, [r4, #100]	; 0x64
1000187a:	66a3      	str	r3, [r4, #104]	; 0x68
1000187c:	66e3      	str	r3, [r4, #108]	; 0x6c
1000187e:	6723      	str	r3, [r4, #112]	; 0x70
10001880:	6763      	str	r3, [r4, #116]	; 0x74
10001882:	67a3      	str	r3, [r4, #120]	; 0x78
10001884:	67e3      	str	r3, [r4, #124]	; 0x7c
10001886:	6223      	str	r3, [r4, #32]
10001888:	61e3      	str	r3, [r4, #28]
1000188a:	e7e5      	b.n	10001858 <__aeabi_float_init+0x1c>
1000188c:	00004653 	.word	0x00004653
10001890:	20000440 	.word	0x20000440
10001894:	0000334c 	.word	0x0000334c
10001898:	200005ec 	.word	0x200005ec
1000189c:	100018a1 	.word	0x100018a1

100018a0 <float_table_shim_on_use_helper>:
100018a0:	b507      	push	{r0, r1, r2, lr}
100018a2:	4660      	mov	r0, ip
100018a4:	8801      	ldrh	r1, [r0, #0]
100018a6:	0a0a      	lsrs	r2, r1, #8
100018a8:	3002      	adds	r0, #2
100018aa:	2adf      	cmp	r2, #223	; 0xdf
100018ac:	d1fa      	bne.n	100018a4 <float_table_shim_on_use_helper+0x4>
100018ae:	b2c9      	uxtb	r1, r1
100018b0:	0882      	lsrs	r2, r0, #2
100018b2:	d304      	bcc.n	100018be <float_table_shim_on_use_helper+0x1e>
100018b4:	8802      	ldrh	r2, [r0, #0]
100018b6:	8840      	ldrh	r0, [r0, #2]
100018b8:	0400      	lsls	r0, r0, #16
100018ba:	4310      	orrs	r0, r2
100018bc:	e000      	b.n	100018c0 <float_table_shim_on_use_helper+0x20>
100018be:	6800      	ldr	r0, [r0, #0]
100018c0:	4a01      	ldr	r2, [pc, #4]	; (100018c8 <float_table_shim_on_use_helper+0x28>)
100018c2:	5050      	str	r0, [r2, r1]
100018c4:	9003      	str	r0, [sp, #12]
100018c6:	bd07      	pop	{r0, r1, r2, pc}
100018c8:	20000440 	.word	0x20000440

100018cc <__aeabi_mem_init>:
100018cc:	4801      	ldr	r0, [pc, #4]	; (100018d4 <__aeabi_mem_init+0x8>)
100018ce:	2104      	movs	r1, #4
100018d0:	4b01      	ldr	r3, [pc, #4]	; (100018d8 <__aeabi_mem_init+0xc>)
100018d2:	4718      	bx	r3
100018d4:	20000200 	.word	0x20000200
100018d8:	100016ed 	.word	0x100016ed

100018dc <__wrap___aeabi_memcpy>:
100018dc:	4b01      	ldr	r3, [pc, #4]	; (100018e4 <__wrap___aeabi_memcpy+0x8>)
100018de:	685b      	ldr	r3, [r3, #4]
100018e0:	4718      	bx	r3
100018e2:	0000      	.short	0x0000
100018e4:	20000200 	.word	0x20000200

100018e8 <stdio_out_chars_no_crlf>:
100018e8:	0003      	movs	r3, r0
100018ea:	b510      	push	{r4, lr}
100018ec:	0008      	movs	r0, r1
100018ee:	0011      	movs	r1, r2
100018f0:	681b      	ldr	r3, [r3, #0]
100018f2:	4798      	blx	r3
100018f4:	bd10      	pop	{r4, pc}
100018f6:	46c0      	nop			; (mov r8, r8)

100018f8 <stdio_out_chars_crlf>:
100018f8:	b5f0      	push	{r4, r5, r6, r7, lr}
100018fa:	4646      	mov	r6, r8
100018fc:	464f      	mov	r7, r9
100018fe:	46d6      	mov	lr, sl
10001900:	b5c0      	push	{r6, r7, lr}
10001902:	7c43      	ldrb	r3, [r0, #17]
10001904:	4680      	mov	r8, r0
10001906:	000e      	movs	r6, r1
10001908:	0017      	movs	r7, r2
1000190a:	2b00      	cmp	r3, #0
1000190c:	d046      	beq.n	1000199c <stdio_out_chars_crlf+0xa4>
1000190e:	2a00      	cmp	r2, #0
10001910:	dd3f      	ble.n	10001992 <stdio_out_chars_crlf+0x9a>
10001912:	1e4b      	subs	r3, r1, #1
10001914:	4699      	mov	r9, r3
10001916:	4b24      	ldr	r3, [pc, #144]	; (100019a8 <stdio_out_chars_crlf+0xb0>)
10001918:	2501      	movs	r5, #1
1000191a:	2400      	movs	r4, #0
1000191c:	2000      	movs	r0, #0
1000191e:	469a      	mov	sl, r3
10001920:	e00d      	b.n	1000193e <stdio_out_chars_crlf+0x46>
10001922:	464b      	mov	r3, r9
10001924:	5d1b      	ldrb	r3, [r3, r4]
10001926:	3b0d      	subs	r3, #13
10001928:	425a      	negs	r2, r3
1000192a:	4153      	adcs	r3, r2
1000192c:	5d32      	ldrb	r2, [r6, r4]
1000192e:	b2db      	uxtb	r3, r3
10001930:	2a0a      	cmp	r2, #10
10001932:	d00b      	beq.n	1000194c <stdio_out_chars_crlf+0x54>
10001934:	002b      	movs	r3, r5
10001936:	3401      	adds	r4, #1
10001938:	3501      	adds	r5, #1
1000193a:	429f      	cmp	r7, r3
1000193c:	dd1a      	ble.n	10001974 <stdio_out_chars_crlf+0x7c>
1000193e:	2c00      	cmp	r4, #0
10001940:	d1ef      	bne.n	10001922 <stdio_out_chars_crlf+0x2a>
10001942:	4643      	mov	r3, r8
10001944:	5d32      	ldrb	r2, [r6, r4]
10001946:	7c1b      	ldrb	r3, [r3, #16]
10001948:	2a0a      	cmp	r2, #10
1000194a:	d1f3      	bne.n	10001934 <stdio_out_chars_crlf+0x3c>
1000194c:	2b00      	cmp	r3, #0
1000194e:	d1f1      	bne.n	10001934 <stdio_out_chars_crlf+0x3c>
10001950:	42a0      	cmp	r0, r4
10001952:	da04      	bge.n	1000195e <stdio_out_chars_crlf+0x66>
10001954:	4643      	mov	r3, r8
10001956:	1a21      	subs	r1, r4, r0
10001958:	681b      	ldr	r3, [r3, #0]
1000195a:	1830      	adds	r0, r6, r0
1000195c:	4798      	blx	r3
1000195e:	4643      	mov	r3, r8
10001960:	4650      	mov	r0, sl
10001962:	681b      	ldr	r3, [r3, #0]
10001964:	2102      	movs	r1, #2
10001966:	4798      	blx	r3
10001968:	3401      	adds	r4, #1
1000196a:	0028      	movs	r0, r5
1000196c:	002b      	movs	r3, r5
1000196e:	3501      	adds	r5, #1
10001970:	429f      	cmp	r7, r3
10001972:	dce4      	bgt.n	1000193e <stdio_out_chars_crlf+0x46>
10001974:	4287      	cmp	r7, r0
10001976:	dd04      	ble.n	10001982 <stdio_out_chars_crlf+0x8a>
10001978:	4643      	mov	r3, r8
1000197a:	1a39      	subs	r1, r7, r0
1000197c:	681b      	ldr	r3, [r3, #0]
1000197e:	1830      	adds	r0, r6, r0
10001980:	4798      	blx	r3
10001982:	19f6      	adds	r6, r6, r7
10001984:	3e01      	subs	r6, #1
10001986:	7833      	ldrb	r3, [r6, #0]
10001988:	3b0d      	subs	r3, #13
1000198a:	425a      	negs	r2, r3
1000198c:	4153      	adcs	r3, r2
1000198e:	4642      	mov	r2, r8
10001990:	7413      	strb	r3, [r2, #16]
10001992:	bce0      	pop	{r5, r6, r7}
10001994:	46ba      	mov	sl, r7
10001996:	46b1      	mov	r9, r6
10001998:	46a8      	mov	r8, r5
1000199a:	bdf0      	pop	{r4, r5, r6, r7, pc}
1000199c:	6803      	ldr	r3, [r0, #0]
1000199e:	0011      	movs	r1, r2
100019a0:	0030      	movs	r0, r6
100019a2:	4798      	blx	r3
100019a4:	e7f5      	b.n	10001992 <stdio_out_chars_crlf+0x9a>
100019a6:	46c0      	nop			; (mov r8, r8)
100019a8:	10001e34 	.word	0x10001e34

100019ac <stdio_put_string.isra.0>:
100019ac:	b5f0      	push	{r4, r5, r6, r7, lr}
100019ae:	4657      	mov	r7, sl
100019b0:	464e      	mov	r6, r9
100019b2:	4645      	mov	r5, r8
100019b4:	46de      	mov	lr, fp
100019b6:	001c      	movs	r4, r3
100019b8:	23d0      	movs	r3, #208	; 0xd0
100019ba:	b5e0      	push	{r5, r6, r7, lr}
100019bc:	061b      	lsls	r3, r3, #24
100019be:	681f      	ldr	r7, [r3, #0]
100019c0:	4b34      	ldr	r3, [pc, #208]	; (10001a94 <stdio_put_string.isra.0+0xe8>)
100019c2:	b083      	sub	sp, #12
100019c4:	0006      	movs	r6, r0
100019c6:	000d      	movs	r5, r1
100019c8:	0018      	movs	r0, r3
100019ca:	a901      	add	r1, sp, #4
100019cc:	4691      	mov	r9, r2
100019ce:	469a      	mov	sl, r3
100019d0:	f000 f9a2 	bl	10001d18 <__mutex_try_enter_veneer>
100019d4:	4680      	mov	r8, r0
100019d6:	2800      	cmp	r0, #0
100019d8:	d108      	bne.n	100019ec <stdio_put_string.isra.0+0x40>
100019da:	9b01      	ldr	r3, [sp, #4]
100019dc:	b27f      	sxtb	r7, r7
100019de:	429f      	cmp	r7, r3
100019e0:	d004      	beq.n	100019ec <stdio_put_string.isra.0+0x40>
100019e2:	4650      	mov	r0, sl
100019e4:	f000 f9a0 	bl	10001d28 <__mutex_enter_blocking_veneer>
100019e8:	2301      	movs	r3, #1
100019ea:	4698      	mov	r8, r3
100019ec:	1c6b      	adds	r3, r5, #1
100019ee:	d103      	bne.n	100019f8 <stdio_put_string.isra.0+0x4c>
100019f0:	0030      	movs	r0, r6
100019f2:	f000 f94f 	bl	10001c94 <strlen>
100019f6:	0005      	movs	r5, r0
100019f8:	2c00      	cmp	r4, #0
100019fa:	d127      	bne.n	10001a4c <stdio_put_string.isra.0+0xa0>
100019fc:	4f26      	ldr	r7, [pc, #152]	; (10001a98 <stdio_put_string.isra.0+0xec>)
100019fe:	4b27      	ldr	r3, [pc, #156]	; (10001a9c <stdio_put_string.isra.0+0xf0>)
10001a00:	681c      	ldr	r4, [r3, #0]
10001a02:	2c00      	cmp	r4, #0
10001a04:	d018      	beq.n	10001a38 <stdio_put_string.isra.0+0x8c>
10001a06:	464b      	mov	r3, r9
10001a08:	2b00      	cmp	r3, #0
10001a0a:	d121      	bne.n	10001a50 <stdio_put_string.isra.0+0xa4>
10001a0c:	4b24      	ldr	r3, [pc, #144]	; (10001aa0 <stdio_put_string.isra.0+0xf4>)
10001a0e:	4699      	mov	r9, r3
10001a10:	e002      	b.n	10001a18 <stdio_put_string.isra.0+0x6c>
10001a12:	68e4      	ldr	r4, [r4, #12]
10001a14:	2c00      	cmp	r4, #0
10001a16:	d00f      	beq.n	10001a38 <stdio_put_string.isra.0+0x8c>
10001a18:	6823      	ldr	r3, [r4, #0]
10001a1a:	2b00      	cmp	r3, #0
10001a1c:	d0f9      	beq.n	10001a12 <stdio_put_string.isra.0+0x66>
10001a1e:	464b      	mov	r3, r9
10001a20:	681b      	ldr	r3, [r3, #0]
10001a22:	2b00      	cmp	r3, #0
10001a24:	d001      	beq.n	10001a2a <stdio_put_string.isra.0+0x7e>
10001a26:	42a3      	cmp	r3, r4
10001a28:	d1f3      	bne.n	10001a12 <stdio_put_string.isra.0+0x66>
10001a2a:	0020      	movs	r0, r4
10001a2c:	002a      	movs	r2, r5
10001a2e:	0031      	movs	r1, r6
10001a30:	47b8      	blx	r7
10001a32:	68e4      	ldr	r4, [r4, #12]
10001a34:	2c00      	cmp	r4, #0
10001a36:	d1ef      	bne.n	10001a18 <stdio_put_string.isra.0+0x6c>
10001a38:	4643      	mov	r3, r8
10001a3a:	2b00      	cmp	r3, #0
10001a3c:	d125      	bne.n	10001a8a <stdio_put_string.isra.0+0xde>
10001a3e:	b003      	add	sp, #12
10001a40:	bcf0      	pop	{r4, r5, r6, r7}
10001a42:	46bb      	mov	fp, r7
10001a44:	46b2      	mov	sl, r6
10001a46:	46a9      	mov	r9, r5
10001a48:	46a0      	mov	r8, r4
10001a4a:	bdf0      	pop	{r4, r5, r6, r7, pc}
10001a4c:	4f15      	ldr	r7, [pc, #84]	; (10001aa4 <stdio_put_string.isra.0+0xf8>)
10001a4e:	e7d6      	b.n	100019fe <stdio_put_string.isra.0+0x52>
10001a50:	4b13      	ldr	r3, [pc, #76]	; (10001aa0 <stdio_put_string.isra.0+0xf4>)
10001a52:	4699      	mov	r9, r3
10001a54:	230a      	movs	r3, #10
10001a56:	469b      	mov	fp, r3
10001a58:	e002      	b.n	10001a60 <stdio_put_string.isra.0+0xb4>
10001a5a:	68e4      	ldr	r4, [r4, #12]
10001a5c:	2c00      	cmp	r4, #0
10001a5e:	d0eb      	beq.n	10001a38 <stdio_put_string.isra.0+0x8c>
10001a60:	6823      	ldr	r3, [r4, #0]
10001a62:	2b00      	cmp	r3, #0
10001a64:	d0f9      	beq.n	10001a5a <stdio_put_string.isra.0+0xae>
10001a66:	464b      	mov	r3, r9
10001a68:	681b      	ldr	r3, [r3, #0]
10001a6a:	2b00      	cmp	r3, #0
10001a6c:	d001      	beq.n	10001a72 <stdio_put_string.isra.0+0xc6>
10001a6e:	42a3      	cmp	r3, r4
10001a70:	d1f3      	bne.n	10001a5a <stdio_put_string.isra.0+0xae>
10001a72:	002a      	movs	r2, r5
10001a74:	0031      	movs	r1, r6
10001a76:	0020      	movs	r0, r4
10001a78:	47b8      	blx	r7
10001a7a:	465a      	mov	r2, fp
10001a7c:	466b      	mov	r3, sp
10001a7e:	0020      	movs	r0, r4
10001a80:	711a      	strb	r2, [r3, #4]
10001a82:	a901      	add	r1, sp, #4
10001a84:	2201      	movs	r2, #1
10001a86:	47b8      	blx	r7
10001a88:	e7e7      	b.n	10001a5a <stdio_put_string.isra.0+0xae>
10001a8a:	4650      	mov	r0, sl
10001a8c:	f000 f934 	bl	10001cf8 <__mutex_exit_veneer>
10001a90:	e7d5      	b.n	10001a3e <stdio_put_string.isra.0+0x92>
10001a92:	46c0      	nop			; (mov r8, r8)
10001a94:	20000224 	.word	0x20000224
10001a98:	100018f9 	.word	0x100018f9
10001a9c:	200005b8 	.word	0x200005b8
10001aa0:	200005bc 	.word	0x200005bc
10001aa4:	100018e9 	.word	0x100018e9

10001aa8 <__wrap_putchar>:
10001aa8:	b5f0      	push	{r4, r5, r6, r7, lr}
10001aaa:	46ce      	mov	lr, r9
10001aac:	4647      	mov	r7, r8
10001aae:	b580      	push	{r7, lr}
10001ab0:	b083      	sub	sp, #12
10001ab2:	466b      	mov	r3, sp
10001ab4:	1cde      	adds	r6, r3, #3
10001ab6:	23d0      	movs	r3, #208	; 0xd0
10001ab8:	7030      	strb	r0, [r6, #0]
10001aba:	061b      	lsls	r3, r3, #24
10001abc:	681c      	ldr	r4, [r3, #0]
10001abe:	4b1f      	ldr	r3, [pc, #124]	; (10001b3c <__wrap_putchar+0x94>)
10001ac0:	4680      	mov	r8, r0
10001ac2:	a901      	add	r1, sp, #4
10001ac4:	0018      	movs	r0, r3
10001ac6:	4699      	mov	r9, r3
10001ac8:	f000 f926 	bl	10001d18 <__mutex_try_enter_veneer>
10001acc:	1e07      	subs	r7, r0, #0
10001ace:	d020      	beq.n	10001b12 <__wrap_putchar+0x6a>
10001ad0:	4b1b      	ldr	r3, [pc, #108]	; (10001b40 <__wrap_putchar+0x98>)
10001ad2:	681c      	ldr	r4, [r3, #0]
10001ad4:	2c00      	cmp	r4, #0
10001ad6:	d028      	beq.n	10001b2a <__wrap_putchar+0x82>
10001ad8:	4d1a      	ldr	r5, [pc, #104]	; (10001b44 <__wrap_putchar+0x9c>)
10001ada:	e002      	b.n	10001ae2 <__wrap_putchar+0x3a>
10001adc:	68e4      	ldr	r4, [r4, #12]
10001ade:	2c00      	cmp	r4, #0
10001ae0:	d00f      	beq.n	10001b02 <__wrap_putchar+0x5a>
10001ae2:	6823      	ldr	r3, [r4, #0]
10001ae4:	2b00      	cmp	r3, #0
10001ae6:	d0f9      	beq.n	10001adc <__wrap_putchar+0x34>
10001ae8:	682b      	ldr	r3, [r5, #0]
10001aea:	2b00      	cmp	r3, #0
10001aec:	d001      	beq.n	10001af2 <__wrap_putchar+0x4a>
10001aee:	42a3      	cmp	r3, r4
10001af0:	d1f4      	bne.n	10001adc <__wrap_putchar+0x34>
10001af2:	0020      	movs	r0, r4
10001af4:	2201      	movs	r2, #1
10001af6:	0031      	movs	r1, r6
10001af8:	f7ff fefe 	bl	100018f8 <stdio_out_chars_crlf>
10001afc:	68e4      	ldr	r4, [r4, #12]
10001afe:	2c00      	cmp	r4, #0
10001b00:	d1ef      	bne.n	10001ae2 <__wrap_putchar+0x3a>
10001b02:	2f00      	cmp	r7, #0
10001b04:	d111      	bne.n	10001b2a <__wrap_putchar+0x82>
10001b06:	4640      	mov	r0, r8
10001b08:	b003      	add	sp, #12
10001b0a:	bcc0      	pop	{r6, r7}
10001b0c:	46b9      	mov	r9, r7
10001b0e:	46b0      	mov	r8, r6
10001b10:	bdf0      	pop	{r4, r5, r6, r7, pc}
10001b12:	9b01      	ldr	r3, [sp, #4]
10001b14:	b264      	sxtb	r4, r4
10001b16:	429c      	cmp	r4, r3
10001b18:	d00b      	beq.n	10001b32 <__wrap_putchar+0x8a>
10001b1a:	4648      	mov	r0, r9
10001b1c:	f000 f904 	bl	10001d28 <__mutex_enter_blocking_veneer>
10001b20:	4b07      	ldr	r3, [pc, #28]	; (10001b40 <__wrap_putchar+0x98>)
10001b22:	2701      	movs	r7, #1
10001b24:	681c      	ldr	r4, [r3, #0]
10001b26:	2c00      	cmp	r4, #0
10001b28:	d1d6      	bne.n	10001ad8 <__wrap_putchar+0x30>
10001b2a:	4648      	mov	r0, r9
10001b2c:	f000 f8e4 	bl	10001cf8 <__mutex_exit_veneer>
10001b30:	e7e9      	b.n	10001b06 <__wrap_putchar+0x5e>
10001b32:	4b03      	ldr	r3, [pc, #12]	; (10001b40 <__wrap_putchar+0x98>)
10001b34:	681c      	ldr	r4, [r3, #0]
10001b36:	2c00      	cmp	r4, #0
10001b38:	d1ce      	bne.n	10001ad8 <__wrap_putchar+0x30>
10001b3a:	e7e4      	b.n	10001b06 <__wrap_putchar+0x5e>
10001b3c:	20000224 	.word	0x20000224
10001b40:	200005b8 	.word	0x200005b8
10001b44:	200005bc 	.word	0x200005bc

10001b48 <__wrap_puts>:
10001b48:	b570      	push	{r4, r5, r6, lr}
10001b4a:	0004      	movs	r4, r0
10001b4c:	f000 f8a2 	bl	10001c94 <strlen>
10001b50:	2300      	movs	r3, #0
10001b52:	0001      	movs	r1, r0
10001b54:	0005      	movs	r5, r0
10001b56:	2201      	movs	r2, #1
10001b58:	0020      	movs	r0, r4
10001b5a:	f7ff ff27 	bl	100019ac <stdio_put_string.isra.0>
10001b5e:	4b08      	ldr	r3, [pc, #32]	; (10001b80 <__wrap_puts+0x38>)
10001b60:	681c      	ldr	r4, [r3, #0]
10001b62:	2c00      	cmp	r4, #0
10001b64:	d006      	beq.n	10001b74 <__wrap_puts+0x2c>
10001b66:	6863      	ldr	r3, [r4, #4]
10001b68:	2b00      	cmp	r3, #0
10001b6a:	d005      	beq.n	10001b78 <__wrap_puts+0x30>
10001b6c:	4798      	blx	r3
10001b6e:	68e4      	ldr	r4, [r4, #12]
10001b70:	2c00      	cmp	r4, #0
10001b72:	d1f8      	bne.n	10001b66 <__wrap_puts+0x1e>
10001b74:	0028      	movs	r0, r5
10001b76:	bd70      	pop	{r4, r5, r6, pc}
10001b78:	68e4      	ldr	r4, [r4, #12]
10001b7a:	2c00      	cmp	r4, #0
10001b7c:	d1f3      	bne.n	10001b66 <__wrap_puts+0x1e>
10001b7e:	e7f9      	b.n	10001b74 <__wrap_puts+0x2c>
10001b80:	200005b8 	.word	0x200005b8

10001b84 <stdio_set_driver_enabled>:
10001b84:	4a0d      	ldr	r2, [pc, #52]	; (10001bbc <stdio_set_driver_enabled+0x38>)
10001b86:	6813      	ldr	r3, [r2, #0]
10001b88:	2b00      	cmp	r3, #0
10001b8a:	d013      	beq.n	10001bb4 <stdio_set_driver_enabled+0x30>
10001b8c:	4283      	cmp	r3, r0
10001b8e:	d102      	bne.n	10001b96 <stdio_set_driver_enabled+0x12>
10001b90:	e009      	b.n	10001ba6 <stdio_set_driver_enabled+0x22>
10001b92:	4298      	cmp	r0, r3
10001b94:	d008      	beq.n	10001ba8 <stdio_set_driver_enabled+0x24>
10001b96:	001a      	movs	r2, r3
10001b98:	68db      	ldr	r3, [r3, #12]
10001b9a:	2b00      	cmp	r3, #0
10001b9c:	d1f9      	bne.n	10001b92 <stdio_set_driver_enabled+0xe>
10001b9e:	2900      	cmp	r1, #0
10001ba0:	d000      	beq.n	10001ba4 <stdio_set_driver_enabled+0x20>
10001ba2:	60d0      	str	r0, [r2, #12]
10001ba4:	4770      	bx	lr
10001ba6:	001a      	movs	r2, r3
10001ba8:	2900      	cmp	r1, #0
10001baa:	d1fb      	bne.n	10001ba4 <stdio_set_driver_enabled+0x20>
10001bac:	68db      	ldr	r3, [r3, #12]
10001bae:	60d3      	str	r3, [r2, #12]
10001bb0:	60c1      	str	r1, [r0, #12]
10001bb2:	e7f7      	b.n	10001ba4 <stdio_set_driver_enabled+0x20>
10001bb4:	2900      	cmp	r1, #0
10001bb6:	d0f5      	beq.n	10001ba4 <stdio_set_driver_enabled+0x20>
10001bb8:	6010      	str	r0, [r2, #0]
10001bba:	e7f3      	b.n	10001ba4 <stdio_set_driver_enabled+0x20>
10001bbc:	200005b8 	.word	0x200005b8

10001bc0 <stdio_init_all>:
10001bc0:	b510      	push	{r4, lr}
10001bc2:	f000 f843 	bl	10001c4c <stdio_uart_init>
10001bc6:	bd10      	pop	{r4, pc}

10001bc8 <stdio_uart_out_chars>:
10001bc8:	b5f0      	push	{r4, r5, r6, r7, lr}
10001bca:	1e0d      	subs	r5, r1, #0
10001bcc:	dd15      	ble.n	10001bfa <stdio_uart_out_chars+0x32>
10001bce:	4b0e      	ldr	r3, [pc, #56]	; (10001c08 <stdio_uart_out_chars+0x40>)
10001bd0:	490e      	ldr	r1, [pc, #56]	; (10001c0c <stdio_uart_out_chars+0x44>)
10001bd2:	681a      	ldr	r2, [r3, #0]
10001bd4:	4b0e      	ldr	r3, [pc, #56]	; (10001c10 <stdio_uart_out_chars+0x48>)
10001bd6:	270d      	movs	r7, #13
10001bd8:	18d3      	adds	r3, r2, r3
10001bda:	425c      	negs	r4, r3
10001bdc:	4163      	adcs	r3, r4
10001bde:	005b      	lsls	r3, r3, #1
10001be0:	5e5e      	ldrsh	r6, [r3, r1]
10001be2:	2120      	movs	r1, #32
10001be4:	1945      	adds	r5, r0, r5
10001be6:	7804      	ldrb	r4, [r0, #0]
10001be8:	42a6      	cmp	r6, r4
10001bea:	d007      	beq.n	10001bfc <stdio_uart_out_chars+0x34>
10001bec:	6993      	ldr	r3, [r2, #24]
10001bee:	4219      	tst	r1, r3
10001bf0:	d1fc      	bne.n	10001bec <stdio_uart_out_chars+0x24>
10001bf2:	3001      	adds	r0, #1
10001bf4:	6014      	str	r4, [r2, #0]
10001bf6:	42a8      	cmp	r0, r5
10001bf8:	d1f5      	bne.n	10001be6 <stdio_uart_out_chars+0x1e>
10001bfa:	bdf0      	pop	{r4, r5, r6, r7, pc}
10001bfc:	6993      	ldr	r3, [r2, #24]
10001bfe:	4219      	tst	r1, r3
10001c00:	d1fc      	bne.n	10001bfc <stdio_uart_out_chars+0x34>
10001c02:	6017      	str	r7, [r2, #0]
10001c04:	e7f2      	b.n	10001bec <stdio_uart_out_chars+0x24>
10001c06:	46c0      	nop			; (mov r8, r8)
10001c08:	20000608 	.word	0x20000608
10001c0c:	20000604 	.word	0x20000604
10001c10:	bffc8000 	.word	0xbffc8000

10001c14 <stdio_uart_in_chars>:
10001c14:	b530      	push	{r4, r5, lr}
10001c16:	0005      	movs	r5, r0
10001c18:	2900      	cmp	r1, #0
10001c1a:	dd12      	ble.n	10001c42 <stdio_uart_in_chars+0x2e>
10001c1c:	2000      	movs	r0, #0
10001c1e:	2410      	movs	r4, #16
10001c20:	4b09      	ldr	r3, [pc, #36]	; (10001c48 <stdio_uart_in_chars+0x34>)
10001c22:	3d01      	subs	r5, #1
10001c24:	681a      	ldr	r2, [r3, #0]
10001c26:	6993      	ldr	r3, [r2, #24]
10001c28:	421c      	tst	r4, r3
10001c2a:	d108      	bne.n	10001c3e <stdio_uart_in_chars+0x2a>
10001c2c:	3001      	adds	r0, #1
10001c2e:	6993      	ldr	r3, [r2, #24]
10001c30:	421c      	tst	r4, r3
10001c32:	d1fc      	bne.n	10001c2e <stdio_uart_in_chars+0x1a>
10001c34:	6813      	ldr	r3, [r2, #0]
10001c36:	542b      	strb	r3, [r5, r0]
10001c38:	4281      	cmp	r1, r0
10001c3a:	d1f4      	bne.n	10001c26 <stdio_uart_in_chars+0x12>
10001c3c:	bd30      	pop	{r4, r5, pc}
10001c3e:	2800      	cmp	r0, #0
10001c40:	d1fc      	bne.n	10001c3c <stdio_uart_in_chars+0x28>
10001c42:	2003      	movs	r0, #3
10001c44:	4240      	negs	r0, r0
10001c46:	e7f9      	b.n	10001c3c <stdio_uart_in_chars+0x28>
10001c48:	20000608 	.word	0x20000608

10001c4c <stdio_uart_init>:
10001c4c:	21e1      	movs	r1, #225	; 0xe1
10001c4e:	b510      	push	{r4, lr}
10001c50:	4b0b      	ldr	r3, [pc, #44]	; (10001c80 <stdio_uart_init+0x34>)
10001c52:	480c      	ldr	r0, [pc, #48]	; (10001c84 <stdio_uart_init+0x38>)
10001c54:	781b      	ldrb	r3, [r3, #0]
10001c56:	4b0c      	ldr	r3, [pc, #48]	; (10001c88 <stdio_uart_init+0x3c>)
10001c58:	0249      	lsls	r1, r1, #9
10001c5a:	781b      	ldrb	r3, [r3, #0]
10001c5c:	4b0b      	ldr	r3, [pc, #44]	; (10001c8c <stdio_uart_init+0x40>)
10001c5e:	6018      	str	r0, [r3, #0]
10001c60:	f7fe fbbc 	bl	100003dc <uart_init>
10001c64:	2102      	movs	r1, #2
10001c66:	2000      	movs	r0, #0
10001c68:	f7fe fb5c 	bl	10000324 <gpio_set_function>
10001c6c:	2102      	movs	r1, #2
10001c6e:	2001      	movs	r0, #1
10001c70:	f7fe fb58 	bl	10000324 <gpio_set_function>
10001c74:	2101      	movs	r1, #1
10001c76:	4806      	ldr	r0, [pc, #24]	; (10001c90 <stdio_uart_init+0x44>)
10001c78:	f7ff ff84 	bl	10001b84 <stdio_set_driver_enabled>
10001c7c:	bd10      	pop	{r4, pc}
10001c7e:	46c0      	nop			; (mov r8, r8)
10001c80:	10001e98 	.word	0x10001e98
10001c84:	40034000 	.word	0x40034000
10001c88:	10001e9c 	.word	0x10001e9c
10001c8c:	20000608 	.word	0x20000608
10001c90:	20000210 	.word	0x20000210

10001c94 <strlen>:
10001c94:	b510      	push	{r4, lr}
10001c96:	0783      	lsls	r3, r0, #30
10001c98:	d00a      	beq.n	10001cb0 <strlen+0x1c>
10001c9a:	0003      	movs	r3, r0
10001c9c:	2103      	movs	r1, #3
10001c9e:	e002      	b.n	10001ca6 <strlen+0x12>
10001ca0:	3301      	adds	r3, #1
10001ca2:	420b      	tst	r3, r1
10001ca4:	d005      	beq.n	10001cb2 <strlen+0x1e>
10001ca6:	781a      	ldrb	r2, [r3, #0]
10001ca8:	2a00      	cmp	r2, #0
10001caa:	d1f9      	bne.n	10001ca0 <strlen+0xc>
10001cac:	1a18      	subs	r0, r3, r0
10001cae:	bd10      	pop	{r4, pc}
10001cb0:	0003      	movs	r3, r0
10001cb2:	6819      	ldr	r1, [r3, #0]
10001cb4:	4a0c      	ldr	r2, [pc, #48]	; (10001ce8 <strlen+0x54>)
10001cb6:	4c0d      	ldr	r4, [pc, #52]	; (10001cec <strlen+0x58>)
10001cb8:	188a      	adds	r2, r1, r2
10001cba:	438a      	bics	r2, r1
10001cbc:	4222      	tst	r2, r4
10001cbe:	d10f      	bne.n	10001ce0 <strlen+0x4c>
10001cc0:	6859      	ldr	r1, [r3, #4]
10001cc2:	4a09      	ldr	r2, [pc, #36]	; (10001ce8 <strlen+0x54>)
10001cc4:	3304      	adds	r3, #4
10001cc6:	188a      	adds	r2, r1, r2
10001cc8:	438a      	bics	r2, r1
10001cca:	4222      	tst	r2, r4
10001ccc:	d108      	bne.n	10001ce0 <strlen+0x4c>
10001cce:	6859      	ldr	r1, [r3, #4]
10001cd0:	4a05      	ldr	r2, [pc, #20]	; (10001ce8 <strlen+0x54>)
10001cd2:	3304      	adds	r3, #4
10001cd4:	188a      	adds	r2, r1, r2
10001cd6:	438a      	bics	r2, r1
10001cd8:	4222      	tst	r2, r4
10001cda:	d0f1      	beq.n	10001cc0 <strlen+0x2c>
10001cdc:	e000      	b.n	10001ce0 <strlen+0x4c>
10001cde:	3301      	adds	r3, #1
10001ce0:	781a      	ldrb	r2, [r3, #0]
10001ce2:	2a00      	cmp	r2, #0
10001ce4:	d1fb      	bne.n	10001cde <strlen+0x4a>
10001ce6:	e7e1      	b.n	10001cac <strlen+0x18>
10001ce8:	fefefeff 	.word	0xfefefeff
10001cec:	80808080 	.word	0x80808080

10001cf0 <_fini>:
10001cf0:	b5f8      	push	{r3, r4, r5, r6, r7, lr}
10001cf2:	46c0      	nop			; (mov r8, r8)
10001cf4:	0000      	movs	r0, r0
	...

10001cf8 <__mutex_exit_veneer>:
10001cf8:	b401      	push	{r0}
10001cfa:	4802      	ldr	r0, [pc, #8]	; (10001d04 <__mutex_exit_veneer+0xc>)
10001cfc:	4684      	mov	ip, r0
10001cfe:	bc01      	pop	{r0}
10001d00:	4760      	bx	ip
10001d02:	bf00      	nop
10001d04:	2000014d 	.word	0x2000014d

10001d08 <____aeabi_idiv0_veneer>:
10001d08:	b401      	push	{r0}
10001d0a:	4802      	ldr	r0, [pc, #8]	; (10001d14 <____aeabi_idiv0_veneer+0xc>)
10001d0c:	4684      	mov	ip, r0
10001d0e:	bc01      	pop	{r0}
10001d10:	4760      	bx	ip
10001d12:	bf00      	nop
10001d14:	20000175 	.word	0x20000175

10001d18 <__mutex_try_enter_veneer>:
10001d18:	b401      	push	{r0}
10001d1a:	4802      	ldr	r0, [pc, #8]	; (10001d24 <__mutex_try_enter_veneer+0xc>)
10001d1c:	4684      	mov	ip, r0
10001d1e:	bc01      	pop	{r0}
10001d20:	4760      	bx	ip
10001d22:	bf00      	nop
10001d24:	20000109 	.word	0x20000109

10001d28 <__mutex_enter_blocking_veneer>:
10001d28:	b401      	push	{r0}
10001d2a:	4802      	ldr	r0, [pc, #8]	; (10001d34 <__mutex_enter_blocking_veneer+0xc>)
10001d2c:	4684      	mov	ip, r0
10001d2e:	bc01      	pop	{r0}
10001d30:	4760      	bx	ip
10001d32:	bf00      	nop
10001d34:	200000c1 	.word	0x200000c1

Disassembly of section .data:

200000c0 <mutex_enter_blocking>:
200000c0:	23d0      	movs	r3, #208	; 0xd0
200000c2:	b530      	push	{r4, r5, lr}
200000c4:	2500      	movs	r5, #0
200000c6:	061b      	lsls	r3, r3, #24
200000c8:	2400      	movs	r4, #0
200000ca:	575d      	ldrsb	r5, [r3, r5]
200000cc:	e006      	b.n	200000dc <mutex_enter_blocking+0x1c>
200000ce:	6803      	ldr	r3, [r0, #0]
200000d0:	f3bf 8f5f 	dmb	sy
200000d4:	601c      	str	r4, [r3, #0]
200000d6:	f381 8810 	msr	PRIMASK, r1
200000da:	bf20      	wfe
200000dc:	6802      	ldr	r2, [r0, #0]
200000de:	f3ef 8110 	mrs	r1, PRIMASK
200000e2:	b672      	cpsid	i
200000e4:	6813      	ldr	r3, [r2, #0]
200000e6:	2b00      	cmp	r3, #0
200000e8:	d0fc      	beq.n	200000e4 <mutex_enter_blocking+0x24>
200000ea:	f3bf 8f5f 	dmb	sy
200000ee:	7903      	ldrb	r3, [r0, #4]
200000f0:	2b7f      	cmp	r3, #127	; 0x7f
200000f2:	d9ec      	bls.n	200000ce <mutex_enter_blocking+0xe>
200000f4:	7105      	strb	r5, [r0, #4]
200000f6:	6803      	ldr	r3, [r0, #0]
200000f8:	f3bf 8f5f 	dmb	sy
200000fc:	2200      	movs	r2, #0
200000fe:	601a      	str	r2, [r3, #0]
20000100:	f381 8810 	msr	PRIMASK, r1
20000104:	bd30      	pop	{r4, r5, pc}
20000106:	46c0      	nop			; (mov r8, r8)

20000108 <mutex_try_enter>:
20000108:	0003      	movs	r3, r0
2000010a:	6800      	ldr	r0, [r0, #0]
2000010c:	f3ef 8c10 	mrs	ip, PRIMASK
20000110:	b672      	cpsid	i
20000112:	6802      	ldr	r2, [r0, #0]
20000114:	2a00      	cmp	r2, #0
20000116:	d0fc      	beq.n	20000112 <mutex_try_enter+0xa>
20000118:	f3bf 8f5f 	dmb	sy
2000011c:	2204      	movs	r2, #4
2000011e:	569a      	ldrsb	r2, [r3, r2]
20000120:	2a00      	cmp	r2, #0
20000122:	db0b      	blt.n	2000013c <mutex_try_enter+0x34>
20000124:	2900      	cmp	r1, #0
20000126:	d00f      	beq.n	20000148 <mutex_try_enter+0x40>
20000128:	2000      	movs	r0, #0
2000012a:	600a      	str	r2, [r1, #0]
2000012c:	681b      	ldr	r3, [r3, #0]
2000012e:	f3bf 8f5f 	dmb	sy
20000132:	2200      	movs	r2, #0
20000134:	601a      	str	r2, [r3, #0]
20000136:	f38c 8810 	msr	PRIMASK, ip
2000013a:	4770      	bx	lr
2000013c:	22d0      	movs	r2, #208	; 0xd0
2000013e:	0612      	lsls	r2, r2, #24
20000140:	6812      	ldr	r2, [r2, #0]
20000142:	2001      	movs	r0, #1
20000144:	711a      	strb	r2, [r3, #4]
20000146:	e7f1      	b.n	2000012c <mutex_try_enter+0x24>
20000148:	2000      	movs	r0, #0
2000014a:	e7ef      	b.n	2000012c <mutex_try_enter+0x24>

2000014c <mutex_exit>:
2000014c:	6802      	ldr	r2, [r0, #0]
2000014e:	f3ef 8110 	mrs	r1, PRIMASK
20000152:	b672      	cpsid	i
20000154:	6813      	ldr	r3, [r2, #0]
20000156:	2b00      	cmp	r3, #0
20000158:	d0fc      	beq.n	20000154 <mutex_exit+0x8>
2000015a:	f3bf 8f5f 	dmb	sy
2000015e:	23ff      	movs	r3, #255	; 0xff
20000160:	7103      	strb	r3, [r0, #4]
20000162:	6803      	ldr	r3, [r0, #0]
20000164:	f3bf 8f5f 	dmb	sy
20000168:	2200      	movs	r2, #0
2000016a:	601a      	str	r2, [r3, #0]
2000016c:	f381 8810 	msr	PRIMASK, r1
20000170:	bf40      	sev
20000172:	4770      	bx	lr

20000174 <__aeabi_idiv0>:
20000174:	4770      	bx	lr
20000176:	46c0      	nop			; (mov r8, r8)

20000178 <striped_spin_lock_num>:
20000178:	0010 0000                                   ....

2000017c <default_alarm_pool>:
2000017c:	0194 2000 0000 0000 0240 2000 0578 2000     ... ....@.. x.. 
	...

20000194 <default_alarm_pool_heap>:
20000194:	0588 2000 0000 0000 0000 0000 0010 0000     ... ............

200001a4 <irq_handler_chain_slots>:
200001a4:	00000000 	.word	0x00000000
200001a8:	00010000 	.word	0x00010000
	...
200001b4:	00020000 	.word	0x00020000
	...
200001c0:	00030000 	.word	0x00030000
	...
200001cc:	00ff0000 	.word	0x00ff0000
200001d0:	00000000 	.word	0x00000000

200001d4 <irq_handler_chain_first_slot>:
200001d4:	b500      	push	{lr}
200001d6:	6848      	ldr	r0, [r1, #4]
200001d8:	3101      	adds	r1, #1
200001da:	468e      	mov	lr, r1
200001dc:	4700      	bx	r0

200001de <irq_handler_chain_remove_tail>:
200001de:	4670      	mov	r0, lr
200001e0:	3809      	subs	r0, #9
200001e2:	4901      	ldr	r1, [pc, #4]	; (200001e8 <irq_handler_chain_remove_tail+0xa>)
200001e4:	4788      	blx	r1
200001e6:	bd00      	pop	{pc}
200001e8:	100014cd 	.word	0x100014cd
200001ec:	00000000 	.word	0x00000000

200001f0 <aeabi_bits_funcs>:
200001f0:	00003350 	.word	0x00003350
200001f4:	0000334c 	.word	0x0000334c
200001f8:	00003354 	.word	0x00003354
200001fc:	00003352 	.word	0x00003352

20000200 <aeabi_bits_funcs_end>:
20000200:	0000534d 	.word	0x0000534d
20000204:	0000434d 	.word	0x0000434d
20000208:	00003453 	.word	0x00003453
2000020c:	00003443 	.word	0x00003443

20000210 <stdio_uart>:
20000210:	10001bc9 00000000 10001c15 00000000     ................
20000220:	00000100                                ....

20000224 <print_mutex>:
	...

2000022c <__mutex_array_end>:
2000022c:	100018cd 	.word	0x100018cd
20000230:	100016bd 	.word	0x100016bd
20000234:	1000177d 	.word	0x1000177d
20000238:	1000183d 	.word	0x1000183d

2000023c <__frame_dummy_init_array_entry>:
2000023c:	100002ed                                ....
