:020000041000EA
:1000000000B5324B212058609868022188439860DF
:10001000D860186158612E4B002199600221596106
:100020000121F02299502B49196001219960352056
:1000300000F044F80222904214D00621196600F024
:1000400034F8196E01211966002018661A6600F04E
:100050002CF8196E196E196E052000F02FF8012189
:100060000842F9D1002199601B49196000215960AB
:100070001A491B48016001219960EB211966A021F2
:10008000196600F012F800219960164914480160C1
:100090000121996001BC002800D000471248134993
:1000A000086003C880F30888084703B5996A0420EC
:1000B0000142FBD001200142F8D103BD02B5186610
:1000C0001866FFF7F2FF186E186E02BD00000240BE
:1000D000000000180000070000035F00212200005C
:1000E000F4000018222000A00001001008ED00E03C
:1000F00000000000000000000000000074B24E7A12
:1001000000200420F7010010C3010010C5010010F9
:10011000C1010010C1010010C1010010C101001097
:10012000C1010010C1010010C1010010C701001081
:10013000C1010010C1010010C9010010CB01001065
:10014000CD010010CD010010CD010010CD01001037
:10015000CD010010CD010010CD010010CD01001027
:10016000CD010010CD010010CD010010CD01001017
:10017000CD010010CD010010CD010010CD01001007
:10018000CD010010CD010010CD010010CD010010F7
:10019000CD010010CD010010CD010010CD010010E7
:1001A000CD010010CD010010CD010010CD010010D7
:1001B000CD010010CD010010CD010010CD010010C7
:1001C00000BE00BE00BE00BE00BE00BE00F04BF888
:1001D000103800BEF2EB8871EC440010144500109A
:1001E0003402001090A31AE700202149086006C8D5
:1001F00081F3088810471F48006800282FD10DA4FC
:100200000ECC002902D000F012F8F9E71A491B4A77
:10021000002000E001C19142FCD1194988471949E9
:1002200088471949884700BEFDE701C901C29A42C3
:10023000FBD3704714450010C00000204802002086
:100240009C46001000000420000004209C46001082
:1002500000100420001004200000000070470B482C
:1002600002F04AFD0047EFF30580C0B2704700007E
:1002700008ED00E0000000D0480200201806002031
:10028000510F001069030010411000105756000074
:1002900006005250ABB360535C440010060052504D
:1002A000861C030254440010060052505422A29DA2
:1002B0006C44001005005250DE65F4689C46001046
:1002C000F8B5C04606480749091A8B10C90FC91866
:1002D00010B5491003D0044B002B00D0984710BD37
:1002E000480200204802002000000000054B10B525
:1002F000002B03D00449054800E000BFFFF7E2FFF0
:1003000010BDC04600000000CC0500207041001068
:10031000012807DD421C0223012058430133934288
:10032000FBD170470120FCE710B503F051FE04003B
:1003300003F04EFEA04703F041FEF6E710B500289B
:100340000DD001280DD00ADD421C0223012000211E
:1003500004000133401821009A42F9D110BD002059
:10036000FCE70120FAE7C04610B503F0B5FD1248DE
:1003700003F000FD114803F07BFE114803F01EFE60
:100380000A2003F01BFE03F023FE0E4B02000A219D
:10039000180003F095FD0C4803F010FE0A2003F04E
:1003A0000DFE03F015FE094B02000A21180003F0B0
:1003B00087FD002010BDC0467041001029030010C9
:1003C000110300108C4100103D030010A0410010EB
:1003D000094A10B594464024830063441A68C0005B
:1003E0006240803414408022520113431C60034B4E
:1003F0009C466044416010BD04C001400040014083
:1004000070B5EFF3108C72B60D4D2B68002BFCD03D
:10041000BFF35F8F0724CB08C618C05C01230C40D4
:10042000A3401C000440034207D118433070BFF3BF
:100430005F8F2C608CF3108870BD100000F002FEFE
:100440002C0100D0024B18688007C00F7047C046CF
:1004500000C006400021044B044ABFF35F8F02C373
:100460009342FAD17047C046000100D0800100D00D
:10047000044A1078431CDBB2172B00D910231370E9
:100480007047C04678010020F8B5040006200D0032
:1004900000F04EFF002844D02A4B2B49E21853426B
:1004A0005A418023DB039C469205284B62441A6024
:1004B000274B1A6010008B689843FBD1214B254ACB
:1004C000E31859424B4180215B00490099520620B4
:1004D00000F02EFF2900C00002F068FCC30921D102
:1004E00040270121260080256162A36200232C366B
:1004F000AD0135432B60062000F01AFF3900800063
:1005000002F054FC6022E36A53400E321A4080230A
:100510005B0133431A60104B236310232B600D3BA8
:10052000A364F8BD0D4A934203D900230C4F0D4933
:10053000D8E77F220240013252089F011900BF18FC
:100540001300CFE70080FCBF00C0004000E0004087
:1005500000F000400C06002001030000FEFF000038
:10056000C0FF3F00FFFF000083680B4810B58446C2
:10057000614462441201090159189B185C684A6879
:100580000120944201D802D00020C0B210BD1A68E8
:100590000B689A42F9D8F7E7FFFFFF0FF8B5574607
:1005A00045464E46DE46E0B599460CAB1C780DAB91
:1005B0001B78070090469A460568002C44D1AC7B16
:1005C000002C3BD0660029683619033E89194B7808
:1005D000AB73002B00D1EB7300238B704B700B704F
:1005E0002E4BE218BB6812019B1842461A604A461D
:1005F0005A600A9A9A600B9ADA6000238B704B70EB
:100600000B706B7B9B46002B32D022005946A868AA
:100610006B68984700281DD05B46584629685B00E8
:100620005B448E19033BB070CA18CB5C002B00D022
:1006300073705B4614706B735C451AD0F0BCBB469C
:10064000B246A946A046F8BD660029683619033EA1
:100650008919C5E75B465B002A685B44033BD318F6
:100660009C709119925D002A00D05A705B460B7005
:100670006C7342464B46387D00F0E0F9051E02D00F
:100680005346002B04D00E9B002BD7D01D70D5E70E
:100690002100386800F01EFCF5E7C046FFFFFF0FA1
:1006A000F0B5DE464E46574645460023E0B58DB0D0
:1006B0000A936B4B8200D3580B90994600239B46BC
:1006C0004B46079300F06AF9079C06000F0062682A
:1006D000EFF3108572B61368002BFCD0220007944C
:1006E000BFF35F8F2468637B9946002B66D09268C6
:1006F0005C4B90464B441B01984443461A685B6828
:1007000010001900801BB94100295EDD0B9800F034
:1007100095F900230026984600279A46079C6368AF
:10072000BFF35F8F5A461A6085F310885346002B3B
:1007300008D10028C6D10DB0F0BCBB46B246A946D0
:10074000A046F0BD0A9B414618024B461843D047CD
:10075000089009916268EFF3108572B61368002B58
:10076000FCD00794BFF35F8F0899099A002A47DBF2
:10077000114303D0079B1B69002B5CD1079B1B68AF
:10078000D97B002906D01A684800411852184946FA
:10079000033A51704A46DA734B46079A013BD168D7
:1007A000CA5C0132CA545B46079A13615368BFF3AF
:1007B0005F8F5A461A6085F3108883E7002300266E
:1007C000984600279A460020A8E7002901D1002872
:1007D0009CD10021200000F0FFFA43461E685F68AC
:1007E0009B68079A9A464346DB689846D3684B4411
:1007F000013B1B780A931B020343136100208DE722
:100800002369002BBAD033003C005B1A94411A00D4
:100810002300A74219D89F421BD0594604910121B9
:100820000391494602914146019151460798009132
:10083000FFF7B4FEB7E700F0B1F8089A099B06008D
:100840000F0092197B419942E5D901225242D317F8
:10085000E3E79642E1D901225242D317DDE7C046D1
:10086000E4050020FFFFFF0F10B5124C6368002B5A
:1008700004D00A21104800F06FF910BD23000F4A80
:100880001021206800F0C0F9032000F07BF803205D
:1008900000F044F903200A4900F08AF8FFF7E8FD68
:1008A000084B9C46032360442375074B800060601F
:1008B000DC60DEE77C010020F805002069050010FF
:1008C000A106001040000034E4050020F0B5D64633
:1008D0004F464646C0B5EFF305823F23134018004C
:1008E0001038EFF3108C72B620490A68002AFCD049
:1008F000BFF35F8F0122170087401D4C1600A246F0
:1009000067631C4C2578A0462C00C4402640224238
:1009100009D1BFF35F8F0E608CF31088E0BCBA463C
:10092000B146A846F0BD5246566A134A8400A25802
:1009300096420ED34246114BBD43E3581570BFF3A8
:100940005F8F00220A608CF31088002BE6D0984756
:10095000E4E70B4A9B00904643441A681A60BFF3D1
:100960005F8F00230B608CF31088D7E7280100D03D
:100970000040054016060020FC0500204805002028
:10098000D03F054010B5034B01001800024AFFF7A5
:1009900037FD10BD14060020B4410010034B596A06
:1009A0000A00986A596A8A42FAD1704700400540A5
:1009B00070B504000D00EFF3108672B61A4A136882
:1009C000002BFCD0BFF35F8F002D1BD0200000F068
:1009D000D3FC164981420AD0200000F0D5FC012149
:1009E000200000F0ABFC0123A340114A1360114B1F
:1009F000A400E550BFF35F8F00220B4B1A6086F313
:100A0000108870BD0121A1400A4BA200D5500A4BAD
:100A100020001A788A4305491A7000F0DFFC002193
:100A2000200000F08BFCE5E7280100D0CD08001085
:100A3000386005404805002016060020F0B54F46F6
:100A4000D6464646C0B507002F4C616A0D00A66A1F
:100A5000616AA942FAD18B4208D805D00120E0BCD6
:100A6000BA46B146A846F0BDB242F7D9EFF3108AB4
:100A700072B6264801680029FCD0BFF35F8F0125BC
:100A8000BD402349204C8846097889462943C9B28C
:100A90008C46414660460870391D890065630A51DD
:100AA0001C49B8004350216A0020294219D0616ACC
:100AB0000800A66A616A8142FAD18B4219D801D135
:100AC000B24216D8CC451DD00F4B1F221D625D636C
:100AD00001233A409340104A0120136043464A469E
:100AE0001A70BFF35F8F0022084B1A608AF31088D8
:100AF000B5E70020BFF35F8F0022044B1A608AF332
:100B00001088ACE70120ECE700400540280100D048
:100B100016060020FC05002080E200E0EFF3108CB8
:100B200072B60A490B68002BFCD0BFF35F8F01231C
:100B30008340074A0748136202789A430270BFF362
:100B40005F8F00230B608CF310887047280100D062
:100B50000040054016060020024B9C466144890077
:100B6000016070474000003410B50400FFF780FCBE
:100B700001002000FFF7F0FFFF232371BFF35F8F19
:100B800010BDC04610B50400FFF772FC0100200044
:100B9000FFF7E2FFFF23A380BFF35F8F10BDC046C6
:100BA00070B5050014001600002915D00C00002AAD
:100BB00012D080686B689847296800280ED07300AF
:100BC0009B196200033B1219CB18033A9C708818DA
:100BD0008A5C002A15D10670200070BD63001B19C5
:100BE0007200033B9219CB18033A9E7088188A5CF6
:100BF000002A02D104703400EEE75A700470340009
:100C0000EAE75A700670E7E730B583600023CCB29C
:100C100043730133047342608373C4730D0000682F
:100C2000012C06D9421C0133DBB2137003329C4203
:100C3000F9D1FF2129404B005B18C018002303386D
:100C4000437030BDF8B505000C1E07D06300016885
:100C50001B19033BCB185A78002A01D12000F8BD9C
:100C6000500080180338091800204F784870210080
:100C700058702800FFF794FF390006002800FFF79E
:100C8000E1FF0400002EE9D0002826D03100220028
:100C9000A8686B689847296800280FD063001B1963
:100CA0007200033B9219CB18033A9E7088188A5C35
:100CB000002A00D05A7004703400CFE773009B19EB
:100CC0006200033B1219CB18033A9C7088188A5CA7
:100CD000002A00D05A700670C0E73400BEE7C04654
:100CE000F0B557464546DE464E46E0B50D006B0072
:100CF00001685B19DF1E0400C85D83B00192CA1948
:100D000000284CD043001B18033BCB185E78B44638
:100D1000002E16D1019E002E3ED0E67B002E04D080
:100D200073009B19CB18033B5D70E57300282FD12E
:100D30000023537003B0F0BCBB46B246A946A046A0
:100D4000F0BD72006244033A8A1851788846002147
:100D5000517089465970320001002000FFF720FFD2
:100D600043468246002B07D05B0021684344033B87
:100D7000CB185A78002A16D1424651462000FFF778
:100D80000FFF2168019BCA19002BC6D10028CFD0C4
:100D900043001B18033BCB1800219970C8E7019B47
:100DA000002BBAD1C4E750008018033809184878DE
:100DB000834648464870587041462000FFF7F0FED1
:100DC000594680462000FFF73DFF414602002000C3
:100DD000FFF7E6FE8046CFE7F0B557464546DE46CC
:100DE0004E46E0B583B00191457B04006B0000687E
:100DF0005B19DF1EC15DC21900294ED04B005B1884
:100E0000033BC3185E78B446002E18D1019E002E15
:100E100040D0E67B002E04D073009B19C318033B1F
:100E20005D70E573002931D1002328005370617390
:100E300003B0F0BCBB46B246A946A046F0BD720066
:100E40006244033A821850788046002050708146F0
:100E5000587032002000FFF7A3FE43468246002B65
:100E600007D05B0021684344033BCB185A78002A23
:100E700017D1424651462000FFF792FE019B010028
:100E80002068C219002BC4D10029CDD04B005B18BB
:100E9000033BC31800209870C6E7019B002BB8D114
:100EA000C2E750008018033809184878834648463E
:100EB0004870587041462000FFF772FE5946804640
:100EC0002000FFF7BFFE414602002000FFF768FE4A
:100ED0008046CEE770B5040000292CD0437B8B42BE
:100EE0002ED0056848004018033828188278002A58
:100EF00021D053009B18033BEA5CEE188A4202D1D2
:100F00001BE0002A08D053009B18033BEB185A78CB
:100F10008A42F6D142785A700023012283704370CE
:100F20002000FFF7DDFE617B02002000FFF738FEA6
:100F30006073012000E0002070BD43783370EBE760
:100F400001221900FFF7CCFE60730120F4E7C046D0
:100F50002C4B2D4A70B51A602C4A2D4B2D491A6026
:100F600014008B689C43FBD12B4D2C4EB54208D20C
:100F7000013E761BB60808CD984723000134B342E2
:100F8000F9D100F07DF8264A214B1A60214A936876
:100F9000DB43DB01DD09002BF9D14022214B224C40
:100FA000224E9A675A671A67DA66B44208D22368F3
:100FB0002000002B20D00834FFF7E4FDB442F6D324
:100FC0001B4C1C4EC022B168200002F06BFDB460C7
:100FD000FFF740FA00F036FBFFF746FC164C174EC1
:100FE000B44208D2013E361BB60808CC98472B0005
:100FF00001359E42F9D170BD0834FFF7B5FDB4420A
:10100000D5D3DDE700E00040BFCDFBFEFE7F3C0016
:1010100000F0004000C000403402002044020020E4
:10102000FFFFFF0100F001402402002034020020F5
:101030000000002000ED00E04402002048020020F3
:1010400000BEFDE70FB400B5084883B002F092FE81
:10105000049B002B07D005A91800019101F02CFE7C
:10106000034802F087FE00BEFDE7C046D8410010ED
:10107000E841001010B50148FFF7E4FFEC41001013
:1010800010B50C2082B000F03FFBFFF7DBF9002821
:101090000ED0854B854A1A605A609A60DA601A61F0
:1010A0005A619A61DA611A62814A5A6202B010BDCD
:1010B000804CA06700F030FB01227F4B1A60636C0C
:1010C000012BFCD103227D4B1A607A4A936B012BD2
:1010D000FCD1022401217A4A7A480533009400F0B9
:1010E000C3FA0523784A01217848009400F0BCFA3D
:1010F000774B5A68FF2A02D8802252005A60802219
:101100006E4B694C12011A602169002905D0606993
:1011100001F04CFE01300138FDD1E0226C4B6D48EE
:1011200019680A40026002221968514001320A40DF
:10113000042102609A681142FCD08021664A0901AC
:101140001160802252005A60644B2361644B5968DD
:10115000FF2900D85A6003220121574B1A60604AC8
:1011600093681942FCD0E023106803405D48036097
:10117000126803234A4002211340594A03609368CE
:101180001942FCD08021584B090119608021574B2E
:10119000490051606361564B5A68FF2A00D8596074
:1011A0008022544B12011A60E169002905D0606960
:1011B00001F0FCFD01300138FDD1E0234C4A1168FB
:1011C0000B404D490B6080214C4B09011960802177
:1011D000364B49005160E361494B5A68FF2A00D8F9
:1011E00059608022474B12011A60216A002905D0FC
:1011F000606901F0DBFD01300138FDD1E023404A98
:1012000011680B4040490B608021404B0901196077
:1012100080235B0053608022244BD20223623C4B2C
:101220005968914200D25A6080223A4B12011A60EA
:10123000616A002905D0606901F0B8FD013001380C
:10124000FDD1E023324A11680B4033490B60802105
:10125000324B090119608023DB025360144B636237
:101260002F4B5A68FF2A02D8802252005A608022EF
:101270002C4B12011A60A169002905D0606901F0A8
:1012800095FD01300138FDD1E023254A11680B405E
:1012900025490B608021254B0901196080235B00E3
:1012A0005360124BA36101E758050020006CDC027B
:1012B0001BB70000008000403CB0004030B0004050
:1012C000002F68590080024000389C1C00C002407A
:1012D000308000403090004030A00040001BB7003C
:1012E0003C8000403C9000403CA0004040597307C7
:1012F0005480004054B000405490004054A000403E
:101300006080004060B000406090004060A00040FD
:101310006C8000406CB000406C9000406CA00040BD
:101320004880004048B000404890004048A000403D
:10133000014B8000C05870475805002001238340AE
:10134000002904D0034A1360034A13607047034A1C
:101350001360FBE780E200E000E100E080E100E0F4
:1013600001228240034B1B6813405A1E9341D8B29E
:101370007047C04600E100E0024B10309B688000DF
:10138000C058704700ED00E070B50D00EFF3108617
:1013900072B60F4A1368002BFCD0BFF35F8F0D4B62
:1013A00010309B6884001B590B4A934203D09D4226
:1013B00001D0FFF75FFE074B9B681D51BFF35F8FA6
:1013C000BFF35F8F0022024B1A6086F3108870BD56
:1013D000240100D000ED00E0CD010010F0B5DE46A4
:1013E00057464E464546E0B50C0083B0EFF3108AF1
:1013F00072B65A4A1368002BFCD0BFF35F8F1022DD
:10140000914681444A46564B96009B689D59554BE0
:1014100098469D4205D0A54216D0534FEB1B2F2B6B
:1014200014D94F4B9B689D51BFF35F8FBFF35F8F04
:1014300000224A4B1A608AF3108803B0F0BCBB4606
:10144000B246A946A046F0BD1D00EAE7012383404D
:101450009B465A46454B1B681A4000925A46444BDD
:101460001A60BFF35F8FFEF7FEFE0190002803D0E5
:10147000814501D0FFF7FEFD01232A009A431300A6
:101480003C49DB1B5B415943090D93689C4208D1E1
:101490005AE043001B189B00FB189868A04211D02B
:1014A0001A00062010560028F3DA009B002B05D006
:1014B0005A46314B1A602D4B1A60B2E75A462C4BF4
:1014C0001A60AEE706201856002821DB42001118EA
:1014D00089007C188846A1689960E179D971062154
:1014E0006156997100291FDBA488F91A6405241537
:1014F00044440919E0240905490D24022143998037
:101500001E4B121819789200BA1891711870CCE716
:10151000019800280BD1FF30907119489080174A2C
:10152000107811709871C0E7BD210902E7E7154AEC
:101530001549D21A083A5002400D014399801349C7
:1015400052080A43DA80B0E706201056130000283C
:10155000BCDA019A002AEAD14546E0E7240100D02E
:1015600000ED00E0CD010010A401002000E100E04A
:1015700080E100E0AAAA000080E200E01506002059
:1015800000BDFFFFDE01002000F0FFFF00F8FFFFBD
:10159000F8B5012504000543FEF765FEEFF3108C56
:1015A00072B6214A1368002BFCD0BFF35F8F1F4E29
:1015B0002100B7681E4A1F4B891A49414B431B0D36
:1015C00059B28300F858A8421CD00623D3568B4248
:1015D0001CD01223D3568B4222D01E23D3568B42CB
:1015E00020D02A23D35603208B4210D0124B1A78D6
:1015F0001970A271BFF35F8F00220B4B1A608CF33E
:101600001088F8BDB2680D48D050EFE700204300C5
:101610001B189B00D218FF239371094B9380E5E7B9
:101620000120F4E70220F2E7240100D000ED00E001
:10163000A4010020AAAA000015060020CD01001078
:1016400000BDFFFF054B064A1360064A1360536056
:101650009360D36013615361936170478080808091
:1016600000E400E004E400E0F8B504000C201700FA
:101670001D000E0001F09AFB43011B1A9901C91AC3
:10168000C90009188901380001F090FB069B290464
:101690001B0319432368002B20DB174B174DE3185E
:1016A0005A4253418022520194461B03144A634418
:1016B0001360144A13601F00AA689743FBD1C0232C
:1016C000221D9B01134321222660A0601A6022681C
:1016D000002AFCDA0822E1601A60F8BD3F23226884
:1016E0001340B342D9D1A3681B051B0D8342D4D14B
:1016F000E3680029D1D1F0E70040FDBF00C0004001
:1017000000E0004000F000408023024A9B000343B9
:10171000D362704700800540AA23064A1B0113606C
:101720002F230549D360054B19605368002BFCDA61
:101730007047C0460040024000B0FA00006002401E
:101740007047C046F8B557464546DE464E46E0B5BA
:1017500098460A9B06009A460D9B0F00934615007B
:101760009B0710D10B9B0C9A93420CD213005C4642
:101770000B9A9D1A5D442200434601343900202013
:10178000B047A542F7D10B9C6319002C09D01D006E
:1017900053462A1B013C185D39004346B047002CD4
:1017A000F6D10D9B9B070ED55B46EC1A0C9BA34212
:1017B00009D999462A004346390020200134B04710
:1017C0000135A145F6D82800F0BCBB46B246A94673
:1017D000A046F8BDF0B54F464646D646C0B584B0E3
:1017E00098460EAB1B78129F994694460D9C109B11
:1017F000119EBA0725D4002E61D19C4200D3C0E0CF
:1018000001223A4092461F2C00D9B9E00C9A551E8D
:10181000302201E0202C03D001342A55A342F9D80C
:101820005246002A0DD0A6420BD90C9A551E3022E2
:10183000202C02D155E0202C53D001342A55B4423B
:10184000F9D1FA062DD57A0554D4002C4ED10F9B30
:10185000102B00D188E00F9B022B19D030230C9A5B
:10186000012413704B46002B20D02D230C9A1355C6
:1018700001340C9B62460093039743460296019401
:10188000FFF760FF04B0E0BCBA46B146A846F0BD21
:1018900001240C9A6033137030220C9B1B191A70B0
:1018A0000134202CE5D04B46002BDED17B0730D411
:1018B0003B07DED520230C9A13550134D9E70122CA
:1018C00015003D40AA463A421CD04A46002A2BD178
:1018D0000C323A4228D19C42A5D21F2C96D9202EF8
:1018E00015D92024FA06C4D57A0503D4A3421DD005
:1018F000B4421BD00F9B102B23D0022B0ED0202CD8
:10190000B7D0C9E79C429CD21F2C00D87EE7202488
:1019100097E72B230C9A13550134AAE7202CA8D063
:101920000C9B1B19013438E0013ED4E7631E012CE7
:1019300000D18CE70F9A102A25D0022A2AD01C0049
:10194000AAE7BB0607D4202C93D00C9B1A190134AC
:1019500078231370D3E7202C00D18AE758220C9B00
:101960001B191A700134CAE7BB0604D478230C9AF9
:101970000124137090E758230C9A012413708BE70D
:10198000202400265DE7023CBA06E7D40C9A12191F
:101990001C00DDE70C9A9246534462221A70AEE7AF
:1019A00010B5002800D110BD02F094F9FBE7C04645
:1019B0000B0010B5002802D049681B68984710BD7D
:1019C000F0B5DE4657464E464546E0B59BB09B46D1
:1019D000249B89469846259B0B900C924046424694
:1019E00019009A4601F0B3FC002800D0D8E001228B
:1019F00040465146774B524201F0A4FC002800D0EB
:101A0000CEE0012240465146734B524201F084FC25
:101A1000002800D0C4E0002200234046514601F0D7
:101A20007BFC002800D0B9E1424653460A92099354
:101A30008023289ADB001A400E92289A1A4201D17C
:101A4000062326930A9A099B1600134300D0C7E089
:101A5000289B002500261B0500D49BE100230D9345
:101A6000269A0D9B9A4200DC9FE1D31A013B2693F4
:101A70008023289ADB001A430023002728920D9325
:101A8000279B0024BB4200D9DC1B0223289A1A4062
:101A90000E92289A134203D07B427B415B421C404A
:101AA0000D9B002B07D00A9809992A00330001F0FA
:101AB000D2FB0A900991002200234046514601F0D2
:101AC0002BFC002805D0802000068446099961443B
:101AD0000991289A414B0B9D13400493269B0A9A27
:101AE0000293099B03940092019349465B462800A8
:101AF0000C9A00F08BF90400002F62D0289B220082
:101B000098061F23C0179843631C984649465B46B6
:101B10006530A8470D9A0025D317D4185C40D30F21
:101B20009A46013F01E0202D13D00AAA94461F23B4
:101B3000200063440A2101355E1901F037F9303184
:101B4000317020000A2101F031F926000400092E2D
:101B5000E9D805230693002304930A3303935346DD
:101B600005970B9F029312AB009342465B46494692
:101B700038000195FFF72EFE0E9B0400002B20D0AD
:101B80000C9BC51A279BAB421BD91E0022005B464B
:101B9000494620200135B8470134AE42F6D810E05E
:101BA000289B42460493279B49460393269B0B9808
:101BB00002935346009201935B460C9A00F026F97B
:101BC000040020001BB0F0BCBB46B246A946A046AC
:101BD000F0BDC046FFFFEF7FFFFFEFFFFFF7FFFF06
:101BE000734B099F9C467800400D604401F0C2FB96
:101BF000704A714B01F04DFB704A714B01F022FBB2
:101C00003B03704A1B0B1A4304000D003000110007
:101C10006D4B002201F00DFB6C4A6D4B01F039FB5E
:101C200002000B002000290001F00CFB01F0BAFBC0
:101C30000D9001F09FFB674A674B04000D0001F017
:101C400028FB0022654B01F0FDFA01F0ABFB644A72
:101C50000600644B2000290001F01BFB040030004B
:101C60000D000F9601F086FB5F4A604B01F011FBFF
:101C700002000B002000290001F0DBFA02000B003B
:101C800006000F0001F005FB320004000D003B00D0
:101C90003000390001F0D6FA002210901191544B17
:101CA0002000290001F0D7FA0022524B01F0CAFAB5
:101CB00002000B002000290001F0CDFA00224E4B5B
:101CC00001F0C0FA02000B002000290001F0C3FA65
:101CD0000D008021040032003B000020C90501F006
:101CE000A8FA02000B002000290001F0ABFA020064
:101CF0000B001098119901F0AEFA0022314B01F05F
:101D0000A1FA3E4B0F9C9C4664440022230501F03F
:101D1000C0FA05000E0002000B000A98099901F0B4
:101D2000FBFA00280AD00D9B2800013B31000D93DF
:101D30000022304B01F08FFA05000E00C6270D99E6
:101D40002B0063318F42BF4128997F420437090538
:101D500000D495E6334300D182E6099C284A21004D
:101D6000284B0A9801F0E6FA002808D0002221004A
:101D7000254B0A9801F0D0FA002800D070E6269B87
:101D8000002B00D17CE60E9B5A1E9341269AD31A53
:101D9000269375E6002304270D9371E643460A93C4
:101DA00080231B065344099342E6002326935FE6F3
:101DB00001FCFFFFFB799F501344D33FB3C8608BF6
:101DC000288AC63F0000F03F0000F83F61436F6380
:101DD000A787D23F71A379094F930A400000E03FE3
:101DE0001655B5BBB16B0240EF39FAFE422EE63F05
:101DF00000002C400000244000001840FF030000B9
:101E00002D431CEBE2361A3F80842E41F0B54E463E
:101E1000DE4657464546E0B597B09946209E219F3D
:101E2000229B8346984607910C923B00320030007B
:101E3000390001F08CFA002800D0ADE10122300019
:101E40003900CC4B524201F067FA002800D003E180
:101E5000012230003900C84B524201F073FA0028C9
:101E600000D0D9E0002230003900C44B01F06AFAFA
:101E7000002800D0BBE0002230003900C04B01F048
:101E80004BFA002800D0B2E00022002330003900D5
:101E900001F042FA002800D0D3E000230D93249BE8
:101EA0005B0501D40623984608AB9C461722002404
:101EB00030234146624404E0013413550139202C9B
:101EC00001D00929F8D888463000390001F06AFAB3
:101ED0004246AC4BD2009B181A685B68050008921A
:101EE000099301F047FA02000B003000390001F0BD
:101EF000A0F9089A099B01F0CCF90A900B9101F026
:101F000075FA824601F032FA02000B000A980B992A
:101F100001F08FF900229C4B0A900B9101F012FA0C
:101F2000002800D1E2E001239C46E244504601F043
:101F30001DFA02000B000898099901F0F3F9002836
:101F400002D000239A4601354346002B00D18BE096
:101F500008AB17269C4608956644554614E00123B5
:101F60005B4243440A2128009A4600F01FFF0134D7
:101F700030313719397028000A2100F017FF092D78
:101F800000D8D0E0D0460500202CE8D10EAB984612
:101F90000323249A1340012B00D0E8E0239A202346
:101FA000002A1DD00D9A002A00D0FDE024990C32A1
:101FB0000A4215D0239A013A2392239A9A4200D8D2
:101FC00005E108AA9446172130226144202B07D04E
:101FD00023980133CA54834200D1E9E0202BF7D182
:101FE000249A01930392239A434602921EE0249B73
:101FF00058460493239B00960197039343460C9AFB
:10200000029307994B46FFF7DBFC17B0F0BCBB46C9
:10201000B246A946A046F0BD249B5B070ED403221E
:102020005A4B2499019203912399029100935846A7
:102030004B460C9A0799FFF785FBE6E70422544BC1
:10204000EFE73B0032000020002101F0F2F801230D
:1020500006000F000D9322E7249B0393239B02931A
:10206000042301934B4BE1E7280001F083F90200C0
:102070000B003000390001F0DCF8434B0022060071
:102080000F0001F049F90EAB984600280AD1002252
:10209000300039003C4B01F055F9002802D1EB0724
:1020A00000D50135202C00D172E708AA94461723E9
:1020B000280063440A2101341E1900F04FFE30311C
:1020C000280031700A2100F049FE051EEAD10323E1
:1020D000249A1340012B6DD0202C48D00D9B002B4F
:1020E00014D02D224146631C0A5579E700220A9834
:1020F0000B99254B01F010F9002800D024E7534636
:10210000002B30D101239C46E2441DE7249B5B0752
:1021100024D4249A2300120700D461E720224146E8
:1021200001330A555CE75746089D202C00D12DE766
:10213000220030214046002F09D00132B154202A1C
:1021400000D123E7831A013BE318002BF5D10EAB36
:1021500098462E234146541C8B54A3E72B2241461C
:10216000631C0A553CE7DB0700D4EDE6CAE72023F1
:1021700036E7C046FFFFEFFFFFFFEF7F65CDCD41A4
:1021800065CDCDC1B04300100000E03F004200101B
:10219000F841001008420010249B0393239B0293F4
:1021A000032301930C4B41E7239A013A239217E74B
:1021B000040091E7239B002B8ED00D9B002B08D1B0
:1021C0000C2224992300114200D1F6E6F2E61C000D
:1021D00082E72300EEE6C04604420010F0B5DE467A
:1021E00057464E464546E0B5A1B01C002A9B924694
:1021F0000993B94AB94B81468B461A60002900D130
:102200002BE120780027002800D12DE1B44B5E4659
:102210000893B44B0C9309E03A00534631007D1CFF
:10222000C8472F0001342078002871D02528F3D129
:1022300010239B460C3B9846023B00229C460134EF
:10224000207825000300203BDBB2102B03D808992F
:102250009B00CB589F460300303B092B6BD90023D2
:1022600098462A2800D18AE000230A932E2800D11C
:1022700076E00300683BDBB2122B1CD89A499B0026
:10228000CB589F46012301341A43D9E763460134F2
:102290001A43D5E7434601341A43D1E75B4601347C
:1022A0001A43CDE7082301341A43C9E780235B00B2
:1022B00068781A43013567280AD824281DD90300F5
:1022C000253BDBB2422B18D80C999B00CB589F467C
:1022D0000300693BDBB20F2B0FD80121834C9940DF
:1022E000A4460C400B946446214200D002E20A2B23
:1022F00000D1E1E0072B00D1B8E07B1C98463A0002
:10230000534631006C1CC8472078474600288DD1C1
:10231000B3463C00BA4501D853465F1E53463A00C7
:1023200059460020C847200021B0F0BCBB46B24649
:10233000A946A046F0BD002301009800C018013551
:10234000400040182978030008003038303B092845
:10235000F3D99846002308000A932E2800D088E776
:1023600080236878DB001A430300303B691C092B8B
:1023700000D807E12A2800D116E10D0079E7099B72
:1023800002CB8846002903DB60780993651C6BE764
:1023900002210A4341464942884660780993651CF8
:1023A00062E768786C2800D123E280235B001A433F
:1023B000013580E780239B0068781A4301357AE76E
:1023C0006878682800D11AE2802301351A4372E741
:1023D000462800D18BE10721099B0492424607332E
:1023E0008B43190003920A9A484602920CC9009244
:1023F000019309913A0053463100FFF707FD6C1C29
:10240000070010E77B1C98463A0053463100252010
:10241000C84747466C1C06E7920700D431E2099B87
:102420003A0001CB31009B46C0B25346C8474346F1
:102430007C1C4744012B00D8FBE2A8464D462200F5
:102440005346013431002020A847BC42F7D1A946A9
:102450005B46454609936C1CE5E6254B207899467A
:102460000027002800D0D1E6002453E7099B19007B
:1024700008C98846002B00D1A6E021210A439346D3
:1024800010A98C461F220F21624409958C46150025
:102490000B9C02E0202C0CD0130060461840010079
:1024A0003731092800D80739013429551A090F2B6B
:1024B000F0D8099D0B9490E0099B02CB12930A9BE4
:1024C0008B46002B7AD108780221494200281AD085
:1024D00001315C4659440FE0DD210010C8050020A1
:1024E00010420010A0420010544200104190000021
:1024F000411700108C4203D063780134002BF9D1CE
:102500005B46E31A0B9380231100DB00194009910D
:102510001A4204D00A9B0B99994200D90B930223CB
:10252000190011400D91134200D18BE1002800D118
:1025300073E1099B002B00D142E10A9B3A009C46C3
:102540005B46BC44DB1B64469B464B460994A9464C
:102550001D0009E053463100571CA8475B46D85D73
:10256000002800D155E13A009442F3D12B004D46AA
:102570009946099F0D9B002B00D04EE1129B6C1CCD
:10258000099350E6002304009800C0180131400070
:1025900000190C78030020003038303B0928F3D9AB
:1025A00020000D000A9364E6099B023501CBC1436C
:1025B000C91708400A90099328785AE60878002835
:1025C000A1D00A9B591E83E71021100088431131C6
:1025D00008438346520500D452E75B46069308231E
:1025E00005930A9B3A00049310230393002302935C
:1025F0000B9B3100019318AB009348465346FFF7FD
:10260000E9F8434607006C1C09930CE620230100FF
:102610009943472904D180231B011A43022398437D
:10262000452801D120231A430721099B04924246E1
:1026300007338B43190003920A9A484602920CC949
:102640000092019309913A0053463100FFF7B8F91F
:102650006C1C0700E7E5622800D1F6E16F2800D185
:1026600032E1582800D1CFE010239A43063B0D9366
:10267000692800D024E10B92530546D501230B9A1B
:102680009A430B92692840D064283ED00B9A80234D
:1026900011009B0019408B461A4200D0DCE18023D8
:1026A00014005B001C401A4200D07BE213005B0662
:1026B00000D48BE1FF22099B02CB11408B4609938A
:1026C0005B46002B00D08CE10B9A1033110099432C
:1026D0000B91520500D484E100240B9B06934346E2
:1026E00005930A9B04930D9B0393002361E1202330
:1026F0001A4370E610230D937828ACD10C231100F7
:1027000099430B915205B9D4BCE70B9A8023110071
:102710009B0019408B461A4200D0D8E08023140059
:102720005B001C401A4200D0E2E113005B0600D5BA
:1027300027E1130009991B0600D495E208C91BB2D2
:10274000D8171A18424092B209919346DA0F1392A1
:10275000002B09D1802310220B99DB000B40914301
:102760000B91002B00D01BE10B9A6123920600D540
:102770004123DBB210A90A3B1F228C461293434629
:102780006244A84614970D9D5F461593B346160004
:102790000AE03033DBB201343355AF4200D24EE1B0
:1027A000202C00D14BE107002900380000F0FEFA90
:1027B000CBB20929EDD9129A94466344DBB2EAE719
:1027C0005B46DB1B9B460B9B4C4699465346AA46F1
:1027D0001D003A002B003100A0475B460137D85D51
:1027E0000028F6D14B460B932B00A14655469A463E
:1027F000C0E6C0239B00A8781A4302355BE5C023DE
:10280000A8781A43023556E520231A43103B0D934E
:1028100074E72B004D469946ACE60B9BBB469845AA
:1028200000D8ABE647445C46A8464D46FF1A220056
:102830005346013431002020A847BC42F7D1A946B5
:1028400045469BE60B9A531C904500D822E243462E
:10285000DB199C1A4B46A9461D003A005346013726
:1028600031002020A847A742F7D12B004D469946BA
:10287000434601330B935B461878002800D058E696
:102880007CE64346012B00D802E27C1E4444A84665
:102890004D463A005346013731002020A847A74251
:1028A000F7D1A9464546099B220001CB3100984645
:1028B000C0B25346C8474346671C09936C1CB2E438
:1028C000642800D1D7E619E708230D9316E70722FD
:1028D000099B07339343013294469C446246099214
:1028E0000CCB9C46DB1710931193109811990300A1
:1028F00053400E9364460B0063400F930E9B0F9C56
:102900001B1A8C410E930F946346DB0F1393002325
:102910009B4663461A433BD00B9A6123920600D52F
:102920004123DBB20A3B1293434610A91F228C4677
:10293000002415934B466244B14614971695270020
:102940000E9C0F9D90460D9E17930CE03032D2B234
:1029500043460137DA55AB4500D177E1202F00D14E
:1029600077E104000D00320000232000290000F070
:102970005FFAD2B2092AE9D9129B9C466244D2B2CC
:10298000E6E7FF22099908C913401A000991DCE61D
:102990000B9A10231100994300240B915205BBD5CB
:1029A0000B9B0693434605930A9B04930D9B03934D
:1029B000139B029318AB3A000194009331005346E5
:1029C0004846FEF707FF6C1C07002CE413001B06AB
:1029D00000D458E1099B04CB1204120C93460993CE
:1029E0006EE60B9A6123920600D5412310A91F229F
:1029F0008C46DBB262440A3B139714965F4616007E
:102A0000AB4612930D9D08E03033DBB201343355F1
:102A1000AF421DD3202C1BD007002900380000F046
:102A2000C5F9CBB20929EFD9129A94466344DBB2B7
:102A3000ECE75B46270009936C1CFFF7F4FB159B42
:102A400045465E469846149FAAE702230D9355E635
:102A50005D46139F149E40E60722099B073393436C
:102A6000013294469C44624609921A685B681000E1
:102A70009B4613005A46134307D10B9A103311009B
:102A800099430B91520500D526E60B9A61239206D5
:102A900000D54123DBB210A90A3B1F228C461293BA
:102AA000434662441397159500245D460700B346DC
:102AB00090460D9E14930DE03032D2B2434601345D
:102AC0001A550023AB4200D1D4E0202C00D1D4E031
:102AD00007000D00320000233800290000F0A8F99B
:102AE000D2B2092AE8D9129B9C466244D2B2E5E7E9
:102AF000099B1A0008CA1592DA179C185440DA0F7D
:102B00001492002B08D1802310220B99DB000B407C
:102B100091430B91002B2BD10B9A6123920600D588
:102B2000412310A91F228C46DBB262440A3B129754
:102B300013965F461600AB4609930D9D08E03033AF
:102B4000DBB20137F355AC420ED3202F0CD004007A
:102B50002900200000F02AF9CBB20929EFD9099AFF
:102B600094466344DBB2ECE75D46139EBB46129F7E
:102B70000B9B3A000693434605930A9B310004934E
:102B80000D9B48460393149B6C1C02935B46019378
:102B900018AB00935346FEF71DFE159B07000993E3
:102BA000FFF741FB099B10CB1493002C08D1802325
:102BB000DB0011001340102291430B91002B2BD10D
:102BC0000B9A6123920600D5412310A91F228C463F
:102BD000DBB262440A3B129713965F461600AB467F
:102BE00009930D9D08E03033DBB20137F355AC4259
:102BF0000ED3202F0CD004002900200000F0D6F8BE
:102C0000CBB20929EFD9099A94466344DBB2ECE7C9
:102C10005D46139EBB46129F0B9B3A0006934346AC
:102C200005930A9B310004930D9B484603930023B0
:102C300002935B46019318AB00935346FEF7CAFD1F
:102C4000149B070009936C1CFFF7EDFAA64200D80D
:102C500084E6159B0E940F959846179B3C004E46B4
:102C6000169D9946149F9BE608C9D8171A1842402A
:102C700009916AE5BE4200D827E7149B5E46984654
:102C8000139F159D29E5099B04CB9346099317E5EE
:102C90003C0008E60B93F0E500B585B003910121F7
:102CA00002900093034813004A4202A9FFF796FAE4
:102CB00005B000BDB119001010B5094A0300146831
:102CC00084B0002C08D0012200910648524203A98A
:102CD000A047012004B010BD01F04CF80020F9E736
:102CE000C8050020A119001001480421014B184714
:102CF000F0010020192D0010142310B501001888D0
:102D000004331B88984710BD162310B5010018889E
:102D100002331B88984710BDF8B54746CE4680B5AC
:102D20000F1E19D0142399460433040000250126F0
:102D300098464B461888434621681B88984701C42B
:102D4000431E9841013540420640AF42F1D1300068
:102D5000C0BCB946B046F8BD0126F8E7124A936FE9
:102D60009B0815D29066D166002905D0FFE7FFE7E2
:102D7000FFE7516F106F704704B580210906C21735
:102D80005140002800D0C84301F0DAF9002104BD09
:102D9000F0B5146E556E576F166FFFF7E3FF1466AC
:102DA000556657671667F0BD000000D0114A936F53
:102DB0009B0813D210665166002905D0FFE7FFE794
:102DC000FFE7516F106F704704B5002801D0002055
:102DD000C04301F0B5F9002104BDC046F0B5146E42
:102DE000556E576F166FFFF7E5FF14665566576708
:102DF0001667F0BD000000D094464E4A926F9208CC
:102E0000624601D230E0C046F0B54A4EB56F6D085B
:102E1000FCD3346E756E776F366F00F025F89446EC
:102E2000444A14665566576716676246F0BDC04649
:102E30009446404A926F9208624601D258E0C046DA
:102E4000F0B53C4EB56F6D08FCD3346E756E776F80
:102E5000366F00F04DF89446364A1466556657674B
:102E600016676246F0BDC046002B24DB11D0002956
:102E70003EDA00B5C943404200D1013100F038F8D4
:102E8000C943404200D10131DB43524200D10133FA
:102E900000BD002AEBD1002801D1002905D0002077
:102EA000C90FC90701D1C043410800B501F040F97D
:102EB0000022002300BD00B500290ADBDB4352429B
:102EC00000D1013300F014F8C943404200D1013170
:102ED00000BDC943404200D10131DB43524200D121
:102EE000013300F005F8DB43524200D1013300BD4D
:102EF000002923D1002B18D1002A0CD0BC460D4F3D
:102F000038667A6600210023FFE7FFE7FFE77A6F64
:102F1000386F67467047002801D00748010000B5A8
:102F200001F006F90022002300BD02000B00002082
:102F300000217047000000D0FFFFFFFF002B00D0F2
:102F4000BFE0130C28D1002AE7D080B4114F3966B6
:102F50007A66FFE7FFE730B4040C7B6F396F1B0420
:102F600023433B667A66FFE7FFE7FFE7C04684B28C
:102F70007B6F3D6F1B0423433B667A66FFE7FFE7E9
:102F8000C04600232C042D0C7A6F386F001969415C
:102F9000B0BC7047000000D0F0B594460025140E78
:102FA00001D112020835140F01D112010435940F1A
:102FB00001D192000235D40F01D152000135D40B5A
:102FC0000134254F7C66254C3C660E0C93B2FFE71E
:102FD000FFE7FFE73C6F6643360C7703BE4673435B
:102FE000DF0B5B04C01AB941130C7343DB18C91A19
:102FF000CE086643360CB64493B273431F0F1B01D1
:10300000C01AB941130C73431F0B1B05C01AB941F9
:10301000860D8F023E436643360C092D24DB520A8F
:103020007243801A7703460A6643360C16235B1BED
:10303000DE40DF40BF1964466643821B704604359C
:1030400006330100D940A840C01900D30131A24283
:1030500006D20023F0BD0000000000D0FFFFFFFFFC
:10306000121B0130F3D3F1E709277F1BFE406446B2
:10307000A2B27243801A00D20139220C7243130C9F
:103080001204821A99410B0070460435133701006F
:10309000F940A840801900D30131002B02D1A2428F
:1030A0000AD2F0BD013000D30131121BFAD2013B2C
:1030B000F8D1A24200D2F0BD013000D30131121B81
:1030C000F7E7F0B51C0C00D080E00CB400251C0A1A
:1030D00004D11B02160E3343120208351C0B04D117
:1030E0001B01160F3343120104359C0B04D19B00C6
:1030F000960F334392000235DC0B02D192185B41EC
:1031000001351C00971864410134464F7C66464CDB
:103110003C660E0CFFE7FFE7FFE7C0463C6F6643E7
:10312000360C7703BE4697B27743C01B00D20139F5
:10313000C01B00D201399FB27743C91BC91B170CB2
:1031400077437E04FF0B801BB941CE086643360CE3
:103150000C2D33DBB644120B1F053A431B0B97B201
:103160007743C01B00D201399FB27743C91B170CAC
:1031700077433E043F0C801BB941860D8F023E43CE
:10318000664329277F1BFE400C3D7746AF40BF19A1
:1031900030BCA2B2ABB272437343801A9941220C85
:1031A0007243130C1204801A994102000B0001377C
:1031B000001BA941F9D2781E0021F0BD0C277F1B0E
:1031C000FE4077467F0BAF40FF19E0E700245D1C0F
:1031D00007D0144F7D663966FFE7FFE7FFE7FFE79B
:1031E0003C6F95B29EB265436643401BB141150CDE
:1031F0001E0C6543664336042F0C3E432D04401BD2
:10320000B141994204D202000B0020000021F0BD20
:1032100001D19042F7D3801A994101349942F2D3F7
:10322000F6E70000000000D0FFFFFFFF48404140EC
:10323000484018B41B4B5B68FC46019308BD04DF93
:10324000CB34001018B4174B1B68FC46019308BD23
:1032500000DFD53400109446134A926F920809D2C9
:10326000624618B40F4BDB68FC46019308BD0CDFC7
:103270008D3700100C4AF0B5146E556E576F166FEF
:103280006246FFF7EEFF084A1466556657671667F1
:10329000F0BD18B4034B9B68FC46019308BD08DFE2
:1032A0003136001048030020000000D0FFB5504028
:1032B0004240504059404B40594000E0FFB5154F47
:1032C0004C00640D03D0BC4204D10C0314D8002080
:1032D000090D09055C00640D03D0BC4204D11C0338
:1032E0000AD800221B0D1B0501264B4009D44B4078
:1032F00003D58B4200D18242FFBD9942FCD190425E
:10330000FFBD0B43DB1803431343F5D0C9434918F2
:10331000FFBD0000FF07000000B5FFF7CFFF8041B1
:1033200000BDC04600B5FFF7C9FF01D9002000BDB0
:10333000012000BD00B5FFF7B9FF01D9002000BD95
:10334000012000BD00B5FFF7B1FF804100BD0120A5
:1033500040054A00121804D85A00121801D800205B
:1033600070470120704700207047000000210028AE
:1033700005D17047C1174840401AFAD0C90713B5A4
:10338000064B1B6898470CBC441CA2401005120B4E
:103390000349091B09051943114310BDF405002019
:1033A0001F04000010B54C00620D8023D218DB0012
:1033B000D21A5B057E2A10DD9E3A13DACC17090378
:1033C000490819435242D140640001341532202A81
:1033D00005DAD0400843604310BD002010BD084608
:1033E000604310BDC80FC018013810BD18B4044B9D
:1033F0005B6AFC46019308BD24DF3D3900100000E4
:1034000048030020132370B51D78012D15D010DD61
:103410001C48FFF779FC1C4C01008022200000F0C2
:1034200041FB022D06D01948FFF766FC184B1860C7
:1034300070BD154C174BA364F5E7164B124C236077
:103440006360A360E36023616361A361E36123625E
:103450006362A362E36223636363A363E36323643E
:103460006364A364E36423656365A365E36523661E
:103470006366A366E36623676367A367E367A36482
:10348000D1E7C04653440000480300204C330000FD
:10349000F40500209934001007B5604601880A0A37
:1034A0000230DF2AFAD1C9B2820804D302884088E8
:1034B0000004104300E00068014A5050039007BD2B
:1034C000480300200FB403BC0CBCF0B50124E40792
:1034D000634000E0F0B50C0DCF0F661E3605891B6A
:1034E000640503D3C943404200D30131640D03D0C6
:1034F000661CF60A07D0E41B00207F00791C8907B0
:103500008912803C24031D0DDF0F6E1E36059B1BA8
:103510006D0503D3DB43524200D301336D0D03D05D
:103520006E1CF60A07D0ED1B00227F007B1C9B0758
:103530009B12803D2D032F1B661B58D4A446202EC2
:1035400046DA20371400BC401D00BD40F240334134
:103550002A4380185941CB0F05D0C943C0430022EC
:1035600064425041514162464D0D28D10D0D07D1A5
:1035700000281FD0241940414941013A0D0DF9D0CE
:10358000640006D3013000D30131002C01D1400882
:103590004000013A0BD4941CE40A04D112051144F2
:1035A000DB071944F0BDD907204B194300E0D907C8
:1035B0000020F0BD0029DDD1002CDBD1F0BD0132AF
:1035C000C6074008CD0728434908002EE1D0D9E7B7
:1035D0003C2E29DA203E40371400BC4000D00124A4
:1035E000F24014431A00BB401C43D317ACE7AC466F
:1035F000202F08DA20360400B4400D00B540F84012
:1036000039412843A5E73C2F0CDA203F403604001F
:10361000B44000D00124F84004430800B1400C43FA
:10362000C117EAE710001900002494E70000F07FBA
:10363000F0B50C0D661E3605891BE60A6405640D9F
:1036400002D0651CED0A04D0002001210905803C50
:103650002403A4461C0D671E3F05DB1BE70A640517
:10366000640D02D0651CED0A04D0002201231B0565
:10367000803C24037740644497B484B296B2744388
:10368000070C7E43150C6F4380B26843361802D393
:10369000012000043F183004350C00197D41844698
:1036A00088B29AB250430C0C62431F0C7C438EB21A
:1036B0007E43921902D301263604A4191604170C6E
:1036C0003618674101BC81B29AB25143040C62437F
:1036D0001B0C5C4380B25843121802D30120000433
:1036E00024181004130C401863412D185E4100206B
:1036F000474106BC88B293B258430C0C6343120C8A
:10370000544389B251435B1802D301210904641860
:1037100019041A0C091862416D18564100204741DE
:1037200018BCF902720D1143F0026A0D1043ED024C
:103730000A0D03D16D1940414941013B124E9B1BBB
:103740007600B3420ED26D0007D3013000267141DE
:103750006646354301D1400840001B05C918E407FF
:103760002144F0BD0BDA013306D1013004D101311F
:103770004F0D01D04908F2E7E1070020F0BD013606
:1037800031050020EBE70000FF030000F0B51C0D41
:10379000671E3F05DB1BE70A6405640D02D0661C4B
:1037A000F60A04D0002201231B05803C2403D02507
:1037B0002D060026F6432E661E096E66CE0FF619FC
:1037C000B44649004F0D02D07E1CF60A03D00020FB
:1037D0000021403F3F033E1BB600B444013F7F053C
:1037E000C91B49082E6F013676089C02950D2543AA
:1037F0007543ED137543AD1301356D10F603761B5C
:103800000CB4CC02450D2C43A2B2B3B25A43270CE0
:103810007B43350C6F43A4B26C431B1902D30124C4
:1038200024043F191C041D0CA4187D4124196D416A
:10383000009A91B2ACB26143170C7C432B0C5F43EE
:1038400092B25A43A41802D301221204BF182204D0
:10385000230C52187B41019C6C431B19520ED90159
:103860000A434401A01A81B2B2B2514303145A432D
:10387000360C734387B27743D617D21900277E419F
:1038800036049B191704160C7F185E417316ED1849
:10389000F301002680337541A90F06D16400690A3F
:1038A000E8055B0A184309D22FE0042294448033D0
:1038B0007541A90AA8059B0A184326D340414941EE
:1038C0002404009A019B0D005543641B4343E41AF2
:1038D00095B286B27543170C7E43030C5F4392B2D8
:1038E0005A43B61802D301221204BF183204330C13
:1038F00052197B4152429C41002C02D400220130DB
:1039000051414008CA071043490802B06246D70730
:103910009210084BD218084B9A4203D2120589180C
:10392000C919F0BD0020002A01DC3900F0BD0133C7
:103930001905F5E7FD030000FE070000002200B5B1
:10394000203200F004F8080000BD000000220B1532
:103950000AD410B5944600F031F81414013400DA9A
:103960000021CB17144C20470020002170476244EF
:10397000343A0CD40C2A07DA0400914090405242A9
:103980002032D440214310BDD843D94310BD20324A
:1039900007D40C469440524220321141D04020437B
:1039A00010BD0800C917203203D452422032104102
:1039B00010BD1800190010BD6F3900100A0DCC0F92
:1039C000531E1B05C91A520503D3C943404200D3F5
:1039D0000131520D03D0531CDB0A07D0121B00200B
:1039E0006400611C89078912803A1203014BD21AC4
:1039F00070470000FF030000132310B512481C7825
:103A0000FFF782F90100012C0AD003DD80220F4864
:103A100000F048F80E48FFF76FF90E4B186010BD24
:103A20000A4C5422200000F03DF80B4B6365A3655F
:103A3000E36523666366A366E36623676367A3673C
:103A4000E3672362E361E5E7534600004804002092
:103A50004C330000F40500205D3A001007B56046C5
:103A600001880A0A0230DF2AFAD1C9B2820804D3D7
:103A7000028840880004104300E00068014A50506A
:103A8000039007BD4804002001480421014B18475A
:103A900000020020192D0010014B1B681847000080
:103AA00000020020014B5B68184700000002002064
:103AB000030010B5080011001B68984710BDC046F0
:103AC000F0B546464F46D646C0B5437C80460E000C
:103AD0001700002B46D0002A3FDD4B1E9946244B91
:103AE0000125002400209A460DE04B461B5D0D3B4E
:103AF0005A425341325DDBB20A2A0BD02B0001340B
:103B000001359F421ADD002CEFD14346325D1B7C0C
:103B10000A2AF3D1002BF1D1A04204DA4346211A3C
:103B20001B6830189847434650461B680221984747
:103B3000013428002B0001359F42E4DC874204DD7C
:103B40004346391A1B6830189847F619013E3378F6
:103B50000D3B5A42534142461374E0BCBA46B1464B
:103B6000A846F0BD0368110030009847F5E7C0464D
:103B7000A8440010F0B5C6460B6806000C0000B55E
:103B8000802B06D05A1C2260E418267180BCB846EF
:103B9000F0BD0F4B1D68002D16D00B1D98460D4F24
:103BA00002E0ED68002D0FD02B68002BF9D03B68A8
:103BB000002B01D0AB42F4D1280041462268FFF728
:103BC0007FFFED68002DEFD101220023DBE7C04627
:103BD000C0050020C4050020F0B557464E464546B6
:103BE000DE461C00D023E0B51B061F68344B83B0B3
:103BF00006000D00180001A991469A4600F0A8FAA7
:103C00008046002808D1019B7FB29F4204D05046D5
:103C100000F0A6FA012398466B1C03D1300000F097
:103C20004DFA0500002C27D1264F274B1C68002C8D
:103C300018D04B46002B21D1244B994602E0E46872
:103C4000002C0FD02368002BF9D04B461B68002BAB
:103C500001D0A342F3D120002A003100B847E46824
:103C6000002CEFD14346002B25D103B0F0BCBB465E
:103C7000B246A946A046F0BD154FD6E7134B99466C
:103C80000A239B4602E0E468002CEBD02368002B5B
:103C9000F9D04B461B68002B01D0A342F3D12A0078
:103CA00031002000B8475A466B4620001A7101A91E
:103CB0000122B847E7E7504600F032FAD5E7C046A0
:103CC0002C020020C13A0010C0050020C4050020CD
:103CD000B13A0010F0B5CE46474680B583B06B468A
:103CE000DE1CD02330701B061C681F4B804601A9C8
:103CF0001800994600F02CFA071E20D01B4B1C68B8
:103D0000002C28D01A4D02E0E468002C0FD0236864
:103D1000002BF9D02B68002B01D0A342F4D1200056
:103D200001223100FFF7CCFEE468002CEFD1002F18
:103D300011D1404603B0C0BCB946B046F0BD019BAE
:103D400064B29C420BD0484600F00AFA074B0127A8
:103D50001C68002CD6D1484600F0E2F9E9E7034B95
:103D60001C68002CCED1E4E72C020020C005002006
:103D7000C405002070B5040000F0A0F90023010084
:103D8000050001222000FFF727FF084B1C68002CCC
:103D900006D06368002B05D09847E468002CF8D162
:103DA000280070BDE468002CF3D1F9E7C0050020BD
:103DB0000D4A1368002B13D0834202D109E09842C8
:103DC00008D01A00DB68002BF9D1002900D0D060A0
:103DD00070471A000029FBD1DB68D360C160F7E7A8
:103DE0000029F5D01060F3E7C0050020F0B5474684
:103DF000CE46D02380B51B061F682D4BA3B0040010
:103E00000D00180001A9984600F0A2F9061E07D17E
:103E1000019B7FB29F4203D0404600F0A1F90136DA
:103E20008422002101A8FFF737FE2B002200214841
:103E300001A9FEF731FF019B0700002B14D11E4B97
:103E40001C68002C06D06368002B0BD09847E468F0
:103E5000002CF8D1002E25D1380023B0C0BCB946C3
:103E6000B046F0BDE468ECE7134B1D689946002DA1
:103E70001CD0124C02E0ED68002D0FD02B68002BF7
:103E8000F9D02368002B01D0AB42F4D12800019A6D
:103E900002A9FFF715FEED68002DEFD14B46019505
:103EA0001C68CEE7404600F03BF9D5E70195D1E725
:103EB0002C020020753B0010C0050020C405002026
:103EC0000FB400B583B004A901C90191FFF78EFFBB
:103ED00003B008BC04B0184710B500F043F810BD9B
:103EE000F0B50D1E15DD0E4B0E491A680E4B0D2751
:103EF000D3185C4263415B005E5E20214519047863
:103F0000A64207D093691942FCD101301460A8423F
:103F1000F5D1F0BD93691942FCD11760F2E7C046B4
:103F2000100600200C0600200080FCBF30B5050004
:103F3000002912DD00201024094B013D1A68936905
:103F40001C4208D1013093691C42FCD113682B54E8
:103F50008142F4D130BD0028FCD103204042F9E772
:103F600010060020E12110B50B4B0C481B780C4BC0
:103F700049021B780B4B1860FCF786FA02210020DF
:103F8000FCF726FA02210120FCF722FA012106485B
:103F9000FFF70EFF10BDC0460C4500100040034067
:103FA00010450010100600201002002003BDC0467E
:103FB00010B50400FDF746FBA04710BDD02202213A
:103FC0001206136D1942FCD0506540BF7047C046C1
:103FD000D0221206136DDB0704D4012120BF136D1C
:103FE0001942FBD0D0231B06986D7047F0B5040032
:103FF00087B00F200E001700FDF7B2F90021050071
:104000000F20FDF79BF9002300220092019301236A
:104010000293D02304960594002600240121022057
:1040200003971B06002C14D01A6D1042FCD05C655F
:1040300040BF1A6D114203D120BF1A6D1142FBD04F
:104040009A6DA2420AD000266C46B200A458E9E755
:104050009A6D1A6D1142FBD140BFE5E70136062E7D
:10406000F2D129000F20FDF769F907B0F0BDC04675
:104070000B4B0C4A10B5934201D201235B4219004D
:10408000094A985004329B50084B094A09488B5002
:10409000094B9A68044B9C466144FFF7A7FF10BD8B
:1040A0000008042000000420F4070000B13F0010C5
:1040B000FC070000AD3F001000ED00E010B58307E5
:1040C0000AD00300032102E001330B4205D01A7825
:1040D000002AF9D1181A10BD030019680C4A0D4CBA
:1040E0008A188A4322420FD15968094A04338A1830
:1040F0008A43224208D15968054A04338A188A4300
:104100002242F1D000E001331A78002AFBD1E1E726
:10411000FFFEFEFE80808080F8B5C04600000000F3
:1041200001B40248844601BC604700BF4D01002035
:1041300001B40248844601BC604700BF75010020FD
:1041400001B40248844601BC604700BF75010020ED
:1041500001B40248844601BC604700BF0901002049
:1041600001B40248844601BC604700BFC100002082
:1041700048656C6C6F2C206D756C7469636F72652B
:104180005F72756E6E657221000000004661637497
:104190006F7269616C2025642069732025640A00B0
:1041A0004669626F6E6163636920256420697320CC
:1041B00025640A00486172647761726520616C61F0
:1041C000726D20256420616C726561647920636C76
:1041D00061696D65640000000A2A2A2A2050414E58
:1041E0004943202A2A2A0A000A0000004861726412
:1041F0002061737365727400666E692B00000000A5
:10420000666E69006E616E00666E692D00000000CA
:10421000A422001056220010562200109C220010EA
:10422000562200105622001056220010562200106E
:104230005622001056220010562200109422001020
:10424000562200108C220010562200105622001018
:1042500084220010C0230010B6220010B4230010E6
:10426000B6220010A2230010B6220010B6220010C1
:10427000B6220010B6220010B6220010B62200109E
:10428000B6220010AC220010B6220010B622001098
:10429000B6220010B6220010B6220010AC22001088
:1042A00004240010FA220010FA220010FA22001052
:1042B000FA220010FA220010FA220010FA2200104E
:1042C000FA220010FA220010FA220010FA2200103E
:1042D000FA220010FA220010FA220010FA2200102E
:1042E000FA220010FA220010FA220010FA2200101E
:1042F000FA220010FA220010FA220010FA2200100E
:10430000FA220010FA220010FA220010FA220010FD
:10431000FA220010FA220010FA220010FA220010ED
:104320000C260010D02300100C260010FA220010DA
:10433000FA220010FA220010FA220010FA220010CD
:10434000FA220010FA220010FA220010FA220010BD
:10435000FA220010FA220010FA220010FA220010AD
:10436000FA220010FA220010FA220010562600103D
:10437000FA220010FA220010FA220010FA2200108D
:10438000FA220010FA220010FA220010FA2200107D
:10439000FA2200105626001018240010562600108D
:1043A0000C260010D02300100C2600100000000086
:1043B000000000000000F03F00000000000024406A
:1043C00000000000000059400000000000408F4045
:1043D000000000000088C34000000000006AF840B0
:1043E0000000000080842E4100000000D0126341D4
:1043F0000000000084D797410000000065CDCD414A
:1044000052656C6561736500626F6F74325F7732FD
:10441000357130383000000068747470733A2F2F93
:104420006769746875622E636F6D2F726173706255
:104430006572727970692F7069636F2D6170707326
:104440002F747265652F484541442F6578616D7002
:104450006C65732F6D756C74695F6300312E332E3C
:10446000300000007069636F000000004D61722031
:10447000203720323032320006005250BBFF3CB6AB
:1044800064440010060052509A2356181844001035
:1044900006005250E182887F084400100600525006
:1044A000D3F07542004400100D0A000055415254EB
:1044B00020737464696E0000554152542073746413
:1044C0006F7574005541525420737464696E202FC7
:1044D000207374646F7574000600525053B4F4A1D5
:0C44E000C444001008005250920000007C
:1044EC00B4020010A80200109C02001078440010C6
:1044FC009002001084440010904400109C44001062
:08450C00D8440010E444001043
:10451400D02330B500251B0600245D5706E0036850
:10452400BFF35F8F1C6081F3108820BF0268EFF334
:10453400108172B61368002BFCD0BFF35F8F037930
:104544007F2BECD905710368BFF35F8F00221A60DB
:1045540081F3108830BDC04603000068EFF3108C6F
:1045640072B60268002AFCD0BFF35F8F04229A5609
:10457400002A0BDB00290FD000200A601B68BFF360
:104584005F8F00221A608CF310887047D0221206C5
:10459400126801201A71F1E70020EFE70268EFF3D7
:1045A400108172B61368002BFCD0BFF35F8FFF231A
:1045B40003710368BFF35F8F00221A6081F31088D0
:1045C40040BF70477047C0461000000094010020AF
:1045D40000000000480200208005002000000000C8
:1045E4000000000090050020000000000000000012
:1045F40010000000000000000000010000000000A6
:1046040000000000000002000000000000000000A4
:104614000000030000000000000000000000FF0094
:104624000000000000B5486801318E46004770461E
:1046340009380149884700BD9115001000000000A9
:10464400503300004C330000543300005233000058
:104654004D5300004D430000533400004334000028
:10466400E13E0010000000002D3F0010000000009B
:104674000001000000000000000000000000000035
:1046840000000000893A0010E92C001005340010E5
:08469400F9390010ED020010DD
:04000005100001E9FD
:00000001FF
