
C:/Users/hp/pico-apps/build/labs/lab10/lab10.elf:     file format elf32-littlearm

Sections:
Idx Name          Size      VMA       LMA       File off  Algn
  0 .boot2        00000100  10000000  10000000  00001000  2**0
                  CONTENTS, ALLOC, LOAD, READONLY, CODE
  1 .text         00001a08  10000100  10000100  00001100  2**4
                  CONTENTS, ALLOC, LOAD, READONLY, CODE
  2 .rodata       000000ec  10001b08  10001b08  00002b08  2**2
                  CONTENTS, ALLOC, LOAD, READONLY, DATA
  3 .binary_info  00000020  10001bf4  10001bf4  00002bf4  2**2
                  CONTENTS, ALLOC, LOAD, DATA
  4 .ram_vector_table 000000c0  20000000  20000000  0000322c  2**2
                  CONTENTS
  5 .data         0000016c  200000c0  10001c14  000030c0  2**4
                  CONTENTS, ALLOC, LOAD, CODE
  6 .uninitialized_data 00000000  2000022c  2000022c  000032ec  2**0
                  CONTENTS
  7 .scratch_x    00000000  20040000  20040000  000032ec  2**0
                  CONTENTS
  8 .scratch_y    00000000  20041000  20041000  000032ec  2**0
                  CONTENTS
  9 .bss          000003c8  20000230  20000230  00003230  2**3
                  ALLOC
 10 .heap         00000800  200005f8  200005f8  000032ec  2**2
                  CONTENTS, READONLY
 11 .stack_dummy  00000800  20041000  20041000  00003b00  2**5
                  CONTENTS, READONLY
 12 .ARM.attributes 00000028  00000000  00000000  00004300  2**0
                  CONTENTS, READONLY
 13 .comment      00000057  00000000  00000000  00004328  2**0
                  CONTENTS, READONLY
 14 .debug_line   0000022b  00000000  00000000  0000437f  2**0
                  CONTENTS, READONLY, DEBUGGING, OCTETS
 15 .debug_line_str 00000053  00000000  00000000  000045aa  2**0
                  CONTENTS, READONLY, DEBUGGING, OCTETS
 16 .debug_info   0000010f  00000000  00000000  000045fd  2**0
                  CONTENTS, READONLY, DEBUGGING, OCTETS
 17 .debug_abbrev 000000a4  00000000  00000000  0000470c  2**0
                  CONTENTS, READONLY, DEBUGGING, OCTETS
 18 .debug_aranges 00000040  00000000  00000000  000047b0  2**3
                  CONTENTS, READONLY, DEBUGGING, OCTETS
 19 .debug_str    00000283  00000000  00000000  000047f0  2**0
                  CONTENTS, READONLY, DEBUGGING, OCTETS
 20 .debug_loclists 0000005e  00000000  00000000  00004a73  2**0
                  CONTENTS, READONLY, DEBUGGING, OCTETS
 21 .debug_rnglists 00000013  00000000  00000000  00004ad1  2**0
                  CONTENTS, READONLY, DEBUGGING, OCTETS
 22 .debug_frame  00000028  00000000  00000000  00004ae4  2**2
                  CONTENTS, READONLY, DEBUGGING, OCTETS

C:/Users/hp/pico-apps/build/labs/lab10/lab10.elf:     file format elf32-littlearm


Disassembly of section .boot2:

10000000 <__boot2_start__>:
10000000:	4b32b500 	.word	0x4b32b500
10000004:	60582021 	.word	0x60582021
10000008:	21026898 	.word	0x21026898
1000000c:	60984388 	.word	0x60984388
10000010:	611860d8 	.word	0x611860d8
10000014:	4b2e6158 	.word	0x4b2e6158
10000018:	60992100 	.word	0x60992100
1000001c:	61592102 	.word	0x61592102
10000020:	22f02101 	.word	0x22f02101
10000024:	492b5099 	.word	0x492b5099
10000028:	21016019 	.word	0x21016019
1000002c:	20356099 	.word	0x20356099
10000030:	f844f000 	.word	0xf844f000
10000034:	42902202 	.word	0x42902202
10000038:	2106d014 	.word	0x2106d014
1000003c:	f0006619 	.word	0xf0006619
10000040:	6e19f834 	.word	0x6e19f834
10000044:	66192101 	.word	0x66192101
10000048:	66182000 	.word	0x66182000
1000004c:	f000661a 	.word	0xf000661a
10000050:	6e19f82c 	.word	0x6e19f82c
10000054:	6e196e19 	.word	0x6e196e19
10000058:	f0002005 	.word	0xf0002005
1000005c:	2101f82f 	.word	0x2101f82f
10000060:	d1f94208 	.word	0xd1f94208
10000064:	60992100 	.word	0x60992100
10000068:	6019491b 	.word	0x6019491b
1000006c:	60592100 	.word	0x60592100
10000070:	481b491a 	.word	0x481b491a
10000074:	21016001 	.word	0x21016001
10000078:	21eb6099 	.word	0x21eb6099
1000007c:	21a06619 	.word	0x21a06619
10000080:	f0006619 	.word	0xf0006619
10000084:	2100f812 	.word	0x2100f812
10000088:	49166099 	.word	0x49166099
1000008c:	60014814 	.word	0x60014814
10000090:	60992101 	.word	0x60992101
10000094:	2800bc01 	.word	0x2800bc01
10000098:	4700d000 	.word	0x4700d000
1000009c:	49134812 	.word	0x49134812
100000a0:	c8036008 	.word	0xc8036008
100000a4:	8808f380 	.word	0x8808f380
100000a8:	b5034708 	.word	0xb5034708
100000ac:	20046a99 	.word	0x20046a99
100000b0:	d0fb4201 	.word	0xd0fb4201
100000b4:	42012001 	.word	0x42012001
100000b8:	bd03d1f8 	.word	0xbd03d1f8
100000bc:	6618b502 	.word	0x6618b502
100000c0:	f7ff6618 	.word	0xf7ff6618
100000c4:	6e18fff2 	.word	0x6e18fff2
100000c8:	bd026e18 	.word	0xbd026e18
100000cc:	40020000 	.word	0x40020000
100000d0:	18000000 	.word	0x18000000
100000d4:	00070000 	.word	0x00070000
100000d8:	005f0300 	.word	0x005f0300
100000dc:	00002221 	.word	0x00002221
100000e0:	180000f4 	.word	0x180000f4
100000e4:	a0002022 	.word	0xa0002022
100000e8:	10000100 	.word	0x10000100
100000ec:	e000ed08 	.word	0xe000ed08
	...
100000fc:	7a4eb274 	.word	0x7a4eb274

Disassembly of section .text:

10000100 <__VECTOR_TABLE>:
10000100:	20042000 	.word	0x20042000
10000104:	100001f7 	.word	0x100001f7
10000108:	100001c3 	.word	0x100001c3
1000010c:	100001c5 	.word	0x100001c5
10000110:	100001c1 	.word	0x100001c1
10000114:	100001c1 	.word	0x100001c1
10000118:	100001c1 	.word	0x100001c1
1000011c:	100001c1 	.word	0x100001c1
10000120:	100001c1 	.word	0x100001c1
10000124:	100001c1 	.word	0x100001c1
10000128:	100001c1 	.word	0x100001c1
1000012c:	100001c7 	.word	0x100001c7
10000130:	100001c1 	.word	0x100001c1
10000134:	100001c1 	.word	0x100001c1
10000138:	100001c9 	.word	0x100001c9
1000013c:	100001cb 	.word	0x100001cb
10000140:	100001cd 	.word	0x100001cd
10000144:	100001cd 	.word	0x100001cd
10000148:	100001cd 	.word	0x100001cd
1000014c:	100001cd 	.word	0x100001cd
10000150:	100001cd 	.word	0x100001cd
10000154:	100001cd 	.word	0x100001cd
10000158:	100001cd 	.word	0x100001cd
1000015c:	100001cd 	.word	0x100001cd
10000160:	100001cd 	.word	0x100001cd
10000164:	100001cd 	.word	0x100001cd
10000168:	100001cd 	.word	0x100001cd
1000016c:	100001cd 	.word	0x100001cd
10000170:	100001cd 	.word	0x100001cd
10000174:	100001cd 	.word	0x100001cd
10000178:	100001cd 	.word	0x100001cd
1000017c:	100001cd 	.word	0x100001cd
10000180:	100001cd 	.word	0x100001cd
10000184:	100001cd 	.word	0x100001cd
10000188:	100001cd 	.word	0x100001cd
1000018c:	100001cd 	.word	0x100001cd
10000190:	100001cd 	.word	0x100001cd
10000194:	100001cd 	.word	0x100001cd
10000198:	100001cd 	.word	0x100001cd
1000019c:	100001cd 	.word	0x100001cd
100001a0:	100001cd 	.word	0x100001cd
100001a4:	100001cd 	.word	0x100001cd
100001a8:	100001cd 	.word	0x100001cd
100001ac:	100001cd 	.word	0x100001cd
100001b0:	100001cd 	.word	0x100001cd
100001b4:	100001cd 	.word	0x100001cd
100001b8:	100001cd 	.word	0x100001cd
100001bc:	100001cd 	.word	0x100001cd

100001c0 <isr_invalid>:
100001c0:	be00      	bkpt	0x0000

100001c2 <isr_nmi>:
100001c2:	be00      	bkpt	0x0000

100001c4 <isr_hardfault>:
100001c4:	be00      	bkpt	0x0000

100001c6 <isr_svcall>:
100001c6:	be00      	bkpt	0x0000

100001c8 <isr_pendsv>:
100001c8:	be00      	bkpt	0x0000

100001ca <isr_systick>:
100001ca:	be00      	bkpt	0x0000

100001cc <__unhandled_user_irq>:
100001cc:	f000 f84b 	bl	10000266 <__get_current_exception>
100001d0:	3810      	subs	r0, #16

100001d2 <unhandled_user_irq_num_in_r0>:
100001d2:	be00      	bkpt	0x0000

100001d4 <binary_info_header>:
100001d4:	7188ebf2 	.word	0x7188ebf2
100001d8:	10001bf4 	.word	0x10001bf4
100001dc:	10001c14 	.word	0x10001c14
100001e0:	10000234 	.word	0x10000234
100001e4:	e71aa390 	.word	0xe71aa390

100001e8 <_entry_point>:
100001e8:	2000      	movs	r0, #0
100001ea:	4921      	ldr	r1, [pc, #132]	; (10000270 <__get_current_exception+0xa>)
100001ec:	6008      	str	r0, [r1, #0]
100001ee:	c806      	ldmia	r0!, {r1, r2}
100001f0:	f381 8808 	msr	MSP, r1
100001f4:	4710      	bx	r2

100001f6 <_reset_handler>:
100001f6:	481f      	ldr	r0, [pc, #124]	; (10000274 <__get_current_exception+0xe>)
100001f8:	6800      	ldr	r0, [r0, #0]
100001fa:	2800      	cmp	r0, #0
100001fc:	d12f      	bne.n	1000025e <hold_non_core0_in_bootrom>
100001fe:	a40d      	add	r4, pc, #52	; (adr r4, 10000234 <data_cpy_table>)
10000200:	cc0e      	ldmia	r4!, {r1, r2, r3}
10000202:	2900      	cmp	r1, #0
10000204:	d002      	beq.n	1000020c <_reset_handler+0x16>
10000206:	f000 f812 	bl	1000022e <data_cpy>
1000020a:	e7f9      	b.n	10000200 <_reset_handler+0xa>
1000020c:	491a      	ldr	r1, [pc, #104]	; (10000278 <__get_current_exception+0x12>)
1000020e:	4a1b      	ldr	r2, [pc, #108]	; (1000027c <__get_current_exception+0x16>)
10000210:	2000      	movs	r0, #0
10000212:	e000      	b.n	10000216 <bss_fill_test>

10000214 <bss_fill_loop>:
10000214:	c101      	stmia	r1!, {r0}

10000216 <bss_fill_test>:
10000216:	4291      	cmp	r1, r2
10000218:	d1fc      	bne.n	10000214 <bss_fill_loop>

1000021a <platform_entry>:
1000021a:	4919      	ldr	r1, [pc, #100]	; (10000280 <__get_current_exception+0x1a>)
1000021c:	4788      	blx	r1
1000021e:	4919      	ldr	r1, [pc, #100]	; (10000284 <__get_current_exception+0x1e>)
10000220:	4788      	blx	r1
10000222:	4919      	ldr	r1, [pc, #100]	; (10000288 <__get_current_exception+0x22>)
10000224:	4788      	blx	r1
10000226:	be00      	bkpt	0x0000
10000228:	e7fd      	b.n	10000226 <platform_entry+0xc>

1000022a <data_cpy_loop>:
1000022a:	c901      	ldmia	r1!, {r0}
1000022c:	c201      	stmia	r2!, {r0}

1000022e <data_cpy>:
1000022e:	429a      	cmp	r2, r3
10000230:	d3fb      	bcc.n	1000022a <data_cpy_loop>
10000232:	4770      	bx	lr

10000234 <data_cpy_table>:
10000234:	10001c14 	.word	0x10001c14
10000238:	200000c0 	.word	0x200000c0
1000023c:	2000022c 	.word	0x2000022c
10000240:	10001d80 	.word	0x10001d80
10000244:	20040000 	.word	0x20040000
10000248:	20040000 	.word	0x20040000
1000024c:	10001d80 	.word	0x10001d80
10000250:	20041000 	.word	0x20041000
10000254:	20041000 	.word	0x20041000
10000258:	00000000 	.word	0x00000000
1000025c:	4770      	bx	lr

1000025e <hold_non_core0_in_bootrom>:
1000025e:	480b      	ldr	r0, [pc, #44]	; (1000028c <__get_current_exception+0x26>)
10000260:	f001 f9a6 	bl	100015b0 <rom_func_lookup>
10000264:	4700      	bx	r0

10000266 <__get_current_exception>:
10000266:	f3ef 8005 	mrs	r0, IPSR
1000026a:	b2c0      	uxtb	r0, r0
1000026c:	4770      	bx	lr
1000026e:	0000      	.short	0x0000
10000270:	e000ed08 	.word	0xe000ed08
10000274:	d0000000 	.word	0xd0000000
10000278:	20000230 	.word	0x20000230
1000027c:	200005f8 	.word	0x200005f8
10000280:	10000d95 	.word	0x10000d95
10000284:	10000311 	.word	0x10000311
10000288:	10000e85 	.word	0x10000e85
1000028c:	00005657 	.word	0x00005657

10000290 <__bi_50>:
10000290:	50520006 5360b3ab 10001ba4              ..RP..`S....

1000029c <__bi_38>:
1000029c:	50520006 02031c86 10001b9c              ..RP........

100002a8 <__bi_30>:
100002a8:	50520006 9da22254 10001bb4              ..RPT"......

100002b4 <__bi_22>:
100002b4:	50520005 68f465de 10001d80              ..RP.e.h....

100002c0 <_init>:
100002c0:	b5f8      	push	{r3, r4, r5, r6, r7, lr}
100002c2:	46c0      	nop			; (mov r8, r8)

100002c4 <register_tm_clones>:
100002c4:	4806      	ldr	r0, [pc, #24]	; (100002e0 <register_tm_clones+0x1c>)
100002c6:	4907      	ldr	r1, [pc, #28]	; (100002e4 <register_tm_clones+0x20>)
100002c8:	1a09      	subs	r1, r1, r0
100002ca:	108b      	asrs	r3, r1, #2
100002cc:	0fc9      	lsrs	r1, r1, #31
100002ce:	18c9      	adds	r1, r1, r3
100002d0:	b510      	push	{r4, lr}
100002d2:	1049      	asrs	r1, r1, #1
100002d4:	d003      	beq.n	100002de <register_tm_clones+0x1a>
100002d6:	4b04      	ldr	r3, [pc, #16]	; (100002e8 <register_tm_clones+0x24>)
100002d8:	2b00      	cmp	r3, #0
100002da:	d000      	beq.n	100002de <register_tm_clones+0x1a>
100002dc:	4798      	blx	r3
100002de:	bd10      	pop	{r4, pc}
100002e0:	2000022c 	.word	0x2000022c
100002e4:	2000022c 	.word	0x2000022c
100002e8:	00000000 	.word	0x00000000

100002ec <frame_dummy>:
100002ec:	4b05      	ldr	r3, [pc, #20]	; (10000304 <frame_dummy+0x18>)
100002ee:	b510      	push	{r4, lr}
100002f0:	2b00      	cmp	r3, #0
100002f2:	d003      	beq.n	100002fc <frame_dummy+0x10>
100002f4:	4904      	ldr	r1, [pc, #16]	; (10000308 <frame_dummy+0x1c>)
100002f6:	4805      	ldr	r0, [pc, #20]	; (1000030c <frame_dummy+0x20>)
100002f8:	e000      	b.n	100002fc <frame_dummy+0x10>
100002fa:	bf00      	nop
100002fc:	f7ff ffe2 	bl	100002c4 <register_tm_clones>
10000300:	bd10      	pop	{r4, pc}
10000302:	46c0      	nop			; (mov r8, r8)
10000304:	00000000 	.word	0x00000000
10000308:	200005b4 	.word	0x200005b4
1000030c:	10001b08 	.word	0x10001b08

10000310 <main>:
10000310:	b510      	push	{r4, lr}
10000312:	f000 f805 	bl	10000320 <main_asm>
10000316:	2000      	movs	r0, #0
10000318:	bd10      	pop	{r4, pc}
1000031a:	46c0      	nop			; (mov r8, r8)
1000031c:	0000      	movs	r0, r0
	...

10000320 <main_asm>:
10000320:	e7fe      	b.n	10000320 <main_asm>
10000322:	46c0      	nop			; (mov r8, r8)

10000324 <hw_claim_or_assert>:
10000324:	b570      	push	{r4, r5, r6, lr}
10000326:	f3ef 8c10 	mrs	ip, PRIMASK
1000032a:	b672      	cpsid	i
1000032c:	4d0d      	ldr	r5, [pc, #52]	; (10000364 <hw_claim_or_assert+0x40>)
1000032e:	682b      	ldr	r3, [r5, #0]
10000330:	2b00      	cmp	r3, #0
10000332:	d0fc      	beq.n	1000032e <hw_claim_or_assert+0xa>
10000334:	f3bf 8f5f 	dmb	sy
10000338:	2407      	movs	r4, #7
1000033a:	08cb      	lsrs	r3, r1, #3
1000033c:	18c6      	adds	r6, r0, r3
1000033e:	5cc0      	ldrb	r0, [r0, r3]
10000340:	2301      	movs	r3, #1
10000342:	400c      	ands	r4, r1
10000344:	40a3      	lsls	r3, r4
10000346:	001c      	movs	r4, r3
10000348:	4004      	ands	r4, r0
1000034a:	4203      	tst	r3, r0
1000034c:	d107      	bne.n	1000035e <hw_claim_or_assert+0x3a>
1000034e:	4318      	orrs	r0, r3
10000350:	7030      	strb	r0, [r6, #0]
10000352:	f3bf 8f5f 	dmb	sy
10000356:	602c      	str	r4, [r5, #0]
10000358:	f38c 8810 	msr	PRIMASK, ip
1000035c:	bd70      	pop	{r4, r5, r6, pc}
1000035e:	0010      	movs	r0, r2
10000360:	f000 fd92 	bl	10000e88 <panic>
10000364:	d000012c 	.word	0xd000012c

10000368 <running_on_fpga>:
10000368:	4b02      	ldr	r3, [pc, #8]	; (10000374 <running_on_fpga+0xc>)
1000036a:	6818      	ldr	r0, [r3, #0]
1000036c:	0780      	lsls	r0, r0, #30
1000036e:	0fc0      	lsrs	r0, r0, #31
10000370:	4770      	bx	lr
10000372:	46c0      	nop			; (mov r8, r8)
10000374:	4006c000 	.word	0x4006c000

10000378 <spin_locks_reset>:
10000378:	2100      	movs	r1, #0
1000037a:	4b04      	ldr	r3, [pc, #16]	; (1000038c <spin_locks_reset+0x14>)
1000037c:	4a04      	ldr	r2, [pc, #16]	; (10000390 <spin_locks_reset+0x18>)
1000037e:	f3bf 8f5f 	dmb	sy
10000382:	c302      	stmia	r3!, {r1}
10000384:	4293      	cmp	r3, r2
10000386:	d1fa      	bne.n	1000037e <spin_locks_reset+0x6>
10000388:	4770      	bx	lr
1000038a:	46c0      	nop			; (mov r8, r8)
1000038c:	d0000100 	.word	0xd0000100
10000390:	d0000180 	.word	0xd0000180

10000394 <next_striped_spin_lock_num>:
10000394:	4a04      	ldr	r2, [pc, #16]	; (100003a8 <next_striped_spin_lock_num+0x14>)
10000396:	7810      	ldrb	r0, [r2, #0]
10000398:	1c43      	adds	r3, r0, #1
1000039a:	b2db      	uxtb	r3, r3
1000039c:	2b17      	cmp	r3, #23
1000039e:	d900      	bls.n	100003a2 <next_striped_spin_lock_num+0xe>
100003a0:	2310      	movs	r3, #16
100003a2:	7013      	strb	r3, [r2, #0]
100003a4:	4770      	bx	lr
100003a6:	46c0      	nop			; (mov r8, r8)
100003a8:	20000178 	.word	0x20000178

100003ac <timer_pool_entry_comparator>:
100003ac:	6883      	ldr	r3, [r0, #8]
100003ae:	480b      	ldr	r0, [pc, #44]	; (100003dc <timer_pool_entry_comparator+0x30>)
100003b0:	b510      	push	{r4, lr}
100003b2:	4684      	mov	ip, r0
100003b4:	4461      	add	r1, ip
100003b6:	4462      	add	r2, ip
100003b8:	0112      	lsls	r2, r2, #4
100003ba:	0109      	lsls	r1, r1, #4
100003bc:	1859      	adds	r1, r3, r1
100003be:	189b      	adds	r3, r3, r2
100003c0:	685c      	ldr	r4, [r3, #4]
100003c2:	684a      	ldr	r2, [r1, #4]
100003c4:	2001      	movs	r0, #1
100003c6:	4294      	cmp	r4, r2
100003c8:	d801      	bhi.n	100003ce <timer_pool_entry_comparator+0x22>
100003ca:	d002      	beq.n	100003d2 <timer_pool_entry_comparator+0x26>
100003cc:	2000      	movs	r0, #0
100003ce:	b2c0      	uxtb	r0, r0
100003d0:	bd10      	pop	{r4, pc}
100003d2:	681a      	ldr	r2, [r3, #0]
100003d4:	680b      	ldr	r3, [r1, #0]
100003d6:	429a      	cmp	r2, r3
100003d8:	d8f9      	bhi.n	100003ce <timer_pool_entry_comparator+0x22>
100003da:	e7f7      	b.n	100003cc <timer_pool_entry_comparator+0x20>
100003dc:	0fffffff 	.word	0x0fffffff

100003e0 <add_alarm_under_lock.isra.0>:
100003e0:	b5f8      	push	{r3, r4, r5, r6, r7, lr}
100003e2:	4657      	mov	r7, sl
100003e4:	4645      	mov	r5, r8
100003e6:	464e      	mov	r6, r9
100003e8:	46de      	mov	lr, fp
100003ea:	b5e0      	push	{r5, r6, r7, lr}
100003ec:	4699      	mov	r9, r3
100003ee:	ab0c      	add	r3, sp, #48	; 0x30
100003f0:	781c      	ldrb	r4, [r3, #0]
100003f2:	ab0d      	add	r3, sp, #52	; 0x34
100003f4:	781b      	ldrb	r3, [r3, #0]
100003f6:	0007      	movs	r7, r0
100003f8:	4690      	mov	r8, r2
100003fa:	469a      	mov	sl, r3
100003fc:	6805      	ldr	r5, [r0, #0]
100003fe:	2c00      	cmp	r4, #0
10000400:	d144      	bne.n	1000048c <add_alarm_under_lock.isra.0+0xac>
10000402:	7bac      	ldrb	r4, [r5, #14]
10000404:	2c00      	cmp	r4, #0
10000406:	d03b      	beq.n	10000480 <add_alarm_under_lock.isra.0+0xa0>
10000408:	0066      	lsls	r6, r4, #1
1000040a:	6829      	ldr	r1, [r5, #0]
1000040c:	1936      	adds	r6, r6, r4
1000040e:	3e03      	subs	r6, #3
10000410:	1989      	adds	r1, r1, r6
10000412:	784b      	ldrb	r3, [r1, #1]
10000414:	73ab      	strb	r3, [r5, #14]
10000416:	2b00      	cmp	r3, #0
10000418:	d100      	bne.n	1000041c <add_alarm_under_lock.isra.0+0x3c>
1000041a:	73eb      	strb	r3, [r5, #15]
1000041c:	2300      	movs	r3, #0
1000041e:	708b      	strb	r3, [r1, #2]
10000420:	704b      	strb	r3, [r1, #1]
10000422:	700b      	strb	r3, [r1, #0]
10000424:	4b2e      	ldr	r3, [pc, #184]	; (100004e0 <add_alarm_under_lock.isra.0+0x100>)
10000426:	18e2      	adds	r2, r4, r3
10000428:	68bb      	ldr	r3, [r7, #8]
1000042a:	0112      	lsls	r2, r2, #4
1000042c:	189b      	adds	r3, r3, r2
1000042e:	4642      	mov	r2, r8
10000430:	601a      	str	r2, [r3, #0]
10000432:	464a      	mov	r2, r9
10000434:	605a      	str	r2, [r3, #4]
10000436:	9a0a      	ldr	r2, [sp, #40]	; 0x28
10000438:	609a      	str	r2, [r3, #8]
1000043a:	9a0b      	ldr	r2, [sp, #44]	; 0x2c
1000043c:	60da      	str	r2, [r3, #12]
1000043e:	2300      	movs	r3, #0
10000440:	708b      	strb	r3, [r1, #2]
10000442:	704b      	strb	r3, [r1, #1]
10000444:	700b      	strb	r3, [r1, #0]
10000446:	7b6b      	ldrb	r3, [r5, #13]
10000448:	469b      	mov	fp, r3
1000044a:	2b00      	cmp	r3, #0
1000044c:	d032      	beq.n	100004b4 <add_alarm_under_lock.isra.0+0xd4>
1000044e:	0022      	movs	r2, r4
10000450:	4659      	mov	r1, fp
10000452:	68a8      	ldr	r0, [r5, #8]
10000454:	686b      	ldr	r3, [r5, #4]
10000456:	4798      	blx	r3
10000458:	2800      	cmp	r0, #0
1000045a:	d01d      	beq.n	10000498 <add_alarm_under_lock.isra.0+0xb8>
1000045c:	465b      	mov	r3, fp
1000045e:	4658      	mov	r0, fp
10000460:	6829      	ldr	r1, [r5, #0]
10000462:	005b      	lsls	r3, r3, #1
10000464:	445b      	add	r3, fp
10000466:	198e      	adds	r6, r1, r6
10000468:	3b03      	subs	r3, #3
1000046a:	70b0      	strb	r0, [r6, #2]
1000046c:	18ca      	adds	r2, r1, r3
1000046e:	5ccb      	ldrb	r3, [r1, r3]
10000470:	2b00      	cmp	r3, #0
10000472:	d000      	beq.n	10000476 <add_alarm_under_lock.isra.0+0x96>
10000474:	7073      	strb	r3, [r6, #1]
10000476:	465b      	mov	r3, fp
10000478:	7014      	strb	r4, [r2, #0]
1000047a:	736b      	strb	r3, [r5, #13]
1000047c:	455c      	cmp	r4, fp
1000047e:	d01a      	beq.n	100004b6 <add_alarm_under_lock.isra.0+0xd6>
10000480:	bcf0      	pop	{r4, r5, r6, r7}
10000482:	46bb      	mov	fp, r7
10000484:	46b2      	mov	sl, r6
10000486:	46a9      	mov	r9, r5
10000488:	46a0      	mov	r8, r4
1000048a:	bdf8      	pop	{r3, r4, r5, r6, r7, pc}
1000048c:	0066      	lsls	r6, r4, #1
1000048e:	6829      	ldr	r1, [r5, #0]
10000490:	1936      	adds	r6, r6, r4
10000492:	3e03      	subs	r6, #3
10000494:	1989      	adds	r1, r1, r6
10000496:	e7c5      	b.n	10000424 <add_alarm_under_lock.isra.0+0x44>
10000498:	465b      	mov	r3, fp
1000049a:	005b      	lsls	r3, r3, #1
1000049c:	682a      	ldr	r2, [r5, #0]
1000049e:	445b      	add	r3, fp
100004a0:	3b03      	subs	r3, #3
100004a2:	18d3      	adds	r3, r2, r3
100004a4:	709c      	strb	r4, [r3, #2]
100004a6:	1991      	adds	r1, r2, r6
100004a8:	5d92      	ldrb	r2, [r2, r6]
100004aa:	2a00      	cmp	r2, #0
100004ac:	d000      	beq.n	100004b0 <add_alarm_under_lock.isra.0+0xd0>
100004ae:	705a      	strb	r2, [r3, #1]
100004b0:	465b      	mov	r3, fp
100004b2:	700b      	strb	r3, [r1, #0]
100004b4:	736c      	strb	r4, [r5, #13]
100004b6:	4642      	mov	r2, r8
100004b8:	464b      	mov	r3, r9
100004ba:	7d38      	ldrb	r0, [r7, #20]
100004bc:	f000 f9e0 	bl	10000880 <hardware_alarm_set_target>
100004c0:	1e05      	subs	r5, r0, #0
100004c2:	d002      	beq.n	100004ca <add_alarm_under_lock.isra.0+0xea>
100004c4:	4653      	mov	r3, sl
100004c6:	2b00      	cmp	r3, #0
100004c8:	d004      	beq.n	100004d4 <add_alarm_under_lock.isra.0+0xf4>
100004ca:	9b0e      	ldr	r3, [sp, #56]	; 0x38
100004cc:	2b00      	cmp	r3, #0
100004ce:	d0d7      	beq.n	10000480 <add_alarm_under_lock.isra.0+0xa0>
100004d0:	701d      	strb	r5, [r3, #0]
100004d2:	e7d5      	b.n	10000480 <add_alarm_under_lock.isra.0+0xa0>
100004d4:	0021      	movs	r1, r4
100004d6:	6838      	ldr	r0, [r7, #0]
100004d8:	f000 fc1e 	bl	10000d18 <ph_remove_and_free_node>
100004dc:	e7f5      	b.n	100004ca <add_alarm_under_lock.isra.0+0xea>
100004de:	46c0      	nop			; (mov r8, r8)
100004e0:	0fffffff 	.word	0x0fffffff

100004e4 <alarm_pool_alarm_callback>:
100004e4:	b5f0      	push	{r4, r5, r6, r7, lr}
100004e6:	46de      	mov	lr, fp
100004e8:	464e      	mov	r6, r9
100004ea:	4657      	mov	r7, sl
100004ec:	4645      	mov	r5, r8
100004ee:	2300      	movs	r3, #0
100004f0:	b5e0      	push	{r5, r6, r7, lr}
100004f2:	b08d      	sub	sp, #52	; 0x34
100004f4:	930a      	str	r3, [sp, #40]	; 0x28
100004f6:	4b6b      	ldr	r3, [pc, #428]	; (100006a4 <alarm_pool_alarm_callback+0x1c0>)
100004f8:	0082      	lsls	r2, r0, #2
100004fa:	58d3      	ldr	r3, [r2, r3]
100004fc:	900b      	str	r0, [sp, #44]	; 0x2c
100004fe:	4699      	mov	r9, r3
10000500:	2300      	movs	r3, #0
10000502:	469b      	mov	fp, r3
10000504:	464b      	mov	r3, r9
10000506:	9307      	str	r3, [sp, #28]
10000508:	f000 f96a 	bl	100007e0 <time_us_64>
1000050c:	9c07      	ldr	r4, [sp, #28]
1000050e:	0006      	movs	r6, r0
10000510:	000f      	movs	r7, r1
10000512:	6862      	ldr	r2, [r4, #4]
10000514:	f3ef 8510 	mrs	r5, PRIMASK
10000518:	b672      	cpsid	i
1000051a:	6813      	ldr	r3, [r2, #0]
1000051c:	2b00      	cmp	r3, #0
1000051e:	d0fc      	beq.n	1000051a <alarm_pool_alarm_callback+0x36>
10000520:	0022      	movs	r2, r4
10000522:	9407      	str	r4, [sp, #28]
10000524:	f3bf 8f5f 	dmb	sy
10000528:	6824      	ldr	r4, [r4, #0]
1000052a:	7b63      	ldrb	r3, [r4, #13]
1000052c:	4699      	mov	r9, r3
1000052e:	2b00      	cmp	r3, #0
10000530:	d066      	beq.n	10000600 <alarm_pool_alarm_callback+0x11c>
10000532:	6892      	ldr	r2, [r2, #8]
10000534:	4b5c      	ldr	r3, [pc, #368]	; (100006a8 <alarm_pool_alarm_callback+0x1c4>)
10000536:	4690      	mov	r8, r2
10000538:	444b      	add	r3, r9
1000053a:	011b      	lsls	r3, r3, #4
1000053c:	4498      	add	r8, r3
1000053e:	4643      	mov	r3, r8
10000540:	681a      	ldr	r2, [r3, #0]
10000542:	685b      	ldr	r3, [r3, #4]
10000544:	0010      	movs	r0, r2
10000546:	0019      	movs	r1, r3
10000548:	1b80      	subs	r0, r0, r6
1000054a:	41b9      	sbcs	r1, r7
1000054c:	2900      	cmp	r1, #0
1000054e:	dd5e      	ble.n	1000060e <alarm_pool_alarm_callback+0x12a>
10000550:	980b      	ldr	r0, [sp, #44]	; 0x2c
10000552:	f000 f995 	bl	10000880 <hardware_alarm_set_target>
10000556:	2300      	movs	r3, #0
10000558:	2600      	movs	r6, #0
1000055a:	4698      	mov	r8, r3
1000055c:	2700      	movs	r7, #0
1000055e:	469a      	mov	sl, r3
10000560:	9c07      	ldr	r4, [sp, #28]
10000562:	6863      	ldr	r3, [r4, #4]
10000564:	f3bf 8f5f 	dmb	sy
10000568:	465a      	mov	r2, fp
1000056a:	601a      	str	r2, [r3, #0]
1000056c:	f385 8810 	msr	PRIMASK, r5
10000570:	4653      	mov	r3, sl
10000572:	2b00      	cmp	r3, #0
10000574:	d108      	bne.n	10000588 <alarm_pool_alarm_callback+0xa4>
10000576:	2800      	cmp	r0, #0
10000578:	d1c6      	bne.n	10000508 <alarm_pool_alarm_callback+0x24>
1000057a:	b00d      	add	sp, #52	; 0x34
1000057c:	bcf0      	pop	{r4, r5, r6, r7}
1000057e:	46bb      	mov	fp, r7
10000580:	46b2      	mov	sl, r6
10000582:	46a9      	mov	r9, r5
10000584:	46a0      	mov	r8, r4
10000586:	bdf0      	pop	{r4, r5, r6, r7, pc}
10000588:	9b0a      	ldr	r3, [sp, #40]	; 0x28
1000058a:	4641      	mov	r1, r8
1000058c:	0218      	lsls	r0, r3, #8
1000058e:	464b      	mov	r3, r9
10000590:	4318      	orrs	r0, r3
10000592:	47d0      	blx	sl
10000594:	9008      	str	r0, [sp, #32]
10000596:	9109      	str	r1, [sp, #36]	; 0x24
10000598:	6862      	ldr	r2, [r4, #4]
1000059a:	f3ef 8510 	mrs	r5, PRIMASK
1000059e:	b672      	cpsid	i
100005a0:	6813      	ldr	r3, [r2, #0]
100005a2:	2b00      	cmp	r3, #0
100005a4:	d0fc      	beq.n	100005a0 <alarm_pool_alarm_callback+0xbc>
100005a6:	9407      	str	r4, [sp, #28]
100005a8:	f3bf 8f5f 	dmb	sy
100005ac:	9908      	ldr	r1, [sp, #32]
100005ae:	9a09      	ldr	r2, [sp, #36]	; 0x24
100005b0:	2a00      	cmp	r2, #0
100005b2:	db47      	blt.n	10000644 <alarm_pool_alarm_callback+0x160>
100005b4:	4311      	orrs	r1, r2
100005b6:	d003      	beq.n	100005c0 <alarm_pool_alarm_callback+0xdc>
100005b8:	9b07      	ldr	r3, [sp, #28]
100005ba:	691b      	ldr	r3, [r3, #16]
100005bc:	2b00      	cmp	r3, #0
100005be:	d15c      	bne.n	1000067a <alarm_pool_alarm_callback+0x196>
100005c0:	9b07      	ldr	r3, [sp, #28]
100005c2:	681b      	ldr	r3, [r3, #0]
100005c4:	7bd9      	ldrb	r1, [r3, #15]
100005c6:	2900      	cmp	r1, #0
100005c8:	d006      	beq.n	100005d8 <alarm_pool_alarm_callback+0xf4>
100005ca:	681a      	ldr	r2, [r3, #0]
100005cc:	0048      	lsls	r0, r1, #1
100005ce:	1841      	adds	r1, r0, r1
100005d0:	1852      	adds	r2, r2, r1
100005d2:	4649      	mov	r1, r9
100005d4:	3a03      	subs	r2, #3
100005d6:	7051      	strb	r1, [r2, #1]
100005d8:	464a      	mov	r2, r9
100005da:	73da      	strb	r2, [r3, #15]
100005dc:	464b      	mov	r3, r9
100005de:	9a07      	ldr	r2, [sp, #28]
100005e0:	3b01      	subs	r3, #1
100005e2:	68d1      	ldr	r1, [r2, #12]
100005e4:	5cca      	ldrb	r2, [r1, r3]
100005e6:	3201      	adds	r2, #1
100005e8:	54ca      	strb	r2, [r1, r3]
100005ea:	465b      	mov	r3, fp
100005ec:	9a07      	ldr	r2, [sp, #28]
100005ee:	6113      	str	r3, [r2, #16]
100005f0:	6853      	ldr	r3, [r2, #4]
100005f2:	f3bf 8f5f 	dmb	sy
100005f6:	465a      	mov	r2, fp
100005f8:	601a      	str	r2, [r3, #0]
100005fa:	f385 8810 	msr	PRIMASK, r5
100005fe:	e783      	b.n	10000508 <alarm_pool_alarm_callback+0x24>
10000600:	2300      	movs	r3, #0
10000602:	2600      	movs	r6, #0
10000604:	4698      	mov	r8, r3
10000606:	2700      	movs	r7, #0
10000608:	469a      	mov	sl, r3
1000060a:	2000      	movs	r0, #0
1000060c:	e7a8      	b.n	10000560 <alarm_pool_alarm_callback+0x7c>
1000060e:	2900      	cmp	r1, #0
10000610:	d101      	bne.n	10000616 <alarm_pool_alarm_callback+0x132>
10000612:	2800      	cmp	r0, #0
10000614:	d19c      	bne.n	10000550 <alarm_pool_alarm_callback+0x6c>
10000616:	2100      	movs	r1, #0
10000618:	0020      	movs	r0, r4
1000061a:	f000 faff 	bl	10000c1c <ph_remove_head>
1000061e:	4643      	mov	r3, r8
10000620:	681e      	ldr	r6, [r3, #0]
10000622:	685f      	ldr	r7, [r3, #4]
10000624:	689b      	ldr	r3, [r3, #8]
10000626:	9a07      	ldr	r2, [sp, #28]
10000628:	469a      	mov	sl, r3
1000062a:	4643      	mov	r3, r8
1000062c:	68db      	ldr	r3, [r3, #12]
1000062e:	4698      	mov	r8, r3
10000630:	68d3      	ldr	r3, [r2, #12]
10000632:	444b      	add	r3, r9
10000634:	3b01      	subs	r3, #1
10000636:	781b      	ldrb	r3, [r3, #0]
10000638:	930a      	str	r3, [sp, #40]	; 0x28
1000063a:	021b      	lsls	r3, r3, #8
1000063c:	4303      	orrs	r3, r0
1000063e:	6113      	str	r3, [r2, #16]
10000640:	2000      	movs	r0, #0
10000642:	e78d      	b.n	10000560 <alarm_pool_alarm_callback+0x7c>
10000644:	6923      	ldr	r3, [r4, #16]
10000646:	2b00      	cmp	r3, #0
10000648:	d0ba      	beq.n	100005c0 <alarm_pool_alarm_callback+0xdc>
1000064a:	0033      	movs	r3, r6
1000064c:	003c      	movs	r4, r7
1000064e:	1a5b      	subs	r3, r3, r1
10000650:	4194      	sbcs	r4, r2
10000652:	001a      	movs	r2, r3
10000654:	0023      	movs	r3, r4
10000656:	42a7      	cmp	r7, r4
10000658:	d819      	bhi.n	1000068e <alarm_pool_alarm_callback+0x1aa>
1000065a:	429f      	cmp	r7, r3
1000065c:	d01b      	beq.n	10000696 <alarm_pool_alarm_callback+0x1b2>
1000065e:	4659      	mov	r1, fp
10000660:	9104      	str	r1, [sp, #16]
10000662:	2101      	movs	r1, #1
10000664:	9103      	str	r1, [sp, #12]
10000666:	4649      	mov	r1, r9
10000668:	9102      	str	r1, [sp, #8]
1000066a:	4641      	mov	r1, r8
1000066c:	9101      	str	r1, [sp, #4]
1000066e:	4651      	mov	r1, sl
10000670:	9807      	ldr	r0, [sp, #28]
10000672:	9100      	str	r1, [sp, #0]
10000674:	f7ff feb4 	bl	100003e0 <add_alarm_under_lock.isra.0>
10000678:	e7b7      	b.n	100005ea <alarm_pool_alarm_callback+0x106>
1000067a:	f000 f8b1 	bl	100007e0 <time_us_64>
1000067e:	9a08      	ldr	r2, [sp, #32]
10000680:	9b09      	ldr	r3, [sp, #36]	; 0x24
10000682:	0006      	movs	r6, r0
10000684:	000f      	movs	r7, r1
10000686:	1992      	adds	r2, r2, r6
10000688:	417b      	adcs	r3, r7
1000068a:	4299      	cmp	r1, r3
1000068c:	d9e5      	bls.n	1000065a <alarm_pool_alarm_callback+0x176>
1000068e:	2201      	movs	r2, #1
10000690:	4252      	negs	r2, r2
10000692:	17d3      	asrs	r3, r2, #31
10000694:	e7e3      	b.n	1000065e <alarm_pool_alarm_callback+0x17a>
10000696:	4296      	cmp	r6, r2
10000698:	d9e1      	bls.n	1000065e <alarm_pool_alarm_callback+0x17a>
1000069a:	2201      	movs	r2, #1
1000069c:	4252      	negs	r2, r2
1000069e:	17d3      	asrs	r3, r2, #31
100006a0:	e7dd      	b.n	1000065e <alarm_pool_alarm_callback+0x17a>
100006a2:	46c0      	nop			; (mov r8, r8)
100006a4:	200005cc 	.word	0x200005cc
100006a8:	0fffffff 	.word	0x0fffffff

100006ac <alarm_pool_init_default>:
100006ac:	b510      	push	{r4, lr}
100006ae:	4c12      	ldr	r4, [pc, #72]	; (100006f8 <alarm_pool_init_default+0x4c>)
100006b0:	6863      	ldr	r3, [r4, #4]
100006b2:	2b00      	cmp	r3, #0
100006b4:	d004      	beq.n	100006c0 <alarm_pool_init_default+0x14>
100006b6:	210a      	movs	r1, #10
100006b8:	4810      	ldr	r0, [pc, #64]	; (100006fc <alarm_pool_init_default+0x50>)
100006ba:	f000 f96f 	bl	1000099c <lock_init>
100006be:	bd10      	pop	{r4, pc}
100006c0:	0023      	movs	r3, r4
100006c2:	4a0f      	ldr	r2, [pc, #60]	; (10000700 <alarm_pool_init_default+0x54>)
100006c4:	2110      	movs	r1, #16
100006c6:	6820      	ldr	r0, [r4, #0]
100006c8:	f000 f9c0 	bl	10000a4c <ph_post_alloc_init>
100006cc:	2003      	movs	r0, #3
100006ce:	f000 f87b 	bl	100007c8 <hardware_alarm_claim>
100006d2:	2003      	movs	r0, #3
100006d4:	f000 f944 	bl	10000960 <hardware_alarm_cancel>
100006d8:	2003      	movs	r0, #3
100006da:	490a      	ldr	r1, [pc, #40]	; (10000704 <alarm_pool_init_default+0x58>)
100006dc:	f000 f88a 	bl	100007f4 <hardware_alarm_set_callback>
100006e0:	f7ff fe58 	bl	10000394 <next_striped_spin_lock_num>
100006e4:	4b08      	ldr	r3, [pc, #32]	; (10000708 <alarm_pool_init_default+0x5c>)
100006e6:	469c      	mov	ip, r3
100006e8:	2303      	movs	r3, #3
100006ea:	4460      	add	r0, ip
100006ec:	7523      	strb	r3, [r4, #20]
100006ee:	4b07      	ldr	r3, [pc, #28]	; (1000070c <alarm_pool_init_default+0x60>)
100006f0:	0080      	lsls	r0, r0, #2
100006f2:	6060      	str	r0, [r4, #4]
100006f4:	60dc      	str	r4, [r3, #12]
100006f6:	e7de      	b.n	100006b6 <alarm_pool_init_default+0xa>
100006f8:	2000017c 	.word	0x2000017c
100006fc:	200005e0 	.word	0x200005e0
10000700:	100003ad 	.word	0x100003ad
10000704:	100004e5 	.word	0x100004e5
10000708:	34000040 	.word	0x34000040
1000070c:	200005cc 	.word	0x200005cc

10000710 <hardware_alarm_irq_handler>:
10000710:	b5f0      	push	{r4, r5, r6, r7, lr}
10000712:	46d6      	mov	lr, sl
10000714:	464f      	mov	r7, r9
10000716:	4646      	mov	r6, r8
10000718:	b5c0      	push	{r6, r7, lr}
1000071a:	f3ef 8205 	mrs	r2, IPSR
1000071e:	233f      	movs	r3, #63	; 0x3f
10000720:	4013      	ands	r3, r2
10000722:	0018      	movs	r0, r3
10000724:	3810      	subs	r0, #16
10000726:	f3ef 8c10 	mrs	ip, PRIMASK
1000072a:	b672      	cpsid	i
1000072c:	4920      	ldr	r1, [pc, #128]	; (100007b0 <hardware_alarm_irq_handler+0xa0>)
1000072e:	680a      	ldr	r2, [r1, #0]
10000730:	2a00      	cmp	r2, #0
10000732:	d0fc      	beq.n	1000072e <hardware_alarm_irq_handler+0x1e>
10000734:	f3bf 8f5f 	dmb	sy
10000738:	2201      	movs	r2, #1
1000073a:	0017      	movs	r7, r2
1000073c:	4087      	lsls	r7, r0
1000073e:	4c1d      	ldr	r4, [pc, #116]	; (100007b4 <hardware_alarm_irq_handler+0xa4>)
10000740:	0016      	movs	r6, r2
10000742:	46a2      	mov	sl, r4
10000744:	6367      	str	r7, [r4, #52]	; 0x34
10000746:	4c1c      	ldr	r4, [pc, #112]	; (100007b8 <hardware_alarm_irq_handler+0xa8>)
10000748:	7825      	ldrb	r5, [r4, #0]
1000074a:	46a0      	mov	r8, r4
1000074c:	002c      	movs	r4, r5
1000074e:	40c4      	lsrs	r4, r0
10000750:	4026      	ands	r6, r4
10000752:	4222      	tst	r2, r4
10000754:	d109      	bne.n	1000076a <hardware_alarm_irq_handler+0x5a>
10000756:	f3bf 8f5f 	dmb	sy
1000075a:	600e      	str	r6, [r1, #0]
1000075c:	f38c 8810 	msr	PRIMASK, ip
10000760:	bce0      	pop	{r5, r6, r7}
10000762:	46ba      	mov	sl, r7
10000764:	46b1      	mov	r9, r6
10000766:	46a8      	mov	r8, r5
10000768:	bdf0      	pop	{r4, r5, r6, r7, pc}
1000076a:	4652      	mov	r2, sl
1000076c:	6a56      	ldr	r6, [r2, #36]	; 0x24
1000076e:	4a13      	ldr	r2, [pc, #76]	; (100007bc <hardware_alarm_irq_handler+0xac>)
10000770:	0084      	lsls	r4, r0, #2
10000772:	58a2      	ldr	r2, [r4, r2]
10000774:	4296      	cmp	r6, r2
10000776:	d30e      	bcc.n	10000796 <hardware_alarm_irq_handler+0x86>
10000778:	4642      	mov	r2, r8
1000077a:	4b11      	ldr	r3, [pc, #68]	; (100007c0 <hardware_alarm_irq_handler+0xb0>)
1000077c:	43bd      	bics	r5, r7
1000077e:	58e3      	ldr	r3, [r4, r3]
10000780:	7015      	strb	r5, [r2, #0]
10000782:	f3bf 8f5f 	dmb	sy
10000786:	2200      	movs	r2, #0
10000788:	600a      	str	r2, [r1, #0]
1000078a:	f38c 8810 	msr	PRIMASK, ip
1000078e:	2b00      	cmp	r3, #0
10000790:	d0e6      	beq.n	10000760 <hardware_alarm_irq_handler+0x50>
10000792:	4798      	blx	r3
10000794:	e7e4      	b.n	10000760 <hardware_alarm_irq_handler+0x50>
10000796:	4a0b      	ldr	r2, [pc, #44]	; (100007c4 <hardware_alarm_irq_handler+0xb4>)
10000798:	009b      	lsls	r3, r3, #2
1000079a:	4690      	mov	r8, r2
1000079c:	4443      	add	r3, r8
1000079e:	681a      	ldr	r2, [r3, #0]
100007a0:	601a      	str	r2, [r3, #0]
100007a2:	f3bf 8f5f 	dmb	sy
100007a6:	2300      	movs	r3, #0
100007a8:	600b      	str	r3, [r1, #0]
100007aa:	f38c 8810 	msr	PRIMASK, ip
100007ae:	e7d7      	b.n	10000760 <hardware_alarm_irq_handler+0x50>
100007b0:	d0000128 	.word	0xd0000128
100007b4:	40054000 	.word	0x40054000
100007b8:	200005f6 	.word	0x200005f6
100007bc:	200005e4 	.word	0x200005e4
100007c0:	20000530 	.word	0x20000530
100007c4:	40053fd0 	.word	0x40053fd0

100007c8 <hardware_alarm_claim>:
100007c8:	b510      	push	{r4, lr}
100007ca:	4b03      	ldr	r3, [pc, #12]	; (100007d8 <hardware_alarm_claim+0x10>)
100007cc:	0001      	movs	r1, r0
100007ce:	0018      	movs	r0, r3
100007d0:	4a02      	ldr	r2, [pc, #8]	; (100007dc <hardware_alarm_claim+0x14>)
100007d2:	f7ff fda7 	bl	10000324 <hw_claim_or_assert>
100007d6:	bd10      	pop	{r4, pc}
100007d8:	200005f4 	.word	0x200005f4
100007dc:	10001b08 	.word	0x10001b08

100007e0 <time_us_64>:
100007e0:	4b03      	ldr	r3, [pc, #12]	; (100007f0 <time_us_64+0x10>)
100007e2:	6a59      	ldr	r1, [r3, #36]	; 0x24
100007e4:	000a      	movs	r2, r1
100007e6:	6a98      	ldr	r0, [r3, #40]	; 0x28
100007e8:	6a59      	ldr	r1, [r3, #36]	; 0x24
100007ea:	428a      	cmp	r2, r1
100007ec:	d1fa      	bne.n	100007e4 <time_us_64+0x4>
100007ee:	4770      	bx	lr
100007f0:	40054000 	.word	0x40054000

100007f4 <hardware_alarm_set_callback>:
100007f4:	b570      	push	{r4, r5, r6, lr}
100007f6:	0004      	movs	r4, r0
100007f8:	000d      	movs	r5, r1
100007fa:	f3ef 8610 	mrs	r6, PRIMASK
100007fe:	b672      	cpsid	i
10000800:	4a1a      	ldr	r2, [pc, #104]	; (1000086c <hardware_alarm_set_callback+0x78>)
10000802:	6813      	ldr	r3, [r2, #0]
10000804:	2b00      	cmp	r3, #0
10000806:	d0fc      	beq.n	10000802 <hardware_alarm_set_callback+0xe>
10000808:	f3bf 8f5f 	dmb	sy
1000080c:	2d00      	cmp	r5, #0
1000080e:	d01b      	beq.n	10000848 <hardware_alarm_set_callback+0x54>
10000810:	0020      	movs	r0, r4
10000812:	f000 fcc1 	bl	10001198 <irq_get_vtable_handler>
10000816:	4916      	ldr	r1, [pc, #88]	; (10000870 <hardware_alarm_set_callback+0x7c>)
10000818:	4281      	cmp	r1, r0
1000081a:	d00a      	beq.n	10000832 <hardware_alarm_set_callback+0x3e>
1000081c:	0020      	movs	r0, r4
1000081e:	f000 fcc3 	bl	100011a8 <irq_set_exclusive_handler>
10000822:	2101      	movs	r1, #1
10000824:	0020      	movs	r0, r4
10000826:	f000 fca5 	bl	10001174 <irq_set_enabled>
1000082a:	2301      	movs	r3, #1
1000082c:	40a3      	lsls	r3, r4
1000082e:	4a11      	ldr	r2, [pc, #68]	; (10000874 <hardware_alarm_set_callback+0x80>)
10000830:	6013      	str	r3, [r2, #0]
10000832:	4b11      	ldr	r3, [pc, #68]	; (10000878 <hardware_alarm_set_callback+0x84>)
10000834:	00a4      	lsls	r4, r4, #2
10000836:	50e5      	str	r5, [r4, r3]
10000838:	f3bf 8f5f 	dmb	sy
1000083c:	2200      	movs	r2, #0
1000083e:	4b0b      	ldr	r3, [pc, #44]	; (1000086c <hardware_alarm_set_callback+0x78>)
10000840:	601a      	str	r2, [r3, #0]
10000842:	f386 8810 	msr	PRIMASK, r6
10000846:	bd70      	pop	{r4, r5, r6, pc}
10000848:	2101      	movs	r1, #1
1000084a:	40a1      	lsls	r1, r4
1000084c:	4b0a      	ldr	r3, [pc, #40]	; (10000878 <hardware_alarm_set_callback+0x84>)
1000084e:	00a2      	lsls	r2, r4, #2
10000850:	50d5      	str	r5, [r2, r3]
10000852:	4b0a      	ldr	r3, [pc, #40]	; (1000087c <hardware_alarm_set_callback+0x88>)
10000854:	0020      	movs	r0, r4
10000856:	781a      	ldrb	r2, [r3, #0]
10000858:	438a      	bics	r2, r1
1000085a:	4905      	ldr	r1, [pc, #20]	; (10000870 <hardware_alarm_set_callback+0x7c>)
1000085c:	701a      	strb	r2, [r3, #0]
1000085e:	f000 fccd 	bl	100011fc <irq_remove_handler>
10000862:	2100      	movs	r1, #0
10000864:	0020      	movs	r0, r4
10000866:	f000 fc85 	bl	10001174 <irq_set_enabled>
1000086a:	e7e5      	b.n	10000838 <hardware_alarm_set_callback+0x44>
1000086c:	d0000128 	.word	0xd0000128
10000870:	10000711 	.word	0x10000711
10000874:	40056038 	.word	0x40056038
10000878:	20000530 	.word	0x20000530
1000087c:	200005f6 	.word	0x200005f6

10000880 <hardware_alarm_set_target>:
10000880:	b5f0      	push	{r4, r5, r6, r7, lr}
10000882:	464f      	mov	r7, r9
10000884:	46d6      	mov	lr, sl
10000886:	4646      	mov	r6, r8
10000888:	b5c0      	push	{r6, r7, lr}
1000088a:	0007      	movs	r7, r0
1000088c:	4c2f      	ldr	r4, [pc, #188]	; (1000094c <hardware_alarm_set_target+0xcc>)
1000088e:	6a61      	ldr	r1, [r4, #36]	; 0x24
10000890:	000d      	movs	r5, r1
10000892:	6aa6      	ldr	r6, [r4, #40]	; 0x28
10000894:	6a61      	ldr	r1, [r4, #36]	; 0x24
10000896:	42a9      	cmp	r1, r5
10000898:	d1fa      	bne.n	10000890 <hardware_alarm_set_target+0x10>
1000089a:	428b      	cmp	r3, r1
1000089c:	d808      	bhi.n	100008b0 <hardware_alarm_set_target+0x30>
1000089e:	d005      	beq.n	100008ac <hardware_alarm_set_target+0x2c>
100008a0:	2001      	movs	r0, #1
100008a2:	bce0      	pop	{r5, r6, r7}
100008a4:	46ba      	mov	sl, r7
100008a6:	46b1      	mov	r9, r6
100008a8:	46a8      	mov	r8, r5
100008aa:	bdf0      	pop	{r4, r5, r6, r7, pc}
100008ac:	42b2      	cmp	r2, r6
100008ae:	d9f7      	bls.n	100008a0 <hardware_alarm_set_target+0x20>
100008b0:	f3ef 8a10 	mrs	sl, PRIMASK
100008b4:	b672      	cpsid	i
100008b6:	4826      	ldr	r0, [pc, #152]	; (10000950 <hardware_alarm_set_target+0xd0>)
100008b8:	6801      	ldr	r1, [r0, #0]
100008ba:	2900      	cmp	r1, #0
100008bc:	d0fc      	beq.n	100008b8 <hardware_alarm_set_target+0x38>
100008be:	f3bf 8f5f 	dmb	sy
100008c2:	2501      	movs	r5, #1
100008c4:	40bd      	lsls	r5, r7
100008c6:	4923      	ldr	r1, [pc, #140]	; (10000954 <hardware_alarm_set_target+0xd4>)
100008c8:	4c20      	ldr	r4, [pc, #128]	; (1000094c <hardware_alarm_set_target+0xcc>)
100008ca:	4688      	mov	r8, r1
100008cc:	7809      	ldrb	r1, [r1, #0]
100008ce:	4689      	mov	r9, r1
100008d0:	4329      	orrs	r1, r5
100008d2:	b2c9      	uxtb	r1, r1
100008d4:	468c      	mov	ip, r1
100008d6:	4641      	mov	r1, r8
100008d8:	4660      	mov	r0, ip
100008da:	7008      	strb	r0, [r1, #0]
100008dc:	1d39      	adds	r1, r7, #4
100008de:	0089      	lsls	r1, r1, #2
100008e0:	6365      	str	r5, [r4, #52]	; 0x34
100008e2:	510a      	str	r2, [r1, r4]
100008e4:	491c      	ldr	r1, [pc, #112]	; (10000958 <hardware_alarm_set_target+0xd8>)
100008e6:	00b8      	lsls	r0, r7, #2
100008e8:	5043      	str	r3, [r0, r1]
100008ea:	6a21      	ldr	r1, [r4, #32]
100008ec:	2000      	movs	r0, #0
100008ee:	4229      	tst	r1, r5
100008f0:	d019      	beq.n	10000926 <hardware_alarm_set_target+0xa6>
100008f2:	6a61      	ldr	r1, [r4, #36]	; 0x24
100008f4:	0008      	movs	r0, r1
100008f6:	6aa6      	ldr	r6, [r4, #40]	; 0x28
100008f8:	6a61      	ldr	r1, [r4, #36]	; 0x24
100008fa:	4281      	cmp	r1, r0
100008fc:	d1fa      	bne.n	100008f4 <hardware_alarm_set_target+0x74>
100008fe:	428b      	cmp	r3, r1
10000900:	d819      	bhi.n	10000936 <hardware_alarm_set_target+0xb6>
10000902:	d101      	bne.n	10000908 <hardware_alarm_set_target+0x88>
10000904:	42b2      	cmp	r2, r6
10000906:	d816      	bhi.n	10000936 <hardware_alarm_set_target+0xb6>
10000908:	45cc      	cmp	ip, r9
1000090a:	d01d      	beq.n	10000948 <hardware_alarm_set_target+0xc8>
1000090c:	4b0f      	ldr	r3, [pc, #60]	; (1000094c <hardware_alarm_set_target+0xcc>)
1000090e:	221f      	movs	r2, #31
10000910:	621d      	str	r5, [r3, #32]
10000912:	635d      	str	r5, [r3, #52]	; 0x34
10000914:	2301      	movs	r3, #1
10000916:	403a      	ands	r2, r7
10000918:	4093      	lsls	r3, r2
1000091a:	4a10      	ldr	r2, [pc, #64]	; (1000095c <hardware_alarm_set_target+0xdc>)
1000091c:	2001      	movs	r0, #1
1000091e:	6013      	str	r3, [r2, #0]
10000920:	4643      	mov	r3, r8
10000922:	464a      	mov	r2, r9
10000924:	701a      	strb	r2, [r3, #0]
10000926:	f3bf 8f5f 	dmb	sy
1000092a:	2200      	movs	r2, #0
1000092c:	4b08      	ldr	r3, [pc, #32]	; (10000950 <hardware_alarm_set_target+0xd0>)
1000092e:	601a      	str	r2, [r3, #0]
10000930:	f38a 8810 	msr	PRIMASK, sl
10000934:	e7b5      	b.n	100008a2 <hardware_alarm_set_target+0x22>
10000936:	2000      	movs	r0, #0
10000938:	f3bf 8f5f 	dmb	sy
1000093c:	2200      	movs	r2, #0
1000093e:	4b04      	ldr	r3, [pc, #16]	; (10000950 <hardware_alarm_set_target+0xd0>)
10000940:	601a      	str	r2, [r3, #0]
10000942:	f38a 8810 	msr	PRIMASK, sl
10000946:	e7ac      	b.n	100008a2 <hardware_alarm_set_target+0x22>
10000948:	2001      	movs	r0, #1
1000094a:	e7ec      	b.n	10000926 <hardware_alarm_set_target+0xa6>
1000094c:	40054000 	.word	0x40054000
10000950:	d0000128 	.word	0xd0000128
10000954:	200005f6 	.word	0x200005f6
10000958:	200005e4 	.word	0x200005e4
1000095c:	e000e280 	.word	0xe000e280

10000960 <hardware_alarm_cancel>:
10000960:	f3ef 8c10 	mrs	ip, PRIMASK
10000964:	b672      	cpsid	i
10000966:	490a      	ldr	r1, [pc, #40]	; (10000990 <hardware_alarm_cancel+0x30>)
10000968:	680b      	ldr	r3, [r1, #0]
1000096a:	2b00      	cmp	r3, #0
1000096c:	d0fc      	beq.n	10000968 <hardware_alarm_cancel+0x8>
1000096e:	f3bf 8f5f 	dmb	sy
10000972:	2301      	movs	r3, #1
10000974:	4083      	lsls	r3, r0
10000976:	4a07      	ldr	r2, [pc, #28]	; (10000994 <hardware_alarm_cancel+0x34>)
10000978:	4807      	ldr	r0, [pc, #28]	; (10000998 <hardware_alarm_cancel+0x38>)
1000097a:	6213      	str	r3, [r2, #32]
1000097c:	7802      	ldrb	r2, [r0, #0]
1000097e:	439a      	bics	r2, r3
10000980:	7002      	strb	r2, [r0, #0]
10000982:	f3bf 8f5f 	dmb	sy
10000986:	2300      	movs	r3, #0
10000988:	600b      	str	r3, [r1, #0]
1000098a:	f38c 8810 	msr	PRIMASK, ip
1000098e:	4770      	bx	lr
10000990:	d0000128 	.word	0xd0000128
10000994:	40054000 	.word	0x40054000
10000998:	200005f6 	.word	0x200005f6

1000099c <lock_init>:
1000099c:	4b02      	ldr	r3, [pc, #8]	; (100009a8 <lock_init+0xc>)
1000099e:	469c      	mov	ip, r3
100009a0:	4461      	add	r1, ip
100009a2:	0089      	lsls	r1, r1, #2
100009a4:	6001      	str	r1, [r0, #0]
100009a6:	4770      	bx	lr
100009a8:	34000040 	.word	0x34000040

100009ac <mutex_init>:
100009ac:	b510      	push	{r4, lr}
100009ae:	0004      	movs	r4, r0
100009b0:	f7ff fcf0 	bl	10000394 <next_striped_spin_lock_num>
100009b4:	0001      	movs	r1, r0
100009b6:	0020      	movs	r0, r4
100009b8:	f7ff fff0 	bl	1000099c <lock_init>
100009bc:	23ff      	movs	r3, #255	; 0xff
100009be:	7123      	strb	r3, [r4, #4]
100009c0:	f3bf 8f5f 	dmb	sy
100009c4:	bd10      	pop	{r4, pc}
100009c6:	46c0      	nop			; (mov r8, r8)

100009c8 <recursive_mutex_init>:
100009c8:	b510      	push	{r4, lr}
100009ca:	0004      	movs	r4, r0
100009cc:	f7ff fce2 	bl	10000394 <next_striped_spin_lock_num>
100009d0:	0001      	movs	r1, r0
100009d2:	0020      	movs	r0, r4
100009d4:	f7ff ffe2 	bl	1000099c <lock_init>
100009d8:	23ff      	movs	r3, #255	; 0xff
100009da:	80a3      	strh	r3, [r4, #4]
100009dc:	f3bf 8f5f 	dmb	sy
100009e0:	bd10      	pop	{r4, pc}
100009e2:	46c0      	nop			; (mov r8, r8)

100009e4 <ph_merge_nodes>:
100009e4:	b570      	push	{r4, r5, r6, lr}
100009e6:	0005      	movs	r5, r0
100009e8:	0014      	movs	r4, r2
100009ea:	0016      	movs	r6, r2
100009ec:	2900      	cmp	r1, #0
100009ee:	d015      	beq.n	10000a1c <ph_merge_nodes+0x38>
100009f0:	000c      	movs	r4, r1
100009f2:	2a00      	cmp	r2, #0
100009f4:	d012      	beq.n	10000a1c <ph_merge_nodes+0x38>
100009f6:	6880      	ldr	r0, [r0, #8]
100009f8:	686b      	ldr	r3, [r5, #4]
100009fa:	4798      	blx	r3
100009fc:	6829      	ldr	r1, [r5, #0]
100009fe:	2800      	cmp	r0, #0
10000a00:	d00e      	beq.n	10000a20 <ph_merge_nodes+0x3c>
10000a02:	0073      	lsls	r3, r6, #1
10000a04:	199b      	adds	r3, r3, r6
10000a06:	0062      	lsls	r2, r4, #1
10000a08:	3b03      	subs	r3, #3
10000a0a:	1912      	adds	r2, r2, r4
10000a0c:	18cb      	adds	r3, r1, r3
10000a0e:	3a03      	subs	r2, #3
10000a10:	709c      	strb	r4, [r3, #2]
10000a12:	1888      	adds	r0, r1, r2
10000a14:	5c8a      	ldrb	r2, [r1, r2]
10000a16:	2a00      	cmp	r2, #0
10000a18:	d115      	bne.n	10000a46 <ph_merge_nodes+0x62>
10000a1a:	7006      	strb	r6, [r0, #0]
10000a1c:	0020      	movs	r0, r4
10000a1e:	bd70      	pop	{r4, r5, r6, pc}
10000a20:	0063      	lsls	r3, r4, #1
10000a22:	191b      	adds	r3, r3, r4
10000a24:	0072      	lsls	r2, r6, #1
10000a26:	3b03      	subs	r3, #3
10000a28:	1992      	adds	r2, r2, r6
10000a2a:	18cb      	adds	r3, r1, r3
10000a2c:	3a03      	subs	r2, #3
10000a2e:	709e      	strb	r6, [r3, #2]
10000a30:	1888      	adds	r0, r1, r2
10000a32:	5c8a      	ldrb	r2, [r1, r2]
10000a34:	2a00      	cmp	r2, #0
10000a36:	d102      	bne.n	10000a3e <ph_merge_nodes+0x5a>
10000a38:	7004      	strb	r4, [r0, #0]
10000a3a:	0034      	movs	r4, r6
10000a3c:	e7ee      	b.n	10000a1c <ph_merge_nodes+0x38>
10000a3e:	705a      	strb	r2, [r3, #1]
10000a40:	7004      	strb	r4, [r0, #0]
10000a42:	0034      	movs	r4, r6
10000a44:	e7ea      	b.n	10000a1c <ph_merge_nodes+0x38>
10000a46:	705a      	strb	r2, [r3, #1]
10000a48:	7006      	strb	r6, [r0, #0]
10000a4a:	e7e7      	b.n	10000a1c <ph_merge_nodes+0x38>

10000a4c <ph_post_alloc_init>:
10000a4c:	b530      	push	{r4, r5, lr}
10000a4e:	6083      	str	r3, [r0, #8]
10000a50:	2300      	movs	r3, #0
10000a52:	b2cc      	uxtb	r4, r1
10000a54:	7343      	strb	r3, [r0, #13]
10000a56:	3301      	adds	r3, #1
10000a58:	7304      	strb	r4, [r0, #12]
10000a5a:	6042      	str	r2, [r0, #4]
10000a5c:	7383      	strb	r3, [r0, #14]
10000a5e:	73c4      	strb	r4, [r0, #15]
10000a60:	000d      	movs	r5, r1
10000a62:	6800      	ldr	r0, [r0, #0]
10000a64:	2c01      	cmp	r4, #1
10000a66:	d906      	bls.n	10000a76 <ph_post_alloc_init+0x2a>
10000a68:	1c42      	adds	r2, r0, #1
10000a6a:	3301      	adds	r3, #1
10000a6c:	b2db      	uxtb	r3, r3
10000a6e:	7013      	strb	r3, [r2, #0]
10000a70:	3203      	adds	r2, #3
10000a72:	429c      	cmp	r4, r3
10000a74:	d1f9      	bne.n	10000a6a <ph_post_alloc_init+0x1e>
10000a76:	21ff      	movs	r1, #255	; 0xff
10000a78:	4029      	ands	r1, r5
10000a7a:	004b      	lsls	r3, r1, #1
10000a7c:	185b      	adds	r3, r3, r1
10000a7e:	18c0      	adds	r0, r0, r3
10000a80:	2300      	movs	r3, #0
10000a82:	3803      	subs	r0, #3
10000a84:	7043      	strb	r3, [r0, #1]
10000a86:	bd30      	pop	{r4, r5, pc}

10000a88 <ph_merge_two_pass>:
10000a88:	b5f8      	push	{r3, r4, r5, r6, r7, lr}
10000a8a:	0005      	movs	r5, r0
10000a8c:	1e0c      	subs	r4, r1, #0
10000a8e:	d007      	beq.n	10000aa0 <ph_merge_two_pass+0x18>
10000a90:	0063      	lsls	r3, r4, #1
10000a92:	6801      	ldr	r1, [r0, #0]
10000a94:	191b      	adds	r3, r3, r4
10000a96:	3b03      	subs	r3, #3
10000a98:	18cb      	adds	r3, r1, r3
10000a9a:	785a      	ldrb	r2, [r3, #1]
10000a9c:	2a00      	cmp	r2, #0
10000a9e:	d101      	bne.n	10000aa4 <ph_merge_two_pass+0x1c>
10000aa0:	0020      	movs	r0, r4
10000aa2:	bdf8      	pop	{r3, r4, r5, r6, r7, pc}
10000aa4:	0050      	lsls	r0, r2, #1
10000aa6:	1880      	adds	r0, r0, r2
10000aa8:	3803      	subs	r0, #3
10000aaa:	1809      	adds	r1, r1, r0
10000aac:	2000      	movs	r0, #0
10000aae:	784f      	ldrb	r7, [r1, #1]
10000ab0:	7048      	strb	r0, [r1, #1]
10000ab2:	0021      	movs	r1, r4
10000ab4:	7058      	strb	r0, [r3, #1]
10000ab6:	0028      	movs	r0, r5
10000ab8:	f7ff ff94 	bl	100009e4 <ph_merge_nodes>
10000abc:	0039      	movs	r1, r7
10000abe:	0006      	movs	r6, r0
10000ac0:	0028      	movs	r0, r5
10000ac2:	f7ff ffe1 	bl	10000a88 <ph_merge_two_pass>
10000ac6:	0004      	movs	r4, r0
10000ac8:	2e00      	cmp	r6, #0
10000aca:	d0e9      	beq.n	10000aa0 <ph_merge_two_pass+0x18>
10000acc:	2800      	cmp	r0, #0
10000ace:	d026      	beq.n	10000b1e <ph_merge_two_pass+0x96>
10000ad0:	0031      	movs	r1, r6
10000ad2:	0022      	movs	r2, r4
10000ad4:	68a8      	ldr	r0, [r5, #8]
10000ad6:	686b      	ldr	r3, [r5, #4]
10000ad8:	4798      	blx	r3
10000ada:	6829      	ldr	r1, [r5, #0]
10000adc:	2800      	cmp	r0, #0
10000ade:	d00f      	beq.n	10000b00 <ph_merge_two_pass+0x78>
10000ae0:	0063      	lsls	r3, r4, #1
10000ae2:	191b      	adds	r3, r3, r4
10000ae4:	0072      	lsls	r2, r6, #1
10000ae6:	3b03      	subs	r3, #3
10000ae8:	1992      	adds	r2, r2, r6
10000aea:	18cb      	adds	r3, r1, r3
10000aec:	3a03      	subs	r2, #3
10000aee:	709e      	strb	r6, [r3, #2]
10000af0:	1888      	adds	r0, r1, r2
10000af2:	5c8a      	ldrb	r2, [r1, r2]
10000af4:	2a00      	cmp	r2, #0
10000af6:	d000      	beq.n	10000afa <ph_merge_two_pass+0x72>
10000af8:	705a      	strb	r2, [r3, #1]
10000afa:	7004      	strb	r4, [r0, #0]
10000afc:	0034      	movs	r4, r6
10000afe:	e7cf      	b.n	10000aa0 <ph_merge_two_pass+0x18>
10000b00:	0073      	lsls	r3, r6, #1
10000b02:	199b      	adds	r3, r3, r6
10000b04:	0062      	lsls	r2, r4, #1
10000b06:	3b03      	subs	r3, #3
10000b08:	1912      	adds	r2, r2, r4
10000b0a:	18cb      	adds	r3, r1, r3
10000b0c:	3a03      	subs	r2, #3
10000b0e:	709c      	strb	r4, [r3, #2]
10000b10:	1888      	adds	r0, r1, r2
10000b12:	5c8a      	ldrb	r2, [r1, r2]
10000b14:	2a00      	cmp	r2, #0
10000b16:	d000      	beq.n	10000b1a <ph_merge_two_pass+0x92>
10000b18:	705a      	strb	r2, [r3, #1]
10000b1a:	7006      	strb	r6, [r0, #0]
10000b1c:	e7c0      	b.n	10000aa0 <ph_merge_two_pass+0x18>
10000b1e:	0034      	movs	r4, r6
10000b20:	e7be      	b.n	10000aa0 <ph_merge_two_pass+0x18>
10000b22:	46c0      	nop			; (mov r8, r8)

10000b24 <ph_remove_any_head>:
10000b24:	b5f0      	push	{r4, r5, r6, r7, lr}
10000b26:	4657      	mov	r7, sl
10000b28:	4645      	mov	r5, r8
10000b2a:	46de      	mov	lr, fp
10000b2c:	464e      	mov	r6, r9
10000b2e:	b5e0      	push	{r5, r6, r7, lr}
10000b30:	000d      	movs	r5, r1
10000b32:	006b      	lsls	r3, r5, #1
10000b34:	6801      	ldr	r1, [r0, #0]
10000b36:	195b      	adds	r3, r3, r5
10000b38:	1edf      	subs	r7, r3, #3
10000b3a:	0004      	movs	r4, r0
10000b3c:	5dc8      	ldrb	r0, [r1, r7]
10000b3e:	b083      	sub	sp, #12
10000b40:	9201      	str	r2, [sp, #4]
10000b42:	19ca      	adds	r2, r1, r7
10000b44:	2800      	cmp	r0, #0
10000b46:	d04c      	beq.n	10000be2 <ph_remove_any_head+0xbe>
10000b48:	0043      	lsls	r3, r0, #1
10000b4a:	181b      	adds	r3, r3, r0
10000b4c:	3b03      	subs	r3, #3
10000b4e:	18cb      	adds	r3, r1, r3
10000b50:	785e      	ldrb	r6, [r3, #1]
10000b52:	46b4      	mov	ip, r6
10000b54:	2e00      	cmp	r6, #0
10000b56:	d116      	bne.n	10000b86 <ph_remove_any_head+0x62>
10000b58:	9e01      	ldr	r6, [sp, #4]
10000b5a:	2e00      	cmp	r6, #0
10000b5c:	d03e      	beq.n	10000bdc <ph_remove_any_head+0xb8>
10000b5e:	7be6      	ldrb	r6, [r4, #15]
10000b60:	2e00      	cmp	r6, #0
10000b62:	d004      	beq.n	10000b6e <ph_remove_any_head+0x4a>
10000b64:	0073      	lsls	r3, r6, #1
10000b66:	199b      	adds	r3, r3, r6
10000b68:	18cb      	adds	r3, r1, r3
10000b6a:	3b03      	subs	r3, #3
10000b6c:	705d      	strb	r5, [r3, #1]
10000b6e:	73e5      	strb	r5, [r4, #15]
10000b70:	2800      	cmp	r0, #0
10000b72:	d12f      	bne.n	10000bd4 <ph_remove_any_head+0xb0>
10000b74:	2300      	movs	r3, #0
10000b76:	7053      	strb	r3, [r2, #1]
10000b78:	b003      	add	sp, #12
10000b7a:	bcf0      	pop	{r4, r5, r6, r7}
10000b7c:	46bb      	mov	fp, r7
10000b7e:	46b2      	mov	sl, r6
10000b80:	46a9      	mov	r9, r5
10000b82:	46a0      	mov	r8, r4
10000b84:	bdf0      	pop	{r4, r5, r6, r7, pc}
10000b86:	0072      	lsls	r2, r6, #1
10000b88:	4462      	add	r2, ip
10000b8a:	3a03      	subs	r2, #3
10000b8c:	188a      	adds	r2, r1, r2
10000b8e:	7851      	ldrb	r1, [r2, #1]
10000b90:	4688      	mov	r8, r1
10000b92:	2100      	movs	r1, #0
10000b94:	7051      	strb	r1, [r2, #1]
10000b96:	4689      	mov	r9, r1
10000b98:	7059      	strb	r1, [r3, #1]
10000b9a:	0032      	movs	r2, r6
10000b9c:	0001      	movs	r1, r0
10000b9e:	0020      	movs	r0, r4
10000ba0:	f7ff ff20 	bl	100009e4 <ph_merge_nodes>
10000ba4:	4643      	mov	r3, r8
10000ba6:	4682      	mov	sl, r0
10000ba8:	2b00      	cmp	r3, #0
10000baa:	d007      	beq.n	10000bbc <ph_remove_any_head+0x98>
10000bac:	005b      	lsls	r3, r3, #1
10000bae:	6821      	ldr	r1, [r4, #0]
10000bb0:	4443      	add	r3, r8
10000bb2:	3b03      	subs	r3, #3
10000bb4:	18cb      	adds	r3, r1, r3
10000bb6:	785a      	ldrb	r2, [r3, #1]
10000bb8:	2a00      	cmp	r2, #0
10000bba:	d116      	bne.n	10000bea <ph_remove_any_head+0xc6>
10000bbc:	4642      	mov	r2, r8
10000bbe:	4651      	mov	r1, sl
10000bc0:	0020      	movs	r0, r4
10000bc2:	f7ff ff0f 	bl	100009e4 <ph_merge_nodes>
10000bc6:	6821      	ldr	r1, [r4, #0]
10000bc8:	9b01      	ldr	r3, [sp, #4]
10000bca:	19ca      	adds	r2, r1, r7
10000bcc:	2b00      	cmp	r3, #0
10000bce:	d1c6      	bne.n	10000b5e <ph_remove_any_head+0x3a>
10000bd0:	2800      	cmp	r0, #0
10000bd2:	d0cf      	beq.n	10000b74 <ph_remove_any_head+0x50>
10000bd4:	0043      	lsls	r3, r0, #1
10000bd6:	181b      	adds	r3, r3, r0
10000bd8:	3b03      	subs	r3, #3
10000bda:	18cb      	adds	r3, r1, r3
10000bdc:	2100      	movs	r1, #0
10000bde:	7099      	strb	r1, [r3, #2]
10000be0:	e7c8      	b.n	10000b74 <ph_remove_any_head+0x50>
10000be2:	9b01      	ldr	r3, [sp, #4]
10000be4:	2b00      	cmp	r3, #0
10000be6:	d1ba      	bne.n	10000b5e <ph_remove_any_head+0x3a>
10000be8:	e7c4      	b.n	10000b74 <ph_remove_any_head+0x50>
10000bea:	0050      	lsls	r0, r2, #1
10000bec:	1880      	adds	r0, r0, r2
10000bee:	3803      	subs	r0, #3
10000bf0:	1809      	adds	r1, r1, r0
10000bf2:	7848      	ldrb	r0, [r1, #1]
10000bf4:	4683      	mov	fp, r0
10000bf6:	4648      	mov	r0, r9
10000bf8:	7048      	strb	r0, [r1, #1]
10000bfa:	7058      	strb	r0, [r3, #1]
10000bfc:	4641      	mov	r1, r8
10000bfe:	0020      	movs	r0, r4
10000c00:	f7ff fef0 	bl	100009e4 <ph_merge_nodes>
10000c04:	4659      	mov	r1, fp
10000c06:	4680      	mov	r8, r0
10000c08:	0020      	movs	r0, r4
10000c0a:	f7ff ff3d 	bl	10000a88 <ph_merge_two_pass>
10000c0e:	4641      	mov	r1, r8
10000c10:	0002      	movs	r2, r0
10000c12:	0020      	movs	r0, r4
10000c14:	f7ff fee6 	bl	100009e4 <ph_merge_nodes>
10000c18:	4680      	mov	r8, r0
10000c1a:	e7cf      	b.n	10000bbc <ph_remove_any_head+0x98>

10000c1c <ph_remove_head>:
10000c1c:	b5f0      	push	{r4, r5, r6, r7, lr}
10000c1e:	4657      	mov	r7, sl
10000c20:	4645      	mov	r5, r8
10000c22:	46de      	mov	lr, fp
10000c24:	464e      	mov	r6, r9
10000c26:	b5e0      	push	{r5, r6, r7, lr}
10000c28:	b083      	sub	sp, #12
10000c2a:	9101      	str	r1, [sp, #4]
10000c2c:	7b45      	ldrb	r5, [r0, #13]
10000c2e:	0004      	movs	r4, r0
10000c30:	006b      	lsls	r3, r5, #1
10000c32:	6800      	ldr	r0, [r0, #0]
10000c34:	195b      	adds	r3, r3, r5
10000c36:	1edf      	subs	r7, r3, #3
10000c38:	5dc1      	ldrb	r1, [r0, r7]
10000c3a:	19c2      	adds	r2, r0, r7
10000c3c:	2900      	cmp	r1, #0
10000c3e:	d04e      	beq.n	10000cde <ph_remove_head+0xc2>
10000c40:	004b      	lsls	r3, r1, #1
10000c42:	185b      	adds	r3, r3, r1
10000c44:	3b03      	subs	r3, #3
10000c46:	18c3      	adds	r3, r0, r3
10000c48:	785e      	ldrb	r6, [r3, #1]
10000c4a:	46b4      	mov	ip, r6
10000c4c:	2e00      	cmp	r6, #0
10000c4e:	d118      	bne.n	10000c82 <ph_remove_head+0x66>
10000c50:	9e01      	ldr	r6, [sp, #4]
10000c52:	2e00      	cmp	r6, #0
10000c54:	d040      	beq.n	10000cd8 <ph_remove_head+0xbc>
10000c56:	7be6      	ldrb	r6, [r4, #15]
10000c58:	2e00      	cmp	r6, #0
10000c5a:	d004      	beq.n	10000c66 <ph_remove_head+0x4a>
10000c5c:	0073      	lsls	r3, r6, #1
10000c5e:	199b      	adds	r3, r3, r6
10000c60:	18c3      	adds	r3, r0, r3
10000c62:	3b03      	subs	r3, #3
10000c64:	705d      	strb	r5, [r3, #1]
10000c66:	73e5      	strb	r5, [r4, #15]
10000c68:	2900      	cmp	r1, #0
10000c6a:	d131      	bne.n	10000cd0 <ph_remove_head+0xb4>
10000c6c:	2300      	movs	r3, #0
10000c6e:	0028      	movs	r0, r5
10000c70:	7053      	strb	r3, [r2, #1]
10000c72:	7361      	strb	r1, [r4, #13]
10000c74:	b003      	add	sp, #12
10000c76:	bcf0      	pop	{r4, r5, r6, r7}
10000c78:	46bb      	mov	fp, r7
10000c7a:	46b2      	mov	sl, r6
10000c7c:	46a9      	mov	r9, r5
10000c7e:	46a0      	mov	r8, r4
10000c80:	bdf0      	pop	{r4, r5, r6, r7, pc}
10000c82:	0072      	lsls	r2, r6, #1
10000c84:	4462      	add	r2, ip
10000c86:	3a03      	subs	r2, #3
10000c88:	1882      	adds	r2, r0, r2
10000c8a:	7850      	ldrb	r0, [r2, #1]
10000c8c:	4680      	mov	r8, r0
10000c8e:	2000      	movs	r0, #0
10000c90:	7050      	strb	r0, [r2, #1]
10000c92:	4681      	mov	r9, r0
10000c94:	7058      	strb	r0, [r3, #1]
10000c96:	0032      	movs	r2, r6
10000c98:	0020      	movs	r0, r4
10000c9a:	f7ff fea3 	bl	100009e4 <ph_merge_nodes>
10000c9e:	4643      	mov	r3, r8
10000ca0:	4682      	mov	sl, r0
10000ca2:	2b00      	cmp	r3, #0
10000ca4:	d007      	beq.n	10000cb6 <ph_remove_head+0x9a>
10000ca6:	005b      	lsls	r3, r3, #1
10000ca8:	6821      	ldr	r1, [r4, #0]
10000caa:	4443      	add	r3, r8
10000cac:	3b03      	subs	r3, #3
10000cae:	18cb      	adds	r3, r1, r3
10000cb0:	785a      	ldrb	r2, [r3, #1]
10000cb2:	2a00      	cmp	r2, #0
10000cb4:	d117      	bne.n	10000ce6 <ph_remove_head+0xca>
10000cb6:	4642      	mov	r2, r8
10000cb8:	4651      	mov	r1, sl
10000cba:	0020      	movs	r0, r4
10000cbc:	f7ff fe92 	bl	100009e4 <ph_merge_nodes>
10000cc0:	9b01      	ldr	r3, [sp, #4]
10000cc2:	0001      	movs	r1, r0
10000cc4:	6820      	ldr	r0, [r4, #0]
10000cc6:	19c2      	adds	r2, r0, r7
10000cc8:	2b00      	cmp	r3, #0
10000cca:	d1c4      	bne.n	10000c56 <ph_remove_head+0x3a>
10000ccc:	2900      	cmp	r1, #0
10000cce:	d0cd      	beq.n	10000c6c <ph_remove_head+0x50>
10000cd0:	004b      	lsls	r3, r1, #1
10000cd2:	185b      	adds	r3, r3, r1
10000cd4:	3b03      	subs	r3, #3
10000cd6:	18c3      	adds	r3, r0, r3
10000cd8:	2000      	movs	r0, #0
10000cda:	7098      	strb	r0, [r3, #2]
10000cdc:	e7c6      	b.n	10000c6c <ph_remove_head+0x50>
10000cde:	9b01      	ldr	r3, [sp, #4]
10000ce0:	2b00      	cmp	r3, #0
10000ce2:	d1b8      	bne.n	10000c56 <ph_remove_head+0x3a>
10000ce4:	e7c2      	b.n	10000c6c <ph_remove_head+0x50>
10000ce6:	0050      	lsls	r0, r2, #1
10000ce8:	1880      	adds	r0, r0, r2
10000cea:	3803      	subs	r0, #3
10000cec:	1809      	adds	r1, r1, r0
10000cee:	7848      	ldrb	r0, [r1, #1]
10000cf0:	4683      	mov	fp, r0
10000cf2:	4648      	mov	r0, r9
10000cf4:	7048      	strb	r0, [r1, #1]
10000cf6:	7058      	strb	r0, [r3, #1]
10000cf8:	4641      	mov	r1, r8
10000cfa:	0020      	movs	r0, r4
10000cfc:	f7ff fe72 	bl	100009e4 <ph_merge_nodes>
10000d00:	4659      	mov	r1, fp
10000d02:	4680      	mov	r8, r0
10000d04:	0020      	movs	r0, r4
10000d06:	f7ff febf 	bl	10000a88 <ph_merge_two_pass>
10000d0a:	4641      	mov	r1, r8
10000d0c:	0002      	movs	r2, r0
10000d0e:	0020      	movs	r0, r4
10000d10:	f7ff fe68 	bl	100009e4 <ph_merge_nodes>
10000d14:	4680      	mov	r8, r0
10000d16:	e7ce      	b.n	10000cb6 <ph_remove_head+0x9a>

10000d18 <ph_remove_and_free_node>:
10000d18:	b570      	push	{r4, r5, r6, lr}
10000d1a:	0004      	movs	r4, r0
10000d1c:	2900      	cmp	r1, #0
10000d1e:	d02c      	beq.n	10000d7a <ph_remove_and_free_node+0x62>
10000d20:	7b43      	ldrb	r3, [r0, #13]
10000d22:	428b      	cmp	r3, r1
10000d24:	d02e      	beq.n	10000d84 <ph_remove_and_free_node+0x6c>
10000d26:	6805      	ldr	r5, [r0, #0]
10000d28:	0048      	lsls	r0, r1, #1
10000d2a:	1840      	adds	r0, r0, r1
10000d2c:	3803      	subs	r0, #3
10000d2e:	1828      	adds	r0, r5, r0
10000d30:	7882      	ldrb	r2, [r0, #2]
10000d32:	2a00      	cmp	r2, #0
10000d34:	d021      	beq.n	10000d7a <ph_remove_and_free_node+0x62>
10000d36:	0053      	lsls	r3, r2, #1
10000d38:	189b      	adds	r3, r3, r2
10000d3a:	3b03      	subs	r3, #3
10000d3c:	5cea      	ldrb	r2, [r5, r3]
10000d3e:	18ee      	adds	r6, r5, r3
10000d40:	428a      	cmp	r2, r1
10000d42:	d102      	bne.n	10000d4a <ph_remove_and_free_node+0x32>
10000d44:	e01b      	b.n	10000d7e <ph_remove_and_free_node+0x66>
10000d46:	2a00      	cmp	r2, #0
10000d48:	d008      	beq.n	10000d5c <ph_remove_and_free_node+0x44>
10000d4a:	0053      	lsls	r3, r2, #1
10000d4c:	189b      	adds	r3, r3, r2
10000d4e:	3b03      	subs	r3, #3
10000d50:	18eb      	adds	r3, r5, r3
10000d52:	785a      	ldrb	r2, [r3, #1]
10000d54:	428a      	cmp	r2, r1
10000d56:	d1f6      	bne.n	10000d46 <ph_remove_and_free_node+0x2e>
10000d58:	7842      	ldrb	r2, [r0, #1]
10000d5a:	705a      	strb	r2, [r3, #1]
10000d5c:	2300      	movs	r3, #0
10000d5e:	2201      	movs	r2, #1
10000d60:	7083      	strb	r3, [r0, #2]
10000d62:	7043      	strb	r3, [r0, #1]
10000d64:	0020      	movs	r0, r4
10000d66:	f7ff fedd 	bl	10000b24 <ph_remove_any_head>
10000d6a:	7b61      	ldrb	r1, [r4, #13]
10000d6c:	0002      	movs	r2, r0
10000d6e:	0020      	movs	r0, r4
10000d70:	f7ff fe38 	bl	100009e4 <ph_merge_nodes>
10000d74:	7360      	strb	r0, [r4, #13]
10000d76:	2001      	movs	r0, #1
10000d78:	e000      	b.n	10000d7c <ph_remove_and_free_node+0x64>
10000d7a:	2000      	movs	r0, #0
10000d7c:	bd70      	pop	{r4, r5, r6, pc}
10000d7e:	7843      	ldrb	r3, [r0, #1]
10000d80:	7033      	strb	r3, [r6, #0]
10000d82:	e7eb      	b.n	10000d5c <ph_remove_and_free_node+0x44>
10000d84:	2201      	movs	r2, #1
10000d86:	0019      	movs	r1, r3
10000d88:	f7ff fecc 	bl	10000b24 <ph_remove_any_head>
10000d8c:	7360      	strb	r0, [r4, #13]
10000d8e:	2001      	movs	r0, #1
10000d90:	e7f4      	b.n	10000d7c <ph_remove_and_free_node+0x64>
10000d92:	46c0      	nop			; (mov r8, r8)

10000d94 <runtime_init>:
10000d94:	4b2c      	ldr	r3, [pc, #176]	; (10000e48 <runtime_init+0xb4>)
10000d96:	4a2d      	ldr	r2, [pc, #180]	; (10000e4c <runtime_init+0xb8>)
10000d98:	b570      	push	{r4, r5, r6, lr}
10000d9a:	601a      	str	r2, [r3, #0]
10000d9c:	4a2c      	ldr	r2, [pc, #176]	; (10000e50 <runtime_init+0xbc>)
10000d9e:	4b2d      	ldr	r3, [pc, #180]	; (10000e54 <runtime_init+0xc0>)
10000da0:	492d      	ldr	r1, [pc, #180]	; (10000e58 <runtime_init+0xc4>)
10000da2:	601a      	str	r2, [r3, #0]
10000da4:	0014      	movs	r4, r2
10000da6:	688b      	ldr	r3, [r1, #8]
10000da8:	439c      	bics	r4, r3
10000daa:	d1fb      	bne.n	10000da4 <runtime_init+0x10>
10000dac:	4d2b      	ldr	r5, [pc, #172]	; (10000e5c <runtime_init+0xc8>)
10000dae:	4e2c      	ldr	r6, [pc, #176]	; (10000e60 <runtime_init+0xcc>)
10000db0:	42b5      	cmp	r5, r6
10000db2:	d208      	bcs.n	10000dc6 <runtime_init+0x32>
10000db4:	3e01      	subs	r6, #1
10000db6:	1b76      	subs	r6, r6, r5
10000db8:	08b6      	lsrs	r6, r6, #2
10000dba:	cd08      	ldmia	r5!, {r3}
10000dbc:	4798      	blx	r3
10000dbe:	0023      	movs	r3, r4
10000dc0:	3401      	adds	r4, #1
10000dc2:	42b3      	cmp	r3, r6
10000dc4:	d1f9      	bne.n	10000dba <runtime_init+0x26>
10000dc6:	f000 f87d 	bl	10000ec4 <clocks_init>
10000dca:	4a26      	ldr	r2, [pc, #152]	; (10000e64 <runtime_init+0xd0>)
10000dcc:	4b21      	ldr	r3, [pc, #132]	; (10000e54 <runtime_init+0xc0>)
10000dce:	601a      	str	r2, [r3, #0]
10000dd0:	4a21      	ldr	r2, [pc, #132]	; (10000e58 <runtime_init+0xc4>)
10000dd2:	6893      	ldr	r3, [r2, #8]
10000dd4:	43db      	mvns	r3, r3
10000dd6:	01db      	lsls	r3, r3, #7
10000dd8:	09dd      	lsrs	r5, r3, #7
10000dda:	2b00      	cmp	r3, #0
10000ddc:	d1f9      	bne.n	10000dd2 <runtime_init+0x3e>
10000dde:	2240      	movs	r2, #64	; 0x40
10000de0:	4b21      	ldr	r3, [pc, #132]	; (10000e68 <runtime_init+0xd4>)
10000de2:	4c22      	ldr	r4, [pc, #136]	; (10000e6c <runtime_init+0xd8>)
10000de4:	4e22      	ldr	r6, [pc, #136]	; (10000e70 <runtime_init+0xdc>)
10000de6:	679a      	str	r2, [r3, #120]	; 0x78
10000de8:	675a      	str	r2, [r3, #116]	; 0x74
10000dea:	671a      	str	r2, [r3, #112]	; 0x70
10000dec:	66da      	str	r2, [r3, #108]	; 0x6c
10000dee:	42b4      	cmp	r4, r6
10000df0:	d208      	bcs.n	10000e04 <runtime_init+0x70>
10000df2:	6823      	ldr	r3, [r4, #0]
10000df4:	0020      	movs	r0, r4
10000df6:	2b00      	cmp	r3, #0
10000df8:	d020      	beq.n	10000e3c <runtime_init+0xa8>
10000dfa:	3408      	adds	r4, #8
10000dfc:	f7ff fde4 	bl	100009c8 <recursive_mutex_init>
10000e00:	42b4      	cmp	r4, r6
10000e02:	d3f6      	bcc.n	10000df2 <runtime_init+0x5e>
10000e04:	4c1b      	ldr	r4, [pc, #108]	; (10000e74 <runtime_init+0xe0>)
10000e06:	4e1c      	ldr	r6, [pc, #112]	; (10000e78 <runtime_init+0xe4>)
10000e08:	22c0      	movs	r2, #192	; 0xc0
10000e0a:	68b1      	ldr	r1, [r6, #8]
10000e0c:	0020      	movs	r0, r4
10000e0e:	f000 fcd7 	bl	100017c0 <__wrap___aeabi_memcpy>
10000e12:	60b4      	str	r4, [r6, #8]
10000e14:	f7ff fab0 	bl	10000378 <spin_locks_reset>
10000e18:	f000 fb24 	bl	10001464 <irq_init_priorities>
10000e1c:	f7ff fc46 	bl	100006ac <alarm_pool_init_default>
10000e20:	4c16      	ldr	r4, [pc, #88]	; (10000e7c <runtime_init+0xe8>)
10000e22:	4e17      	ldr	r6, [pc, #92]	; (10000e80 <runtime_init+0xec>)
10000e24:	42b4      	cmp	r4, r6
10000e26:	d208      	bcs.n	10000e3a <runtime_init+0xa6>
10000e28:	3e01      	subs	r6, #1
10000e2a:	1b36      	subs	r6, r6, r4
10000e2c:	08b6      	lsrs	r6, r6, #2
10000e2e:	cc08      	ldmia	r4!, {r3}
10000e30:	4798      	blx	r3
10000e32:	002b      	movs	r3, r5
10000e34:	3501      	adds	r5, #1
10000e36:	429e      	cmp	r6, r3
10000e38:	d1f9      	bne.n	10000e2e <runtime_init+0x9a>
10000e3a:	bd70      	pop	{r4, r5, r6, pc}
10000e3c:	3408      	adds	r4, #8
10000e3e:	f7ff fdb5 	bl	100009ac <mutex_init>
10000e42:	42b4      	cmp	r4, r6
10000e44:	d3d5      	bcc.n	10000df2 <runtime_init+0x5e>
10000e46:	e7dd      	b.n	10000e04 <runtime_init+0x70>
10000e48:	4000e000 	.word	0x4000e000
10000e4c:	fefbcdbf 	.word	0xfefbcdbf
10000e50:	003c7ffe 	.word	0x003c7ffe
10000e54:	4000f000 	.word	0x4000f000
10000e58:	4000c000 	.word	0x4000c000
10000e5c:	20000218 	.word	0x20000218
10000e60:	20000228 	.word	0x20000228
10000e64:	01ffffff 	.word	0x01ffffff
10000e68:	4001f000 	.word	0x4001f000
10000e6c:	20000210 	.word	0x20000210
10000e70:	20000218 	.word	0x20000218
10000e74:	20000000 	.word	0x20000000
10000e78:	e000ed00 	.word	0xe000ed00
10000e7c:	20000228 	.word	0x20000228
10000e80:	2000022c 	.word	0x2000022c

10000e84 <exit>:
10000e84:	be00      	bkpt	0x0000
10000e86:	e7fd      	b.n	10000e84 <exit>

10000e88 <panic>:
10000e88:	b40f      	push	{r0, r1, r2, r3}
10000e8a:	b500      	push	{lr}
10000e8c:	4808      	ldr	r0, [pc, #32]	; (10000eb0 <panic+0x28>)
10000e8e:	b083      	sub	sp, #12
10000e90:	f000 fdcc 	bl	10001a2c <__wrap_puts>
10000e94:	9b04      	ldr	r3, [sp, #16]
10000e96:	2b00      	cmp	r3, #0
10000e98:	d007      	beq.n	10000eaa <panic+0x22>
10000e9a:	a905      	add	r1, sp, #20
10000e9c:	0018      	movs	r0, r3
10000e9e:	9101      	str	r1, [sp, #4]
10000ea0:	f000 fb66 	bl	10001570 <weak_raw_vprintf>
10000ea4:	4803      	ldr	r0, [pc, #12]	; (10000eb4 <panic+0x2c>)
10000ea6:	f000 fdc1 	bl	10001a2c <__wrap_puts>
10000eaa:	be00      	bkpt	0x0000
10000eac:	e7fd      	b.n	10000eaa <panic+0x22>
10000eae:	46c0      	nop			; (mov r8, r8)
10000eb0:	10001b2c 	.word	0x10001b2c
10000eb4:	10001b3c 	.word	0x10001b3c

10000eb8 <hard_assertion_failure>:
10000eb8:	b510      	push	{r4, lr}
10000eba:	4801      	ldr	r0, [pc, #4]	; (10000ec0 <hard_assertion_failure+0x8>)
10000ebc:	f7ff ffe4 	bl	10000e88 <panic>
10000ec0:	10001b40 	.word	0x10001b40

10000ec4 <clocks_init>:
10000ec4:	b510      	push	{r4, lr}
10000ec6:	200c      	movs	r0, #12
10000ec8:	b082      	sub	sp, #8
10000eca:	f000 fb2d 	bl	10001528 <watchdog_start_tick>
10000ece:	f7ff fa4b 	bl	10000368 <running_on_fpga>
10000ed2:	2800      	cmp	r0, #0
10000ed4:	d00e      	beq.n	10000ef4 <clocks_init+0x30>
10000ed6:	4b85      	ldr	r3, [pc, #532]	; (100010ec <clocks_init+0x228>)
10000ed8:	4a85      	ldr	r2, [pc, #532]	; (100010f0 <clocks_init+0x22c>)
10000eda:	601a      	str	r2, [r3, #0]
10000edc:	605a      	str	r2, [r3, #4]
10000ede:	609a      	str	r2, [r3, #8]
10000ee0:	60da      	str	r2, [r3, #12]
10000ee2:	611a      	str	r2, [r3, #16]
10000ee4:	615a      	str	r2, [r3, #20]
10000ee6:	619a      	str	r2, [r3, #24]
10000ee8:	61da      	str	r2, [r3, #28]
10000eea:	621a      	str	r2, [r3, #32]
10000eec:	4a81      	ldr	r2, [pc, #516]	; (100010f4 <clocks_init+0x230>)
10000eee:	625a      	str	r2, [r3, #36]	; 0x24
10000ef0:	b002      	add	sp, #8
10000ef2:	bd10      	pop	{r4, pc}
10000ef4:	4c80      	ldr	r4, [pc, #512]	; (100010f8 <clocks_init+0x234>)
10000ef6:	67a0      	str	r0, [r4, #120]	; 0x78
10000ef8:	f000 fb1e 	bl	10001538 <xosc_init>
10000efc:	2201      	movs	r2, #1
10000efe:	4b7f      	ldr	r3, [pc, #508]	; (100010fc <clocks_init+0x238>)
10000f00:	601a      	str	r2, [r3, #0]
10000f02:	6c63      	ldr	r3, [r4, #68]	; 0x44
10000f04:	2b01      	cmp	r3, #1
10000f06:	d1fc      	bne.n	10000f02 <clocks_init+0x3e>
10000f08:	2203      	movs	r2, #3
10000f0a:	4b7d      	ldr	r3, [pc, #500]	; (10001100 <clocks_init+0x23c>)
10000f0c:	601a      	str	r2, [r3, #0]
10000f0e:	4a7a      	ldr	r2, [pc, #488]	; (100010f8 <clocks_init+0x234>)
10000f10:	6b93      	ldr	r3, [r2, #56]	; 0x38
10000f12:	2b01      	cmp	r3, #1
10000f14:	d1fc      	bne.n	10000f10 <clocks_init+0x4c>
10000f16:	2402      	movs	r4, #2
10000f18:	2101      	movs	r1, #1
10000f1a:	4a7a      	ldr	r2, [pc, #488]	; (10001104 <clocks_init+0x240>)
10000f1c:	487a      	ldr	r0, [pc, #488]	; (10001108 <clocks_init+0x244>)
10000f1e:	3305      	adds	r3, #5
10000f20:	9400      	str	r4, [sp, #0]
10000f22:	f000 fab1 	bl	10001488 <pll_init>
10000f26:	2305      	movs	r3, #5
10000f28:	4a78      	ldr	r2, [pc, #480]	; (1000110c <clocks_init+0x248>)
10000f2a:	2101      	movs	r1, #1
10000f2c:	4878      	ldr	r0, [pc, #480]	; (10001110 <clocks_init+0x24c>)
10000f2e:	9400      	str	r4, [sp, #0]
10000f30:	f000 faaa 	bl	10001488 <pll_init>
10000f34:	4b77      	ldr	r3, [pc, #476]	; (10001114 <clocks_init+0x250>)
10000f36:	685a      	ldr	r2, [r3, #4]
10000f38:	2aff      	cmp	r2, #255	; 0xff
10000f3a:	d802      	bhi.n	10000f42 <clocks_init+0x7e>
10000f3c:	2280      	movs	r2, #128	; 0x80
10000f3e:	0052      	lsls	r2, r2, #1
10000f40:	605a      	str	r2, [r3, #4]
10000f42:	2280      	movs	r2, #128	; 0x80
10000f44:	4b6e      	ldr	r3, [pc, #440]	; (10001100 <clocks_init+0x23c>)
10000f46:	4c69      	ldr	r4, [pc, #420]	; (100010ec <clocks_init+0x228>)
10000f48:	0112      	lsls	r2, r2, #4
10000f4a:	601a      	str	r2, [r3, #0]
10000f4c:	6921      	ldr	r1, [r4, #16]
10000f4e:	2900      	cmp	r1, #0
10000f50:	d005      	beq.n	10000f5e <clocks_init+0x9a>
10000f52:	6960      	ldr	r0, [r4, #20]
10000f54:	f000 fb5e 	bl	10001614 <__wrap___aeabi_uidiv>
10000f58:	3001      	adds	r0, #1
10000f5a:	3801      	subs	r0, #1
10000f5c:	d1fd      	bne.n	10000f5a <clocks_init+0x96>
10000f5e:	22e0      	movs	r2, #224	; 0xe0
10000f60:	4b6c      	ldr	r3, [pc, #432]	; (10001114 <clocks_init+0x250>)
10000f62:	486d      	ldr	r0, [pc, #436]	; (10001118 <clocks_init+0x254>)
10000f64:	6819      	ldr	r1, [r3, #0]
10000f66:	400a      	ands	r2, r1
10000f68:	6002      	str	r2, [r0, #0]
10000f6a:	2202      	movs	r2, #2
10000f6c:	6819      	ldr	r1, [r3, #0]
10000f6e:	4051      	eors	r1, r2
10000f70:	3201      	adds	r2, #1
10000f72:	400a      	ands	r2, r1
10000f74:	2104      	movs	r1, #4
10000f76:	6002      	str	r2, [r0, #0]
10000f78:	689a      	ldr	r2, [r3, #8]
10000f7a:	4211      	tst	r1, r2
10000f7c:	d0fc      	beq.n	10000f78 <clocks_init+0xb4>
10000f7e:	2180      	movs	r1, #128	; 0x80
10000f80:	4a66      	ldr	r2, [pc, #408]	; (1000111c <clocks_init+0x258>)
10000f82:	0109      	lsls	r1, r1, #4
10000f84:	6011      	str	r1, [r2, #0]
10000f86:	2280      	movs	r2, #128	; 0x80
10000f88:	0052      	lsls	r2, r2, #1
10000f8a:	605a      	str	r2, [r3, #4]
10000f8c:	4b64      	ldr	r3, [pc, #400]	; (10001120 <clocks_init+0x25c>)
10000f8e:	6123      	str	r3, [r4, #16]
10000f90:	4b64      	ldr	r3, [pc, #400]	; (10001124 <clocks_init+0x260>)
10000f92:	6859      	ldr	r1, [r3, #4]
10000f94:	29ff      	cmp	r1, #255	; 0xff
10000f96:	d800      	bhi.n	10000f9a <clocks_init+0xd6>
10000f98:	605a      	str	r2, [r3, #4]
10000f9a:	2203      	movs	r2, #3
10000f9c:	2101      	movs	r1, #1
10000f9e:	4b57      	ldr	r3, [pc, #348]	; (100010fc <clocks_init+0x238>)
10000fa0:	601a      	str	r2, [r3, #0]
10000fa2:	4a60      	ldr	r2, [pc, #384]	; (10001124 <clocks_init+0x260>)
10000fa4:	6893      	ldr	r3, [r2, #8]
10000fa6:	4219      	tst	r1, r3
10000fa8:	d0fc      	beq.n	10000fa4 <clocks_init+0xe0>
10000faa:	23e0      	movs	r3, #224	; 0xe0
10000fac:	6810      	ldr	r0, [r2, #0]
10000fae:	4003      	ands	r3, r0
10000fb0:	485d      	ldr	r0, [pc, #372]	; (10001128 <clocks_init+0x264>)
10000fb2:	6003      	str	r3, [r0, #0]
10000fb4:	6812      	ldr	r2, [r2, #0]
10000fb6:	2303      	movs	r3, #3
10000fb8:	404a      	eors	r2, r1
10000fba:	2102      	movs	r1, #2
10000fbc:	4013      	ands	r3, r2
10000fbe:	4a59      	ldr	r2, [pc, #356]	; (10001124 <clocks_init+0x260>)
10000fc0:	6003      	str	r3, [r0, #0]
10000fc2:	6893      	ldr	r3, [r2, #8]
10000fc4:	4219      	tst	r1, r3
10000fc6:	d0fc      	beq.n	10000fc2 <clocks_init+0xfe>
10000fc8:	2180      	movs	r1, #128	; 0x80
10000fca:	4b58      	ldr	r3, [pc, #352]	; (1000112c <clocks_init+0x268>)
10000fcc:	0109      	lsls	r1, r1, #4
10000fce:	6019      	str	r1, [r3, #0]
10000fd0:	2180      	movs	r1, #128	; 0x80
10000fd2:	4b57      	ldr	r3, [pc, #348]	; (10001130 <clocks_init+0x26c>)
10000fd4:	0049      	lsls	r1, r1, #1
10000fd6:	6051      	str	r1, [r2, #4]
10000fd8:	6163      	str	r3, [r4, #20]
10000fda:	4b56      	ldr	r3, [pc, #344]	; (10001134 <clocks_init+0x270>)
10000fdc:	685a      	ldr	r2, [r3, #4]
10000fde:	2aff      	cmp	r2, #255	; 0xff
10000fe0:	d800      	bhi.n	10000fe4 <clocks_init+0x120>
10000fe2:	6059      	str	r1, [r3, #4]
10000fe4:	2280      	movs	r2, #128	; 0x80
10000fe6:	4b54      	ldr	r3, [pc, #336]	; (10001138 <clocks_init+0x274>)
10000fe8:	0112      	lsls	r2, r2, #4
10000fea:	601a      	str	r2, [r3, #0]
10000fec:	69e1      	ldr	r1, [r4, #28]
10000fee:	2900      	cmp	r1, #0
10000ff0:	d005      	beq.n	10000ffe <clocks_init+0x13a>
10000ff2:	6960      	ldr	r0, [r4, #20]
10000ff4:	f000 fb0e 	bl	10001614 <__wrap___aeabi_uidiv>
10000ff8:	3001      	adds	r0, #1
10000ffa:	3801      	subs	r0, #1
10000ffc:	d1fd      	bne.n	10000ffa <clocks_init+0x136>
10000ffe:	23e0      	movs	r3, #224	; 0xe0
10001000:	4a4c      	ldr	r2, [pc, #304]	; (10001134 <clocks_init+0x270>)
10001002:	6811      	ldr	r1, [r2, #0]
10001004:	400b      	ands	r3, r1
10001006:	494d      	ldr	r1, [pc, #308]	; (1000113c <clocks_init+0x278>)
10001008:	600b      	str	r3, [r1, #0]
1000100a:	2180      	movs	r1, #128	; 0x80
1000100c:	4b4c      	ldr	r3, [pc, #304]	; (10001140 <clocks_init+0x27c>)
1000100e:	0109      	lsls	r1, r1, #4
10001010:	6019      	str	r1, [r3, #0]
10001012:	2180      	movs	r1, #128	; 0x80
10001014:	4b36      	ldr	r3, [pc, #216]	; (100010f0 <clocks_init+0x22c>)
10001016:	0049      	lsls	r1, r1, #1
10001018:	6051      	str	r1, [r2, #4]
1000101a:	61e3      	str	r3, [r4, #28]
1000101c:	4b49      	ldr	r3, [pc, #292]	; (10001144 <clocks_init+0x280>)
1000101e:	685a      	ldr	r2, [r3, #4]
10001020:	2aff      	cmp	r2, #255	; 0xff
10001022:	d800      	bhi.n	10001026 <clocks_init+0x162>
10001024:	6059      	str	r1, [r3, #4]
10001026:	2280      	movs	r2, #128	; 0x80
10001028:	4b47      	ldr	r3, [pc, #284]	; (10001148 <clocks_init+0x284>)
1000102a:	0112      	lsls	r2, r2, #4
1000102c:	601a      	str	r2, [r3, #0]
1000102e:	6a21      	ldr	r1, [r4, #32]
10001030:	2900      	cmp	r1, #0
10001032:	d005      	beq.n	10001040 <clocks_init+0x17c>
10001034:	6960      	ldr	r0, [r4, #20]
10001036:	f000 faed 	bl	10001614 <__wrap___aeabi_uidiv>
1000103a:	3001      	adds	r0, #1
1000103c:	3801      	subs	r0, #1
1000103e:	d1fd      	bne.n	1000103c <clocks_init+0x178>
10001040:	23e0      	movs	r3, #224	; 0xe0
10001042:	4a40      	ldr	r2, [pc, #256]	; (10001144 <clocks_init+0x280>)
10001044:	6811      	ldr	r1, [r2, #0]
10001046:	400b      	ands	r3, r1
10001048:	4940      	ldr	r1, [pc, #256]	; (1000114c <clocks_init+0x288>)
1000104a:	600b      	str	r3, [r1, #0]
1000104c:	2180      	movs	r1, #128	; 0x80
1000104e:	4b40      	ldr	r3, [pc, #256]	; (10001150 <clocks_init+0x28c>)
10001050:	0109      	lsls	r1, r1, #4
10001052:	6019      	str	r1, [r3, #0]
10001054:	2380      	movs	r3, #128	; 0x80
10001056:	005b      	lsls	r3, r3, #1
10001058:	6053      	str	r3, [r2, #4]
1000105a:	2280      	movs	r2, #128	; 0x80
1000105c:	4b24      	ldr	r3, [pc, #144]	; (100010f0 <clocks_init+0x22c>)
1000105e:	02d2      	lsls	r2, r2, #11
10001060:	6223      	str	r3, [r4, #32]
10001062:	4b3c      	ldr	r3, [pc, #240]	; (10001154 <clocks_init+0x290>)
10001064:	6859      	ldr	r1, [r3, #4]
10001066:	4291      	cmp	r1, r2
10001068:	d200      	bcs.n	1000106c <clocks_init+0x1a8>
1000106a:	605a      	str	r2, [r3, #4]
1000106c:	2280      	movs	r2, #128	; 0x80
1000106e:	4b3a      	ldr	r3, [pc, #232]	; (10001158 <clocks_init+0x294>)
10001070:	0112      	lsls	r2, r2, #4
10001072:	601a      	str	r2, [r3, #0]
10001074:	6a61      	ldr	r1, [r4, #36]	; 0x24
10001076:	2900      	cmp	r1, #0
10001078:	d005      	beq.n	10001086 <clocks_init+0x1c2>
1000107a:	6960      	ldr	r0, [r4, #20]
1000107c:	f000 faca 	bl	10001614 <__wrap___aeabi_uidiv>
10001080:	3001      	adds	r0, #1
10001082:	3801      	subs	r0, #1
10001084:	d1fd      	bne.n	10001082 <clocks_init+0x1be>
10001086:	23e0      	movs	r3, #224	; 0xe0
10001088:	4a32      	ldr	r2, [pc, #200]	; (10001154 <clocks_init+0x290>)
1000108a:	6811      	ldr	r1, [r2, #0]
1000108c:	400b      	ands	r3, r1
1000108e:	4933      	ldr	r1, [pc, #204]	; (1000115c <clocks_init+0x298>)
10001090:	600b      	str	r3, [r1, #0]
10001092:	2180      	movs	r1, #128	; 0x80
10001094:	4b32      	ldr	r3, [pc, #200]	; (10001160 <clocks_init+0x29c>)
10001096:	0109      	lsls	r1, r1, #4
10001098:	6019      	str	r1, [r3, #0]
1000109a:	2380      	movs	r3, #128	; 0x80
1000109c:	02db      	lsls	r3, r3, #11
1000109e:	6053      	str	r3, [r2, #4]
100010a0:	4b14      	ldr	r3, [pc, #80]	; (100010f4 <clocks_init+0x230>)
100010a2:	6263      	str	r3, [r4, #36]	; 0x24
100010a4:	4b2f      	ldr	r3, [pc, #188]	; (10001164 <clocks_init+0x2a0>)
100010a6:	685a      	ldr	r2, [r3, #4]
100010a8:	2aff      	cmp	r2, #255	; 0xff
100010aa:	d802      	bhi.n	100010b2 <clocks_init+0x1ee>
100010ac:	2280      	movs	r2, #128	; 0x80
100010ae:	0052      	lsls	r2, r2, #1
100010b0:	605a      	str	r2, [r3, #4]
100010b2:	2280      	movs	r2, #128	; 0x80
100010b4:	4b2c      	ldr	r3, [pc, #176]	; (10001168 <clocks_init+0x2a4>)
100010b6:	0112      	lsls	r2, r2, #4
100010b8:	601a      	str	r2, [r3, #0]
100010ba:	69a1      	ldr	r1, [r4, #24]
100010bc:	2900      	cmp	r1, #0
100010be:	d005      	beq.n	100010cc <clocks_init+0x208>
100010c0:	6960      	ldr	r0, [r4, #20]
100010c2:	f000 faa7 	bl	10001614 <__wrap___aeabi_uidiv>
100010c6:	3001      	adds	r0, #1
100010c8:	3801      	subs	r0, #1
100010ca:	d1fd      	bne.n	100010c8 <clocks_init+0x204>
100010cc:	23e0      	movs	r3, #224	; 0xe0
100010ce:	4a25      	ldr	r2, [pc, #148]	; (10001164 <clocks_init+0x2a0>)
100010d0:	6811      	ldr	r1, [r2, #0]
100010d2:	400b      	ands	r3, r1
100010d4:	4925      	ldr	r1, [pc, #148]	; (1000116c <clocks_init+0x2a8>)
100010d6:	600b      	str	r3, [r1, #0]
100010d8:	2180      	movs	r1, #128	; 0x80
100010da:	4b25      	ldr	r3, [pc, #148]	; (10001170 <clocks_init+0x2ac>)
100010dc:	0109      	lsls	r1, r1, #4
100010de:	6019      	str	r1, [r3, #0]
100010e0:	2380      	movs	r3, #128	; 0x80
100010e2:	005b      	lsls	r3, r3, #1
100010e4:	6053      	str	r3, [r2, #4]
100010e6:	4b12      	ldr	r3, [pc, #72]	; (10001130 <clocks_init+0x26c>)
100010e8:	61a3      	str	r3, [r4, #24]
100010ea:	e701      	b.n	10000ef0 <clocks_init+0x2c>
100010ec:	20000540 	.word	0x20000540
100010f0:	02dc6c00 	.word	0x02dc6c00
100010f4:	0000b71b 	.word	0x0000b71b
100010f8:	40008000 	.word	0x40008000
100010fc:	4000b03c 	.word	0x4000b03c
10001100:	4000b030 	.word	0x4000b030
10001104:	59682f00 	.word	0x59682f00
10001108:	40028000 	.word	0x40028000
1000110c:	1c9c3800 	.word	0x1c9c3800
10001110:	4002c000 	.word	0x4002c000
10001114:	40008030 	.word	0x40008030
10001118:	40009030 	.word	0x40009030
1000111c:	4000a030 	.word	0x4000a030
10001120:	00b71b00 	.word	0x00b71b00
10001124:	4000803c 	.word	0x4000803c
10001128:	4000903c 	.word	0x4000903c
1000112c:	4000a03c 	.word	0x4000a03c
10001130:	07735940 	.word	0x07735940
10001134:	40008054 	.word	0x40008054
10001138:	4000b054 	.word	0x4000b054
1000113c:	40009054 	.word	0x40009054
10001140:	4000a054 	.word	0x4000a054
10001144:	40008060 	.word	0x40008060
10001148:	4000b060 	.word	0x4000b060
1000114c:	40009060 	.word	0x40009060
10001150:	4000a060 	.word	0x4000a060
10001154:	4000806c 	.word	0x4000806c
10001158:	4000b06c 	.word	0x4000b06c
1000115c:	4000906c 	.word	0x4000906c
10001160:	4000a06c 	.word	0x4000a06c
10001164:	40008048 	.word	0x40008048
10001168:	4000b048 	.word	0x4000b048
1000116c:	40009048 	.word	0x40009048
10001170:	4000a048 	.word	0x4000a048

10001174 <irq_set_enabled>:
10001174:	2301      	movs	r3, #1
10001176:	4083      	lsls	r3, r0
10001178:	2900      	cmp	r1, #0
1000117a:	d004      	beq.n	10001186 <irq_set_enabled+0x12>
1000117c:	4a03      	ldr	r2, [pc, #12]	; (1000118c <irq_set_enabled+0x18>)
1000117e:	6013      	str	r3, [r2, #0]
10001180:	4a03      	ldr	r2, [pc, #12]	; (10001190 <irq_set_enabled+0x1c>)
10001182:	6013      	str	r3, [r2, #0]
10001184:	4770      	bx	lr
10001186:	4a03      	ldr	r2, [pc, #12]	; (10001194 <irq_set_enabled+0x20>)
10001188:	6013      	str	r3, [r2, #0]
1000118a:	e7fb      	b.n	10001184 <irq_set_enabled+0x10>
1000118c:	e000e280 	.word	0xe000e280
10001190:	e000e100 	.word	0xe000e100
10001194:	e000e180 	.word	0xe000e180

10001198 <irq_get_vtable_handler>:
10001198:	4b02      	ldr	r3, [pc, #8]	; (100011a4 <irq_get_vtable_handler+0xc>)
1000119a:	3010      	adds	r0, #16
1000119c:	689b      	ldr	r3, [r3, #8]
1000119e:	0080      	lsls	r0, r0, #2
100011a0:	58c0      	ldr	r0, [r0, r3]
100011a2:	4770      	bx	lr
100011a4:	e000ed00 	.word	0xe000ed00

100011a8 <irq_set_exclusive_handler>:
100011a8:	b570      	push	{r4, r5, r6, lr}
100011aa:	000d      	movs	r5, r1
100011ac:	f3ef 8610 	mrs	r6, PRIMASK
100011b0:	b672      	cpsid	i
100011b2:	4a0f      	ldr	r2, [pc, #60]	; (100011f0 <irq_set_exclusive_handler+0x48>)
100011b4:	6813      	ldr	r3, [r2, #0]
100011b6:	2b00      	cmp	r3, #0
100011b8:	d0fc      	beq.n	100011b4 <irq_set_exclusive_handler+0xc>
100011ba:	f3bf 8f5f 	dmb	sy
100011be:	4b0d      	ldr	r3, [pc, #52]	; (100011f4 <irq_set_exclusive_handler+0x4c>)
100011c0:	3010      	adds	r0, #16
100011c2:	689b      	ldr	r3, [r3, #8]
100011c4:	0084      	lsls	r4, r0, #2
100011c6:	591b      	ldr	r3, [r3, r4]
100011c8:	4a0b      	ldr	r2, [pc, #44]	; (100011f8 <irq_set_exclusive_handler+0x50>)
100011ca:	4293      	cmp	r3, r2
100011cc:	d003      	beq.n	100011d6 <irq_set_exclusive_handler+0x2e>
100011ce:	429d      	cmp	r5, r3
100011d0:	d001      	beq.n	100011d6 <irq_set_exclusive_handler+0x2e>
100011d2:	f7ff fe71 	bl	10000eb8 <hard_assertion_failure>
100011d6:	4b07      	ldr	r3, [pc, #28]	; (100011f4 <irq_set_exclusive_handler+0x4c>)
100011d8:	689b      	ldr	r3, [r3, #8]
100011da:	511d      	str	r5, [r3, r4]
100011dc:	f3bf 8f5f 	dmb	sy
100011e0:	f3bf 8f5f 	dmb	sy
100011e4:	2200      	movs	r2, #0
100011e6:	4b02      	ldr	r3, [pc, #8]	; (100011f0 <irq_set_exclusive_handler+0x48>)
100011e8:	601a      	str	r2, [r3, #0]
100011ea:	f386 8810 	msr	PRIMASK, r6
100011ee:	bd70      	pop	{r4, r5, r6, pc}
100011f0:	d0000124 	.word	0xd0000124
100011f4:	e000ed00 	.word	0xe000ed00
100011f8:	100001cd 	.word	0x100001cd

100011fc <irq_remove_handler>:
100011fc:	b5f0      	push	{r4, r5, r6, r7, lr}
100011fe:	46de      	mov	lr, fp
10001200:	4657      	mov	r7, sl
10001202:	464e      	mov	r6, r9
10001204:	4645      	mov	r5, r8
10001206:	b5e0      	push	{r5, r6, r7, lr}
10001208:	000c      	movs	r4, r1
1000120a:	b083      	sub	sp, #12
1000120c:	f3ef 8a10 	mrs	sl, PRIMASK
10001210:	b672      	cpsid	i
10001212:	4a5a      	ldr	r2, [pc, #360]	; (1000137c <irq_remove_handler+0x180>)
10001214:	6813      	ldr	r3, [r2, #0]
10001216:	2b00      	cmp	r3, #0
10001218:	d0fc      	beq.n	10001214 <irq_remove_handler+0x18>
1000121a:	f3bf 8f5f 	dmb	sy
1000121e:	2210      	movs	r2, #16
10001220:	4691      	mov	r9, r2
10001222:	4481      	add	r9, r0
10001224:	464a      	mov	r2, r9
10001226:	4b56      	ldr	r3, [pc, #344]	; (10001380 <irq_remove_handler+0x184>)
10001228:	0096      	lsls	r6, r2, #2
1000122a:	689b      	ldr	r3, [r3, #8]
1000122c:	599d      	ldr	r5, [r3, r6]
1000122e:	4b55      	ldr	r3, [pc, #340]	; (10001384 <irq_remove_handler+0x188>)
10001230:	4698      	mov	r8, r3
10001232:	429d      	cmp	r5, r3
10001234:	d005      	beq.n	10001242 <irq_remove_handler+0x46>
10001236:	42a5      	cmp	r5, r4
10001238:	d016      	beq.n	10001268 <irq_remove_handler+0x6c>
1000123a:	4f53      	ldr	r7, [pc, #332]	; (10001388 <irq_remove_handler+0x18c>)
1000123c:	1beb      	subs	r3, r5, r7
1000123e:	2b2f      	cmp	r3, #47	; 0x2f
10001240:	d914      	bls.n	1000126c <irq_remove_handler+0x70>
10001242:	4b4f      	ldr	r3, [pc, #316]	; (10001380 <irq_remove_handler+0x184>)
10001244:	689b      	ldr	r3, [r3, #8]
10001246:	519d      	str	r5, [r3, r6]
10001248:	f3bf 8f5f 	dmb	sy
1000124c:	f3bf 8f5f 	dmb	sy
10001250:	2200      	movs	r2, #0
10001252:	4b4a      	ldr	r3, [pc, #296]	; (1000137c <irq_remove_handler+0x180>)
10001254:	601a      	str	r2, [r3, #0]
10001256:	f38a 8810 	msr	PRIMASK, sl
1000125a:	b003      	add	sp, #12
1000125c:	bcf0      	pop	{r4, r5, r6, r7}
1000125e:	46bb      	mov	fp, r7
10001260:	46b2      	mov	sl, r6
10001262:	46a9      	mov	r9, r5
10001264:	46a0      	mov	r8, r4
10001266:	bdf0      	pop	{r4, r5, r6, r7, pc}
10001268:	001d      	movs	r5, r3
1000126a:	e7ea      	b.n	10001242 <irq_remove_handler+0x46>
1000126c:	2301      	movs	r3, #1
1000126e:	4083      	lsls	r3, r0
10001270:	469b      	mov	fp, r3
10001272:	465a      	mov	r2, fp
10001274:	4b45      	ldr	r3, [pc, #276]	; (1000138c <irq_remove_handler+0x190>)
10001276:	681b      	ldr	r3, [r3, #0]
10001278:	401a      	ands	r2, r3
1000127a:	9200      	str	r2, [sp, #0]
1000127c:	465a      	mov	r2, fp
1000127e:	4b44      	ldr	r3, [pc, #272]	; (10001390 <irq_remove_handler+0x194>)
10001280:	601a      	str	r2, [r3, #0]
10001282:	f3bf 8f5f 	dmb	sy
10001286:	f7fe ffee 	bl	10000266 <__get_current_exception>
1000128a:	9001      	str	r0, [sp, #4]
1000128c:	2800      	cmp	r0, #0
1000128e:	d003      	beq.n	10001298 <irq_remove_handler+0x9c>
10001290:	4581      	cmp	r9, r0
10001292:	d001      	beq.n	10001298 <irq_remove_handler+0x9c>
10001294:	f7ff fe10 	bl	10000eb8 <hard_assertion_failure>
10001298:	2301      	movs	r3, #1
1000129a:	002a      	movs	r2, r5
1000129c:	439a      	bics	r2, r3
1000129e:	0013      	movs	r3, r2
100012a0:	493c      	ldr	r1, [pc, #240]	; (10001394 <irq_remove_handler+0x198>)
100012a2:	1bdb      	subs	r3, r3, r7
100012a4:	415b      	adcs	r3, r3
100012a6:	4359      	muls	r1, r3
100012a8:	0d09      	lsrs	r1, r1, #20
100012aa:	6893      	ldr	r3, [r2, #8]
100012ac:	429c      	cmp	r4, r3
100012ae:	d108      	bne.n	100012c2 <irq_remove_handler+0xc6>
100012b0:	e05a      	b.n	10001368 <irq_remove_handler+0x16c>
100012b2:	0043      	lsls	r3, r0, #1
100012b4:	181b      	adds	r3, r3, r0
100012b6:	009b      	lsls	r3, r3, #2
100012b8:	18fb      	adds	r3, r7, r3
100012ba:	6898      	ldr	r0, [r3, #8]
100012bc:	42a0      	cmp	r0, r4
100012be:	d011      	beq.n	100012e4 <irq_remove_handler+0xe8>
100012c0:	001a      	movs	r2, r3
100012c2:	2006      	movs	r0, #6
100012c4:	5610      	ldrsb	r0, [r2, r0]
100012c6:	2800      	cmp	r0, #0
100012c8:	daf3      	bge.n	100012b2 <irq_remove_handler+0xb6>
100012ca:	9b00      	ldr	r3, [sp, #0]
100012cc:	2b00      	cmp	r3, #0
100012ce:	d005      	beq.n	100012dc <irq_remove_handler+0xe0>
100012d0:	465a      	mov	r2, fp
100012d2:	4b31      	ldr	r3, [pc, #196]	; (10001398 <irq_remove_handler+0x19c>)
100012d4:	601a      	str	r2, [r3, #0]
100012d6:	4b2d      	ldr	r3, [pc, #180]	; (1000138c <irq_remove_handler+0x190>)
100012d8:	601a      	str	r2, [r3, #0]
100012da:	e7b2      	b.n	10001242 <irq_remove_handler+0x46>
100012dc:	465a      	mov	r2, fp
100012de:	4b2c      	ldr	r3, [pc, #176]	; (10001390 <irq_remove_handler+0x194>)
100012e0:	601a      	str	r2, [r3, #0]
100012e2:	e7ae      	b.n	10001242 <irq_remove_handler+0x46>
100012e4:	2006      	movs	r0, #6
100012e6:	5618      	ldrsb	r0, [r3, r0]
100012e8:	2800      	cmp	r0, #0
100012ea:	db21      	blt.n	10001330 <irq_remove_handler+0x134>
100012ec:	0042      	lsls	r2, r0, #1
100012ee:	1811      	adds	r1, r2, r0
100012f0:	0089      	lsls	r1, r1, #2
100012f2:	187c      	adds	r4, r7, r1
100012f4:	4688      	mov	r8, r1
100012f6:	68a1      	ldr	r1, [r4, #8]
100012f8:	6099      	str	r1, [r3, #8]
100012fa:	79e1      	ldrb	r1, [r4, #7]
100012fc:	71d9      	strb	r1, [r3, #7]
100012fe:	2106      	movs	r1, #6
10001300:	5661      	ldrsb	r1, [r4, r1]
10001302:	7199      	strb	r1, [r3, #6]
10001304:	2900      	cmp	r1, #0
10001306:	db1f      	blt.n	10001348 <irq_remove_handler+0x14c>
10001308:	88a4      	ldrh	r4, [r4, #4]
1000130a:	1af9      	subs	r1, r7, r3
1000130c:	0564      	lsls	r4, r4, #21
1000130e:	1524      	asrs	r4, r4, #20
10001310:	4444      	add	r4, r8
10001312:	1909      	adds	r1, r1, r4
10001314:	24e0      	movs	r4, #224	; 0xe0
10001316:	0509      	lsls	r1, r1, #20
10001318:	0d49      	lsrs	r1, r1, #21
1000131a:	0224      	lsls	r4, r4, #8
1000131c:	4321      	orrs	r1, r4
1000131e:	8099      	strh	r1, [r3, #4]
10001320:	4b1e      	ldr	r3, [pc, #120]	; (1000139c <irq_remove_handler+0x1a0>)
10001322:	1812      	adds	r2, r2, r0
10001324:	7819      	ldrb	r1, [r3, #0]
10001326:	0092      	lsls	r2, r2, #2
10001328:	18ba      	adds	r2, r7, r2
1000132a:	7191      	strb	r1, [r2, #6]
1000132c:	7018      	strb	r0, [r3, #0]
1000132e:	e7cc      	b.n	100012ca <irq_remove_handler+0xce>
10001330:	9801      	ldr	r0, [sp, #4]
10001332:	2800      	cmp	r0, #0
10001334:	d10b      	bne.n	1000134e <irq_remove_handler+0x152>
10001336:	30ff      	adds	r0, #255	; 0xff
10001338:	7190      	strb	r0, [r2, #6]
1000133a:	4819      	ldr	r0, [pc, #100]	; (100013a0 <irq_remove_handler+0x1a4>)
1000133c:	8090      	strh	r0, [r2, #4]
1000133e:	4a17      	ldr	r2, [pc, #92]	; (1000139c <irq_remove_handler+0x1a0>)
10001340:	7810      	ldrb	r0, [r2, #0]
10001342:	7011      	strb	r1, [r2, #0]
10001344:	7198      	strb	r0, [r3, #6]
10001346:	e7c0      	b.n	100012ca <irq_remove_handler+0xce>
10001348:	21bd      	movs	r1, #189	; 0xbd
1000134a:	0209      	lsls	r1, r1, #8
1000134c:	e7e7      	b.n	1000131e <irq_remove_handler+0x122>
1000134e:	4a15      	ldr	r2, [pc, #84]	; (100013a4 <irq_remove_handler+0x1a8>)
10001350:	4915      	ldr	r1, [pc, #84]	; (100013a8 <irq_remove_handler+0x1ac>)
10001352:	1ad2      	subs	r2, r2, r3
10001354:	3a08      	subs	r2, #8
10001356:	0250      	lsls	r0, r2, #9
10001358:	0d40      	lsrs	r0, r0, #21
1000135a:	4301      	orrs	r1, r0
1000135c:	8099      	strh	r1, [r3, #4]
1000135e:	4913      	ldr	r1, [pc, #76]	; (100013ac <irq_remove_handler+0x1b0>)
10001360:	0852      	lsrs	r2, r2, #1
10001362:	430a      	orrs	r2, r1
10001364:	80da      	strh	r2, [r3, #6]
10001366:	e7b0      	b.n	100012ca <irq_remove_handler+0xce>
10001368:	2006      	movs	r0, #6
1000136a:	5610      	ldrsb	r0, [r2, r0]
1000136c:	0013      	movs	r3, r2
1000136e:	2800      	cmp	r0, #0
10001370:	dabc      	bge.n	100012ec <irq_remove_handler+0xf0>
10001372:	9a01      	ldr	r2, [sp, #4]
10001374:	2a00      	cmp	r2, #0
10001376:	d1ea      	bne.n	1000134e <irq_remove_handler+0x152>
10001378:	4645      	mov	r5, r8
1000137a:	e7e0      	b.n	1000133e <irq_remove_handler+0x142>
1000137c:	d0000124 	.word	0xd0000124
10001380:	e000ed00 	.word	0xe000ed00
10001384:	100001cd 	.word	0x100001cd
10001388:	200001a4 	.word	0x200001a4
1000138c:	e000e100 	.word	0xe000e100
10001390:	e000e180 	.word	0xe000e180
10001394:	0000aaaa 	.word	0x0000aaaa
10001398:	e000e280 	.word	0xe000e280
1000139c:	200005f5 	.word	0x200005f5
100013a0:	ffffbd00 	.word	0xffffbd00
100013a4:	200001de 	.word	0x200001de
100013a8:	fffff000 	.word	0xfffff000
100013ac:	fffff800 	.word	0xfffff800

100013b0 <irq_add_tail_to_free_list>:
100013b0:	b5f8      	push	{r3, r4, r5, r6, r7, lr}
100013b2:	2501      	movs	r5, #1
100013b4:	0004      	movs	r4, r0
100013b6:	4305      	orrs	r5, r0
100013b8:	f7fe ff55 	bl	10000266 <__get_current_exception>
100013bc:	f3ef 8c10 	mrs	ip, PRIMASK
100013c0:	b672      	cpsid	i
100013c2:	4a21      	ldr	r2, [pc, #132]	; (10001448 <irq_add_tail_to_free_list+0x98>)
100013c4:	6813      	ldr	r3, [r2, #0]
100013c6:	2b00      	cmp	r3, #0
100013c8:	d0fc      	beq.n	100013c4 <irq_add_tail_to_free_list+0x14>
100013ca:	f3bf 8f5f 	dmb	sy
100013ce:	4e1f      	ldr	r6, [pc, #124]	; (1000144c <irq_add_tail_to_free_list+0x9c>)
100013d0:	0021      	movs	r1, r4
100013d2:	68b7      	ldr	r7, [r6, #8]
100013d4:	4a1e      	ldr	r2, [pc, #120]	; (10001450 <irq_add_tail_to_free_list+0xa0>)
100013d6:	4b1f      	ldr	r3, [pc, #124]	; (10001454 <irq_add_tail_to_free_list+0xa4>)
100013d8:	1a89      	subs	r1, r1, r2
100013da:	4149      	adcs	r1, r1
100013dc:	434b      	muls	r3, r1
100013de:	0d1b      	lsrs	r3, r3, #20
100013e0:	b259      	sxtb	r1, r3
100013e2:	0083      	lsls	r3, r0, #2
100013e4:	58f8      	ldr	r0, [r7, r3]
100013e6:	42a8      	cmp	r0, r5
100013e8:	d01c      	beq.n	10001424 <irq_add_tail_to_free_list+0x74>
100013ea:	2306      	movs	r3, #6
100013ec:	56d3      	ldrsb	r3, [r2, r3]
100013ee:	428b      	cmp	r3, r1
100013f0:	d01c      	beq.n	1000142c <irq_add_tail_to_free_list+0x7c>
100013f2:	2312      	movs	r3, #18
100013f4:	56d3      	ldrsb	r3, [r2, r3]
100013f6:	428b      	cmp	r3, r1
100013f8:	d022      	beq.n	10001440 <irq_add_tail_to_free_list+0x90>
100013fa:	231e      	movs	r3, #30
100013fc:	56d3      	ldrsb	r3, [r2, r3]
100013fe:	428b      	cmp	r3, r1
10001400:	d020      	beq.n	10001444 <irq_add_tail_to_free_list+0x94>
10001402:	232a      	movs	r3, #42	; 0x2a
10001404:	56d3      	ldrsb	r3, [r2, r3]
10001406:	2003      	movs	r0, #3
10001408:	428b      	cmp	r3, r1
1000140a:	d010      	beq.n	1000142e <irq_add_tail_to_free_list+0x7e>
1000140c:	4b12      	ldr	r3, [pc, #72]	; (10001458 <irq_add_tail_to_free_list+0xa8>)
1000140e:	781a      	ldrb	r2, [r3, #0]
10001410:	7019      	strb	r1, [r3, #0]
10001412:	71a2      	strb	r2, [r4, #6]
10001414:	f3bf 8f5f 	dmb	sy
10001418:	2200      	movs	r2, #0
1000141a:	4b0b      	ldr	r3, [pc, #44]	; (10001448 <irq_add_tail_to_free_list+0x98>)
1000141c:	601a      	str	r2, [r3, #0]
1000141e:	f38c 8810 	msr	PRIMASK, ip
10001422:	bdf8      	pop	{r3, r4, r5, r6, r7, pc}
10001424:	68b2      	ldr	r2, [r6, #8]
10001426:	480d      	ldr	r0, [pc, #52]	; (1000145c <irq_add_tail_to_free_list+0xac>)
10001428:	50d0      	str	r0, [r2, r3]
1000142a:	e7ef      	b.n	1000140c <irq_add_tail_to_free_list+0x5c>
1000142c:	2000      	movs	r0, #0
1000142e:	0043      	lsls	r3, r0, #1
10001430:	181b      	adds	r3, r3, r0
10001432:	009b      	lsls	r3, r3, #2
10001434:	18d2      	adds	r2, r2, r3
10001436:	23ff      	movs	r3, #255	; 0xff
10001438:	7193      	strb	r3, [r2, #6]
1000143a:	4b09      	ldr	r3, [pc, #36]	; (10001460 <irq_add_tail_to_free_list+0xb0>)
1000143c:	8093      	strh	r3, [r2, #4]
1000143e:	e7e5      	b.n	1000140c <irq_add_tail_to_free_list+0x5c>
10001440:	2001      	movs	r0, #1
10001442:	e7f4      	b.n	1000142e <irq_add_tail_to_free_list+0x7e>
10001444:	2002      	movs	r0, #2
10001446:	e7f2      	b.n	1000142e <irq_add_tail_to_free_list+0x7e>
10001448:	d0000124 	.word	0xd0000124
1000144c:	e000ed00 	.word	0xe000ed00
10001450:	200001a4 	.word	0x200001a4
10001454:	0000aaaa 	.word	0x0000aaaa
10001458:	200005f5 	.word	0x200005f5
1000145c:	100001cd 	.word	0x100001cd
10001460:	ffffbd00 	.word	0xffffbd00

10001464 <irq_init_priorities>:
10001464:	4b05      	ldr	r3, [pc, #20]	; (1000147c <irq_init_priorities+0x18>)
10001466:	4a06      	ldr	r2, [pc, #24]	; (10001480 <irq_init_priorities+0x1c>)
10001468:	6013      	str	r3, [r2, #0]
1000146a:	4a06      	ldr	r2, [pc, #24]	; (10001484 <irq_init_priorities+0x20>)
1000146c:	6013      	str	r3, [r2, #0]
1000146e:	6053      	str	r3, [r2, #4]
10001470:	6093      	str	r3, [r2, #8]
10001472:	60d3      	str	r3, [r2, #12]
10001474:	6113      	str	r3, [r2, #16]
10001476:	6153      	str	r3, [r2, #20]
10001478:	6193      	str	r3, [r2, #24]
1000147a:	4770      	bx	lr
1000147c:	80808080 	.word	0x80808080
10001480:	e000e400 	.word	0xe000e400
10001484:	e000e404 	.word	0xe000e404

10001488 <pll_init>:
10001488:	b5f8      	push	{r3, r4, r5, r6, r7, lr}
1000148a:	0004      	movs	r4, r0
1000148c:	200c      	movs	r0, #12
1000148e:	0017      	movs	r7, r2
10001490:	001d      	movs	r5, r3
10001492:	000e      	movs	r6, r1
10001494:	f000 f8be 	bl	10001614 <__wrap___aeabi_uidiv>
10001498:	0143      	lsls	r3, r0, #5
1000149a:	1a1b      	subs	r3, r3, r0
1000149c:	0199      	lsls	r1, r3, #6
1000149e:	1ac9      	subs	r1, r1, r3
100014a0:	00c9      	lsls	r1, r1, #3
100014a2:	1809      	adds	r1, r1, r0
100014a4:	0189      	lsls	r1, r1, #6
100014a6:	0038      	movs	r0, r7
100014a8:	f000 f8b4 	bl	10001614 <__wrap___aeabi_uidiv>
100014ac:	9b06      	ldr	r3, [sp, #24]
100014ae:	0429      	lsls	r1, r5, #16
100014b0:	031b      	lsls	r3, r3, #12
100014b2:	4319      	orrs	r1, r3
100014b4:	6823      	ldr	r3, [r4, #0]
100014b6:	2b00      	cmp	r3, #0
100014b8:	db20      	blt.n	100014fc <pll_init+0x74>
100014ba:	4b17      	ldr	r3, [pc, #92]	; (10001518 <pll_init+0x90>)
100014bc:	4d17      	ldr	r5, [pc, #92]	; (1000151c <pll_init+0x94>)
100014be:	18e3      	adds	r3, r4, r3
100014c0:	425a      	negs	r2, r3
100014c2:	4153      	adcs	r3, r2
100014c4:	2280      	movs	r2, #128	; 0x80
100014c6:	0152      	lsls	r2, r2, #5
100014c8:	4694      	mov	ip, r2
100014ca:	031b      	lsls	r3, r3, #12
100014cc:	4a14      	ldr	r2, [pc, #80]	; (10001520 <pll_init+0x98>)
100014ce:	4463      	add	r3, ip
100014d0:	6013      	str	r3, [r2, #0]
100014d2:	4a14      	ldr	r2, [pc, #80]	; (10001524 <pll_init+0x9c>)
100014d4:	6013      	str	r3, [r2, #0]
100014d6:	001f      	movs	r7, r3
100014d8:	68aa      	ldr	r2, [r5, #8]
100014da:	4397      	bics	r7, r2
100014dc:	d1fb      	bne.n	100014d6 <pll_init+0x4e>
100014de:	23c0      	movs	r3, #192	; 0xc0
100014e0:	1d22      	adds	r2, r4, #4
100014e2:	019b      	lsls	r3, r3, #6
100014e4:	4313      	orrs	r3, r2
100014e6:	2221      	movs	r2, #33	; 0x21
100014e8:	6026      	str	r6, [r4, #0]
100014ea:	60a0      	str	r0, [r4, #8]
100014ec:	601a      	str	r2, [r3, #0]
100014ee:	6822      	ldr	r2, [r4, #0]
100014f0:	2a00      	cmp	r2, #0
100014f2:	dafc      	bge.n	100014ee <pll_init+0x66>
100014f4:	2208      	movs	r2, #8
100014f6:	60e1      	str	r1, [r4, #12]
100014f8:	601a      	str	r2, [r3, #0]
100014fa:	bdf8      	pop	{r3, r4, r5, r6, r7, pc}
100014fc:	233f      	movs	r3, #63	; 0x3f
100014fe:	6822      	ldr	r2, [r4, #0]
10001500:	4013      	ands	r3, r2
10001502:	42b3      	cmp	r3, r6
10001504:	d1d9      	bne.n	100014ba <pll_init+0x32>
10001506:	68a3      	ldr	r3, [r4, #8]
10001508:	051b      	lsls	r3, r3, #20
1000150a:	0d1b      	lsrs	r3, r3, #20
1000150c:	4283      	cmp	r3, r0
1000150e:	d1d4      	bne.n	100014ba <pll_init+0x32>
10001510:	68e3      	ldr	r3, [r4, #12]
10001512:	2900      	cmp	r1, #0
10001514:	d1d1      	bne.n	100014ba <pll_init+0x32>
10001516:	e7f0      	b.n	100014fa <pll_init+0x72>
10001518:	bffd4000 	.word	0xbffd4000
1000151c:	4000c000 	.word	0x4000c000
10001520:	4000e000 	.word	0x4000e000
10001524:	4000f000 	.word	0x4000f000

10001528 <watchdog_start_tick>:
10001528:	2380      	movs	r3, #128	; 0x80
1000152a:	4a02      	ldr	r2, [pc, #8]	; (10001534 <watchdog_start_tick+0xc>)
1000152c:	009b      	lsls	r3, r3, #2
1000152e:	4303      	orrs	r3, r0
10001530:	62d3      	str	r3, [r2, #44]	; 0x2c
10001532:	4770      	bx	lr
10001534:	40058000 	.word	0x40058000

10001538 <xosc_init>:
10001538:	23aa      	movs	r3, #170	; 0xaa
1000153a:	4a06      	ldr	r2, [pc, #24]	; (10001554 <xosc_init+0x1c>)
1000153c:	011b      	lsls	r3, r3, #4
1000153e:	6013      	str	r3, [r2, #0]
10001540:	232f      	movs	r3, #47	; 0x2f
10001542:	4905      	ldr	r1, [pc, #20]	; (10001558 <xosc_init+0x20>)
10001544:	60d3      	str	r3, [r2, #12]
10001546:	4b05      	ldr	r3, [pc, #20]	; (1000155c <xosc_init+0x24>)
10001548:	6019      	str	r1, [r3, #0]
1000154a:	6853      	ldr	r3, [r2, #4]
1000154c:	2b00      	cmp	r3, #0
1000154e:	dafc      	bge.n	1000154a <xosc_init+0x12>
10001550:	4770      	bx	lr
10001552:	46c0      	nop			; (mov r8, r8)
10001554:	40024000 	.word	0x40024000
10001558:	00fab000 	.word	0x00fab000
1000155c:	40026000 	.word	0x40026000

10001560 <_out_char>:
10001560:	b510      	push	{r4, lr}
10001562:	2800      	cmp	r0, #0
10001564:	d100      	bne.n	10001568 <_out_char+0x8>
10001566:	bd10      	pop	{r4, pc}
10001568:	f000 fa10 	bl	1000198c <__wrap_putchar>
1000156c:	e7fb      	b.n	10001566 <_out_char+0x6>
1000156e:	46c0      	nop			; (mov r8, r8)

10001570 <weak_raw_vprintf>:
10001570:	b510      	push	{r4, lr}
10001572:	4a09      	ldr	r2, [pc, #36]	; (10001598 <weak_raw_vprintf+0x28>)
10001574:	0003      	movs	r3, r0
10001576:	6814      	ldr	r4, [r2, #0]
10001578:	b084      	sub	sp, #16
1000157a:	2c00      	cmp	r4, #0
1000157c:	d008      	beq.n	10001590 <weak_raw_vprintf+0x20>
1000157e:	2201      	movs	r2, #1
10001580:	9100      	str	r1, [sp, #0]
10001582:	4806      	ldr	r0, [pc, #24]	; (1000159c <weak_raw_vprintf+0x2c>)
10001584:	4252      	negs	r2, r2
10001586:	a903      	add	r1, sp, #12
10001588:	47a0      	blx	r4
1000158a:	2001      	movs	r0, #1
1000158c:	b004      	add	sp, #16
1000158e:	bd10      	pop	{r4, pc}
10001590:	f000 fa4c 	bl	10001a2c <__wrap_puts>
10001594:	2000      	movs	r0, #0
10001596:	e7f9      	b.n	1000158c <weak_raw_vprintf+0x1c>
10001598:	200005b0 	.word	0x200005b0
1000159c:	10001561 	.word	0x10001561

100015a0 <__aeabi_bits_init>:
100015a0:	4801      	ldr	r0, [pc, #4]	; (100015a8 <__aeabi_bits_init+0x8>)
100015a2:	2104      	movs	r1, #4
100015a4:	4b01      	ldr	r3, [pc, #4]	; (100015ac <__aeabi_bits_init+0xc>)
100015a6:	4718      	bx	r3
100015a8:	200001f0 	.word	0x200001f0
100015ac:	100015d1 	.word	0x100015d1

100015b0 <rom_func_lookup>:
100015b0:	2314      	movs	r3, #20
100015b2:	b510      	push	{r4, lr}
100015b4:	0001      	movs	r1, r0
100015b6:	8818      	ldrh	r0, [r3, #0]
100015b8:	3304      	adds	r3, #4
100015ba:	881b      	ldrh	r3, [r3, #0]
100015bc:	4798      	blx	r3
100015be:	bd10      	pop	{r4, pc}

100015c0 <rom_data_lookup>:
100015c0:	2316      	movs	r3, #22
100015c2:	b510      	push	{r4, lr}
100015c4:	0001      	movs	r1, r0
100015c6:	8818      	ldrh	r0, [r3, #0]
100015c8:	3302      	adds	r3, #2
100015ca:	881b      	ldrh	r3, [r3, #0]
100015cc:	4798      	blx	r3
100015ce:	bd10      	pop	{r4, pc}

100015d0 <rom_funcs_lookup>:
100015d0:	b5f8      	push	{r3, r4, r5, r6, r7, lr}
100015d2:	4647      	mov	r7, r8
100015d4:	46ce      	mov	lr, r9
100015d6:	b580      	push	{r7, lr}
100015d8:	1e0f      	subs	r7, r1, #0
100015da:	d019      	beq.n	10001610 <rom_funcs_lookup+0x40>
100015dc:	2314      	movs	r3, #20
100015de:	4699      	mov	r9, r3
100015e0:	3304      	adds	r3, #4
100015e2:	0004      	movs	r4, r0
100015e4:	2500      	movs	r5, #0
100015e6:	2601      	movs	r6, #1
100015e8:	4698      	mov	r8, r3
100015ea:	464b      	mov	r3, r9
100015ec:	8818      	ldrh	r0, [r3, #0]
100015ee:	4643      	mov	r3, r8
100015f0:	6821      	ldr	r1, [r4, #0]
100015f2:	881b      	ldrh	r3, [r3, #0]
100015f4:	4798      	blx	r3
100015f6:	c401      	stmia	r4!, {r0}
100015f8:	1e43      	subs	r3, r0, #1
100015fa:	4198      	sbcs	r0, r3
100015fc:	3501      	adds	r5, #1
100015fe:	4240      	negs	r0, r0
10001600:	4006      	ands	r6, r0
10001602:	42af      	cmp	r7, r5
10001604:	d1f1      	bne.n	100015ea <rom_funcs_lookup+0x1a>
10001606:	0030      	movs	r0, r6
10001608:	bcc0      	pop	{r6, r7}
1000160a:	46b9      	mov	r9, r7
1000160c:	46b0      	mov	r8, r6
1000160e:	bdf8      	pop	{r3, r4, r5, r6, r7, pc}
10001610:	2601      	movs	r6, #1
10001612:	e7f8      	b.n	10001606 <rom_funcs_lookup+0x36>

10001614 <__wrap___aeabi_uidiv>:
10001614:	4a11      	ldr	r2, [pc, #68]	; (1000165c <divmod_u32u32_savestate+0x18>)
10001616:	6f93      	ldr	r3, [r2, #120]	; 0x78
10001618:	089b      	lsrs	r3, r3, #2
1000161a:	d213      	bcs.n	10001644 <divmod_u32u32_savestate>

1000161c <divmod_u32u32_unsafe>:
1000161c:	6610      	str	r0, [r2, #96]	; 0x60
1000161e:	6651      	str	r1, [r2, #100]	; 0x64
10001620:	2900      	cmp	r1, #0
10001622:	d005      	beq.n	10001630 <divmod_u32u32_unsafe+0x14>
10001624:	e7ff      	b.n	10001626 <divmod_u32u32_unsafe+0xa>
10001626:	e7ff      	b.n	10001628 <divmod_u32u32_unsafe+0xc>
10001628:	e7ff      	b.n	1000162a <divmod_u32u32_unsafe+0xe>
1000162a:	6f51      	ldr	r1, [r2, #116]	; 0x74
1000162c:	6f10      	ldr	r0, [r2, #112]	; 0x70
1000162e:	4770      	bx	lr
10001630:	b504      	push	{r2, lr}
10001632:	2800      	cmp	r0, #0
10001634:	d001      	beq.n	1000163a <divmod_u32u32_unsafe+0x1e>
10001636:	2000      	movs	r0, #0
10001638:	43c0      	mvns	r0, r0
1000163a:	f000 fa4d 	bl	10001ad8 <____aeabi_idiv0_veneer>
1000163e:	2100      	movs	r1, #0
10001640:	bd04      	pop	{r2, pc}
10001642:	46c0      	nop			; (mov r8, r8)

10001644 <divmod_u32u32_savestate>:
10001644:	b5f0      	push	{r4, r5, r6, r7, lr}
10001646:	6e14      	ldr	r4, [r2, #96]	; 0x60
10001648:	6e55      	ldr	r5, [r2, #100]	; 0x64
1000164a:	6f57      	ldr	r7, [r2, #116]	; 0x74
1000164c:	6f16      	ldr	r6, [r2, #112]	; 0x70
1000164e:	f7ff ffe5 	bl	1000161c <divmod_u32u32_unsafe>
10001652:	6614      	str	r4, [r2, #96]	; 0x60
10001654:	6655      	str	r5, [r2, #100]	; 0x64
10001656:	6757      	str	r7, [r2, #116]	; 0x74
10001658:	6716      	str	r6, [r2, #112]	; 0x70
1000165a:	bdf0      	pop	{r4, r5, r6, r7, pc}
1000165c:	d0000000 	.word	0xd0000000

10001660 <__aeabi_double_init>:
10001660:	2313      	movs	r3, #19
10001662:	b570      	push	{r4, r5, r6, lr}
10001664:	781d      	ldrb	r5, [r3, #0]
10001666:	2d01      	cmp	r5, #1
10001668:	d015      	beq.n	10001696 <__aeabi_double_init+0x36>
1000166a:	dd10      	ble.n	1000168e <__aeabi_double_init+0x2e>
1000166c:	481c      	ldr	r0, [pc, #112]	; (100016e0 <__aeabi_double_init+0x80>)
1000166e:	f7ff ffa7 	bl	100015c0 <rom_data_lookup>
10001672:	4c1c      	ldr	r4, [pc, #112]	; (100016e4 <__aeabi_double_init+0x84>)
10001674:	0001      	movs	r1, r0
10001676:	2280      	movs	r2, #128	; 0x80
10001678:	0020      	movs	r0, r4
1000167a:	f000 f8a1 	bl	100017c0 <__wrap___aeabi_memcpy>
1000167e:	2d02      	cmp	r5, #2
10001680:	d006      	beq.n	10001690 <__aeabi_double_init+0x30>
10001682:	4819      	ldr	r0, [pc, #100]	; (100016e8 <__aeabi_double_init+0x88>)
10001684:	f7ff ff94 	bl	100015b0 <rom_func_lookup>
10001688:	4b18      	ldr	r3, [pc, #96]	; (100016ec <__aeabi_double_init+0x8c>)
1000168a:	6018      	str	r0, [r3, #0]
1000168c:	bd70      	pop	{r4, r5, r6, pc}
1000168e:	4c15      	ldr	r4, [pc, #84]	; (100016e4 <__aeabi_double_init+0x84>)
10001690:	4b17      	ldr	r3, [pc, #92]	; (100016f0 <__aeabi_double_init+0x90>)
10001692:	64a3      	str	r3, [r4, #72]	; 0x48
10001694:	e7f5      	b.n	10001682 <__aeabi_double_init+0x22>
10001696:	4b16      	ldr	r3, [pc, #88]	; (100016f0 <__aeabi_double_init+0x90>)
10001698:	4c12      	ldr	r4, [pc, #72]	; (100016e4 <__aeabi_double_init+0x84>)
1000169a:	6023      	str	r3, [r4, #0]
1000169c:	6063      	str	r3, [r4, #4]
1000169e:	60a3      	str	r3, [r4, #8]
100016a0:	60e3      	str	r3, [r4, #12]
100016a2:	6123      	str	r3, [r4, #16]
100016a4:	6163      	str	r3, [r4, #20]
100016a6:	61a3      	str	r3, [r4, #24]
100016a8:	61e3      	str	r3, [r4, #28]
100016aa:	6223      	str	r3, [r4, #32]
100016ac:	6263      	str	r3, [r4, #36]	; 0x24
100016ae:	62a3      	str	r3, [r4, #40]	; 0x28
100016b0:	62e3      	str	r3, [r4, #44]	; 0x2c
100016b2:	6323      	str	r3, [r4, #48]	; 0x30
100016b4:	6363      	str	r3, [r4, #52]	; 0x34
100016b6:	63a3      	str	r3, [r4, #56]	; 0x38
100016b8:	63e3      	str	r3, [r4, #60]	; 0x3c
100016ba:	6423      	str	r3, [r4, #64]	; 0x40
100016bc:	6463      	str	r3, [r4, #68]	; 0x44
100016be:	64a3      	str	r3, [r4, #72]	; 0x48
100016c0:	64e3      	str	r3, [r4, #76]	; 0x4c
100016c2:	6523      	str	r3, [r4, #80]	; 0x50
100016c4:	6563      	str	r3, [r4, #84]	; 0x54
100016c6:	65a3      	str	r3, [r4, #88]	; 0x58
100016c8:	65e3      	str	r3, [r4, #92]	; 0x5c
100016ca:	6623      	str	r3, [r4, #96]	; 0x60
100016cc:	6663      	str	r3, [r4, #100]	; 0x64
100016ce:	66a3      	str	r3, [r4, #104]	; 0x68
100016d0:	66e3      	str	r3, [r4, #108]	; 0x6c
100016d2:	6723      	str	r3, [r4, #112]	; 0x70
100016d4:	6763      	str	r3, [r4, #116]	; 0x74
100016d6:	67a3      	str	r3, [r4, #120]	; 0x78
100016d8:	67e3      	str	r3, [r4, #124]	; 0x7c
100016da:	64a3      	str	r3, [r4, #72]	; 0x48
100016dc:	e7d1      	b.n	10001682 <__aeabi_double_init+0x22>
100016de:	46c0      	nop			; (mov r8, r8)
100016e0:	00004453 	.word	0x00004453
100016e4:	20000330 	.word	0x20000330
100016e8:	0000334c 	.word	0x0000334c
100016ec:	200005dc 	.word	0x200005dc
100016f0:	100016f5 	.word	0x100016f5

100016f4 <double_table_shim_on_use_helper>:
100016f4:	b507      	push	{r0, r1, r2, lr}
100016f6:	4660      	mov	r0, ip
100016f8:	8801      	ldrh	r1, [r0, #0]
100016fa:	0a0a      	lsrs	r2, r1, #8
100016fc:	3002      	adds	r0, #2
100016fe:	2adf      	cmp	r2, #223	; 0xdf
10001700:	d1fa      	bne.n	100016f8 <double_table_shim_on_use_helper+0x4>
10001702:	b2c9      	uxtb	r1, r1
10001704:	0882      	lsrs	r2, r0, #2
10001706:	d304      	bcc.n	10001712 <double_table_shim_on_use_helper+0x1e>
10001708:	8802      	ldrh	r2, [r0, #0]
1000170a:	8840      	ldrh	r0, [r0, #2]
1000170c:	0400      	lsls	r0, r0, #16
1000170e:	4310      	orrs	r0, r2
10001710:	e000      	b.n	10001714 <double_table_shim_on_use_helper+0x20>
10001712:	6800      	ldr	r0, [r0, #0]
10001714:	4a01      	ldr	r2, [pc, #4]	; (1000171c <double_table_shim_on_use_helper+0x28>)
10001716:	5050      	str	r0, [r2, r1]
10001718:	9003      	str	r0, [sp, #12]
1000171a:	bd07      	pop	{r0, r1, r2, pc}
1000171c:	20000330 	.word	0x20000330

10001720 <__aeabi_float_init>:
10001720:	2313      	movs	r3, #19
10001722:	b510      	push	{r4, lr}
10001724:	4812      	ldr	r0, [pc, #72]	; (10001770 <__aeabi_float_init+0x50>)
10001726:	781c      	ldrb	r4, [r3, #0]
10001728:	f7ff ff4a 	bl	100015c0 <rom_data_lookup>
1000172c:	0001      	movs	r1, r0
1000172e:	2c01      	cmp	r4, #1
10001730:	d00a      	beq.n	10001748 <__aeabi_float_init+0x28>
10001732:	dd03      	ble.n	1000173c <__aeabi_float_init+0x1c>
10001734:	2280      	movs	r2, #128	; 0x80
10001736:	480f      	ldr	r0, [pc, #60]	; (10001774 <__aeabi_float_init+0x54>)
10001738:	f000 f842 	bl	100017c0 <__wrap___aeabi_memcpy>
1000173c:	480e      	ldr	r0, [pc, #56]	; (10001778 <__aeabi_float_init+0x58>)
1000173e:	f7ff ff37 	bl	100015b0 <rom_func_lookup>
10001742:	4b0e      	ldr	r3, [pc, #56]	; (1000177c <__aeabi_float_init+0x5c>)
10001744:	6018      	str	r0, [r3, #0]
10001746:	bd10      	pop	{r4, pc}
10001748:	4c0a      	ldr	r4, [pc, #40]	; (10001774 <__aeabi_float_init+0x54>)
1000174a:	2254      	movs	r2, #84	; 0x54
1000174c:	0020      	movs	r0, r4
1000174e:	f000 f837 	bl	100017c0 <__wrap___aeabi_memcpy>
10001752:	4b0b      	ldr	r3, [pc, #44]	; (10001780 <__aeabi_float_init+0x60>)
10001754:	6563      	str	r3, [r4, #84]	; 0x54
10001756:	65a3      	str	r3, [r4, #88]	; 0x58
10001758:	65e3      	str	r3, [r4, #92]	; 0x5c
1000175a:	6623      	str	r3, [r4, #96]	; 0x60
1000175c:	6663      	str	r3, [r4, #100]	; 0x64
1000175e:	66a3      	str	r3, [r4, #104]	; 0x68
10001760:	66e3      	str	r3, [r4, #108]	; 0x6c
10001762:	6723      	str	r3, [r4, #112]	; 0x70
10001764:	6763      	str	r3, [r4, #116]	; 0x74
10001766:	67a3      	str	r3, [r4, #120]	; 0x78
10001768:	67e3      	str	r3, [r4, #124]	; 0x7c
1000176a:	6223      	str	r3, [r4, #32]
1000176c:	61e3      	str	r3, [r4, #28]
1000176e:	e7e5      	b.n	1000173c <__aeabi_float_init+0x1c>
10001770:	00004653 	.word	0x00004653
10001774:	20000430 	.word	0x20000430
10001778:	0000334c 	.word	0x0000334c
1000177c:	200005dc 	.word	0x200005dc
10001780:	10001785 	.word	0x10001785

10001784 <float_table_shim_on_use_helper>:
10001784:	b507      	push	{r0, r1, r2, lr}
10001786:	4660      	mov	r0, ip
10001788:	8801      	ldrh	r1, [r0, #0]
1000178a:	0a0a      	lsrs	r2, r1, #8
1000178c:	3002      	adds	r0, #2
1000178e:	2adf      	cmp	r2, #223	; 0xdf
10001790:	d1fa      	bne.n	10001788 <float_table_shim_on_use_helper+0x4>
10001792:	b2c9      	uxtb	r1, r1
10001794:	0882      	lsrs	r2, r0, #2
10001796:	d304      	bcc.n	100017a2 <float_table_shim_on_use_helper+0x1e>
10001798:	8802      	ldrh	r2, [r0, #0]
1000179a:	8840      	ldrh	r0, [r0, #2]
1000179c:	0400      	lsls	r0, r0, #16
1000179e:	4310      	orrs	r0, r2
100017a0:	e000      	b.n	100017a4 <float_table_shim_on_use_helper+0x20>
100017a2:	6800      	ldr	r0, [r0, #0]
100017a4:	4a01      	ldr	r2, [pc, #4]	; (100017ac <float_table_shim_on_use_helper+0x28>)
100017a6:	5050      	str	r0, [r2, r1]
100017a8:	9003      	str	r0, [sp, #12]
100017aa:	bd07      	pop	{r0, r1, r2, pc}
100017ac:	20000430 	.word	0x20000430

100017b0 <__aeabi_mem_init>:
100017b0:	4801      	ldr	r0, [pc, #4]	; (100017b8 <__aeabi_mem_init+0x8>)
100017b2:	2104      	movs	r1, #4
100017b4:	4b01      	ldr	r3, [pc, #4]	; (100017bc <__aeabi_mem_init+0xc>)
100017b6:	4718      	bx	r3
100017b8:	20000200 	.word	0x20000200
100017bc:	100015d1 	.word	0x100015d1

100017c0 <__wrap___aeabi_memcpy>:
100017c0:	4b01      	ldr	r3, [pc, #4]	; (100017c8 <__wrap___aeabi_memcpy+0x8>)
100017c2:	685b      	ldr	r3, [r3, #4]
100017c4:	4718      	bx	r3
100017c6:	0000      	.short	0x0000
100017c8:	20000200 	.word	0x20000200

100017cc <stdio_out_chars_no_crlf>:
100017cc:	0003      	movs	r3, r0
100017ce:	b510      	push	{r4, lr}
100017d0:	0008      	movs	r0, r1
100017d2:	0011      	movs	r1, r2
100017d4:	681b      	ldr	r3, [r3, #0]
100017d6:	4798      	blx	r3
100017d8:	bd10      	pop	{r4, pc}
100017da:	46c0      	nop			; (mov r8, r8)

100017dc <stdio_out_chars_crlf>:
100017dc:	b5f0      	push	{r4, r5, r6, r7, lr}
100017de:	4646      	mov	r6, r8
100017e0:	464f      	mov	r7, r9
100017e2:	46d6      	mov	lr, sl
100017e4:	b5c0      	push	{r6, r7, lr}
100017e6:	7c43      	ldrb	r3, [r0, #17]
100017e8:	4680      	mov	r8, r0
100017ea:	000e      	movs	r6, r1
100017ec:	0017      	movs	r7, r2
100017ee:	2b00      	cmp	r3, #0
100017f0:	d046      	beq.n	10001880 <stdio_out_chars_crlf+0xa4>
100017f2:	2a00      	cmp	r2, #0
100017f4:	dd3f      	ble.n	10001876 <stdio_out_chars_crlf+0x9a>
100017f6:	1e4b      	subs	r3, r1, #1
100017f8:	4699      	mov	r9, r3
100017fa:	4b24      	ldr	r3, [pc, #144]	; (1000188c <stdio_out_chars_crlf+0xb0>)
100017fc:	2501      	movs	r5, #1
100017fe:	2400      	movs	r4, #0
10001800:	2000      	movs	r0, #0
10001802:	469a      	mov	sl, r3
10001804:	e00d      	b.n	10001822 <stdio_out_chars_crlf+0x46>
10001806:	464b      	mov	r3, r9
10001808:	5d1b      	ldrb	r3, [r3, r4]
1000180a:	3b0d      	subs	r3, #13
1000180c:	425a      	negs	r2, r3
1000180e:	4153      	adcs	r3, r2
10001810:	5d32      	ldrb	r2, [r6, r4]
10001812:	b2db      	uxtb	r3, r3
10001814:	2a0a      	cmp	r2, #10
10001816:	d00b      	beq.n	10001830 <stdio_out_chars_crlf+0x54>
10001818:	002b      	movs	r3, r5
1000181a:	3401      	adds	r4, #1
1000181c:	3501      	adds	r5, #1
1000181e:	429f      	cmp	r7, r3
10001820:	dd1a      	ble.n	10001858 <stdio_out_chars_crlf+0x7c>
10001822:	2c00      	cmp	r4, #0
10001824:	d1ef      	bne.n	10001806 <stdio_out_chars_crlf+0x2a>
10001826:	4643      	mov	r3, r8
10001828:	5d32      	ldrb	r2, [r6, r4]
1000182a:	7c1b      	ldrb	r3, [r3, #16]
1000182c:	2a0a      	cmp	r2, #10
1000182e:	d1f3      	bne.n	10001818 <stdio_out_chars_crlf+0x3c>
10001830:	2b00      	cmp	r3, #0
10001832:	d1f1      	bne.n	10001818 <stdio_out_chars_crlf+0x3c>
10001834:	42a0      	cmp	r0, r4
10001836:	da04      	bge.n	10001842 <stdio_out_chars_crlf+0x66>
10001838:	4643      	mov	r3, r8
1000183a:	1a21      	subs	r1, r4, r0
1000183c:	681b      	ldr	r3, [r3, #0]
1000183e:	1830      	adds	r0, r6, r0
10001840:	4798      	blx	r3
10001842:	4643      	mov	r3, r8
10001844:	4650      	mov	r0, sl
10001846:	681b      	ldr	r3, [r3, #0]
10001848:	2102      	movs	r1, #2
1000184a:	4798      	blx	r3
1000184c:	3401      	adds	r4, #1
1000184e:	0028      	movs	r0, r5
10001850:	002b      	movs	r3, r5
10001852:	3501      	adds	r5, #1
10001854:	429f      	cmp	r7, r3
10001856:	dce4      	bgt.n	10001822 <stdio_out_chars_crlf+0x46>
10001858:	4287      	cmp	r7, r0
1000185a:	dd04      	ble.n	10001866 <stdio_out_chars_crlf+0x8a>
1000185c:	4643      	mov	r3, r8
1000185e:	1a39      	subs	r1, r7, r0
10001860:	681b      	ldr	r3, [r3, #0]
10001862:	1830      	adds	r0, r6, r0
10001864:	4798      	blx	r3
10001866:	19f6      	adds	r6, r6, r7
10001868:	3e01      	subs	r6, #1
1000186a:	7833      	ldrb	r3, [r6, #0]
1000186c:	3b0d      	subs	r3, #13
1000186e:	425a      	negs	r2, r3
10001870:	4153      	adcs	r3, r2
10001872:	4642      	mov	r2, r8
10001874:	7413      	strb	r3, [r2, #16]
10001876:	bce0      	pop	{r5, r6, r7}
10001878:	46ba      	mov	sl, r7
1000187a:	46b1      	mov	r9, r6
1000187c:	46a8      	mov	r8, r5
1000187e:	bdf0      	pop	{r4, r5, r6, r7, pc}
10001880:	6803      	ldr	r3, [r0, #0]
10001882:	0011      	movs	r1, r2
10001884:	0030      	movs	r0, r6
10001886:	4798      	blx	r3
10001888:	e7f5      	b.n	10001876 <stdio_out_chars_crlf+0x9a>
1000188a:	46c0      	nop			; (mov r8, r8)
1000188c:	10001bf0 	.word	0x10001bf0

10001890 <stdio_put_string.isra.0>:
10001890:	b5f0      	push	{r4, r5, r6, r7, lr}
10001892:	4657      	mov	r7, sl
10001894:	464e      	mov	r6, r9
10001896:	4645      	mov	r5, r8
10001898:	46de      	mov	lr, fp
1000189a:	001c      	movs	r4, r3
1000189c:	23d0      	movs	r3, #208	; 0xd0
1000189e:	b5e0      	push	{r5, r6, r7, lr}
100018a0:	061b      	lsls	r3, r3, #24
100018a2:	681f      	ldr	r7, [r3, #0]
100018a4:	4b34      	ldr	r3, [pc, #208]	; (10001978 <stdio_put_string.isra.0+0xe8>)
100018a6:	b083      	sub	sp, #12
100018a8:	0006      	movs	r6, r0
100018aa:	000d      	movs	r5, r1
100018ac:	0018      	movs	r0, r3
100018ae:	a901      	add	r1, sp, #4
100018b0:	4691      	mov	r9, r2
100018b2:	469a      	mov	sl, r3
100018b4:	f000 f918 	bl	10001ae8 <__mutex_try_enter_veneer>
100018b8:	4680      	mov	r8, r0
100018ba:	2800      	cmp	r0, #0
100018bc:	d108      	bne.n	100018d0 <stdio_put_string.isra.0+0x40>
100018be:	9b01      	ldr	r3, [sp, #4]
100018c0:	b27f      	sxtb	r7, r7
100018c2:	429f      	cmp	r7, r3
100018c4:	d004      	beq.n	100018d0 <stdio_put_string.isra.0+0x40>
100018c6:	4650      	mov	r0, sl
100018c8:	f000 f916 	bl	10001af8 <__mutex_enter_blocking_veneer>
100018cc:	2301      	movs	r3, #1
100018ce:	4698      	mov	r8, r3
100018d0:	1c6b      	adds	r3, r5, #1
100018d2:	d103      	bne.n	100018dc <stdio_put_string.isra.0+0x4c>
100018d4:	0030      	movs	r0, r6
100018d6:	f000 f8c7 	bl	10001a68 <strlen>
100018da:	0005      	movs	r5, r0
100018dc:	2c00      	cmp	r4, #0
100018de:	d127      	bne.n	10001930 <stdio_put_string.isra.0+0xa0>
100018e0:	4f26      	ldr	r7, [pc, #152]	; (1000197c <stdio_put_string.isra.0+0xec>)
100018e2:	4b27      	ldr	r3, [pc, #156]	; (10001980 <stdio_put_string.isra.0+0xf0>)
100018e4:	681c      	ldr	r4, [r3, #0]
100018e6:	2c00      	cmp	r4, #0
100018e8:	d018      	beq.n	1000191c <stdio_put_string.isra.0+0x8c>
100018ea:	464b      	mov	r3, r9
100018ec:	2b00      	cmp	r3, #0
100018ee:	d121      	bne.n	10001934 <stdio_put_string.isra.0+0xa4>
100018f0:	4b24      	ldr	r3, [pc, #144]	; (10001984 <stdio_put_string.isra.0+0xf4>)
100018f2:	4699      	mov	r9, r3
100018f4:	e002      	b.n	100018fc <stdio_put_string.isra.0+0x6c>
100018f6:	68e4      	ldr	r4, [r4, #12]
100018f8:	2c00      	cmp	r4, #0
100018fa:	d00f      	beq.n	1000191c <stdio_put_string.isra.0+0x8c>
100018fc:	6823      	ldr	r3, [r4, #0]
100018fe:	2b00      	cmp	r3, #0
10001900:	d0f9      	beq.n	100018f6 <stdio_put_string.isra.0+0x66>
10001902:	464b      	mov	r3, r9
10001904:	681b      	ldr	r3, [r3, #0]
10001906:	2b00      	cmp	r3, #0
10001908:	d001      	beq.n	1000190e <stdio_put_string.isra.0+0x7e>
1000190a:	42a3      	cmp	r3, r4
1000190c:	d1f3      	bne.n	100018f6 <stdio_put_string.isra.0+0x66>
1000190e:	0020      	movs	r0, r4
10001910:	002a      	movs	r2, r5
10001912:	0031      	movs	r1, r6
10001914:	47b8      	blx	r7
10001916:	68e4      	ldr	r4, [r4, #12]
10001918:	2c00      	cmp	r4, #0
1000191a:	d1ef      	bne.n	100018fc <stdio_put_string.isra.0+0x6c>
1000191c:	4643      	mov	r3, r8
1000191e:	2b00      	cmp	r3, #0
10001920:	d125      	bne.n	1000196e <stdio_put_string.isra.0+0xde>
10001922:	b003      	add	sp, #12
10001924:	bcf0      	pop	{r4, r5, r6, r7}
10001926:	46bb      	mov	fp, r7
10001928:	46b2      	mov	sl, r6
1000192a:	46a9      	mov	r9, r5
1000192c:	46a0      	mov	r8, r4
1000192e:	bdf0      	pop	{r4, r5, r6, r7, pc}
10001930:	4f15      	ldr	r7, [pc, #84]	; (10001988 <stdio_put_string.isra.0+0xf8>)
10001932:	e7d6      	b.n	100018e2 <stdio_put_string.isra.0+0x52>
10001934:	4b13      	ldr	r3, [pc, #76]	; (10001984 <stdio_put_string.isra.0+0xf4>)
10001936:	4699      	mov	r9, r3
10001938:	230a      	movs	r3, #10
1000193a:	469b      	mov	fp, r3
1000193c:	e002      	b.n	10001944 <stdio_put_string.isra.0+0xb4>
1000193e:	68e4      	ldr	r4, [r4, #12]
10001940:	2c00      	cmp	r4, #0
10001942:	d0eb      	beq.n	1000191c <stdio_put_string.isra.0+0x8c>
10001944:	6823      	ldr	r3, [r4, #0]
10001946:	2b00      	cmp	r3, #0
10001948:	d0f9      	beq.n	1000193e <stdio_put_string.isra.0+0xae>
1000194a:	464b      	mov	r3, r9
1000194c:	681b      	ldr	r3, [r3, #0]
1000194e:	2b00      	cmp	r3, #0
10001950:	d001      	beq.n	10001956 <stdio_put_string.isra.0+0xc6>
10001952:	42a3      	cmp	r3, r4
10001954:	d1f3      	bne.n	1000193e <stdio_put_string.isra.0+0xae>
10001956:	002a      	movs	r2, r5
10001958:	0031      	movs	r1, r6
1000195a:	0020      	movs	r0, r4
1000195c:	47b8      	blx	r7
1000195e:	465a      	mov	r2, fp
10001960:	466b      	mov	r3, sp
10001962:	0020      	movs	r0, r4
10001964:	711a      	strb	r2, [r3, #4]
10001966:	a901      	add	r1, sp, #4
10001968:	2201      	movs	r2, #1
1000196a:	47b8      	blx	r7
1000196c:	e7e7      	b.n	1000193e <stdio_put_string.isra.0+0xae>
1000196e:	4650      	mov	r0, sl
10001970:	f000 f8aa 	bl	10001ac8 <__mutex_exit_veneer>
10001974:	e7d5      	b.n	10001922 <stdio_put_string.isra.0+0x92>
10001976:	46c0      	nop			; (mov r8, r8)
10001978:	20000210 	.word	0x20000210
1000197c:	100017dd 	.word	0x100017dd
10001980:	200005a8 	.word	0x200005a8
10001984:	200005ac 	.word	0x200005ac
10001988:	100017cd 	.word	0x100017cd

1000198c <__wrap_putchar>:
1000198c:	b5f0      	push	{r4, r5, r6, r7, lr}
1000198e:	46ce      	mov	lr, r9
10001990:	4647      	mov	r7, r8
10001992:	b580      	push	{r7, lr}
10001994:	b083      	sub	sp, #12
10001996:	466b      	mov	r3, sp
10001998:	1cde      	adds	r6, r3, #3
1000199a:	23d0      	movs	r3, #208	; 0xd0
1000199c:	7030      	strb	r0, [r6, #0]
1000199e:	061b      	lsls	r3, r3, #24
100019a0:	681c      	ldr	r4, [r3, #0]
100019a2:	4b1f      	ldr	r3, [pc, #124]	; (10001a20 <__wrap_putchar+0x94>)
100019a4:	4680      	mov	r8, r0
100019a6:	a901      	add	r1, sp, #4
100019a8:	0018      	movs	r0, r3
100019aa:	4699      	mov	r9, r3
100019ac:	f000 f89c 	bl	10001ae8 <__mutex_try_enter_veneer>
100019b0:	1e07      	subs	r7, r0, #0
100019b2:	d020      	beq.n	100019f6 <__wrap_putchar+0x6a>
100019b4:	4b1b      	ldr	r3, [pc, #108]	; (10001a24 <__wrap_putchar+0x98>)
100019b6:	681c      	ldr	r4, [r3, #0]
100019b8:	2c00      	cmp	r4, #0
100019ba:	d028      	beq.n	10001a0e <__wrap_putchar+0x82>
100019bc:	4d1a      	ldr	r5, [pc, #104]	; (10001a28 <__wrap_putchar+0x9c>)
100019be:	e002      	b.n	100019c6 <__wrap_putchar+0x3a>
100019c0:	68e4      	ldr	r4, [r4, #12]
100019c2:	2c00      	cmp	r4, #0
100019c4:	d00f      	beq.n	100019e6 <__wrap_putchar+0x5a>
100019c6:	6823      	ldr	r3, [r4, #0]
100019c8:	2b00      	cmp	r3, #0
100019ca:	d0f9      	beq.n	100019c0 <__wrap_putchar+0x34>
100019cc:	682b      	ldr	r3, [r5, #0]
100019ce:	2b00      	cmp	r3, #0
100019d0:	d001      	beq.n	100019d6 <__wrap_putchar+0x4a>
100019d2:	42a3      	cmp	r3, r4
100019d4:	d1f4      	bne.n	100019c0 <__wrap_putchar+0x34>
100019d6:	0020      	movs	r0, r4
100019d8:	2201      	movs	r2, #1
100019da:	0031      	movs	r1, r6
100019dc:	f7ff fefe 	bl	100017dc <stdio_out_chars_crlf>
100019e0:	68e4      	ldr	r4, [r4, #12]
100019e2:	2c00      	cmp	r4, #0
100019e4:	d1ef      	bne.n	100019c6 <__wrap_putchar+0x3a>
100019e6:	2f00      	cmp	r7, #0
100019e8:	d111      	bne.n	10001a0e <__wrap_putchar+0x82>
100019ea:	4640      	mov	r0, r8
100019ec:	b003      	add	sp, #12
100019ee:	bcc0      	pop	{r6, r7}
100019f0:	46b9      	mov	r9, r7
100019f2:	46b0      	mov	r8, r6
100019f4:	bdf0      	pop	{r4, r5, r6, r7, pc}
100019f6:	9b01      	ldr	r3, [sp, #4]
100019f8:	b264      	sxtb	r4, r4
100019fa:	429c      	cmp	r4, r3
100019fc:	d00b      	beq.n	10001a16 <__wrap_putchar+0x8a>
100019fe:	4648      	mov	r0, r9
10001a00:	f000 f87a 	bl	10001af8 <__mutex_enter_blocking_veneer>
10001a04:	4b07      	ldr	r3, [pc, #28]	; (10001a24 <__wrap_putchar+0x98>)
10001a06:	2701      	movs	r7, #1
10001a08:	681c      	ldr	r4, [r3, #0]
10001a0a:	2c00      	cmp	r4, #0
10001a0c:	d1d6      	bne.n	100019bc <__wrap_putchar+0x30>
10001a0e:	4648      	mov	r0, r9
10001a10:	f000 f85a 	bl	10001ac8 <__mutex_exit_veneer>
10001a14:	e7e9      	b.n	100019ea <__wrap_putchar+0x5e>
10001a16:	4b03      	ldr	r3, [pc, #12]	; (10001a24 <__wrap_putchar+0x98>)
10001a18:	681c      	ldr	r4, [r3, #0]
10001a1a:	2c00      	cmp	r4, #0
10001a1c:	d1ce      	bne.n	100019bc <__wrap_putchar+0x30>
10001a1e:	e7e4      	b.n	100019ea <__wrap_putchar+0x5e>
10001a20:	20000210 	.word	0x20000210
10001a24:	200005a8 	.word	0x200005a8
10001a28:	200005ac 	.word	0x200005ac

10001a2c <__wrap_puts>:
10001a2c:	b570      	push	{r4, r5, r6, lr}
10001a2e:	0004      	movs	r4, r0
10001a30:	f000 f81a 	bl	10001a68 <strlen>
10001a34:	2300      	movs	r3, #0
10001a36:	0001      	movs	r1, r0
10001a38:	0005      	movs	r5, r0
10001a3a:	2201      	movs	r2, #1
10001a3c:	0020      	movs	r0, r4
10001a3e:	f7ff ff27 	bl	10001890 <stdio_put_string.isra.0>
10001a42:	4b08      	ldr	r3, [pc, #32]	; (10001a64 <__wrap_puts+0x38>)
10001a44:	681c      	ldr	r4, [r3, #0]
10001a46:	2c00      	cmp	r4, #0
10001a48:	d006      	beq.n	10001a58 <__wrap_puts+0x2c>
10001a4a:	6863      	ldr	r3, [r4, #4]
10001a4c:	2b00      	cmp	r3, #0
10001a4e:	d005      	beq.n	10001a5c <__wrap_puts+0x30>
10001a50:	4798      	blx	r3
10001a52:	68e4      	ldr	r4, [r4, #12]
10001a54:	2c00      	cmp	r4, #0
10001a56:	d1f8      	bne.n	10001a4a <__wrap_puts+0x1e>
10001a58:	0028      	movs	r0, r5
10001a5a:	bd70      	pop	{r4, r5, r6, pc}
10001a5c:	68e4      	ldr	r4, [r4, #12]
10001a5e:	2c00      	cmp	r4, #0
10001a60:	d1f3      	bne.n	10001a4a <__wrap_puts+0x1e>
10001a62:	e7f9      	b.n	10001a58 <__wrap_puts+0x2c>
10001a64:	200005a8 	.word	0x200005a8

10001a68 <strlen>:
10001a68:	b510      	push	{r4, lr}
10001a6a:	0783      	lsls	r3, r0, #30
10001a6c:	d00a      	beq.n	10001a84 <strlen+0x1c>
10001a6e:	0003      	movs	r3, r0
10001a70:	2103      	movs	r1, #3
10001a72:	e002      	b.n	10001a7a <strlen+0x12>
10001a74:	3301      	adds	r3, #1
10001a76:	420b      	tst	r3, r1
10001a78:	d005      	beq.n	10001a86 <strlen+0x1e>
10001a7a:	781a      	ldrb	r2, [r3, #0]
10001a7c:	2a00      	cmp	r2, #0
10001a7e:	d1f9      	bne.n	10001a74 <strlen+0xc>
10001a80:	1a18      	subs	r0, r3, r0
10001a82:	bd10      	pop	{r4, pc}
10001a84:	0003      	movs	r3, r0
10001a86:	6819      	ldr	r1, [r3, #0]
10001a88:	4a0c      	ldr	r2, [pc, #48]	; (10001abc <strlen+0x54>)
10001a8a:	4c0d      	ldr	r4, [pc, #52]	; (10001ac0 <strlen+0x58>)
10001a8c:	188a      	adds	r2, r1, r2
10001a8e:	438a      	bics	r2, r1
10001a90:	4222      	tst	r2, r4
10001a92:	d10f      	bne.n	10001ab4 <strlen+0x4c>
10001a94:	6859      	ldr	r1, [r3, #4]
10001a96:	4a09      	ldr	r2, [pc, #36]	; (10001abc <strlen+0x54>)
10001a98:	3304      	adds	r3, #4
10001a9a:	188a      	adds	r2, r1, r2
10001a9c:	438a      	bics	r2, r1
10001a9e:	4222      	tst	r2, r4
10001aa0:	d108      	bne.n	10001ab4 <strlen+0x4c>
10001aa2:	6859      	ldr	r1, [r3, #4]
10001aa4:	4a05      	ldr	r2, [pc, #20]	; (10001abc <strlen+0x54>)
10001aa6:	3304      	adds	r3, #4
10001aa8:	188a      	adds	r2, r1, r2
10001aaa:	438a      	bics	r2, r1
10001aac:	4222      	tst	r2, r4
10001aae:	d0f1      	beq.n	10001a94 <strlen+0x2c>
10001ab0:	e000      	b.n	10001ab4 <strlen+0x4c>
10001ab2:	3301      	adds	r3, #1
10001ab4:	781a      	ldrb	r2, [r3, #0]
10001ab6:	2a00      	cmp	r2, #0
10001ab8:	d1fb      	bne.n	10001ab2 <strlen+0x4a>
10001aba:	e7e1      	b.n	10001a80 <strlen+0x18>
10001abc:	fefefeff 	.word	0xfefefeff
10001ac0:	80808080 	.word	0x80808080

10001ac4 <_fini>:
10001ac4:	b5f8      	push	{r3, r4, r5, r6, r7, lr}
10001ac6:	46c0      	nop			; (mov r8, r8)

10001ac8 <__mutex_exit_veneer>:
10001ac8:	b401      	push	{r0}
10001aca:	4802      	ldr	r0, [pc, #8]	; (10001ad4 <__mutex_exit_veneer+0xc>)
10001acc:	4684      	mov	ip, r0
10001ace:	bc01      	pop	{r0}
10001ad0:	4760      	bx	ip
10001ad2:	bf00      	nop
10001ad4:	2000014d 	.word	0x2000014d

10001ad8 <____aeabi_idiv0_veneer>:
10001ad8:	b401      	push	{r0}
10001ada:	4802      	ldr	r0, [pc, #8]	; (10001ae4 <____aeabi_idiv0_veneer+0xc>)
10001adc:	4684      	mov	ip, r0
10001ade:	bc01      	pop	{r0}
10001ae0:	4760      	bx	ip
10001ae2:	bf00      	nop
10001ae4:	20000175 	.word	0x20000175

10001ae8 <__mutex_try_enter_veneer>:
10001ae8:	b401      	push	{r0}
10001aea:	4802      	ldr	r0, [pc, #8]	; (10001af4 <__mutex_try_enter_veneer+0xc>)
10001aec:	4684      	mov	ip, r0
10001aee:	bc01      	pop	{r0}
10001af0:	4760      	bx	ip
10001af2:	bf00      	nop
10001af4:	20000109 	.word	0x20000109

10001af8 <__mutex_enter_blocking_veneer>:
10001af8:	b401      	push	{r0}
10001afa:	4802      	ldr	r0, [pc, #8]	; (10001b04 <__mutex_enter_blocking_veneer+0xc>)
10001afc:	4684      	mov	ip, r0
10001afe:	bc01      	pop	{r0}
10001b00:	4760      	bx	ip
10001b02:	bf00      	nop
10001b04:	200000c1 	.word	0x200000c1

Disassembly of section .data:

200000c0 <mutex_enter_blocking>:
200000c0:	23d0      	movs	r3, #208	; 0xd0
200000c2:	b530      	push	{r4, r5, lr}
200000c4:	2500      	movs	r5, #0
200000c6:	061b      	lsls	r3, r3, #24
200000c8:	2400      	movs	r4, #0
200000ca:	575d      	ldrsb	r5, [r3, r5]
200000cc:	e006      	b.n	200000dc <mutex_enter_blocking+0x1c>
200000ce:	6803      	ldr	r3, [r0, #0]
200000d0:	f3bf 8f5f 	dmb	sy
200000d4:	601c      	str	r4, [r3, #0]
200000d6:	f381 8810 	msr	PRIMASK, r1
200000da:	bf20      	wfe
200000dc:	6802      	ldr	r2, [r0, #0]
200000de:	f3ef 8110 	mrs	r1, PRIMASK
200000e2:	b672      	cpsid	i
200000e4:	6813      	ldr	r3, [r2, #0]
200000e6:	2b00      	cmp	r3, #0
200000e8:	d0fc      	beq.n	200000e4 <mutex_enter_blocking+0x24>
200000ea:	f3bf 8f5f 	dmb	sy
200000ee:	7903      	ldrb	r3, [r0, #4]
200000f0:	2b7f      	cmp	r3, #127	; 0x7f
200000f2:	d9ec      	bls.n	200000ce <mutex_enter_blocking+0xe>
200000f4:	7105      	strb	r5, [r0, #4]
200000f6:	6803      	ldr	r3, [r0, #0]
200000f8:	f3bf 8f5f 	dmb	sy
200000fc:	2200      	movs	r2, #0
200000fe:	601a      	str	r2, [r3, #0]
20000100:	f381 8810 	msr	PRIMASK, r1
20000104:	bd30      	pop	{r4, r5, pc}
20000106:	46c0      	nop			; (mov r8, r8)

20000108 <mutex_try_enter>:
20000108:	0003      	movs	r3, r0
2000010a:	6800      	ldr	r0, [r0, #0]
2000010c:	f3ef 8c10 	mrs	ip, PRIMASK
20000110:	b672      	cpsid	i
20000112:	6802      	ldr	r2, [r0, #0]
20000114:	2a00      	cmp	r2, #0
20000116:	d0fc      	beq.n	20000112 <mutex_try_enter+0xa>
20000118:	f3bf 8f5f 	dmb	sy
2000011c:	2204      	movs	r2, #4
2000011e:	569a      	ldrsb	r2, [r3, r2]
20000120:	2a00      	cmp	r2, #0
20000122:	db0b      	blt.n	2000013c <mutex_try_enter+0x34>
20000124:	2900      	cmp	r1, #0
20000126:	d00f      	beq.n	20000148 <mutex_try_enter+0x40>
20000128:	2000      	movs	r0, #0
2000012a:	600a      	str	r2, [r1, #0]
2000012c:	681b      	ldr	r3, [r3, #0]
2000012e:	f3bf 8f5f 	dmb	sy
20000132:	2200      	movs	r2, #0
20000134:	601a      	str	r2, [r3, #0]
20000136:	f38c 8810 	msr	PRIMASK, ip
2000013a:	4770      	bx	lr
2000013c:	22d0      	movs	r2, #208	; 0xd0
2000013e:	0612      	lsls	r2, r2, #24
20000140:	6812      	ldr	r2, [r2, #0]
20000142:	2001      	movs	r0, #1
20000144:	711a      	strb	r2, [r3, #4]
20000146:	e7f1      	b.n	2000012c <mutex_try_enter+0x24>
20000148:	2000      	movs	r0, #0
2000014a:	e7ef      	b.n	2000012c <mutex_try_enter+0x24>

2000014c <mutex_exit>:
2000014c:	6802      	ldr	r2, [r0, #0]
2000014e:	f3ef 8110 	mrs	r1, PRIMASK
20000152:	b672      	cpsid	i
20000154:	6813      	ldr	r3, [r2, #0]
20000156:	2b00      	cmp	r3, #0
20000158:	d0fc      	beq.n	20000154 <mutex_exit+0x8>
2000015a:	f3bf 8f5f 	dmb	sy
2000015e:	23ff      	movs	r3, #255	; 0xff
20000160:	7103      	strb	r3, [r0, #4]
20000162:	6803      	ldr	r3, [r0, #0]
20000164:	f3bf 8f5f 	dmb	sy
20000168:	2200      	movs	r2, #0
2000016a:	601a      	str	r2, [r3, #0]
2000016c:	f381 8810 	msr	PRIMASK, r1
20000170:	bf40      	sev
20000172:	4770      	bx	lr

20000174 <__aeabi_idiv0>:
20000174:	4770      	bx	lr
20000176:	46c0      	nop			; (mov r8, r8)

20000178 <striped_spin_lock_num>:
20000178:	0010 0000                                   ....

2000017c <default_alarm_pool>:
2000017c:	0194 2000 0000 0000 0230 2000 0568 2000     ... ....0.. h.. 
	...

20000194 <default_alarm_pool_heap>:
20000194:	0578 2000 0000 0000 0000 0000 0010 0000     x.. ............

200001a4 <irq_handler_chain_slots>:
200001a4:	00000000 	.word	0x00000000
200001a8:	00010000 	.word	0x00010000
	...
200001b4:	00020000 	.word	0x00020000
	...
200001c0:	00030000 	.word	0x00030000
	...
200001cc:	00ff0000 	.word	0x00ff0000
200001d0:	00000000 	.word	0x00000000

200001d4 <irq_handler_chain_first_slot>:
200001d4:	b500      	push	{lr}
200001d6:	6848      	ldr	r0, [r1, #4]
200001d8:	3101      	adds	r1, #1
200001da:	468e      	mov	lr, r1
200001dc:	4700      	bx	r0

200001de <irq_handler_chain_remove_tail>:
200001de:	4670      	mov	r0, lr
200001e0:	3809      	subs	r0, #9
200001e2:	4901      	ldr	r1, [pc, #4]	; (200001e8 <irq_handler_chain_remove_tail+0xa>)
200001e4:	4788      	blx	r1
200001e6:	bd00      	pop	{pc}
200001e8:	100013b1 	.word	0x100013b1
200001ec:	00000000 	.word	0x00000000

200001f0 <aeabi_bits_funcs>:
200001f0:	00003350 	.word	0x00003350
200001f4:	0000334c 	.word	0x0000334c
200001f8:	00003354 	.word	0x00003354
200001fc:	00003352 	.word	0x00003352

20000200 <aeabi_bits_funcs_end>:
20000200:	0000534d 	.word	0x0000534d
20000204:	0000434d 	.word	0x0000434d
20000208:	00003453 	.word	0x00003453
2000020c:	00003443 	.word	0x00003443

20000210 <print_mutex>:
	...

20000218 <__mutex_array_end>:
20000218:	100017b1 	.word	0x100017b1
2000021c:	100015a1 	.word	0x100015a1
20000220:	10001661 	.word	0x10001661
20000224:	10001721 	.word	0x10001721

20000228 <__frame_dummy_init_array_entry>:
20000228:	100002ed                                ....
